{
  "_format": "hh-sol-artifact-1",
  "contractName": "ERC1450Upgradeable",
  "sourceName": "contracts/upgradeable/ERC1450Upgradeable.sol",
  "abi": [
    {
      "inputs": [],
      "stateMutability": "nonpayable",
      "type": "constructor"
    },
    {
      "inputs": [
        {
          "internalType": "address",
          "name": "target",
          "type": "address"
        }
      ],
      "name": "AddressEmptyCode",
      "type": "error"
    },
    {
      "inputs": [
        {
          "internalType": "address",
          "name": "from",
          "type": "address"
        },
        {
          "internalType": "address",
          "name": "to",
          "type": "address"
        }
      ],
      "name": "ERC1450ComplianceCheckFailed",
      "type": "error"
    },
    {
      "inputs": [],
      "name": "ERC1450OnlyRTA",
      "type": "error"
    },
    {
      "inputs": [],
      "name": "ERC1450TransferAgentLocked",
      "type": "error"
    },
    {
      "inputs": [],
      "name": "ERC1450TransferDisabled",
      "type": "error"
    },
    {
      "inputs": [
        {
          "internalType": "address",
          "name": "implementation",
          "type": "address"
        }
      ],
      "name": "ERC1967InvalidImplementation",
      "type": "error"
    },
    {
      "inputs": [],
      "name": "ERC1967NonPayable",
      "type": "error"
    },
    {
      "inputs": [
        {
          "internalType": "address",
          "name": "sender",
          "type": "address"
        },
        {
          "internalType": "uint256",
          "name": "balance",
          "type": "uint256"
        },
        {
          "internalType": "uint256",
          "name": "needed",
          "type": "uint256"
        }
      ],
      "name": "ERC20InsufficientBalance",
      "type": "error"
    },
    {
      "inputs": [
        {
          "internalType": "address",
          "name": "receiver",
          "type": "address"
        }
      ],
      "name": "ERC20InvalidReceiver",
      "type": "error"
    },
    {
      "inputs": [
        {
          "internalType": "address",
          "name": "sender",
          "type": "address"
        }
      ],
      "name": "ERC20InvalidSender",
      "type": "error"
    },
    {
      "inputs": [],
      "name": "FailedCall",
      "type": "error"
    },
    {
      "inputs": [],
      "name": "InvalidInitialization",
      "type": "error"
    },
    {
      "inputs": [],
      "name": "NotInitializing",
      "type": "error"
    },
    {
      "inputs": [
        {
          "internalType": "address",
          "name": "owner",
          "type": "address"
        }
      ],
      "name": "OwnableInvalidOwner",
      "type": "error"
    },
    {
      "inputs": [
        {
          "internalType": "address",
          "name": "account",
          "type": "address"
        }
      ],
      "name": "OwnableUnauthorizedAccount",
      "type": "error"
    },
    {
      "inputs": [],
      "name": "ReentrancyGuardReentrantCall",
      "type": "error"
    },
    {
      "inputs": [
        {
          "internalType": "address",
          "name": "token",
          "type": "address"
        }
      ],
      "name": "SafeERC20FailedOperation",
      "type": "error"
    },
    {
      "inputs": [],
      "name": "UUPSUnauthorizedCallContext",
      "type": "error"
    },
    {
      "inputs": [
        {
          "internalType": "bytes32",
          "name": "slot",
          "type": "bytes32"
        }
      ],
      "name": "UUPSUnsupportedProxiableUUID",
      "type": "error"
    },
    {
      "anonymous": false,
      "inputs": [
        {
          "indexed": true,
          "internalType": "address",
          "name": "owner",
          "type": "address"
        },
        {
          "indexed": true,
          "internalType": "address",
          "name": "spender",
          "type": "address"
        },
        {
          "indexed": false,
          "internalType": "uint256",
          "name": "value",
          "type": "uint256"
        }
      ],
      "name": "Approval",
      "type": "event"
    },
    {
      "anonymous": false,
      "inputs": [
        {
          "indexed": true,
          "internalType": "address",
          "name": "broker",
          "type": "address"
        },
        {
          "indexed": false,
          "internalType": "bool",
          "name": "isApproved",
          "type": "bool"
        },
        {
          "indexed": true,
          "internalType": "address",
          "name": "updatedBy",
          "type": "address"
        }
      ],
      "name": "BrokerStatusUpdated",
      "type": "event"
    },
    {
      "anonymous": false,
      "inputs": [
        {
          "indexed": true,
          "internalType": "address",
          "name": "from",
          "type": "address"
        },
        {
          "indexed": true,
          "internalType": "address",
          "name": "to",
          "type": "address"
        },
        {
          "indexed": false,
          "internalType": "uint256",
          "name": "amount",
          "type": "uint256"
        },
        {
          "indexed": false,
          "internalType": "bytes32",
          "name": "documentHash",
          "type": "bytes32"
        },
        {
          "indexed": false,
          "internalType": "uint256",
          "name": "timestamp",
          "type": "uint256"
        }
      ],
      "name": "CourtOrderExecuted",
      "type": "event"
    },
    {
      "anonymous": false,
      "inputs": [
        {
          "indexed": false,
          "internalType": "uint8",
          "name": "feeType",
          "type": "uint8"
        },
        {
          "indexed": false,
          "internalType": "uint256",
          "name": "feeValue",
          "type": "uint256"
        },
        {
          "indexed": false,
          "internalType": "address[]",
          "name": "acceptedTokens",
          "type": "address[]"
        }
      ],
      "name": "FeeParametersUpdated",
      "type": "event"
    },
    {
      "anonymous": false,
      "inputs": [
        {
          "indexed": true,
          "internalType": "address",
          "name": "token",
          "type": "address"
        },
        {
          "indexed": false,
          "internalType": "uint256",
          "name": "amount",
          "type": "uint256"
        },
        {
          "indexed": true,
          "internalType": "address",
          "name": "recipient",
          "type": "address"
        }
      ],
      "name": "FeesWithdrawn",
      "type": "event"
    },
    {
      "anonymous": false,
      "inputs": [
        {
          "indexed": false,
          "internalType": "uint64",
          "name": "version",
          "type": "uint64"
        }
      ],
      "name": "Initialized",
      "type": "event"
    },
    {
      "anonymous": false,
      "inputs": [
        {
          "indexed": true,
          "internalType": "address",
          "name": "previousIssuer",
          "type": "address"
        },
        {
          "indexed": true,
          "internalType": "address",
          "name": "newIssuer",
          "type": "address"
        }
      ],
      "name": "IssuerChanged",
      "type": "event"
    },
    {
      "anonymous": false,
      "inputs": [
        {
          "indexed": true,
          "internalType": "address",
          "name": "previousOwner",
          "type": "address"
        },
        {
          "indexed": true,
          "internalType": "address",
          "name": "newOwner",
          "type": "address"
        }
      ],
      "name": "OwnershipTransferred",
      "type": "event"
    },
    {
      "anonymous": false,
      "inputs": [
        {
          "indexed": true,
          "internalType": "uint256",
          "name": "requestId",
          "type": "uint256"
        },
        {
          "indexed": true,
          "internalType": "enum IERC1450.RequestStatus",
          "name": "oldStatus",
          "type": "uint8"
        },
        {
          "indexed": true,
          "internalType": "enum IERC1450.RequestStatus",
          "name": "newStatus",
          "type": "uint8"
        },
        {
          "indexed": false,
          "internalType": "uint256",
          "name": "timestamp",
          "type": "uint256"
        }
      ],
      "name": "RequestStatusChanged",
      "type": "event"
    },
    {
      "anonymous": false,
      "inputs": [
        {
          "indexed": true,
          "internalType": "address",
          "name": "from",
          "type": "address"
        },
        {
          "indexed": false,
          "internalType": "uint256",
          "name": "amount",
          "type": "uint256"
        },
        {
          "indexed": true,
          "internalType": "uint16",
          "name": "regulationType",
          "type": "uint16"
        },
        {
          "indexed": false,
          "internalType": "uint256",
          "name": "issuanceDate",
          "type": "uint256"
        }
      ],
      "name": "TokensBurned",
      "type": "event"
    },
    {
      "anonymous": false,
      "inputs": [
        {
          "indexed": true,
          "internalType": "address",
          "name": "to",
          "type": "address"
        },
        {
          "indexed": false,
          "internalType": "uint256",
          "name": "amount",
          "type": "uint256"
        },
        {
          "indexed": true,
          "internalType": "uint16",
          "name": "regulationType",
          "type": "uint16"
        },
        {
          "indexed": false,
          "internalType": "uint256",
          "name": "issuanceDate",
          "type": "uint256"
        },
        {
          "indexed": false,
          "internalType": "uint256",
          "name": "tokenizationDate",
          "type": "uint256"
        }
      ],
      "name": "TokensMinted",
      "type": "event"
    },
    {
      "anonymous": false,
      "inputs": [
        {
          "indexed": true,
          "internalType": "address",
          "name": "from",
          "type": "address"
        },
        {
          "indexed": true,
          "internalType": "address",
          "name": "to",
          "type": "address"
        },
        {
          "indexed": false,
          "internalType": "uint256",
          "name": "value",
          "type": "uint256"
        }
      ],
      "name": "Transfer",
      "type": "event"
    },
    {
      "anonymous": false,
      "inputs": [
        {
          "indexed": true,
          "internalType": "address",
          "name": "previousAgent",
          "type": "address"
        },
        {
          "indexed": true,
          "internalType": "address",
          "name": "newAgent",
          "type": "address"
        }
      ],
      "name": "TransferAgentUpdated",
      "type": "event"
    },
    {
      "anonymous": false,
      "inputs": [
        {
          "indexed": true,
          "internalType": "uint256",
          "name": "requestId",
          "type": "uint256"
        },
        {
          "indexed": true,
          "internalType": "address",
          "name": "from",
          "type": "address"
        },
        {
          "indexed": true,
          "internalType": "address",
          "name": "to",
          "type": "address"
        },
        {
          "indexed": false,
          "internalType": "uint256",
          "name": "amount",
          "type": "uint256"
        }
      ],
      "name": "TransferExecuted",
      "type": "event"
    },
    {
      "anonymous": false,
      "inputs": [
        {
          "indexed": true,
          "internalType": "uint256",
          "name": "requestId",
          "type": "uint256"
        },
        {
          "indexed": false,
          "internalType": "uint256",
          "name": "expiredAt",
          "type": "uint256"
        }
      ],
      "name": "TransferExpired",
      "type": "event"
    },
    {
      "anonymous": false,
      "inputs": [
        {
          "indexed": true,
          "internalType": "uint256",
          "name": "requestId",
          "type": "uint256"
        },
        {
          "indexed": false,
          "internalType": "uint16",
          "name": "reasonCode",
          "type": "uint16"
        },
        {
          "indexed": false,
          "internalType": "bool",
          "name": "feeRefunded",
          "type": "bool"
        }
      ],
      "name": "TransferRejected",
      "type": "event"
    },
    {
      "anonymous": false,
      "inputs": [
        {
          "indexed": true,
          "internalType": "uint256",
          "name": "requestId",
          "type": "uint256"
        },
        {
          "indexed": true,
          "internalType": "address",
          "name": "from",
          "type": "address"
        },
        {
          "indexed": true,
          "internalType": "address",
          "name": "to",
          "type": "address"
        },
        {
          "indexed": false,
          "internalType": "uint256",
          "name": "amount",
          "type": "uint256"
        },
        {
          "indexed": false,
          "internalType": "uint256",
          "name": "feePaid",
          "type": "uint256"
        },
        {
          "indexed": false,
          "internalType": "address",
          "name": "requestedBy",
          "type": "address"
        }
      ],
      "name": "TransferRequested",
      "type": "event"
    },
    {
      "anonymous": false,
      "inputs": [
        {
          "indexed": true,
          "internalType": "address",
          "name": "implementation",
          "type": "address"
        }
      ],
      "name": "Upgraded",
      "type": "event"
    },
    {
      "inputs": [],
      "name": "UPGRADE_INTERFACE_VERSION",
      "outputs": [
        {
          "internalType": "string",
          "name": "",
          "type": "string"
        }
      ],
      "stateMutability": "view",
      "type": "function"
    },
    {
      "inputs": [
        {
          "internalType": "uint256",
          "name": "",
          "type": "uint256"
        }
      ],
      "name": "acceptedFeeTokens",
      "outputs": [
        {
          "internalType": "address",
          "name": "",
          "type": "address"
        }
      ],
      "stateMutability": "view",
      "type": "function"
    },
    {
      "inputs": [
        {
          "internalType": "address",
          "name": "",
          "type": "address"
        },
        {
          "internalType": "address",
          "name": "",
          "type": "address"
        }
      ],
      "name": "allowance",
      "outputs": [
        {
          "internalType": "uint256",
          "name": "",
          "type": "uint256"
        }
      ],
      "stateMutability": "pure",
      "type": "function"
    },
    {
      "inputs": [
        {
          "internalType": "address",
          "name": "",
          "type": "address"
        },
        {
          "internalType": "uint256",
          "name": "",
          "type": "uint256"
        }
      ],
      "name": "approve",
      "outputs": [
        {
          "internalType": "bool",
          "name": "",
          "type": "bool"
        }
      ],
      "stateMutability": "pure",
      "type": "function"
    },
    {
      "inputs": [
        {
          "internalType": "address",
          "name": "",
          "type": "address"
        }
      ],
      "name": "approvedBrokers",
      "outputs": [
        {
          "internalType": "bool",
          "name": "",
          "type": "bool"
        }
      ],
      "stateMutability": "view",
      "type": "function"
    },
    {
      "inputs": [
        {
          "internalType": "address",
          "name": "account",
          "type": "address"
        }
      ],
      "name": "balanceOf",
      "outputs": [
        {
          "internalType": "uint256",
          "name": "",
          "type": "uint256"
        }
      ],
      "stateMutability": "view",
      "type": "function"
    },
    {
      "inputs": [
        {
          "internalType": "address",
          "name": "from",
          "type": "address"
        },
        {
          "internalType": "uint256",
          "name": "amount",
          "type": "uint256"
        }
      ],
      "name": "burnFrom",
      "outputs": [
        {
          "internalType": "bool",
          "name": "",
          "type": "bool"
        }
      ],
      "stateMutability": "nonpayable",
      "type": "function"
    },
    {
      "inputs": [
        {
          "internalType": "address",
          "name": "from",
          "type": "address"
        },
        {
          "internalType": "uint256",
          "name": "amount",
          "type": "uint256"
        },
        {
          "internalType": "uint16",
          "name": "regulationType",
          "type": "uint16"
        }
      ],
      "name": "burnFromRegulation",
      "outputs": [
        {
          "internalType": "bool",
          "name": "",
          "type": "bool"
        }
      ],
      "stateMutability": "nonpayable",
      "type": "function"
    },
    {
      "inputs": [
        {
          "internalType": "address",
          "name": "newIssuer",
          "type": "address"
        }
      ],
      "name": "changeIssuer",
      "outputs": [],
      "stateMutability": "nonpayable",
      "type": "function"
    },
    {
      "inputs": [
        {
          "internalType": "address",
          "name": "",
          "type": "address"
        }
      ],
      "name": "collectedFees",
      "outputs": [
        {
          "internalType": "uint256",
          "name": "",
          "type": "uint256"
        }
      ],
      "stateMutability": "view",
      "type": "function"
    },
    {
      "inputs": [],
      "name": "decimals",
      "outputs": [
        {
          "internalType": "uint8",
          "name": "",
          "type": "uint8"
        }
      ],
      "stateMutability": "view",
      "type": "function"
    },
    {
      "inputs": [
        {
          "internalType": "address",
          "name": "from",
          "type": "address"
        },
        {
          "internalType": "address",
          "name": "to",
          "type": "address"
        },
        {
          "internalType": "uint256",
          "name": "amount",
          "type": "uint256"
        },
        {
          "internalType": "bytes32",
          "name": "documentHash",
          "type": "bytes32"
        }
      ],
      "name": "executeCourtOrder",
      "outputs": [],
      "stateMutability": "nonpayable",
      "type": "function"
    },
    {
      "inputs": [],
      "name": "feeType",
      "outputs": [
        {
          "internalType": "uint8",
          "name": "",
          "type": "uint8"
        }
      ],
      "stateMutability": "view",
      "type": "function"
    },
    {
      "inputs": [],
      "name": "feeValue",
      "outputs": [
        {
          "internalType": "uint256",
          "name": "",
          "type": "uint256"
        }
      ],
      "stateMutability": "view",
      "type": "function"
    },
    {
      "inputs": [
        {
          "internalType": "address",
          "name": "",
          "type": "address"
        }
      ],
      "name": "frozenAccounts",
      "outputs": [
        {
          "internalType": "bool",
          "name": "",
          "type": "bool"
        }
      ],
      "stateMutability": "view",
      "type": "function"
    },
    {
      "inputs": [],
      "name": "getAcceptedFeeTokens",
      "outputs": [
        {
          "internalType": "address[]",
          "name": "",
          "type": "address[]"
        }
      ],
      "stateMutability": "view",
      "type": "function"
    },
    {
      "inputs": [
        {
          "internalType": "address",
          "name": "holder",
          "type": "address"
        }
      ],
      "name": "getHolderRegulations",
      "outputs": [
        {
          "internalType": "uint16[]",
          "name": "regulationTypes",
          "type": "uint16[]"
        },
        {
          "internalType": "uint256[]",
          "name": "amounts",
          "type": "uint256[]"
        },
        {
          "internalType": "uint256[]",
          "name": "issuanceDates",
          "type": "uint256[]"
        }
      ],
      "stateMutability": "view",
      "type": "function"
    },
    {
      "inputs": [
        {
          "internalType": "uint16",
          "name": "regulationType",
          "type": "uint16"
        }
      ],
      "name": "getRegulationSupply",
      "outputs": [
        {
          "internalType": "uint256",
          "name": "",
          "type": "uint256"
        }
      ],
      "stateMutability": "view",
      "type": "function"
    },
    {
      "inputs": [
        {
          "internalType": "address",
          "name": "",
          "type": "address"
        },
        {
          "internalType": "address",
          "name": "",
          "type": "address"
        },
        {
          "internalType": "uint256",
          "name": "amount",
          "type": "uint256"
        },
        {
          "internalType": "address",
          "name": "feeToken",
          "type": "address"
        }
      ],
      "name": "getTransferFee",
      "outputs": [
        {
          "internalType": "uint256",
          "name": "feeAmount",
          "type": "uint256"
        }
      ],
      "stateMutability": "view",
      "type": "function"
    },
    {
      "inputs": [
        {
          "internalType": "string",
          "name": "name_",
          "type": "string"
        },
        {
          "internalType": "string",
          "name": "symbol_",
          "type": "string"
        },
        {
          "internalType": "uint8",
          "name": "decimals_",
          "type": "uint8"
        },
        {
          "internalType": "address",
          "name": "initialOwner",
          "type": "address"
        },
        {
          "internalType": "address",
          "name": "initialTransferAgent",
          "type": "address"
        }
      ],
      "name": "initialize",
      "outputs": [],
      "stateMutability": "nonpayable",
      "type": "function"
    },
    {
      "inputs": [
        {
          "internalType": "address",
          "name": "account",
          "type": "address"
        }
      ],
      "name": "isAccountFrozen",
      "outputs": [
        {
          "internalType": "bool",
          "name": "",
          "type": "bool"
        }
      ],
      "stateMutability": "view",
      "type": "function"
    },
    {
      "inputs": [
        {
          "internalType": "address",
          "name": "broker",
          "type": "address"
        }
      ],
      "name": "isBroker",
      "outputs": [
        {
          "internalType": "bool",
          "name": "",
          "type": "bool"
        }
      ],
      "stateMutability": "view",
      "type": "function"
    },
    {
      "inputs": [],
      "name": "isSecurityToken",
      "outputs": [
        {
          "internalType": "bool",
          "name": "",
          "type": "bool"
        }
      ],
      "stateMutability": "pure",
      "type": "function"
    },
    {
      "inputs": [
        {
          "internalType": "address",
          "name": "addr",
          "type": "address"
        }
      ],
      "name": "isTransferAgent",
      "outputs": [
        {
          "internalType": "bool",
          "name": "",
          "type": "bool"
        }
      ],
      "stateMutability": "view",
      "type": "function"
    },
    {
      "inputs": [
        {
          "internalType": "address",
          "name": "to",
          "type": "address"
        },
        {
          "internalType": "uint256",
          "name": "amount",
          "type": "uint256"
        },
        {
          "internalType": "uint16",
          "name": "regulationType",
          "type": "uint16"
        },
        {
          "internalType": "uint256",
          "name": "issuanceDate",
          "type": "uint256"
        }
      ],
      "name": "mint",
      "outputs": [
        {
          "internalType": "bool",
          "name": "",
          "type": "bool"
        }
      ],
      "stateMutability": "nonpayable",
      "type": "function"
    },
    {
      "inputs": [],
      "name": "name",
      "outputs": [
        {
          "internalType": "string",
          "name": "",
          "type": "string"
        }
      ],
      "stateMutability": "view",
      "type": "function"
    },
    {
      "inputs": [],
      "name": "owner",
      "outputs": [
        {
          "internalType": "address",
          "name": "",
          "type": "address"
        }
      ],
      "stateMutability": "view",
      "type": "function"
    },
    {
      "inputs": [
        {
          "internalType": "uint256",
          "name": "requestId",
          "type": "uint256"
        }
      ],
      "name": "processTransferRequest",
      "outputs": [],
      "stateMutability": "nonpayable",
      "type": "function"
    },
    {
      "inputs": [],
      "name": "proxiableUUID",
      "outputs": [
        {
          "internalType": "bytes32",
          "name": "",
          "type": "bytes32"
        }
      ],
      "stateMutability": "view",
      "type": "function"
    },
    {
      "inputs": [
        {
          "internalType": "address",
          "name": "token",
          "type": "address"
        },
        {
          "internalType": "uint256",
          "name": "amount",
          "type": "uint256"
        }
      ],
      "name": "recoverToken",
      "outputs": [],
      "stateMutability": "nonpayable",
      "type": "function"
    },
    {
      "inputs": [
        {
          "internalType": "uint256",
          "name": "requestId",
          "type": "uint256"
        },
        {
          "internalType": "uint16",
          "name": "reasonCode",
          "type": "uint16"
        },
        {
          "internalType": "bool",
          "name": "refundFee",
          "type": "bool"
        }
      ],
      "name": "rejectTransferRequest",
      "outputs": [],
      "stateMutability": "nonpayable",
      "type": "function"
    },
    {
      "inputs": [],
      "name": "renounceOwnership",
      "outputs": [],
      "stateMutability": "nonpayable",
      "type": "function"
    },
    {
      "inputs": [
        {
          "internalType": "address",
          "name": "from",
          "type": "address"
        },
        {
          "internalType": "address",
          "name": "to",
          "type": "address"
        },
        {
          "internalType": "uint256",
          "name": "amount",
          "type": "uint256"
        },
        {
          "internalType": "address",
          "name": "feeToken",
          "type": "address"
        },
        {
          "internalType": "uint256",
          "name": "feeAmount",
          "type": "uint256"
        }
      ],
      "name": "requestTransferWithFee",
      "outputs": [
        {
          "internalType": "uint256",
          "name": "requestId",
          "type": "uint256"
        }
      ],
      "stateMutability": "payable",
      "type": "function"
    },
    {
      "inputs": [
        {
          "internalType": "address",
          "name": "account",
          "type": "address"
        },
        {
          "internalType": "bool",
          "name": "frozen",
          "type": "bool"
        }
      ],
      "name": "setAccountFrozen",
      "outputs": [],
      "stateMutability": "nonpayable",
      "type": "function"
    },
    {
      "inputs": [
        {
          "internalType": "address",
          "name": "broker",
          "type": "address"
        },
        {
          "internalType": "bool",
          "name": "approved",
          "type": "bool"
        }
      ],
      "name": "setBrokerStatus",
      "outputs": [],
      "stateMutability": "nonpayable",
      "type": "function"
    },
    {
      "inputs": [
        {
          "internalType": "uint8",
          "name": "newFeeType",
          "type": "uint8"
        },
        {
          "internalType": "uint256",
          "name": "newFeeValue",
          "type": "uint256"
        },
        {
          "internalType": "address[]",
          "name": "newAcceptedTokens",
          "type": "address[]"
        }
      ],
      "name": "setFeeParameters",
      "outputs": [],
      "stateMutability": "nonpayable",
      "type": "function"
    },
    {
      "inputs": [
        {
          "internalType": "address",
          "name": "newTransferAgent",
          "type": "address"
        }
      ],
      "name": "setTransferAgent",
      "outputs": [],
      "stateMutability": "nonpayable",
      "type": "function"
    },
    {
      "inputs": [
        {
          "internalType": "bytes4",
          "name": "interfaceId",
          "type": "bytes4"
        }
      ],
      "name": "supportsInterface",
      "outputs": [
        {
          "internalType": "bool",
          "name": "",
          "type": "bool"
        }
      ],
      "stateMutability": "view",
      "type": "function"
    },
    {
      "inputs": [],
      "name": "symbol",
      "outputs": [
        {
          "internalType": "string",
          "name": "",
          "type": "string"
        }
      ],
      "stateMutability": "view",
      "type": "function"
    },
    {
      "inputs": [],
      "name": "totalSupply",
      "outputs": [
        {
          "internalType": "uint256",
          "name": "",
          "type": "uint256"
        }
      ],
      "stateMutability": "view",
      "type": "function"
    },
    {
      "inputs": [
        {
          "internalType": "address",
          "name": "",
          "type": "address"
        },
        {
          "internalType": "uint256",
          "name": "",
          "type": "uint256"
        }
      ],
      "name": "transfer",
      "outputs": [
        {
          "internalType": "bool",
          "name": "",
          "type": "bool"
        }
      ],
      "stateMutability": "pure",
      "type": "function"
    },
    {
      "inputs": [
        {
          "internalType": "address",
          "name": "from",
          "type": "address"
        },
        {
          "internalType": "address",
          "name": "to",
          "type": "address"
        },
        {
          "internalType": "uint256",
          "name": "amount",
          "type": "uint256"
        }
      ],
      "name": "transferFrom",
      "outputs": [
        {
          "internalType": "bool",
          "name": "",
          "type": "bool"
        }
      ],
      "stateMutability": "nonpayable",
      "type": "function"
    },
    {
      "inputs": [
        {
          "internalType": "address",
          "name": "newOwner",
          "type": "address"
        }
      ],
      "name": "transferOwnership",
      "outputs": [],
      "stateMutability": "nonpayable",
      "type": "function"
    },
    {
      "inputs": [
        {
          "internalType": "uint256",
          "name": "",
          "type": "uint256"
        }
      ],
      "name": "transferRequests",
      "outputs": [
        {
          "internalType": "address",
          "name": "from",
          "type": "address"
        },
        {
          "internalType": "address",
          "name": "to",
          "type": "address"
        },
        {
          "internalType": "uint256",
          "name": "amount",
          "type": "uint256"
        },
        {
          "internalType": "address",
          "name": "requestedBy",
          "type": "address"
        },
        {
          "internalType": "uint256",
          "name": "feePaid",
          "type": "uint256"
        },
        {
          "internalType": "address",
          "name": "feeToken",
          "type": "address"
        },
        {
          "internalType": "enum IERC1450.RequestStatus",
          "name": "status",
          "type": "uint8"
        },
        {
          "internalType": "uint256",
          "name": "timestamp",
          "type": "uint256"
        }
      ],
      "stateMutability": "view",
      "type": "function"
    },
    {
      "inputs": [
        {
          "internalType": "uint256",
          "name": "requestId",
          "type": "uint256"
        },
        {
          "internalType": "enum IERC1450.RequestStatus",
          "name": "newStatus",
          "type": "uint8"
        }
      ],
      "name": "updateRequestStatus",
      "outputs": [],
      "stateMutability": "nonpayable",
      "type": "function"
    },
    {
      "inputs": [
        {
          "internalType": "address",
          "name": "newImplementation",
          "type": "address"
        },
        {
          "internalType": "bytes",
          "name": "data",
          "type": "bytes"
        }
      ],
      "name": "upgradeToAndCall",
      "outputs": [],
      "stateMutability": "payable",
      "type": "function"
    },
    {
      "inputs": [],
      "name": "version",
      "outputs": [
        {
          "internalType": "string",
          "name": "",
          "type": "string"
        }
      ],
      "stateMutability": "pure",
      "type": "function"
    },
    {
      "inputs": [
        {
          "internalType": "address",
          "name": "token",
          "type": "address"
        },
        {
          "internalType": "uint256",
          "name": "amount",
          "type": "uint256"
        },
        {
          "internalType": "address",
          "name": "recipient",
          "type": "address"
        }
      ],
      "name": "withdrawFees",
      "outputs": [],
      "stateMutability": "nonpayable",
      "type": "function"
    },
    {
      "stateMutability": "payable",
      "type": "receive"
    }
  ],
  "bytecode": "0x60a06040523060805234801561001457600080fd5b5061001d610022565b6100d4565b7ff0c57e16840df040f15088dc2f81fe391c3923bec73e23a9662efc9c229c6a00805468010000000000000000900460ff16156100725760405163f92ee8a960e01b815260040160405180910390fd5b80546001600160401b03908116146100d15780546001600160401b0319166001600160401b0390811782556040519081527fc7f505b2f371ae2175ee4913f4499e1f2633a7b5936321eed1cdaeb6115181d29060200160405180910390a15b50565b608051613d666100fd6000396000818161291b015281816129440152612aa80152613d666000f3fe6080604052600436106102975760003560e01c80637e8931591161015a578063b29a8140116100c1578063d1132dd61161007a578063d1132dd6146108ae578063dd62ed3e146108c2578063e816d97f146108e5578063f2fde38b1461091e578063fb8dc1791461093e578063fb99b86d1461095857600080fd5b8063b29a8140146107ea578063b860438e1461080a578063c820f1461461082a578063c946a4071461084a578063c9593eb51461087b578063cbe5404f1461088e57600080fd5b80639ba372c2116101135780639ba372c2146107335780639dd80039146107535780639fddaa9314610783578063a5440bfc14610799578063a9059cbb14610382578063ad3cb1cc146107b957600080fd5b80637e89315914610679578063860838a514610699578063886fa3cf146106c95780638c6a244c146106e95780638da5cb5b1461070957806395d89b411461071e57600080fd5b80633ec6ef44116101fe5780635923e87d116101b75780635923e87d1461059f578063654c1918146105bf57806370a08231146105ee578063715018a61461062457806379cc6790146106395780637e57c57d1461065957600080fd5b80633ec6ef44146104e75780634f1ef2861461050957806352d1902d1461051c57806354fd4d50146105315780635547f83f1461055f578063580ab6971461057f57600080fd5b806322b31d9f1161025057806322b31d9f146103ee57806323b872dd146104275780632ae98fb214610447578063313ce56714610467578063361c12911461048d5780633b3e2645146104c557600080fd5b806301ffc9a7146102a357806303486c40146102d857806306fdde0314610360578063095ea7b31461038257806318160ddd146103a25780631cead9a7146103c157600080fd5b3661029e57005b600080fd5b3480156102af57600080fd5b506102c36102be3660046132cb565b610987565b60405190151581526020015b60405180910390f35b3480156102e457600080fd5b5061034c6102f33660046132f5565b60076020526000908152604090208054600182015460028301546003840154600485015460058601546006909601546001600160a01b039586169694861695939492841693919291821691600160a01b900460ff169088565b6040516102cf989796959493929190613324565b34801561036c57600080fd5b506103756109f4565b6040516102cf91906133b3565b34801561038e57600080fd5b506102c361039d366004613402565b610a86565b3480156103ae57600080fd5b506004545b6040519081526020016102cf565b3480156103cd57600080fd5b506103b36103dc36600461342c565b600b6020526000908152604090205481565b3480156103fa57600080fd5b506102c361040936600461342c565b6001600160a01b03166000908152600c602052604090205460ff1690565b34801561043357600080fd5b506102c3610442366004613447565b610aa1565b34801561045357600080fd5b506103b3610462366004613484565b610b92565b34801561047357600080fd5b5060025460ff165b60405160ff90911681526020016102cf565b34801561049957600080fd5b506104ad6104a83660046132f5565b610bfb565b6040516001600160a01b0390911681526020016102cf565b3480156104d157600080fd5b506104da610c25565b6040516102cf91906134d1565b3480156104f357600080fd5b5061050761050236600461353f565b610c86565b005b610507610517366004613609565b610ddc565b34801561052857600080fd5b506103b3610dfb565b34801561053d57600080fd5b506040805180820190915260058152640312e302e360dc1b6020820152610375565b34801561056b57600080fd5b506102c361057a36600461366a565b610e18565b34801561058b57600080fd5b5061050761059a3660046136bf565b611019565b3480156105ab57600080fd5b506105076105ba36600461374a565b6110a8565b3480156105cb57600080fd5b506105df6105da36600461342c565b6110dd565b6040516102cf939291906137ba565b3480156105fa57600080fd5b506103b361060936600461342c565b6001600160a01b031660009081526003602052604090205490565b34801561063057600080fd5b506105076113a6565b34801561064557600080fd5b506102c3610654366004613402565b6113ba565b34801561066557600080fd5b5061050761067436600461382b565b6114af565b34801561068557600080fd5b5061050761069436600461342c565b61153c565b3480156106a557600080fd5b506102c36106b436600461342c565b600d6020526000908152604090205460ff1681565b3480156106d557600080fd5b506105076106e43660046132f5565b6115ea565b3480156106f557600080fd5b5061050761070436600461342c565b61177f565b34801561071557600080fd5b506104ad611916565b34801561072a57600080fd5b50610375611944565b34801561073f57600080fd5b5061050761074e36600461385e565b611953565b34801561075f57600080fd5b506102c361076e36600461342c565b600c6020526000908152604090205460ff1681565b34801561078f57600080fd5b506103b360095481565b3480156107a557600080fd5b506105076107b4366004613891565b611b08565b3480156107c557600080fd5b50610375604051806040016040528060058152602001640352e302e360dc1b81525081565b3480156107f657600080fd5b50610507610805366004613402565b611ba4565b34801561081657600080fd5b506102c36108253660046138d3565b611c5f565b34801561083657600080fd5b50610507610845366004613926565b611fa2565b34801561085657600080fd5b506103b36108653660046139bf565b61ffff166000908152600f602052604090205490565b6103b36108893660046139da565b6121a6565b34801561089a57600080fd5b506105076108a936600461382b565b6124be565b3480156108ba57600080fd5b5060016102c3565b3480156108ce57600080fd5b506103b36108dd366004613a2f565b600092915050565b3480156108f157600080fd5b506102c361090036600461342c565b6001600160a01b03166000908152600d602052604090205460ff1690565b34801561092a57600080fd5b5061050761093936600461342c565b612514565b34801561094a57600080fd5b5060085461047b9060ff1681565b34801561096457600080fd5b506102c361097336600461342c565b6005546001600160a01b0391821691161490565b600063578baef760e11b6001600160e01b0319831614806109b857506001600160e01b031982166336372b0760e01b145b806109d357506001600160e01b0319821663a219a02560e01b145b806109ee57506301ffc9a760e01b6001600160e01b03198316145b92915050565b606060008054610a0390613a59565b80601f0160208091040260200160405190810160405280929190818152602001828054610a2f90613a59565b8015610a7c5780601f10610a5157610100808354040283529160200191610a7c565b820191906000526020600020905b815481529060010190602001808311610a5f57829003601f168201915b5050505050905090565b600060405163c27fd50560e01b815260040160405180910390fd5b6005546000906001600160a01b03163314610acf57604051634b05ae8560e11b815260040160405180910390fd5b6001600160a01b0384166000908152600d6020526040902054849060ff1615610b22576040516307a93df560e11b81526001600160a01b0382166004820152600060248201526044015b60405180910390fd5b6001600160a01b0384166000908152600d6020526040902054849060ff1615610b70576040516307a93df560e11b81526001600160a01b038216600482015260006024820152604401610b19565b610b7b868686612552565b610b86868686612634565b50600195945050505050565b6000610b9d826127ab565b610ba957506000610bf3565b60085460ff16600003610bbf5750600954610bf3565b60085460ff16600103610bee5761271060095484610bdd9190613aa9565b610be79190613ac0565b9050610bf3565b506009545b949350505050565b600a8181548110610c0b57600080fd5b6000918252602090912001546001600160a01b0316905081565b6060600a805480602002602001604051908101604052809291908181526020018280548015610a7c57602002820191906000526020600020905b81546001600160a01b03168152600190910190602001808311610c5f575050505050905090565b6005546001600160a01b03163314610cb157604051634b05ae8560e11b815260040160405180910390fd5b6000838152600760205260409020610cca84600361280a565b818015610cdb575060008160040154115b15610d965760058101546001600160a01b0316610d3857600381015460048201546040516001600160a01b039092169181156108fc0291906000818181858888f19350505050158015610d32573d6000803e3d6000fd5b50610d5f565b600381015460048201546005830154610d5f926001600160a01b03918216929116906128b1565b600481015460058201546001600160a01b03166000908152600b602052604081208054909190610d90908490613ae2565b90915550505b6040805161ffff85168152831515602082015285917ff7061e20a57003952a3a98be55c537d9c3d732e2634c64a2ecac946e8e1c939f910160405180910390a250505050565b610de4612910565b610ded826129b5565b610df782826129e0565b5050565b6000610e05612a9d565b50600080516020613cf183398151915290565b6005546000906001600160a01b03163314610e4657604051634b05ae8560e11b815260040160405180910390fd5b6001600160a01b038516610e705760405163ec442f0560e01b815260006004820152602401610b19565b8261ffff16600003610ec45760405162461bcd60e51b815260206004820181905260248201527f455243313435303a20496e76616c696420726567756c6174696f6e20747970656044820152606401610b19565b42821115610f265760405162461bcd60e51b815260206004820152602960248201527f455243313435303a204675747572652069737375616e63652064617465206e6f6044820152681d08185b1b1bddd95960ba1b6064820152608401610b19565b8360046000828254610f389190613af5565b90915550506001600160a01b0385166000908152600360205260409020805485019055610f6785858585612ae6565b61ffff83166000908152600f602052604081208054869290610f8a908490613af5565b90915550506040518481526001600160a01b03861690600090600080516020613d118339815191529060200160405180910390a360408051858152602081018490524281830152905161ffff8516916001600160a01b038816917fd7a03727fcad9fd7ec89ae4d2f858630c6af554ff70236b834cc92430a2e43c19181900360600190a3506001949350505050565b6005546001600160a01b0316331461104457604051634b05ae8560e11b815260040160405180910390fd5b6008805460ff191660ff86161790556009839055611064600a8383613253565b507f9950293518fa753941262ebbf10fa155a48d4e9c32101858c0c8d576abac9d0b8484848460405161109a9493929190613b08565b60405180910390a150505050565b6005546001600160a01b031633146110d357604051634b05ae8560e11b815260040160405180910390fd5b610df7828261280a565b60608060606000600e6000866001600160a01b03166001600160a01b03168152602001908152602001600020805480602002602001604051908101604052809291908181526020016000905b8282101561117957600084815260209081902060408051606081018252600386029092018054835260018082015461ffff1684860152600290910154918301919091529083529092019101611129565b5050505090506000805b82518110156111c85760008382815181106111a0576111a0613b66565b60200260200101516000015111156111c057816111bc81613b7c565b9250505b600101611183565b50806001600160401b038111156111e1576111e161357b565b60405190808252806020026020018201604052801561120a578160200160208202803683370190505b509450806001600160401b038111156112255761122561357b565b60405190808252806020026020018201604052801561124e578160200160208202803683370190505b509350806001600160401b038111156112695761126961357b565b604051908082528060200260200182016040528015611292578160200160208202803683370190505b5092506000805b835181101561139b5760008482815181106112b6576112b6613b66565b6020026020010151600001511115611393578381815181106112da576112da613b66565b6020026020010151602001518783815181106112f8576112f8613b66565b602002602001019061ffff16908161ffff168152505083818151811061132057611320613b66565b60200260200101516000015186838151811061133e5761133e613b66565b60200260200101818152505083818151811061135c5761135c613b66565b60200260200101516040015185838151811061137a5761137a613b66565b60209081029190910101528161138f81613b7c565b9250505b600101611299565b505050509193909250565b6113ae612c19565b6113b86000612c4b565b565b6005546000906001600160a01b031633146113e857604051634b05ae8560e11b815260040160405180910390fd5b6001600160a01b03831661141257604051634b637e8f60e11b815260006004820152602401610b19565b6001600160a01b038316600090815260036020526040902054828110156114525783818460405163391434e360e21b8152600401610b1993929190613b95565b61145c8484612cbc565b6001600160a01b0384166000818152600360209081526040808320878603905560048054889003905551868152919291600080516020613d11833981519152910160405180910390a35060019392505050565b6005546001600160a01b031633146114da57604051634b05ae8560e11b815260040160405180910390fd5b6001600160a01b0382166000818152600c6020908152604091829020805460ff191685151590811790915591519182523392917f6eeca9bd01d51a74626e1dba78769450e56fe3f29dee5b0f3aee086d5f5ceaaf910160405180910390a35050565b6005546001600160a01b0316331461156757604051634b05ae8560e11b815260040160405180910390fd5b6001600160a01b03811661159157604051631e4fbdf760e01b815260006004820152602401610b19565b600061159b611916565b90506115a682612c4b565b816001600160a01b0316816001600160a01b03167faf014c0f1e2d7c810cfe4f4ec7c675b9dbd7ad5fd0b058fe94776a447d6f333760405160405180910390a35050565b6005546001600160a01b0316331461161557604051634b05ae8560e11b815260040160405180910390fd5b60008181526007602052604090206004600582810154600160a01b900460ff16908111156116455761164561330e565b1415801561167357506003600582810154600160a01b900460ff16908111156116705761167061330e565b14155b6116ca5760405162461bcd60e51b815260206004820152602260248201527f455243313435303a205265717565737420616c72656164792066696e616c697a604482015261195960f21b6064820152608401610b19565b6002600582810154600160a01b900460ff16908111156116ec576116ec61330e565b146116fc576116fc82600261280a565b80546001820154600283015461171f926001600160a01b03908116921690612552565b61172a82600461280a565b6001810154815460028301546040519081526001600160a01b03928316929091169084907feb669e0a01fff40cbe45de851f42334fe70673136abfd91399651b7ae199a07b9060200160405180910390a45050565b6001600160a01b0381166117d55760405162461bcd60e51b815260206004820152601f60248201527f455243313435303a20496e76616c6964207472616e73666572206167656e74006044820152606401610b19565b600554600160a01b900460ff161561180057604051632b3cc4e160e21b815260040160405180910390fd5b6005546001600160a01b03161580159061182557506005546001600160a01b03163314155b1561184357604051634b05ae8560e11b815260040160405180910390fd5b61184b611916565b6001600160a01b0316336001600160a01b03161415801561187757506005546001600160a01b03163314155b156118975760405163118cdaa760e01b8152336004820152602401610b19565b600580546001600160a01b038381166001600160a01b03198316811790935516903b156118d2576005805460ff60a01b1916600160a01b1790555b816001600160a01b0316816001600160a01b03167f35e89afcbe61fb77843ff4fb292fdc4b00f10009912cacbb48c537c93c84eccb60405160405180910390a35050565b7f9016d09d72d40fdae2fd8ceac6b6234c7706214fd39c1cd1e609a0528c199300546001600160a01b031690565b606060018054610a0390613a59565b6005546001600160a01b0316331461197e57604051634b05ae8560e11b815260040160405180910390fd5b6001600160a01b0381166119d45760405162461bcd60e51b815260206004820152601a60248201527f455243313435303a20496e76616c696420726563697069656e740000000000006044820152606401610b19565b6001600160a01b0383166000908152600b6020526040902054821115611a2b576001600160a01b0383166000908152600b60205260409081902054905163391434e360e21b8152610b199130918590600401613b95565b6001600160a01b0383166000908152600b602052604081208054849290611a53908490613ae2565b90915550506001600160a01b038316611aa2576040516001600160a01b0382169083156108fc029084906000818181858888f19350505050158015611a9c573d6000803e3d6000fd5b50611ab6565b611ab66001600160a01b03841682846128b1565b806001600160a01b0316836001600160a01b03167f87044da2612407bc001bb0985725dcc651a0dc71eaabfd1d7e8617ca85a8c19c84604051611afb91815260200190565b60405180910390a3505050565b6005546001600160a01b03163314611b3357604051634b05ae8560e11b815260040160405180910390fd5b611b3e848484612552565b826001600160a01b0316846001600160a01b03167f79d934d1fea524bb1baacd60b5b9b94a3b948a19d8d762726f7ecbe400308f15848442604051611b96939291909283526020830191909152604082015260600190565b60405180910390a350505050565b6005546001600160a01b03163314611bcf57604051634b05ae8560e11b815260040160405180910390fd5b306001600160a01b03831603611bf857604051634b05ae8560e11b815260040160405180910390fd5b6001600160a01b038216611c45576005546040516001600160a01b039091169082156108fc029083906000818181858888f19350505050158015611c40573d6000803e3d6000fd5b505050565b600554610df7906001600160a01b038481169116836128b1565b6005546000906001600160a01b03163314611c8d57604051634b05ae8560e11b815260040160405180910390fd5b6001600160a01b038416611cb757604051634b637e8f60e11b815260006004820152602401610b19565b6001600160a01b03841660009081526003602052604090205483811015611cf75784818560405163391434e360e21b8152600401610b1993929190613b95565b6001600160a01b0385166000908152600e6020526040812085915b815481108015611d225750600083115b15611ede578561ffff16828281548110611d3e57611d3e613b66565b600091825260209091206001600390920201015461ffff16148015611d8657506000828281548110611d7257611d72613b66565b906000526020600020906003020160000154115b15611ecc57600083838381548110611da057611da0613b66565b90600052602060002090600302016000015411611de057828281548110611dc957611dc9613b66565b906000526020600020906003020160000154611de2565b835b905080838381548110611df757611df7613b66565b90600052602060002090600302016000016000828254611e179190613ae2565b90915550611e2790508185613ae2565b61ffff88166000908152600f6020526040812080549296508392909190611e4f908490613ae2565b925050819055508661ffff16896001600160a01b03167f3e12e887d427175142a28b9b6c2740bc2da6904e3c9f86a2aea2a2cc53bb95b783868681548110611e9957611e99613b66565b906000526020600020906003020160020154604051611ec2929190918252602082015260400190565b60405180910390a3505b80611ed681613b7c565b915050611d12565b508115611f4a5760405162461bcd60e51b815260206004820152603460248201527f455243313435303a20496e73756666696369656e7420746f6b656e73206f662060448201527339b832b1b4b334b2b2103932b3bab630ba34b7b760611b6064820152608401610b19565b6001600160a01b03871660008181526003602090815260408083208a88039055600480548b9003905551898152919291600080516020613d11833981519152910160405180910390a3600193505050505b9392505050565b6000611fac612ecd565b805490915060ff600160401b82041615906001600160401b0316600081158015611fd35750825b90506000826001600160401b03166001148015611fef5750303b155b905081158015611ffd575080155b1561201b5760405163f92ee8a960e01b815260040160405180910390fd5b845467ffffffffffffffff19166001178555831561204557845460ff60401b1916600160401b1785555b6001600160a01b03861661209b5760405162461bcd60e51b815260206004820152601f60248201527f455243313435303a20496e76616c6964207472616e73666572206167656e74006044820152606401610b19565b6120a487612ef6565b6120ac612f07565b6120b4612f17565b6120bc612f17565b60006120c88b82613bfd565b5060016120d58a82613bfd565b506002805460ff8a1660ff1991821617909155600580546001600160a01b0389166001600160a01b031991821617909155600160068190556008805490931690925560006009819055600a8054938401815590527fc65a7bb8d6351c1cf70c95a316cc6a92839c986682d98bc35f958f4883f9d2a890910180549091169055831561219a57845460ff60401b19168555604051600181527fc7f505b2f371ae2175ee4913f4499e1f2633a7b5936321eed1cdaeb6115181d29060200160405180910390a15b50505050505050505050565b60006121b0612f1f565b6001600160a01b03861615806121cd57506001600160a01b038516155b156121ee5760405163ec442f0560e01b815260006004820152602401610b19565b336001600160a01b038716148015906122175750336000908152600c602052604090205460ff16155b156122375760405163118cdaa760e01b8152336004820152602401610b19565b612240836127ab565b6122685760405163ec442f0560e01b81526001600160a01b0384166004820152602401610b19565b811561232b576001600160a01b0383166122e8578134146122a25733348360405163391434e360e21b8152600401610b1993929190613b95565b6000808052600b6020527fdf7de25b7f1fd6d0b5205f0e18f1f35bd7b8d84cce336588d184533ce43a6f7680548492906122dd908490613af5565b9091555061232b9050565b6122fd6001600160a01b038416333085612f69565b6001600160a01b0383166000908152600b602052604081208054849290612325908490613af5565b90915550505b6006805490600061233b83613b7c565b9091555060408051610100810182526001600160a01b03898116825288811660208084019182528385018a81523360608601908152608086018a81528b861660a08801908152600060c089018181524260e08b01528b8252600790965298909820875181549088166001600160a01b03199182161782559551600182018054918916918816919091179055925160028401559051600383018054918716918616919091179055516004820155945160058087018054929095169382168417855591519697509395936001600160a81b03191690911790600160a01b9084908111156124285761242861330e565b021790555060e091909101516006909101556040805185815260208101849052338183015290516001600160a01b03878116929089169184917f5c305e799a867c1f9a632629eba8ba08f423e4350397ef18fee1cbb4632df2c5919081900360600190a46124b560017f9b779b17422d0df92223018b32b4d1fa46e071723d6817e2486d003becc55f0055565b95945050505050565b6005546001600160a01b031633146124e957604051634b05ae8560e11b815260040160405180910390fd5b6001600160a01b03919091166000908152600d60205260409020805460ff1916911515919091179055565b61251c612c19565b6001600160a01b03811661254657604051631e4fbdf760e01b815260006004820152602401610b19565b61254f81612c4b565b50565b6001600160a01b03831661257c57604051634b637e8f60e11b815260006004820152602401610b19565b6001600160a01b0382166125a65760405163ec442f0560e01b815260006004820152602401610b19565b6001600160a01b038316600090815260036020526040902054818110156125e65783818360405163391434e360e21b8152600401610b1993929190613b95565b6001600160a01b038085166000818152600360205260408082208686039055928616808252908390208054860190559151600080516020613d1183398151915290611b969086815260200190565b6001600160a01b0383166000908152600e602052604081209082905b8254811080156126605750600082115b156127a357600083828154811061267957612679613b66565b9060005260206000209060030201600001541115612791576000828483815481106126a6576126a6613b66565b906000526020600020906003020160000154116126e6578382815481106126cf576126cf613b66565b9060005260206000209060030201600001546126e8565b825b9050808483815481106126fd576126fd613b66565b9060005260206000209060030201600001600082825461271d9190613ae2565b9091555061272d90508184613ae2565b925061278f868286858154811061274657612746613b66565b906000526020600020906003020160010160009054906101000a900461ffff1687868154811061277857612778613b66565b906000526020600020906003020160020154612ae6565b505b8061279b81613b7c565b915050612650565b505050505050565b6000805b600a5481101561280157826001600160a01b0316600a82815481106127d6576127d6613b66565b6000918252602090912001546001600160a01b0316036127f95750600192915050565b6001016127af565b50600092915050565b600082815260076020526040902060058082018054600160a01b80820460ff169386939260ff60a01b1916919084908111156128485761284861330e565b021790555082600581111561285f5761285f61330e565b8160058111156128715761287161330e565b857f624f756b8457d5d02670046b80faa01c08502d2cbb53c3e61c1ef90a6b66cf91426040516128a391815260200190565b60405180910390a450505050565b6040516001600160a01b03838116602483015260448201839052611c4091859182169063a9059cbb906064015b604051602081830303815290604052915060e01b6020820180516001600160e01b038381831617835250505050612fc8565b306001600160a01b037f000000000000000000000000000000000000000000000000000000000000000016148061299757507f00000000000000000000000000000000000000000000000000000000000000006001600160a01b031661298b600080516020613cf1833981519152546001600160a01b031690565b6001600160a01b031614155b156113b85760405163703e46dd60e11b815260040160405180910390fd5b6005546001600160a01b0316331461254f57604051634b05ae8560e11b815260040160405180910390fd5b816001600160a01b03166352d1902d6040518163ffffffff1660e01b8152600401602060405180830381865afa925050508015612a3a575060408051601f3d908101601f19168201909252612a3791810190613cbb565b60015b612a6257604051634c9c8ce360e01b81526001600160a01b0383166004820152602401610b19565b600080516020613cf18339815191528114612a9357604051632a87526960e21b815260048101829052602401610b19565b611c408383613039565b306001600160a01b037f000000000000000000000000000000000000000000000000000000000000000016146113b85760405163703e46dd60e11b815260040160405180910390fd5b6001600160a01b0384166000908152600e60205260408120905b8154811015612bb4578361ffff16828281548110612b2057612b20613b66565b600091825260209091206001600390920201015461ffff16148015612b67575082828281548110612b5357612b53613b66565b906000526020600020906003020160020154145b15612bac5784828281548110612b7f57612b7f613b66565b90600052602060002090600302016000016000828254612b9f9190613af5565b90915550612c1392505050565b600101612b00565b506040805160608101825285815261ffff85811660208084019182529383018681528554600180820188556000978852959096209351600390960290930194855551928401805461ffff19169390911692909217909155516002909101555b50505050565b33612c22611916565b6001600160a01b0316146113b85760405163118cdaa760e01b8152336004820152602401610b19565b7f9016d09d72d40fdae2fd8ceac6b6234c7706214fd39c1cd1e609a0528c19930080546001600160a01b031981166001600160a01b03848116918217845560405192169182907f8be0079c531659141344cd1fd0a4f28419497f9722a3daafe3b4186f6b6457e090600090a3505050565b6001600160a01b0382166000908152600e602052604081209082905b825481108015612ce85750600082115b15612ec6576000838281548110612d0157612d01613b66565b9060005260206000209060030201600001541115612eb457600082848381548110612d2e57612d2e613b66565b90600052602060002090600302016000015411612d6e57838281548110612d5757612d57613b66565b906000526020600020906003020160000154612d70565b825b905080848381548110612d8557612d85613b66565b90600052602060002090600302016000016000828254612da59190613ae2565b90915550612db590508184613ae2565b925080600f6000868581548110612dce57612dce613b66565b600091825260208083206001600390930201919091015461ffff16835282019290925260400181208054909190612e06908490613ae2565b92505081905550838281548110612e1f57612e1f613b66565b906000526020600020906003020160010160009054906101000a900461ffff1661ffff16866001600160a01b03167f3e12e887d427175142a28b9b6c2740bc2da6904e3c9f86a2aea2a2cc53bb95b783878681548110612e8157612e81613b66565b906000526020600020906003020160020154604051612eaa929190918252602082015260400190565b60405180910390a3505b80612ebe81613b7c565b915050612cd8565b5050505050565b6000807ff0c57e16840df040f15088dc2f81fe391c3923bec73e23a9662efc9c229c6a006109ee565b612efe61308f565b61254f816130b4565b612f0f61308f565b6113b86130bc565b6113b861308f565b7f9b779b17422d0df92223018b32b4d1fa46e071723d6817e2486d003becc55f00805460011901612f6357604051633ee5aeb560e01b815260040160405180910390fd5b60029055565b6040516001600160a01b038481166024830152838116604483015260648201839052612c139186918216906323b872dd906084016128de565b60017f9b779b17422d0df92223018b32b4d1fa46e071723d6817e2486d003becc55f0055565b600080602060008451602086016000885af180612feb576040513d6000823e3d81fd5b50506000513d91508115613003578060011415613010565b6001600160a01b0384163b155b15612c1357604051635274afe760e01b81526001600160a01b0385166004820152602401610b19565b613042826130c4565b6040516001600160a01b038316907fbc7cd75a20ee27fd9adebab32041f755214dbc6bffa90cc0225b39da2e5c2d3b90600090a280511561308757611c408282613129565b610df7613196565b6130976131b5565b6113b857604051631afcd79f60e31b815260040160405180910390fd5b61251c61308f565b612fa261308f565b806001600160a01b03163b6000036130fa57604051634c9c8ce360e01b81526001600160a01b0382166004820152602401610b19565b600080516020613cf183398151915280546001600160a01b0319166001600160a01b0392909216919091179055565b6060600080846001600160a01b0316846040516131469190613cd4565b600060405180830381855af49150503d8060008114613181576040519150601f19603f3d011682016040523d82523d6000602084013e613186565b606091505b50915091506124b58583836131cf565b34156113b85760405163b398979f60e01b815260040160405180910390fd5b60006131bf612ecd565b54600160401b900460ff16919050565b6060826131e4576131df8261322b565b611f9b565b81511580156131fb57506001600160a01b0384163b155b1561322457604051639996b31560e01b81526001600160a01b0385166004820152602401610b19565b5080611f9b565b80511561323a57805160208201fd5b60405163d6bda27560e01b815260040160405180910390fd5b8280548282559060005260206000209081019282156132a6579160200282015b828111156132a65781546001600160a01b0319166001600160a01b03843516178255602090920191600190910190613273565b506132b29291506132b6565b5090565b5b808211156132b257600081556001016132b7565b6000602082840312156132dd57600080fd5b81356001600160e01b031981168114611f9b57600080fd5b60006020828403121561330757600080fd5b5035919050565b634e487b7160e01b600052602160045260246000fd5b6001600160a01b038981168252888116602083015260408201889052868116606083015260808201869052841660a082015261010081016006841061337957634e487b7160e01b600052602160045260246000fd5b60c082019390935260e001529695505050505050565b60005b838110156133aa578181015183820152602001613392565b50506000910152565b60208152600082518060208401526133d281604085016020870161338f565b601f01601f19169190910160400192915050565b80356001600160a01b03811681146133fd57600080fd5b919050565b6000806040838503121561341557600080fd5b61341e836133e6565b946020939093013593505050565b60006020828403121561343e57600080fd5b611f9b826133e6565b60008060006060848603121561345c57600080fd5b613465846133e6565b9250613473602085016133e6565b929592945050506040919091013590565b6000806000806080858703121561349a57600080fd5b6134a3856133e6565b93506134b1602086016133e6565b9250604085013591506134c6606086016133e6565b905092959194509250565b602080825282518282018190526000918401906040840190835b818110156135125783516001600160a01b03168352602093840193909201916001016134eb565b509095945050505050565b803561ffff811681146133fd57600080fd5b803580151581146133fd57600080fd5b60008060006060848603121561355457600080fd5b833592506135646020850161351d565b91506135726040850161352f565b90509250925092565b634e487b7160e01b600052604160045260246000fd5b6000806001600160401b038411156135ab576135ab61357b565b50604051601f19601f85018116603f011681018181106001600160401b03821117156135d9576135d961357b565b6040528381529050808284018510156135f157600080fd5b83836020830137600060208583010152509392505050565b6000806040838503121561361c57600080fd5b613625836133e6565b915060208301356001600160401b0381111561364057600080fd5b8301601f8101851361365157600080fd5b61366085823560208401613591565b9150509250929050565b6000806000806080858703121561368057600080fd5b613689856133e6565b93506020850135925061369e6040860161351d565b9396929550929360600135925050565b803560ff811681146133fd57600080fd5b600080600080606085870312156136d557600080fd5b6136de856136ae565b93506020850135925060408501356001600160401b0381111561370057600080fd5b8501601f8101871361371157600080fd5b80356001600160401b0381111561372757600080fd5b8760208260051b840101111561373c57600080fd5b949793965060200194505050565b6000806040838503121561375d57600080fd5b8235915060208301356006811061377357600080fd5b809150509250929050565b600081518084526020840193506020830160005b828110156137b0578151865260209586019590910190600101613792565b5093949350505050565b6060808252845190820181905260009060208601906080840190835b818110156137f857835161ffff168352602093840193909201916001016137d6565b5050838103602085015261380c818761377e565b9150508281036040840152613821818561377e565b9695505050505050565b6000806040838503121561383e57600080fd5b613847836133e6565b91506138556020840161352f565b90509250929050565b60008060006060848603121561387357600080fd5b61387c846133e6565b925060208401359150613572604085016133e6565b600080600080608085870312156138a757600080fd5b6138b0856133e6565b93506138be602086016133e6565b93969395505050506040820135916060013590565b6000806000606084860312156138e857600080fd5b6138f1846133e6565b9250602084013591506135726040850161351d565b600082601f83011261391757600080fd5b611f9b83833560208501613591565b600080600080600060a0868803121561393e57600080fd5b85356001600160401b0381111561395457600080fd5b61396088828901613906565b95505060208601356001600160401b0381111561397c57600080fd5b61398888828901613906565b945050613997604087016136ae565b92506139a5606087016133e6565b91506139b3608087016133e6565b90509295509295909350565b6000602082840312156139d157600080fd5b611f9b8261351d565b600080600080600060a086880312156139f257600080fd5b6139fb866133e6565b9450613a09602087016133e6565b935060408601359250613a1e606087016133e6565b949793965091946080013592915050565b60008060408385031215613a4257600080fd5b613a4b836133e6565b9150613855602084016133e6565b600181811c90821680613a6d57607f821691505b602082108103613a8d57634e487b7160e01b600052602260045260246000fd5b50919050565b634e487b7160e01b600052601160045260246000fd5b80820281158282048414176109ee576109ee613a93565b600082613add57634e487b7160e01b600052601260045260246000fd5b500490565b818103818111156109ee576109ee613a93565b808201808211156109ee576109ee613a93565b60ff8516815260208101849052606060408201819052810182905260008360808301825b85811015613b5a576001600160a01b03613b45846133e6565b16825260209283019290910190600101613b2c565b50979650505050505050565b634e487b7160e01b600052603260045260246000fd5b600060018201613b8e57613b8e613a93565b5060010190565b6001600160a01b039390931683526020830191909152604082015260600190565b601f821115611c4057806000526020600020601f840160051c81016020851015613bdd5750805b601f840160051c820191505b81811015612ec65760008155600101613be9565b81516001600160401b03811115613c1657613c1661357b565b613c2a81613c248454613a59565b84613bb6565b6020601f821160018114613c5e5760008315613c465750848201515b600019600385901b1c1916600184901b178455612ec6565b600084815260208120601f198516915b82811015613c8e5787850151825560209485019460019092019101613c6e565b5084821015613cac5786840151600019600387901b60f8161c191681555b50505050600190811b01905550565b600060208284031215613ccd57600080fd5b5051919050565b60008251613ce681846020870161338f565b919091019291505056fe360894a13ba1a3210667c828492db98dca3e2076cc3735a920a3ca505d382bbcddf252ad1be2c89b69c2b068fc378daa952ba7f163c4a11628f55a4df523b3efa26469706673582212206ee9b8585f93de92e7b13cb6e88a34b6f10a64b5152dd376ad1f5d1644b4fdf864736f6c634300081b0033",
  "linkReferences": {},
  "deployedLinkReferences": {}
}