{
  "_format": "hh-sol-artifact-1",
  "contractName": "ERC1450Upgradeable",
  "sourceName": "contracts/upgradeable/ERC1450Upgradeable.sol",
  "abi": [
    {
      "inputs": [],
      "stateMutability": "nonpayable",
      "type": "constructor"
    },
    {
      "inputs": [
        {
          "internalType": "address",
          "name": "target",
          "type": "address"
        }
      ],
      "name": "AddressEmptyCode",
      "type": "error"
    },
    {
      "inputs": [
        {
          "internalType": "address",
          "name": "from",
          "type": "address"
        },
        {
          "internalType": "address",
          "name": "to",
          "type": "address"
        }
      ],
      "name": "ERC1450ComplianceCheckFailed",
      "type": "error"
    },
    {
      "inputs": [],
      "name": "ERC1450OnlyRTA",
      "type": "error"
    },
    {
      "inputs": [],
      "name": "ERC1450TransferAgentLocked",
      "type": "error"
    },
    {
      "inputs": [],
      "name": "ERC1450TransferDisabled",
      "type": "error"
    },
    {
      "inputs": [
        {
          "internalType": "address",
          "name": "implementation",
          "type": "address"
        }
      ],
      "name": "ERC1967InvalidImplementation",
      "type": "error"
    },
    {
      "inputs": [],
      "name": "ERC1967NonPayable",
      "type": "error"
    },
    {
      "inputs": [
        {
          "internalType": "address",
          "name": "sender",
          "type": "address"
        },
        {
          "internalType": "uint256",
          "name": "balance",
          "type": "uint256"
        },
        {
          "internalType": "uint256",
          "name": "needed",
          "type": "uint256"
        }
      ],
      "name": "ERC20InsufficientBalance",
      "type": "error"
    },
    {
      "inputs": [
        {
          "internalType": "address",
          "name": "receiver",
          "type": "address"
        }
      ],
      "name": "ERC20InvalidReceiver",
      "type": "error"
    },
    {
      "inputs": [
        {
          "internalType": "address",
          "name": "sender",
          "type": "address"
        }
      ],
      "name": "ERC20InvalidSender",
      "type": "error"
    },
    {
      "inputs": [],
      "name": "FailedCall",
      "type": "error"
    },
    {
      "inputs": [],
      "name": "InvalidInitialization",
      "type": "error"
    },
    {
      "inputs": [],
      "name": "NotInitializing",
      "type": "error"
    },
    {
      "inputs": [
        {
          "internalType": "address",
          "name": "owner",
          "type": "address"
        }
      ],
      "name": "OwnableInvalidOwner",
      "type": "error"
    },
    {
      "inputs": [
        {
          "internalType": "address",
          "name": "account",
          "type": "address"
        }
      ],
      "name": "OwnableUnauthorizedAccount",
      "type": "error"
    },
    {
      "inputs": [],
      "name": "ReentrancyGuardReentrantCall",
      "type": "error"
    },
    {
      "inputs": [
        {
          "internalType": "address",
          "name": "token",
          "type": "address"
        }
      ],
      "name": "SafeERC20FailedOperation",
      "type": "error"
    },
    {
      "inputs": [],
      "name": "UUPSUnauthorizedCallContext",
      "type": "error"
    },
    {
      "inputs": [
        {
          "internalType": "bytes32",
          "name": "slot",
          "type": "bytes32"
        }
      ],
      "name": "UUPSUnsupportedProxiableUUID",
      "type": "error"
    },
    {
      "anonymous": false,
      "inputs": [
        {
          "indexed": true,
          "internalType": "address",
          "name": "owner",
          "type": "address"
        },
        {
          "indexed": true,
          "internalType": "address",
          "name": "spender",
          "type": "address"
        },
        {
          "indexed": false,
          "internalType": "uint256",
          "name": "value",
          "type": "uint256"
        }
      ],
      "name": "Approval",
      "type": "event"
    },
    {
      "anonymous": false,
      "inputs": [
        {
          "indexed": true,
          "internalType": "address",
          "name": "broker",
          "type": "address"
        },
        {
          "indexed": false,
          "internalType": "bool",
          "name": "isApproved",
          "type": "bool"
        },
        {
          "indexed": true,
          "internalType": "address",
          "name": "updatedBy",
          "type": "address"
        }
      ],
      "name": "BrokerStatusUpdated",
      "type": "event"
    },
    {
      "anonymous": false,
      "inputs": [
        {
          "indexed": true,
          "internalType": "address",
          "name": "from",
          "type": "address"
        },
        {
          "indexed": true,
          "internalType": "address",
          "name": "to",
          "type": "address"
        },
        {
          "indexed": false,
          "internalType": "uint256",
          "name": "amount",
          "type": "uint256"
        },
        {
          "indexed": false,
          "internalType": "bytes32",
          "name": "documentHash",
          "type": "bytes32"
        },
        {
          "indexed": false,
          "internalType": "uint256",
          "name": "timestamp",
          "type": "uint256"
        }
      ],
      "name": "CourtOrderExecuted",
      "type": "event"
    },
    {
      "anonymous": false,
      "inputs": [
        {
          "indexed": true,
          "internalType": "address",
          "name": "from",
          "type": "address"
        },
        {
          "indexed": false,
          "internalType": "uint256",
          "name": "amount",
          "type": "uint256"
        }
      ],
      "name": "ETHReceived",
      "type": "event"
    },
    {
      "anonymous": false,
      "inputs": [
        {
          "indexed": false,
          "internalType": "uint8",
          "name": "feeType",
          "type": "uint8"
        },
        {
          "indexed": false,
          "internalType": "uint256",
          "name": "feeValue",
          "type": "uint256"
        },
        {
          "indexed": false,
          "internalType": "address[]",
          "name": "acceptedTokens",
          "type": "address[]"
        }
      ],
      "name": "FeeParametersUpdated",
      "type": "event"
    },
    {
      "anonymous": false,
      "inputs": [
        {
          "indexed": true,
          "internalType": "address",
          "name": "token",
          "type": "address"
        },
        {
          "indexed": false,
          "internalType": "uint256",
          "name": "amount",
          "type": "uint256"
        },
        {
          "indexed": true,
          "internalType": "address",
          "name": "recipient",
          "type": "address"
        }
      ],
      "name": "FeesWithdrawn",
      "type": "event"
    },
    {
      "anonymous": false,
      "inputs": [
        {
          "indexed": false,
          "internalType": "uint64",
          "name": "version",
          "type": "uint64"
        }
      ],
      "name": "Initialized",
      "type": "event"
    },
    {
      "anonymous": false,
      "inputs": [
        {
          "indexed": true,
          "internalType": "address",
          "name": "previousIssuer",
          "type": "address"
        },
        {
          "indexed": true,
          "internalType": "address",
          "name": "newIssuer",
          "type": "address"
        }
      ],
      "name": "IssuerChanged",
      "type": "event"
    },
    {
      "anonymous": false,
      "inputs": [
        {
          "indexed": true,
          "internalType": "address",
          "name": "previousOwner",
          "type": "address"
        },
        {
          "indexed": true,
          "internalType": "address",
          "name": "newOwner",
          "type": "address"
        }
      ],
      "name": "OwnershipTransferred",
      "type": "event"
    },
    {
      "anonymous": false,
      "inputs": [
        {
          "indexed": true,
          "internalType": "uint256",
          "name": "requestId",
          "type": "uint256"
        },
        {
          "indexed": true,
          "internalType": "enum IERC1450.RequestStatus",
          "name": "oldStatus",
          "type": "uint8"
        },
        {
          "indexed": true,
          "internalType": "enum IERC1450.RequestStatus",
          "name": "newStatus",
          "type": "uint8"
        },
        {
          "indexed": false,
          "internalType": "uint256",
          "name": "timestamp",
          "type": "uint256"
        }
      ],
      "name": "RequestStatusChanged",
      "type": "event"
    },
    {
      "anonymous": false,
      "inputs": [
        {
          "indexed": true,
          "internalType": "address",
          "name": "from",
          "type": "address"
        },
        {
          "indexed": false,
          "internalType": "uint256",
          "name": "amount",
          "type": "uint256"
        },
        {
          "indexed": true,
          "internalType": "uint16",
          "name": "regulationType",
          "type": "uint16"
        },
        {
          "indexed": false,
          "internalType": "uint256",
          "name": "issuanceDate",
          "type": "uint256"
        }
      ],
      "name": "TokensBurned",
      "type": "event"
    },
    {
      "anonymous": false,
      "inputs": [
        {
          "indexed": true,
          "internalType": "address",
          "name": "to",
          "type": "address"
        },
        {
          "indexed": false,
          "internalType": "uint256",
          "name": "amount",
          "type": "uint256"
        },
        {
          "indexed": true,
          "internalType": "uint16",
          "name": "regulationType",
          "type": "uint16"
        },
        {
          "indexed": false,
          "internalType": "uint256",
          "name": "issuanceDate",
          "type": "uint256"
        },
        {
          "indexed": false,
          "internalType": "uint256",
          "name": "tokenizationDate",
          "type": "uint256"
        }
      ],
      "name": "TokensMinted",
      "type": "event"
    },
    {
      "anonymous": false,
      "inputs": [
        {
          "indexed": true,
          "internalType": "address",
          "name": "from",
          "type": "address"
        },
        {
          "indexed": true,
          "internalType": "address",
          "name": "to",
          "type": "address"
        },
        {
          "indexed": false,
          "internalType": "uint256",
          "name": "value",
          "type": "uint256"
        }
      ],
      "name": "Transfer",
      "type": "event"
    },
    {
      "anonymous": false,
      "inputs": [
        {
          "indexed": true,
          "internalType": "address",
          "name": "previousAgent",
          "type": "address"
        },
        {
          "indexed": true,
          "internalType": "address",
          "name": "newAgent",
          "type": "address"
        }
      ],
      "name": "TransferAgentUpdated",
      "type": "event"
    },
    {
      "anonymous": false,
      "inputs": [
        {
          "indexed": true,
          "internalType": "uint256",
          "name": "requestId",
          "type": "uint256"
        },
        {
          "indexed": true,
          "internalType": "address",
          "name": "from",
          "type": "address"
        },
        {
          "indexed": true,
          "internalType": "address",
          "name": "to",
          "type": "address"
        },
        {
          "indexed": false,
          "internalType": "uint256",
          "name": "amount",
          "type": "uint256"
        }
      ],
      "name": "TransferExecuted",
      "type": "event"
    },
    {
      "anonymous": false,
      "inputs": [
        {
          "indexed": true,
          "internalType": "uint256",
          "name": "requestId",
          "type": "uint256"
        },
        {
          "indexed": false,
          "internalType": "uint256",
          "name": "expiredAt",
          "type": "uint256"
        }
      ],
      "name": "TransferExpired",
      "type": "event"
    },
    {
      "anonymous": false,
      "inputs": [
        {
          "indexed": true,
          "internalType": "uint256",
          "name": "requestId",
          "type": "uint256"
        },
        {
          "indexed": false,
          "internalType": "uint16",
          "name": "reasonCode",
          "type": "uint16"
        },
        {
          "indexed": false,
          "internalType": "bool",
          "name": "feeRefunded",
          "type": "bool"
        }
      ],
      "name": "TransferRejected",
      "type": "event"
    },
    {
      "anonymous": false,
      "inputs": [
        {
          "indexed": true,
          "internalType": "uint256",
          "name": "requestId",
          "type": "uint256"
        },
        {
          "indexed": true,
          "internalType": "address",
          "name": "from",
          "type": "address"
        },
        {
          "indexed": true,
          "internalType": "address",
          "name": "to",
          "type": "address"
        },
        {
          "indexed": false,
          "internalType": "uint256",
          "name": "amount",
          "type": "uint256"
        },
        {
          "indexed": false,
          "internalType": "uint256",
          "name": "feePaid",
          "type": "uint256"
        },
        {
          "indexed": false,
          "internalType": "address",
          "name": "requestedBy",
          "type": "address"
        }
      ],
      "name": "TransferRequested",
      "type": "event"
    },
    {
      "anonymous": false,
      "inputs": [
        {
          "indexed": true,
          "internalType": "address",
          "name": "implementation",
          "type": "address"
        }
      ],
      "name": "Upgraded",
      "type": "event"
    },
    {
      "inputs": [],
      "name": "UPGRADE_INTERFACE_VERSION",
      "outputs": [
        {
          "internalType": "string",
          "name": "",
          "type": "string"
        }
      ],
      "stateMutability": "view",
      "type": "function"
    },
    {
      "inputs": [
        {
          "internalType": "uint256",
          "name": "",
          "type": "uint256"
        }
      ],
      "name": "acceptedFeeTokens",
      "outputs": [
        {
          "internalType": "address",
          "name": "",
          "type": "address"
        }
      ],
      "stateMutability": "view",
      "type": "function"
    },
    {
      "inputs": [
        {
          "internalType": "address",
          "name": "",
          "type": "address"
        },
        {
          "internalType": "address",
          "name": "",
          "type": "address"
        }
      ],
      "name": "allowance",
      "outputs": [
        {
          "internalType": "uint256",
          "name": "",
          "type": "uint256"
        }
      ],
      "stateMutability": "pure",
      "type": "function"
    },
    {
      "inputs": [
        {
          "internalType": "address",
          "name": "",
          "type": "address"
        },
        {
          "internalType": "uint256",
          "name": "",
          "type": "uint256"
        }
      ],
      "name": "approve",
      "outputs": [
        {
          "internalType": "bool",
          "name": "",
          "type": "bool"
        }
      ],
      "stateMutability": "pure",
      "type": "function"
    },
    {
      "inputs": [
        {
          "internalType": "address",
          "name": "",
          "type": "address"
        }
      ],
      "name": "approvedBrokers",
      "outputs": [
        {
          "internalType": "bool",
          "name": "",
          "type": "bool"
        }
      ],
      "stateMutability": "view",
      "type": "function"
    },
    {
      "inputs": [
        {
          "internalType": "address",
          "name": "account",
          "type": "address"
        }
      ],
      "name": "balanceOf",
      "outputs": [
        {
          "internalType": "uint256",
          "name": "",
          "type": "uint256"
        }
      ],
      "stateMutability": "view",
      "type": "function"
    },
    {
      "inputs": [
        {
          "internalType": "address",
          "name": "from",
          "type": "address"
        },
        {
          "internalType": "uint256",
          "name": "amount",
          "type": "uint256"
        }
      ],
      "name": "burnFrom",
      "outputs": [
        {
          "internalType": "bool",
          "name": "",
          "type": "bool"
        }
      ],
      "stateMutability": "nonpayable",
      "type": "function"
    },
    {
      "inputs": [
        {
          "internalType": "address",
          "name": "from",
          "type": "address"
        },
        {
          "internalType": "uint256",
          "name": "amount",
          "type": "uint256"
        },
        {
          "internalType": "uint16",
          "name": "regulationType",
          "type": "uint16"
        }
      ],
      "name": "burnFromRegulation",
      "outputs": [
        {
          "internalType": "bool",
          "name": "",
          "type": "bool"
        }
      ],
      "stateMutability": "nonpayable",
      "type": "function"
    },
    {
      "inputs": [
        {
          "internalType": "address",
          "name": "newIssuer",
          "type": "address"
        }
      ],
      "name": "changeIssuer",
      "outputs": [],
      "stateMutability": "nonpayable",
      "type": "function"
    },
    {
      "inputs": [
        {
          "internalType": "address",
          "name": "",
          "type": "address"
        }
      ],
      "name": "collectedFees",
      "outputs": [
        {
          "internalType": "uint256",
          "name": "",
          "type": "uint256"
        }
      ],
      "stateMutability": "view",
      "type": "function"
    },
    {
      "inputs": [],
      "name": "decimals",
      "outputs": [
        {
          "internalType": "uint8",
          "name": "",
          "type": "uint8"
        }
      ],
      "stateMutability": "view",
      "type": "function"
    },
    {
      "inputs": [
        {
          "internalType": "address",
          "name": "from",
          "type": "address"
        },
        {
          "internalType": "address",
          "name": "to",
          "type": "address"
        },
        {
          "internalType": "uint256",
          "name": "amount",
          "type": "uint256"
        },
        {
          "internalType": "bytes32",
          "name": "documentHash",
          "type": "bytes32"
        }
      ],
      "name": "executeCourtOrder",
      "outputs": [],
      "stateMutability": "nonpayable",
      "type": "function"
    },
    {
      "inputs": [],
      "name": "feeType",
      "outputs": [
        {
          "internalType": "uint8",
          "name": "",
          "type": "uint8"
        }
      ],
      "stateMutability": "view",
      "type": "function"
    },
    {
      "inputs": [],
      "name": "feeValue",
      "outputs": [
        {
          "internalType": "uint256",
          "name": "",
          "type": "uint256"
        }
      ],
      "stateMutability": "view",
      "type": "function"
    },
    {
      "inputs": [
        {
          "internalType": "address",
          "name": "",
          "type": "address"
        }
      ],
      "name": "frozenAccounts",
      "outputs": [
        {
          "internalType": "bool",
          "name": "",
          "type": "bool"
        }
      ],
      "stateMutability": "view",
      "type": "function"
    },
    {
      "inputs": [],
      "name": "getAcceptedFeeTokens",
      "outputs": [
        {
          "internalType": "address[]",
          "name": "",
          "type": "address[]"
        }
      ],
      "stateMutability": "view",
      "type": "function"
    },
    {
      "inputs": [
        {
          "internalType": "address",
          "name": "holder",
          "type": "address"
        }
      ],
      "name": "getHolderRegulations",
      "outputs": [
        {
          "internalType": "uint16[]",
          "name": "regulationTypes",
          "type": "uint16[]"
        },
        {
          "internalType": "uint256[]",
          "name": "amounts",
          "type": "uint256[]"
        },
        {
          "internalType": "uint256[]",
          "name": "issuanceDates",
          "type": "uint256[]"
        }
      ],
      "stateMutability": "view",
      "type": "function"
    },
    {
      "inputs": [
        {
          "internalType": "uint16",
          "name": "regulationType",
          "type": "uint16"
        }
      ],
      "name": "getRegulationSupply",
      "outputs": [
        {
          "internalType": "uint256",
          "name": "",
          "type": "uint256"
        }
      ],
      "stateMutability": "view",
      "type": "function"
    },
    {
      "inputs": [
        {
          "internalType": "address",
          "name": "",
          "type": "address"
        },
        {
          "internalType": "address",
          "name": "",
          "type": "address"
        },
        {
          "internalType": "uint256",
          "name": "amount",
          "type": "uint256"
        },
        {
          "internalType": "address",
          "name": "feeToken",
          "type": "address"
        }
      ],
      "name": "getTransferFee",
      "outputs": [
        {
          "internalType": "uint256",
          "name": "feeAmount",
          "type": "uint256"
        }
      ],
      "stateMutability": "view",
      "type": "function"
    },
    {
      "inputs": [
        {
          "internalType": "string",
          "name": "name_",
          "type": "string"
        },
        {
          "internalType": "string",
          "name": "symbol_",
          "type": "string"
        },
        {
          "internalType": "uint8",
          "name": "decimals_",
          "type": "uint8"
        },
        {
          "internalType": "address",
          "name": "initialOwner",
          "type": "address"
        },
        {
          "internalType": "address",
          "name": "initialTransferAgent",
          "type": "address"
        }
      ],
      "name": "initialize",
      "outputs": [],
      "stateMutability": "nonpayable",
      "type": "function"
    },
    {
      "inputs": [
        {
          "internalType": "address",
          "name": "account",
          "type": "address"
        }
      ],
      "name": "isAccountFrozen",
      "outputs": [
        {
          "internalType": "bool",
          "name": "",
          "type": "bool"
        }
      ],
      "stateMutability": "view",
      "type": "function"
    },
    {
      "inputs": [
        {
          "internalType": "address",
          "name": "broker",
          "type": "address"
        }
      ],
      "name": "isBroker",
      "outputs": [
        {
          "internalType": "bool",
          "name": "",
          "type": "bool"
        }
      ],
      "stateMutability": "view",
      "type": "function"
    },
    {
      "inputs": [],
      "name": "isSecurityToken",
      "outputs": [
        {
          "internalType": "bool",
          "name": "",
          "type": "bool"
        }
      ],
      "stateMutability": "pure",
      "type": "function"
    },
    {
      "inputs": [
        {
          "internalType": "address",
          "name": "addr",
          "type": "address"
        }
      ],
      "name": "isTransferAgent",
      "outputs": [
        {
          "internalType": "bool",
          "name": "",
          "type": "bool"
        }
      ],
      "stateMutability": "view",
      "type": "function"
    },
    {
      "inputs": [
        {
          "internalType": "address",
          "name": "to",
          "type": "address"
        },
        {
          "internalType": "uint256",
          "name": "amount",
          "type": "uint256"
        },
        {
          "internalType": "uint16",
          "name": "regulationType",
          "type": "uint16"
        },
        {
          "internalType": "uint256",
          "name": "issuanceDate",
          "type": "uint256"
        }
      ],
      "name": "mint",
      "outputs": [
        {
          "internalType": "bool",
          "name": "",
          "type": "bool"
        }
      ],
      "stateMutability": "nonpayable",
      "type": "function"
    },
    {
      "inputs": [],
      "name": "name",
      "outputs": [
        {
          "internalType": "string",
          "name": "",
          "type": "string"
        }
      ],
      "stateMutability": "view",
      "type": "function"
    },
    {
      "inputs": [],
      "name": "owner",
      "outputs": [
        {
          "internalType": "address",
          "name": "",
          "type": "address"
        }
      ],
      "stateMutability": "view",
      "type": "function"
    },
    {
      "inputs": [
        {
          "internalType": "uint256",
          "name": "requestId",
          "type": "uint256"
        }
      ],
      "name": "processTransferRequest",
      "outputs": [],
      "stateMutability": "nonpayable",
      "type": "function"
    },
    {
      "inputs": [],
      "name": "proxiableUUID",
      "outputs": [
        {
          "internalType": "bytes32",
          "name": "",
          "type": "bytes32"
        }
      ],
      "stateMutability": "view",
      "type": "function"
    },
    {
      "inputs": [
        {
          "internalType": "address",
          "name": "token",
          "type": "address"
        },
        {
          "internalType": "uint256",
          "name": "amount",
          "type": "uint256"
        }
      ],
      "name": "recoverToken",
      "outputs": [],
      "stateMutability": "nonpayable",
      "type": "function"
    },
    {
      "inputs": [
        {
          "internalType": "uint256",
          "name": "requestId",
          "type": "uint256"
        },
        {
          "internalType": "uint16",
          "name": "reasonCode",
          "type": "uint16"
        },
        {
          "internalType": "bool",
          "name": "refundFee",
          "type": "bool"
        }
      ],
      "name": "rejectTransferRequest",
      "outputs": [],
      "stateMutability": "nonpayable",
      "type": "function"
    },
    {
      "inputs": [],
      "name": "renounceOwnership",
      "outputs": [],
      "stateMutability": "nonpayable",
      "type": "function"
    },
    {
      "inputs": [
        {
          "internalType": "address",
          "name": "from",
          "type": "address"
        },
        {
          "internalType": "address",
          "name": "to",
          "type": "address"
        },
        {
          "internalType": "uint256",
          "name": "amount",
          "type": "uint256"
        },
        {
          "internalType": "address",
          "name": "feeToken",
          "type": "address"
        },
        {
          "internalType": "uint256",
          "name": "feeAmount",
          "type": "uint256"
        }
      ],
      "name": "requestTransferWithFee",
      "outputs": [
        {
          "internalType": "uint256",
          "name": "requestId",
          "type": "uint256"
        }
      ],
      "stateMutability": "payable",
      "type": "function"
    },
    {
      "inputs": [
        {
          "internalType": "address",
          "name": "account",
          "type": "address"
        },
        {
          "internalType": "bool",
          "name": "frozen",
          "type": "bool"
        }
      ],
      "name": "setAccountFrozen",
      "outputs": [],
      "stateMutability": "nonpayable",
      "type": "function"
    },
    {
      "inputs": [
        {
          "internalType": "address",
          "name": "broker",
          "type": "address"
        },
        {
          "internalType": "bool",
          "name": "approved",
          "type": "bool"
        }
      ],
      "name": "setBrokerStatus",
      "outputs": [],
      "stateMutability": "nonpayable",
      "type": "function"
    },
    {
      "inputs": [
        {
          "internalType": "uint8",
          "name": "newFeeType",
          "type": "uint8"
        },
        {
          "internalType": "uint256",
          "name": "newFeeValue",
          "type": "uint256"
        },
        {
          "internalType": "address[]",
          "name": "newAcceptedTokens",
          "type": "address[]"
        }
      ],
      "name": "setFeeParameters",
      "outputs": [],
      "stateMutability": "nonpayable",
      "type": "function"
    },
    {
      "inputs": [
        {
          "internalType": "address",
          "name": "newTransferAgent",
          "type": "address"
        }
      ],
      "name": "setTransferAgent",
      "outputs": [],
      "stateMutability": "nonpayable",
      "type": "function"
    },
    {
      "inputs": [
        {
          "internalType": "bytes4",
          "name": "interfaceId",
          "type": "bytes4"
        }
      ],
      "name": "supportsInterface",
      "outputs": [
        {
          "internalType": "bool",
          "name": "",
          "type": "bool"
        }
      ],
      "stateMutability": "view",
      "type": "function"
    },
    {
      "inputs": [],
      "name": "symbol",
      "outputs": [
        {
          "internalType": "string",
          "name": "",
          "type": "string"
        }
      ],
      "stateMutability": "view",
      "type": "function"
    },
    {
      "inputs": [],
      "name": "totalSupply",
      "outputs": [
        {
          "internalType": "uint256",
          "name": "",
          "type": "uint256"
        }
      ],
      "stateMutability": "view",
      "type": "function"
    },
    {
      "inputs": [
        {
          "internalType": "address",
          "name": "",
          "type": "address"
        },
        {
          "internalType": "uint256",
          "name": "",
          "type": "uint256"
        }
      ],
      "name": "transfer",
      "outputs": [
        {
          "internalType": "bool",
          "name": "",
          "type": "bool"
        }
      ],
      "stateMutability": "pure",
      "type": "function"
    },
    {
      "inputs": [
        {
          "internalType": "address",
          "name": "from",
          "type": "address"
        },
        {
          "internalType": "address",
          "name": "to",
          "type": "address"
        },
        {
          "internalType": "uint256",
          "name": "amount",
          "type": "uint256"
        }
      ],
      "name": "transferFrom",
      "outputs": [
        {
          "internalType": "bool",
          "name": "",
          "type": "bool"
        }
      ],
      "stateMutability": "nonpayable",
      "type": "function"
    },
    {
      "inputs": [
        {
          "internalType": "address",
          "name": "newOwner",
          "type": "address"
        }
      ],
      "name": "transferOwnership",
      "outputs": [],
      "stateMutability": "nonpayable",
      "type": "function"
    },
    {
      "inputs": [
        {
          "internalType": "uint256",
          "name": "",
          "type": "uint256"
        }
      ],
      "name": "transferRequests",
      "outputs": [
        {
          "internalType": "address",
          "name": "from",
          "type": "address"
        },
        {
          "internalType": "address",
          "name": "to",
          "type": "address"
        },
        {
          "internalType": "uint256",
          "name": "amount",
          "type": "uint256"
        },
        {
          "internalType": "address",
          "name": "requestedBy",
          "type": "address"
        },
        {
          "internalType": "uint256",
          "name": "feePaid",
          "type": "uint256"
        },
        {
          "internalType": "address",
          "name": "feeToken",
          "type": "address"
        },
        {
          "internalType": "enum IERC1450.RequestStatus",
          "name": "status",
          "type": "uint8"
        },
        {
          "internalType": "uint256",
          "name": "timestamp",
          "type": "uint256"
        }
      ],
      "stateMutability": "view",
      "type": "function"
    },
    {
      "inputs": [
        {
          "internalType": "uint256",
          "name": "requestId",
          "type": "uint256"
        },
        {
          "internalType": "enum IERC1450.RequestStatus",
          "name": "newStatus",
          "type": "uint8"
        }
      ],
      "name": "updateRequestStatus",
      "outputs": [],
      "stateMutability": "nonpayable",
      "type": "function"
    },
    {
      "inputs": [
        {
          "internalType": "address",
          "name": "newImplementation",
          "type": "address"
        },
        {
          "internalType": "bytes",
          "name": "data",
          "type": "bytes"
        }
      ],
      "name": "upgradeToAndCall",
      "outputs": [],
      "stateMutability": "payable",
      "type": "function"
    },
    {
      "inputs": [],
      "name": "version",
      "outputs": [
        {
          "internalType": "string",
          "name": "",
          "type": "string"
        }
      ],
      "stateMutability": "pure",
      "type": "function"
    },
    {
      "inputs": [
        {
          "internalType": "address",
          "name": "token",
          "type": "address"
        },
        {
          "internalType": "uint256",
          "name": "amount",
          "type": "uint256"
        },
        {
          "internalType": "address",
          "name": "recipient",
          "type": "address"
        }
      ],
      "name": "withdrawFees",
      "outputs": [],
      "stateMutability": "nonpayable",
      "type": "function"
    },
    {
      "stateMutability": "payable",
      "type": "receive"
    }
  ],
  "bytecode": "0x60a06040523060805234801561001457600080fd5b5061001d610022565b6100d4565b7ff0c57e16840df040f15088dc2f81fe391c3923bec73e23a9662efc9c229c6a00805468010000000000000000900460ff16156100725760405163f92ee8a960e01b815260040160405180910390fd5b80546001600160401b03908116146100d15780546001600160401b0319166001600160401b0390811782556040519081527fc7f505b2f371ae2175ee4913f4499e1f2633a7b5936321eed1cdaeb6115181d29060200160405180910390a15b50565b608051613d9b6100fd60003960008181612950015281816129790152612add0152613d9b6000f3fe6080604052600436106102975760003560e01c80637e8931591161015a578063b29a8140116100c1578063d1132dd61161007a578063d1132dd6146108e3578063dd62ed3e146108f7578063e816d97f1461091a578063f2fde38b14610953578063fb8dc17914610973578063fb99b86d1461098d57600080fd5b8063b29a81401461081f578063b860438e1461083f578063c820f1461461085f578063c946a4071461087f578063c9593eb5146108b0578063cbe5404f146108c357600080fd5b80639ba372c2116101135780639ba372c2146107685780639dd80039146107885780639fddaa93146107b8578063a5440bfc146107ce578063a9059cbb146103b7578063ad3cb1cc146107ee57600080fd5b80637e893159146106ae578063860838a5146106ce578063886fa3cf146106fe5780638c6a244c1461071e5780638da5cb5b1461073e57806395d89b411461075357600080fd5b80633ec6ef44116101fe5780635923e87d116101b75780635923e87d146105d4578063654c1918146105f457806370a0823114610623578063715018a61461065957806379cc67901461066e5780637e57c57d1461068e57600080fd5b80633ec6ef441461051c5780634f1ef2861461053e57806352d1902d1461055157806354fd4d50146105665780635547f83f14610594578063580ab697146105b457600080fd5b806322b31d9f1161025057806322b31d9f1461042357806323b872dd1461045c5780632ae98fb21461047c578063313ce5671461049c578063361c1291146104c25780633b3e2645146104fa57600080fd5b806301ffc9a7146102d857806303486c401461030d57806306fdde0314610395578063095ea7b3146103b757806318160ddd146103d75780631cead9a7146103f657600080fd5b366102d35760405134815233907fbfe611b001dfcd411432f7bf0d79b82b4b2ee81511edac123a3403c357fb972a9060200160405180910390a2005b600080fd5b3480156102e457600080fd5b506102f86102f3366004613300565b6109bc565b60405190151581526020015b60405180910390f35b34801561031957600080fd5b5061038161032836600461332a565b60076020526000908152604090208054600182015460028301546003840154600485015460058601546006909601546001600160a01b039586169694861695939492841693919291821691600160a01b900460ff169088565b604051610304989796959493929190613359565b3480156103a157600080fd5b506103aa610a29565b60405161030491906133e8565b3480156103c357600080fd5b506102f86103d2366004613437565b610abb565b3480156103e357600080fd5b506004545b604051908152602001610304565b34801561040257600080fd5b506103e8610411366004613461565b600b6020526000908152604090205481565b34801561042f57600080fd5b506102f861043e366004613461565b6001600160a01b03166000908152600c602052604090205460ff1690565b34801561046857600080fd5b506102f861047736600461347c565b610ad6565b34801561048857600080fd5b506103e86104973660046134b9565b610bc7565b3480156104a857600080fd5b5060025460ff165b60405160ff9091168152602001610304565b3480156104ce57600080fd5b506104e26104dd36600461332a565b610c30565b6040516001600160a01b039091168152602001610304565b34801561050657600080fd5b5061050f610c5a565b6040516103049190613506565b34801561052857600080fd5b5061053c610537366004613574565b610cbb565b005b61053c61054c36600461363e565b610e11565b34801561055d57600080fd5b506103e8610e30565b34801561057257600080fd5b506040805180820190915260058152640312e302e360dc1b60208201526103aa565b3480156105a057600080fd5b506102f86105af36600461369f565b610e4d565b3480156105c057600080fd5b5061053c6105cf3660046136f4565b61104e565b3480156105e057600080fd5b5061053c6105ef36600461377f565b6110dd565b34801561060057600080fd5b5061061461060f366004613461565b611112565b604051610304939291906137ef565b34801561062f57600080fd5b506103e861063e366004613461565b6001600160a01b031660009081526003602052604090205490565b34801561066557600080fd5b5061053c6113db565b34801561067a57600080fd5b506102f8610689366004613437565b6113ef565b34801561069a57600080fd5b5061053c6106a9366004613860565b6114e4565b3480156106ba57600080fd5b5061053c6106c9366004613461565b611571565b3480156106da57600080fd5b506102f86106e9366004613461565b600d6020526000908152604090205460ff1681565b34801561070a57600080fd5b5061053c61071936600461332a565b61161f565b34801561072a57600080fd5b5061053c610739366004613461565b6117b4565b34801561074a57600080fd5b506104e261194b565b34801561075f57600080fd5b506103aa611979565b34801561077457600080fd5b5061053c610783366004613893565b611988565b34801561079457600080fd5b506102f86107a3366004613461565b600c6020526000908152604090205460ff1681565b3480156107c457600080fd5b506103e860095481565b3480156107da57600080fd5b5061053c6107e93660046138c6565b611b3d565b3480156107fa57600080fd5b506103aa604051806040016040528060058152602001640352e302e360dc1b81525081565b34801561082b57600080fd5b5061053c61083a366004613437565b611bd9565b34801561084b57600080fd5b506102f861085a366004613908565b611c94565b34801561086b57600080fd5b5061053c61087a36600461395b565b611fd7565b34801561088b57600080fd5b506103e861089a3660046139f4565b61ffff166000908152600f602052604090205490565b6103e86108be366004613a0f565b6121db565b3480156108cf57600080fd5b5061053c6108de366004613860565b6124f3565b3480156108ef57600080fd5b5060016102f8565b34801561090357600080fd5b506103e8610912366004613a64565b600092915050565b34801561092657600080fd5b506102f8610935366004613461565b6001600160a01b03166000908152600d602052604090205460ff1690565b34801561095f57600080fd5b5061053c61096e366004613461565b612549565b34801561097f57600080fd5b506008546104b09060ff1681565b34801561099957600080fd5b506102f86109a8366004613461565b6005546001600160a01b0391821691161490565b600063578baef760e11b6001600160e01b0319831614806109ed57506001600160e01b031982166336372b0760e01b145b80610a0857506001600160e01b0319821663a219a02560e01b145b80610a2357506301ffc9a760e01b6001600160e01b03198316145b92915050565b606060008054610a3890613a8e565b80601f0160208091040260200160405190810160405280929190818152602001828054610a6490613a8e565b8015610ab15780601f10610a8657610100808354040283529160200191610ab1565b820191906000526020600020905b815481529060010190602001808311610a9457829003601f168201915b5050505050905090565b600060405163c27fd50560e01b815260040160405180910390fd5b6005546000906001600160a01b03163314610b0457604051634b05ae8560e11b815260040160405180910390fd5b6001600160a01b0384166000908152600d6020526040902054849060ff1615610b57576040516307a93df560e11b81526001600160a01b0382166004820152600060248201526044015b60405180910390fd5b6001600160a01b0384166000908152600d6020526040902054849060ff1615610ba5576040516307a93df560e11b81526001600160a01b038216600482015260006024820152604401610b4e565b610bb0868686612587565b610bbb868686612669565b50600195945050505050565b6000610bd2826127e0565b610bde57506000610c28565b60085460ff16600003610bf45750600954610c28565b60085460ff16600103610c235761271060095484610c129190613ade565b610c1c9190613af5565b9050610c28565b506009545b949350505050565b600a8181548110610c4057600080fd5b6000918252602090912001546001600160a01b0316905081565b6060600a805480602002602001604051908101604052809291908181526020018280548015610ab157602002820191906000526020600020905b81546001600160a01b03168152600190910190602001808311610c94575050505050905090565b6005546001600160a01b03163314610ce657604051634b05ae8560e11b815260040160405180910390fd5b6000838152600760205260409020610cff84600361283f565b818015610d10575060008160040154115b15610dcb5760058101546001600160a01b0316610d6d57600381015460048201546040516001600160a01b039092169181156108fc0291906000818181858888f19350505050158015610d67573d6000803e3d6000fd5b50610d94565b600381015460048201546005830154610d94926001600160a01b03918216929116906128e6565b600481015460058201546001600160a01b03166000908152600b602052604081208054909190610dc5908490613b17565b90915550505b6040805161ffff85168152831515602082015285917ff7061e20a57003952a3a98be55c537d9c3d732e2634c64a2ecac946e8e1c939f910160405180910390a250505050565b610e19612945565b610e22826129ea565b610e2c8282612a15565b5050565b6000610e3a612ad2565b50600080516020613d2683398151915290565b6005546000906001600160a01b03163314610e7b57604051634b05ae8560e11b815260040160405180910390fd5b6001600160a01b038516610ea55760405163ec442f0560e01b815260006004820152602401610b4e565b8261ffff16600003610ef95760405162461bcd60e51b815260206004820181905260248201527f455243313435303a20496e76616c696420726567756c6174696f6e20747970656044820152606401610b4e565b42821115610f5b5760405162461bcd60e51b815260206004820152602960248201527f455243313435303a204675747572652069737375616e63652064617465206e6f6044820152681d08185b1b1bddd95960ba1b6064820152608401610b4e565b8360046000828254610f6d9190613b2a565b90915550506001600160a01b0385166000908152600360205260409020805485019055610f9c85858585612b1b565b61ffff83166000908152600f602052604081208054869290610fbf908490613b2a565b90915550506040518481526001600160a01b03861690600090600080516020613d468339815191529060200160405180910390a360408051858152602081018490524281830152905161ffff8516916001600160a01b038816917fd7a03727fcad9fd7ec89ae4d2f858630c6af554ff70236b834cc92430a2e43c19181900360600190a3506001949350505050565b6005546001600160a01b0316331461107957604051634b05ae8560e11b815260040160405180910390fd5b6008805460ff191660ff86161790556009839055611099600a8383613288565b507f9950293518fa753941262ebbf10fa155a48d4e9c32101858c0c8d576abac9d0b848484846040516110cf9493929190613b3d565b60405180910390a150505050565b6005546001600160a01b0316331461110857604051634b05ae8560e11b815260040160405180910390fd5b610e2c828261283f565b60608060606000600e6000866001600160a01b03166001600160a01b03168152602001908152602001600020805480602002602001604051908101604052809291908181526020016000905b828210156111ae57600084815260209081902060408051606081018252600386029092018054835260018082015461ffff168486015260029091015491830191909152908352909201910161115e565b5050505090506000805b82518110156111fd5760008382815181106111d5576111d5613b9b565b60200260200101516000015111156111f557816111f181613bb1565b9250505b6001016111b8565b50806001600160401b03811115611216576112166135b0565b60405190808252806020026020018201604052801561123f578160200160208202803683370190505b509450806001600160401b0381111561125a5761125a6135b0565b604051908082528060200260200182016040528015611283578160200160208202803683370190505b509350806001600160401b0381111561129e5761129e6135b0565b6040519080825280602002602001820160405280156112c7578160200160208202803683370190505b5092506000805b83518110156113d05760008482815181106112eb576112eb613b9b565b60200260200101516000015111156113c85783818151811061130f5761130f613b9b565b60200260200101516020015187838151811061132d5761132d613b9b565b602002602001019061ffff16908161ffff168152505083818151811061135557611355613b9b565b60200260200101516000015186838151811061137357611373613b9b565b60200260200101818152505083818151811061139157611391613b9b565b6020026020010151604001518583815181106113af576113af613b9b565b6020908102919091010152816113c481613bb1565b9250505b6001016112ce565b505050509193909250565b6113e3612c4e565b6113ed6000612c80565b565b6005546000906001600160a01b0316331461141d57604051634b05ae8560e11b815260040160405180910390fd5b6001600160a01b03831661144757604051634b637e8f60e11b815260006004820152602401610b4e565b6001600160a01b038316600090815260036020526040902054828110156114875783818460405163391434e360e21b8152600401610b4e93929190613bca565b6114918484612cf1565b6001600160a01b0384166000818152600360209081526040808320878603905560048054889003905551868152919291600080516020613d46833981519152910160405180910390a35060019392505050565b6005546001600160a01b0316331461150f57604051634b05ae8560e11b815260040160405180910390fd5b6001600160a01b0382166000818152600c6020908152604091829020805460ff191685151590811790915591519182523392917f6eeca9bd01d51a74626e1dba78769450e56fe3f29dee5b0f3aee086d5f5ceaaf910160405180910390a35050565b6005546001600160a01b0316331461159c57604051634b05ae8560e11b815260040160405180910390fd5b6001600160a01b0381166115c657604051631e4fbdf760e01b815260006004820152602401610b4e565b60006115d061194b565b90506115db82612c80565b816001600160a01b0316816001600160a01b03167faf014c0f1e2d7c810cfe4f4ec7c675b9dbd7ad5fd0b058fe94776a447d6f333760405160405180910390a35050565b6005546001600160a01b0316331461164a57604051634b05ae8560e11b815260040160405180910390fd5b60008181526007602052604090206004600582810154600160a01b900460ff169081111561167a5761167a613343565b141580156116a857506003600582810154600160a01b900460ff16908111156116a5576116a5613343565b14155b6116ff5760405162461bcd60e51b815260206004820152602260248201527f455243313435303a205265717565737420616c72656164792066696e616c697a604482015261195960f21b6064820152608401610b4e565b6002600582810154600160a01b900460ff169081111561172157611721613343565b146117315761173182600261283f565b805460018201546002830154611754926001600160a01b03908116921690612587565b61175f82600461283f565b6001810154815460028301546040519081526001600160a01b03928316929091169084907feb669e0a01fff40cbe45de851f42334fe70673136abfd91399651b7ae199a07b9060200160405180910390a45050565b6001600160a01b03811661180a5760405162461bcd60e51b815260206004820152601f60248201527f455243313435303a20496e76616c6964207472616e73666572206167656e74006044820152606401610b4e565b600554600160a01b900460ff161561183557604051632b3cc4e160e21b815260040160405180910390fd5b6005546001600160a01b03161580159061185a57506005546001600160a01b03163314155b1561187857604051634b05ae8560e11b815260040160405180910390fd5b61188061194b565b6001600160a01b0316336001600160a01b0316141580156118ac57506005546001600160a01b03163314155b156118cc5760405163118cdaa760e01b8152336004820152602401610b4e565b600580546001600160a01b038381166001600160a01b03198316811790935516903b15611907576005805460ff60a01b1916600160a01b1790555b816001600160a01b0316816001600160a01b03167f35e89afcbe61fb77843ff4fb292fdc4b00f10009912cacbb48c537c93c84eccb60405160405180910390a35050565b7f9016d09d72d40fdae2fd8ceac6b6234c7706214fd39c1cd1e609a0528c199300546001600160a01b031690565b606060018054610a3890613a8e565b6005546001600160a01b031633146119b357604051634b05ae8560e11b815260040160405180910390fd5b6001600160a01b038116611a095760405162461bcd60e51b815260206004820152601a60248201527f455243313435303a20496e76616c696420726563697069656e740000000000006044820152606401610b4e565b6001600160a01b0383166000908152600b6020526040902054821115611a60576001600160a01b0383166000908152600b60205260409081902054905163391434e360e21b8152610b4e9130918590600401613bca565b6001600160a01b0383166000908152600b602052604081208054849290611a88908490613b17565b90915550506001600160a01b038316611ad7576040516001600160a01b0382169083156108fc029084906000818181858888f19350505050158015611ad1573d6000803e3d6000fd5b50611aeb565b611aeb6001600160a01b03841682846128e6565b806001600160a01b0316836001600160a01b03167f87044da2612407bc001bb0985725dcc651a0dc71eaabfd1d7e8617ca85a8c19c84604051611b3091815260200190565b60405180910390a3505050565b6005546001600160a01b03163314611b6857604051634b05ae8560e11b815260040160405180910390fd5b611b73848484612587565b826001600160a01b0316846001600160a01b03167f79d934d1fea524bb1baacd60b5b9b94a3b948a19d8d762726f7ecbe400308f15848442604051611bcb939291909283526020830191909152604082015260600190565b60405180910390a350505050565b6005546001600160a01b03163314611c0457604051634b05ae8560e11b815260040160405180910390fd5b306001600160a01b03831603611c2d57604051634b05ae8560e11b815260040160405180910390fd5b6001600160a01b038216611c7a576005546040516001600160a01b039091169082156108fc029083906000818181858888f19350505050158015611c75573d6000803e3d6000fd5b505050565b600554610e2c906001600160a01b038481169116836128e6565b6005546000906001600160a01b03163314611cc257604051634b05ae8560e11b815260040160405180910390fd5b6001600160a01b038416611cec57604051634b637e8f60e11b815260006004820152602401610b4e565b6001600160a01b03841660009081526003602052604090205483811015611d2c5784818560405163391434e360e21b8152600401610b4e93929190613bca565b6001600160a01b0385166000908152600e6020526040812085915b815481108015611d575750600083115b15611f13578561ffff16828281548110611d7357611d73613b9b565b600091825260209091206001600390920201015461ffff16148015611dbb57506000828281548110611da757611da7613b9b565b906000526020600020906003020160000154115b15611f0157600083838381548110611dd557611dd5613b9b565b90600052602060002090600302016000015411611e1557828281548110611dfe57611dfe613b9b565b906000526020600020906003020160000154611e17565b835b905080838381548110611e2c57611e2c613b9b565b90600052602060002090600302016000016000828254611e4c9190613b17565b90915550611e5c90508185613b17565b61ffff88166000908152600f6020526040812080549296508392909190611e84908490613b17565b925050819055508661ffff16896001600160a01b03167f3e12e887d427175142a28b9b6c2740bc2da6904e3c9f86a2aea2a2cc53bb95b783868681548110611ece57611ece613b9b565b906000526020600020906003020160020154604051611ef7929190918252602082015260400190565b60405180910390a3505b80611f0b81613bb1565b915050611d47565b508115611f7f5760405162461bcd60e51b815260206004820152603460248201527f455243313435303a20496e73756666696369656e7420746f6b656e73206f662060448201527339b832b1b4b334b2b2103932b3bab630ba34b7b760611b6064820152608401610b4e565b6001600160a01b03871660008181526003602090815260408083208a88039055600480548b9003905551898152919291600080516020613d46833981519152910160405180910390a3600193505050505b9392505050565b6000611fe1612f02565b805490915060ff600160401b82041615906001600160401b03166000811580156120085750825b90506000826001600160401b031660011480156120245750303b155b905081158015612032575080155b156120505760405163f92ee8a960e01b815260040160405180910390fd5b845467ffffffffffffffff19166001178555831561207a57845460ff60401b1916600160401b1785555b6001600160a01b0386166120d05760405162461bcd60e51b815260206004820152601f60248201527f455243313435303a20496e76616c6964207472616e73666572206167656e74006044820152606401610b4e565b6120d987612f2b565b6120e1612f3c565b6120e9612f4c565b6120f1612f4c565b60006120fd8b82613c32565b50600161210a8a82613c32565b506002805460ff8a1660ff1991821617909155600580546001600160a01b0389166001600160a01b031991821617909155600160068190556008805490931690925560006009819055600a8054938401815590527fc65a7bb8d6351c1cf70c95a316cc6a92839c986682d98bc35f958f4883f9d2a89091018054909116905583156121cf57845460ff60401b19168555604051600181527fc7f505b2f371ae2175ee4913f4499e1f2633a7b5936321eed1cdaeb6115181d29060200160405180910390a15b50505050505050505050565b60006121e5612f54565b6001600160a01b038616158061220257506001600160a01b038516155b156122235760405163ec442f0560e01b815260006004820152602401610b4e565b336001600160a01b0387161480159061224c5750336000908152600c602052604090205460ff16155b1561226c5760405163118cdaa760e01b8152336004820152602401610b4e565b612275836127e0565b61229d5760405163ec442f0560e01b81526001600160a01b0384166004820152602401610b4e565b8115612360576001600160a01b03831661231d578134146122d75733348360405163391434e360e21b8152600401610b4e93929190613bca565b6000808052600b6020527fdf7de25b7f1fd6d0b5205f0e18f1f35bd7b8d84cce336588d184533ce43a6f768054849290612312908490613b2a565b909155506123609050565b6123326001600160a01b038416333085612f9e565b6001600160a01b0383166000908152600b60205260408120805484929061235a908490613b2a565b90915550505b6006805490600061237083613bb1565b9091555060408051610100810182526001600160a01b03898116825288811660208084019182528385018a81523360608601908152608086018a81528b861660a08801908152600060c089018181524260e08b01528b8252600790965298909820875181549088166001600160a01b03199182161782559551600182018054918916918816919091179055925160028401559051600383018054918716918616919091179055516004820155945160058087018054929095169382168417855591519697509395936001600160a81b03191690911790600160a01b90849081111561245d5761245d613343565b021790555060e091909101516006909101556040805185815260208101849052338183015290516001600160a01b03878116929089169184917f5c305e799a867c1f9a632629eba8ba08f423e4350397ef18fee1cbb4632df2c5919081900360600190a46124ea60017f9b779b17422d0df92223018b32b4d1fa46e071723d6817e2486d003becc55f0055565b95945050505050565b6005546001600160a01b0316331461251e57604051634b05ae8560e11b815260040160405180910390fd5b6001600160a01b03919091166000908152600d60205260409020805460ff1916911515919091179055565b612551612c4e565b6001600160a01b03811661257b57604051631e4fbdf760e01b815260006004820152602401610b4e565b61258481612c80565b50565b6001600160a01b0383166125b157604051634b637e8f60e11b815260006004820152602401610b4e565b6001600160a01b0382166125db5760405163ec442f0560e01b815260006004820152602401610b4e565b6001600160a01b0383166000908152600360205260409020548181101561261b5783818360405163391434e360e21b8152600401610b4e93929190613bca565b6001600160a01b038085166000818152600360205260408082208686039055928616808252908390208054860190559151600080516020613d4683398151915290611bcb9086815260200190565b6001600160a01b0383166000908152600e602052604081209082905b8254811080156126955750600082115b156127d85760008382815481106126ae576126ae613b9b565b90600052602060002090600302016000015411156127c6576000828483815481106126db576126db613b9b565b9060005260206000209060030201600001541161271b5783828154811061270457612704613b9b565b90600052602060002090600302016000015461271d565b825b90508084838154811061273257612732613b9b565b906000526020600020906003020160000160008282546127529190613b17565b9091555061276290508184613b17565b92506127c4868286858154811061277b5761277b613b9b565b906000526020600020906003020160010160009054906101000a900461ffff168786815481106127ad576127ad613b9b565b906000526020600020906003020160020154612b1b565b505b806127d081613bb1565b915050612685565b505050505050565b6000805b600a5481101561283657826001600160a01b0316600a828154811061280b5761280b613b9b565b6000918252602090912001546001600160a01b03160361282e5750600192915050565b6001016127e4565b50600092915050565b600082815260076020526040902060058082018054600160a01b80820460ff169386939260ff60a01b19169190849081111561287d5761287d613343565b021790555082600581111561289457612894613343565b8160058111156128a6576128a6613343565b857f624f756b8457d5d02670046b80faa01c08502d2cbb53c3e61c1ef90a6b66cf91426040516128d891815260200190565b60405180910390a450505050565b6040516001600160a01b03838116602483015260448201839052611c7591859182169063a9059cbb906064015b604051602081830303815290604052915060e01b6020820180516001600160e01b038381831617835250505050612ffd565b306001600160a01b037f00000000000000000000000000000000000000000000000000000000000000001614806129cc57507f00000000000000000000000000000000000000000000000000000000000000006001600160a01b03166129c0600080516020613d26833981519152546001600160a01b031690565b6001600160a01b031614155b156113ed5760405163703e46dd60e11b815260040160405180910390fd5b6005546001600160a01b0316331461258457604051634b05ae8560e11b815260040160405180910390fd5b816001600160a01b03166352d1902d6040518163ffffffff1660e01b8152600401602060405180830381865afa925050508015612a6f575060408051601f3d908101601f19168201909252612a6c91810190613cf0565b60015b612a9757604051634c9c8ce360e01b81526001600160a01b0383166004820152602401610b4e565b600080516020613d268339815191528114612ac857604051632a87526960e21b815260048101829052602401610b4e565b611c75838361306e565b306001600160a01b037f000000000000000000000000000000000000000000000000000000000000000016146113ed5760405163703e46dd60e11b815260040160405180910390fd5b6001600160a01b0384166000908152600e60205260408120905b8154811015612be9578361ffff16828281548110612b5557612b55613b9b565b600091825260209091206001600390920201015461ffff16148015612b9c575082828281548110612b8857612b88613b9b565b906000526020600020906003020160020154145b15612be15784828281548110612bb457612bb4613b9b565b90600052602060002090600302016000016000828254612bd49190613b2a565b90915550612c4892505050565b600101612b35565b506040805160608101825285815261ffff85811660208084019182529383018681528554600180820188556000978852959096209351600390960290930194855551928401805461ffff19169390911692909217909155516002909101555b50505050565b33612c5761194b565b6001600160a01b0316146113ed5760405163118cdaa760e01b8152336004820152602401610b4e565b7f9016d09d72d40fdae2fd8ceac6b6234c7706214fd39c1cd1e609a0528c19930080546001600160a01b031981166001600160a01b03848116918217845560405192169182907f8be0079c531659141344cd1fd0a4f28419497f9722a3daafe3b4186f6b6457e090600090a3505050565b6001600160a01b0382166000908152600e602052604081209082905b825481108015612d1d5750600082115b15612efb576000838281548110612d3657612d36613b9b565b9060005260206000209060030201600001541115612ee957600082848381548110612d6357612d63613b9b565b90600052602060002090600302016000015411612da357838281548110612d8c57612d8c613b9b565b906000526020600020906003020160000154612da5565b825b905080848381548110612dba57612dba613b9b565b90600052602060002090600302016000016000828254612dda9190613b17565b90915550612dea90508184613b17565b925080600f6000868581548110612e0357612e03613b9b565b600091825260208083206001600390930201919091015461ffff16835282019290925260400181208054909190612e3b908490613b17565b92505081905550838281548110612e5457612e54613b9b565b906000526020600020906003020160010160009054906101000a900461ffff1661ffff16866001600160a01b03167f3e12e887d427175142a28b9b6c2740bc2da6904e3c9f86a2aea2a2cc53bb95b783878681548110612eb657612eb6613b9b565b906000526020600020906003020160020154604051612edf929190918252602082015260400190565b60405180910390a3505b80612ef381613bb1565b915050612d0d565b5050505050565b6000807ff0c57e16840df040f15088dc2f81fe391c3923bec73e23a9662efc9c229c6a00610a23565b612f336130c4565b612584816130e9565b612f446130c4565b6113ed6130f1565b6113ed6130c4565b7f9b779b17422d0df92223018b32b4d1fa46e071723d6817e2486d003becc55f00805460011901612f9857604051633ee5aeb560e01b815260040160405180910390fd5b60029055565b6040516001600160a01b038481166024830152838116604483015260648201839052612c489186918216906323b872dd90608401612913565b60017f9b779b17422d0df92223018b32b4d1fa46e071723d6817e2486d003becc55f0055565b600080602060008451602086016000885af180613020576040513d6000823e3d81fd5b50506000513d91508115613038578060011415613045565b6001600160a01b0384163b155b15612c4857604051635274afe760e01b81526001600160a01b0385166004820152602401610b4e565b613077826130f9565b6040516001600160a01b038316907fbc7cd75a20ee27fd9adebab32041f755214dbc6bffa90cc0225b39da2e5c2d3b90600090a28051156130bc57611c75828261315e565b610e2c6131cb565b6130cc6131ea565b6113ed57604051631afcd79f60e31b815260040160405180910390fd5b6125516130c4565b612fd76130c4565b806001600160a01b03163b60000361312f57604051634c9c8ce360e01b81526001600160a01b0382166004820152602401610b4e565b600080516020613d2683398151915280546001600160a01b0319166001600160a01b0392909216919091179055565b6060600080846001600160a01b03168460405161317b9190613d09565b600060405180830381855af49150503d80600081146131b6576040519150601f19603f3d011682016040523d82523d6000602084013e6131bb565b606091505b50915091506124ea858383613204565b34156113ed5760405163b398979f60e01b815260040160405180910390fd5b60006131f4612f02565b54600160401b900460ff16919050565b6060826132195761321482613260565b611fd0565b815115801561323057506001600160a01b0384163b155b1561325957604051639996b31560e01b81526001600160a01b0385166004820152602401610b4e565b5080611fd0565b80511561326f57805160208201fd5b60405163d6bda27560e01b815260040160405180910390fd5b8280548282559060005260206000209081019282156132db579160200282015b828111156132db5781546001600160a01b0319166001600160a01b038435161782556020909201916001909101906132a8565b506132e79291506132eb565b5090565b5b808211156132e757600081556001016132ec565b60006020828403121561331257600080fd5b81356001600160e01b031981168114611fd057600080fd5b60006020828403121561333c57600080fd5b5035919050565b634e487b7160e01b600052602160045260246000fd5b6001600160a01b038981168252888116602083015260408201889052868116606083015260808201869052841660a08201526101008101600684106133ae57634e487b7160e01b600052602160045260246000fd5b60c082019390935260e001529695505050505050565b60005b838110156133df5781810151838201526020016133c7565b50506000910152565b60208152600082518060208401526134078160408501602087016133c4565b601f01601f19169190910160400192915050565b80356001600160a01b038116811461343257600080fd5b919050565b6000806040838503121561344a57600080fd5b6134538361341b565b946020939093013593505050565b60006020828403121561347357600080fd5b611fd08261341b565b60008060006060848603121561349157600080fd5b61349a8461341b565b92506134a86020850161341b565b929592945050506040919091013590565b600080600080608085870312156134cf57600080fd5b6134d88561341b565b93506134e66020860161341b565b9250604085013591506134fb6060860161341b565b905092959194509250565b602080825282518282018190526000918401906040840190835b818110156135475783516001600160a01b0316835260209384019390920191600101613520565b509095945050505050565b803561ffff8116811461343257600080fd5b8035801515811461343257600080fd5b60008060006060848603121561358957600080fd5b8335925061359960208501613552565b91506135a760408501613564565b90509250925092565b634e487b7160e01b600052604160045260246000fd5b6000806001600160401b038411156135e0576135e06135b0565b50604051601f19601f85018116603f011681018181106001600160401b038211171561360e5761360e6135b0565b60405283815290508082840185101561362657600080fd5b83836020830137600060208583010152509392505050565b6000806040838503121561365157600080fd5b61365a8361341b565b915060208301356001600160401b0381111561367557600080fd5b8301601f8101851361368657600080fd5b613695858235602084016135c6565b9150509250929050565b600080600080608085870312156136b557600080fd5b6136be8561341b565b9350602085013592506136d360408601613552565b9396929550929360600135925050565b803560ff8116811461343257600080fd5b6000806000806060858703121561370a57600080fd5b613713856136e3565b93506020850135925060408501356001600160401b0381111561373557600080fd5b8501601f8101871361374657600080fd5b80356001600160401b0381111561375c57600080fd5b8760208260051b840101111561377157600080fd5b949793965060200194505050565b6000806040838503121561379257600080fd5b823591506020830135600681106137a857600080fd5b809150509250929050565b600081518084526020840193506020830160005b828110156137e55781518652602095860195909101906001016137c7565b5093949350505050565b6060808252845190820181905260009060208601906080840190835b8181101561382d57835161ffff1683526020938401939092019160010161380b565b5050838103602085015261384181876137b3565b915050828103604084015261385681856137b3565b9695505050505050565b6000806040838503121561387357600080fd5b61387c8361341b565b915061388a60208401613564565b90509250929050565b6000806000606084860312156138a857600080fd5b6138b18461341b565b9250602084013591506135a76040850161341b565b600080600080608085870312156138dc57600080fd5b6138e58561341b565b93506138f36020860161341b565b93969395505050506040820135916060013590565b60008060006060848603121561391d57600080fd5b6139268461341b565b9250602084013591506135a760408501613552565b600082601f83011261394c57600080fd5b611fd0838335602085016135c6565b600080600080600060a0868803121561397357600080fd5b85356001600160401b0381111561398957600080fd5b6139958882890161393b565b95505060208601356001600160401b038111156139b157600080fd5b6139bd8882890161393b565b9450506139cc604087016136e3565b92506139da6060870161341b565b91506139e86080870161341b565b90509295509295909350565b600060208284031215613a0657600080fd5b611fd082613552565b600080600080600060a08688031215613a2757600080fd5b613a308661341b565b9450613a3e6020870161341b565b935060408601359250613a536060870161341b565b949793965091946080013592915050565b60008060408385031215613a7757600080fd5b613a808361341b565b915061388a6020840161341b565b600181811c90821680613aa257607f821691505b602082108103613ac257634e487b7160e01b600052602260045260246000fd5b50919050565b634e487b7160e01b600052601160045260246000fd5b8082028115828204841417610a2357610a23613ac8565b600082613b1257634e487b7160e01b600052601260045260246000fd5b500490565b81810381811115610a2357610a23613ac8565b80820180821115610a2357610a23613ac8565b60ff8516815260208101849052606060408201819052810182905260008360808301825b85811015613b8f576001600160a01b03613b7a8461341b565b16825260209283019290910190600101613b61565b50979650505050505050565b634e487b7160e01b600052603260045260246000fd5b600060018201613bc357613bc3613ac8565b5060010190565b6001600160a01b039390931683526020830191909152604082015260600190565b601f821115611c7557806000526020600020601f840160051c81016020851015613c125750805b601f840160051c820191505b81811015612efb5760008155600101613c1e565b81516001600160401b03811115613c4b57613c4b6135b0565b613c5f81613c598454613a8e565b84613beb565b6020601f821160018114613c935760008315613c7b5750848201515b600019600385901b1c1916600184901b178455612efb565b600084815260208120601f198516915b82811015613cc35787850151825560209485019460019092019101613ca3565b5084821015613ce15786840151600019600387901b60f8161c191681555b50505050600190811b01905550565b600060208284031215613d0257600080fd5b5051919050565b60008251613d1b8184602087016133c4565b919091019291505056fe360894a13ba1a3210667c828492db98dca3e2076cc3735a920a3ca505d382bbcddf252ad1be2c89b69c2b068fc378daa952ba7f163c4a11628f55a4df523b3efa264697066735822122002022dafc99b4227c23742318ddfd6f5c49668ae4cc424a4a10e7429aae74e3664736f6c634300081b0033",
  "linkReferences": {},
  "deployedLinkReferences": {}
}