{
  "_format": "hh-sol-artifact-1",
  "contractName": "ERC1450Upgradeable",
  "sourceName": "contracts/upgradeable/ERC1450Upgradeable.sol",
  "abi": [
    {
      "inputs": [],
      "stateMutability": "nonpayable",
      "type": "constructor"
    },
    {
      "inputs": [
        {
          "internalType": "address",
          "name": "target",
          "type": "address"
        }
      ],
      "name": "AddressEmptyCode",
      "type": "error"
    },
    {
      "inputs": [
        {
          "internalType": "address",
          "name": "from",
          "type": "address"
        },
        {
          "internalType": "address",
          "name": "to",
          "type": "address"
        }
      ],
      "name": "ERC1450ComplianceCheckFailed",
      "type": "error"
    },
    {
      "inputs": [],
      "name": "ERC1450OnlyRTA",
      "type": "error"
    },
    {
      "inputs": [],
      "name": "ERC1450TransferAgentLocked",
      "type": "error"
    },
    {
      "inputs": [],
      "name": "ERC1450TransferDisabled",
      "type": "error"
    },
    {
      "inputs": [
        {
          "internalType": "address",
          "name": "implementation",
          "type": "address"
        }
      ],
      "name": "ERC1967InvalidImplementation",
      "type": "error"
    },
    {
      "inputs": [],
      "name": "ERC1967NonPayable",
      "type": "error"
    },
    {
      "inputs": [
        {
          "internalType": "address",
          "name": "sender",
          "type": "address"
        },
        {
          "internalType": "uint256",
          "name": "balance",
          "type": "uint256"
        },
        {
          "internalType": "uint256",
          "name": "needed",
          "type": "uint256"
        }
      ],
      "name": "ERC20InsufficientBalance",
      "type": "error"
    },
    {
      "inputs": [
        {
          "internalType": "address",
          "name": "receiver",
          "type": "address"
        }
      ],
      "name": "ERC20InvalidReceiver",
      "type": "error"
    },
    {
      "inputs": [
        {
          "internalType": "address",
          "name": "sender",
          "type": "address"
        }
      ],
      "name": "ERC20InvalidSender",
      "type": "error"
    },
    {
      "inputs": [],
      "name": "FailedCall",
      "type": "error"
    },
    {
      "inputs": [],
      "name": "InvalidInitialization",
      "type": "error"
    },
    {
      "inputs": [],
      "name": "NotInitializing",
      "type": "error"
    },
    {
      "inputs": [
        {
          "internalType": "address",
          "name": "owner",
          "type": "address"
        }
      ],
      "name": "OwnableInvalidOwner",
      "type": "error"
    },
    {
      "inputs": [
        {
          "internalType": "address",
          "name": "account",
          "type": "address"
        }
      ],
      "name": "OwnableUnauthorizedAccount",
      "type": "error"
    },
    {
      "inputs": [],
      "name": "ReentrancyGuardReentrantCall",
      "type": "error"
    },
    {
      "inputs": [
        {
          "internalType": "address",
          "name": "token",
          "type": "address"
        }
      ],
      "name": "SafeERC20FailedOperation",
      "type": "error"
    },
    {
      "inputs": [],
      "name": "UUPSUnauthorizedCallContext",
      "type": "error"
    },
    {
      "inputs": [
        {
          "internalType": "bytes32",
          "name": "slot",
          "type": "bytes32"
        }
      ],
      "name": "UUPSUnsupportedProxiableUUID",
      "type": "error"
    },
    {
      "anonymous": false,
      "inputs": [
        {
          "indexed": true,
          "internalType": "address",
          "name": "owner",
          "type": "address"
        },
        {
          "indexed": true,
          "internalType": "address",
          "name": "spender",
          "type": "address"
        },
        {
          "indexed": false,
          "internalType": "uint256",
          "name": "value",
          "type": "uint256"
        }
      ],
      "name": "Approval",
      "type": "event"
    },
    {
      "anonymous": false,
      "inputs": [
        {
          "indexed": true,
          "internalType": "address",
          "name": "broker",
          "type": "address"
        },
        {
          "indexed": false,
          "internalType": "bool",
          "name": "isApproved",
          "type": "bool"
        },
        {
          "indexed": true,
          "internalType": "address",
          "name": "updatedBy",
          "type": "address"
        }
      ],
      "name": "BrokerStatusUpdated",
      "type": "event"
    },
    {
      "anonymous": false,
      "inputs": [
        {
          "indexed": true,
          "internalType": "address",
          "name": "from",
          "type": "address"
        },
        {
          "indexed": true,
          "internalType": "address",
          "name": "to",
          "type": "address"
        },
        {
          "indexed": false,
          "internalType": "uint256",
          "name": "amount",
          "type": "uint256"
        },
        {
          "indexed": false,
          "internalType": "bytes32",
          "name": "documentHash",
          "type": "bytes32"
        },
        {
          "indexed": false,
          "internalType": "uint256",
          "name": "timestamp",
          "type": "uint256"
        }
      ],
      "name": "CourtOrderExecuted",
      "type": "event"
    },
    {
      "anonymous": false,
      "inputs": [
        {
          "indexed": false,
          "internalType": "uint8",
          "name": "feeType",
          "type": "uint8"
        },
        {
          "indexed": false,
          "internalType": "uint256",
          "name": "feeValue",
          "type": "uint256"
        },
        {
          "indexed": false,
          "internalType": "address[]",
          "name": "acceptedTokens",
          "type": "address[]"
        }
      ],
      "name": "FeeParametersUpdated",
      "type": "event"
    },
    {
      "anonymous": false,
      "inputs": [
        {
          "indexed": true,
          "internalType": "address",
          "name": "token",
          "type": "address"
        },
        {
          "indexed": false,
          "internalType": "uint256",
          "name": "amount",
          "type": "uint256"
        },
        {
          "indexed": true,
          "internalType": "address",
          "name": "recipient",
          "type": "address"
        }
      ],
      "name": "FeesWithdrawn",
      "type": "event"
    },
    {
      "anonymous": false,
      "inputs": [
        {
          "indexed": false,
          "internalType": "uint64",
          "name": "version",
          "type": "uint64"
        }
      ],
      "name": "Initialized",
      "type": "event"
    },
    {
      "anonymous": false,
      "inputs": [
        {
          "indexed": true,
          "internalType": "address",
          "name": "previousIssuer",
          "type": "address"
        },
        {
          "indexed": true,
          "internalType": "address",
          "name": "newIssuer",
          "type": "address"
        }
      ],
      "name": "IssuerChanged",
      "type": "event"
    },
    {
      "anonymous": false,
      "inputs": [
        {
          "indexed": true,
          "internalType": "address",
          "name": "previousOwner",
          "type": "address"
        },
        {
          "indexed": true,
          "internalType": "address",
          "name": "newOwner",
          "type": "address"
        }
      ],
      "name": "OwnershipTransferred",
      "type": "event"
    },
    {
      "anonymous": false,
      "inputs": [
        {
          "indexed": true,
          "internalType": "uint256",
          "name": "requestId",
          "type": "uint256"
        },
        {
          "indexed": true,
          "internalType": "enum IERC1450.RequestStatus",
          "name": "oldStatus",
          "type": "uint8"
        },
        {
          "indexed": true,
          "internalType": "enum IERC1450.RequestStatus",
          "name": "newStatus",
          "type": "uint8"
        },
        {
          "indexed": false,
          "internalType": "uint256",
          "name": "timestamp",
          "type": "uint256"
        }
      ],
      "name": "RequestStatusChanged",
      "type": "event"
    },
    {
      "anonymous": false,
      "inputs": [
        {
          "indexed": true,
          "internalType": "address",
          "name": "from",
          "type": "address"
        },
        {
          "indexed": true,
          "internalType": "address",
          "name": "to",
          "type": "address"
        },
        {
          "indexed": false,
          "internalType": "uint256",
          "name": "value",
          "type": "uint256"
        }
      ],
      "name": "Transfer",
      "type": "event"
    },
    {
      "anonymous": false,
      "inputs": [
        {
          "indexed": true,
          "internalType": "address",
          "name": "previousAgent",
          "type": "address"
        },
        {
          "indexed": true,
          "internalType": "address",
          "name": "newAgent",
          "type": "address"
        }
      ],
      "name": "TransferAgentUpdated",
      "type": "event"
    },
    {
      "anonymous": false,
      "inputs": [
        {
          "indexed": true,
          "internalType": "uint256",
          "name": "requestId",
          "type": "uint256"
        },
        {
          "indexed": true,
          "internalType": "address",
          "name": "from",
          "type": "address"
        },
        {
          "indexed": true,
          "internalType": "address",
          "name": "to",
          "type": "address"
        },
        {
          "indexed": false,
          "internalType": "uint256",
          "name": "amount",
          "type": "uint256"
        }
      ],
      "name": "TransferExecuted",
      "type": "event"
    },
    {
      "anonymous": false,
      "inputs": [
        {
          "indexed": true,
          "internalType": "uint256",
          "name": "requestId",
          "type": "uint256"
        },
        {
          "indexed": false,
          "internalType": "uint256",
          "name": "expiredAt",
          "type": "uint256"
        }
      ],
      "name": "TransferExpired",
      "type": "event"
    },
    {
      "anonymous": false,
      "inputs": [
        {
          "indexed": true,
          "internalType": "uint256",
          "name": "requestId",
          "type": "uint256"
        },
        {
          "indexed": false,
          "internalType": "uint16",
          "name": "reasonCode",
          "type": "uint16"
        },
        {
          "indexed": false,
          "internalType": "bool",
          "name": "feeRefunded",
          "type": "bool"
        }
      ],
      "name": "TransferRejected",
      "type": "event"
    },
    {
      "anonymous": false,
      "inputs": [
        {
          "indexed": true,
          "internalType": "uint256",
          "name": "requestId",
          "type": "uint256"
        },
        {
          "indexed": true,
          "internalType": "address",
          "name": "from",
          "type": "address"
        },
        {
          "indexed": true,
          "internalType": "address",
          "name": "to",
          "type": "address"
        },
        {
          "indexed": false,
          "internalType": "uint256",
          "name": "amount",
          "type": "uint256"
        },
        {
          "indexed": false,
          "internalType": "uint256",
          "name": "feePaid",
          "type": "uint256"
        },
        {
          "indexed": false,
          "internalType": "address",
          "name": "requestedBy",
          "type": "address"
        }
      ],
      "name": "TransferRequested",
      "type": "event"
    },
    {
      "anonymous": false,
      "inputs": [
        {
          "indexed": true,
          "internalType": "address",
          "name": "implementation",
          "type": "address"
        }
      ],
      "name": "Upgraded",
      "type": "event"
    },
    {
      "inputs": [],
      "name": "UPGRADE_INTERFACE_VERSION",
      "outputs": [
        {
          "internalType": "string",
          "name": "",
          "type": "string"
        }
      ],
      "stateMutability": "view",
      "type": "function"
    },
    {
      "inputs": [
        {
          "internalType": "uint256",
          "name": "",
          "type": "uint256"
        }
      ],
      "name": "acceptedFeeTokens",
      "outputs": [
        {
          "internalType": "address",
          "name": "",
          "type": "address"
        }
      ],
      "stateMutability": "view",
      "type": "function"
    },
    {
      "inputs": [
        {
          "internalType": "address",
          "name": "",
          "type": "address"
        },
        {
          "internalType": "address",
          "name": "",
          "type": "address"
        }
      ],
      "name": "allowance",
      "outputs": [
        {
          "internalType": "uint256",
          "name": "",
          "type": "uint256"
        }
      ],
      "stateMutability": "pure",
      "type": "function"
    },
    {
      "inputs": [
        {
          "internalType": "address",
          "name": "",
          "type": "address"
        },
        {
          "internalType": "uint256",
          "name": "",
          "type": "uint256"
        }
      ],
      "name": "approve",
      "outputs": [
        {
          "internalType": "bool",
          "name": "",
          "type": "bool"
        }
      ],
      "stateMutability": "pure",
      "type": "function"
    },
    {
      "inputs": [
        {
          "internalType": "address",
          "name": "",
          "type": "address"
        }
      ],
      "name": "approvedBrokers",
      "outputs": [
        {
          "internalType": "bool",
          "name": "",
          "type": "bool"
        }
      ],
      "stateMutability": "view",
      "type": "function"
    },
    {
      "inputs": [
        {
          "internalType": "address",
          "name": "account",
          "type": "address"
        }
      ],
      "name": "balanceOf",
      "outputs": [
        {
          "internalType": "uint256",
          "name": "",
          "type": "uint256"
        }
      ],
      "stateMutability": "view",
      "type": "function"
    },
    {
      "inputs": [
        {
          "internalType": "address",
          "name": "from",
          "type": "address"
        },
        {
          "internalType": "uint256",
          "name": "amount",
          "type": "uint256"
        }
      ],
      "name": "burnFrom",
      "outputs": [
        {
          "internalType": "bool",
          "name": "",
          "type": "bool"
        }
      ],
      "stateMutability": "nonpayable",
      "type": "function"
    },
    {
      "inputs": [
        {
          "internalType": "address",
          "name": "newIssuer",
          "type": "address"
        }
      ],
      "name": "changeIssuer",
      "outputs": [],
      "stateMutability": "nonpayable",
      "type": "function"
    },
    {
      "inputs": [
        {
          "internalType": "address",
          "name": "",
          "type": "address"
        }
      ],
      "name": "collectedFees",
      "outputs": [
        {
          "internalType": "uint256",
          "name": "",
          "type": "uint256"
        }
      ],
      "stateMutability": "view",
      "type": "function"
    },
    {
      "inputs": [],
      "name": "decimals",
      "outputs": [
        {
          "internalType": "uint8",
          "name": "",
          "type": "uint8"
        }
      ],
      "stateMutability": "view",
      "type": "function"
    },
    {
      "inputs": [
        {
          "internalType": "address",
          "name": "from",
          "type": "address"
        },
        {
          "internalType": "address",
          "name": "to",
          "type": "address"
        },
        {
          "internalType": "uint256",
          "name": "amount",
          "type": "uint256"
        },
        {
          "internalType": "bytes32",
          "name": "documentHash",
          "type": "bytes32"
        }
      ],
      "name": "executeCourtOrder",
      "outputs": [],
      "stateMutability": "nonpayable",
      "type": "function"
    },
    {
      "inputs": [],
      "name": "feeType",
      "outputs": [
        {
          "internalType": "uint8",
          "name": "",
          "type": "uint8"
        }
      ],
      "stateMutability": "view",
      "type": "function"
    },
    {
      "inputs": [],
      "name": "feeValue",
      "outputs": [
        {
          "internalType": "uint256",
          "name": "",
          "type": "uint256"
        }
      ],
      "stateMutability": "view",
      "type": "function"
    },
    {
      "inputs": [
        {
          "internalType": "address",
          "name": "",
          "type": "address"
        }
      ],
      "name": "frozenAccounts",
      "outputs": [
        {
          "internalType": "bool",
          "name": "",
          "type": "bool"
        }
      ],
      "stateMutability": "view",
      "type": "function"
    },
    {
      "inputs": [],
      "name": "getAcceptedFeeTokens",
      "outputs": [
        {
          "internalType": "address[]",
          "name": "",
          "type": "address[]"
        }
      ],
      "stateMutability": "view",
      "type": "function"
    },
    {
      "inputs": [
        {
          "internalType": "address",
          "name": "",
          "type": "address"
        },
        {
          "internalType": "address",
          "name": "",
          "type": "address"
        },
        {
          "internalType": "uint256",
          "name": "amount",
          "type": "uint256"
        },
        {
          "internalType": "address",
          "name": "feeToken",
          "type": "address"
        }
      ],
      "name": "getTransferFee",
      "outputs": [
        {
          "internalType": "uint256",
          "name": "feeAmount",
          "type": "uint256"
        }
      ],
      "stateMutability": "view",
      "type": "function"
    },
    {
      "inputs": [
        {
          "internalType": "string",
          "name": "name_",
          "type": "string"
        },
        {
          "internalType": "string",
          "name": "symbol_",
          "type": "string"
        },
        {
          "internalType": "uint8",
          "name": "decimals_",
          "type": "uint8"
        },
        {
          "internalType": "address",
          "name": "initialOwner",
          "type": "address"
        },
        {
          "internalType": "address",
          "name": "initialTransferAgent",
          "type": "address"
        }
      ],
      "name": "initialize",
      "outputs": [],
      "stateMutability": "nonpayable",
      "type": "function"
    },
    {
      "inputs": [
        {
          "internalType": "address",
          "name": "account",
          "type": "address"
        }
      ],
      "name": "isAccountFrozen",
      "outputs": [
        {
          "internalType": "bool",
          "name": "",
          "type": "bool"
        }
      ],
      "stateMutability": "view",
      "type": "function"
    },
    {
      "inputs": [
        {
          "internalType": "address",
          "name": "broker",
          "type": "address"
        }
      ],
      "name": "isBroker",
      "outputs": [
        {
          "internalType": "bool",
          "name": "",
          "type": "bool"
        }
      ],
      "stateMutability": "view",
      "type": "function"
    },
    {
      "inputs": [],
      "name": "isSecurityToken",
      "outputs": [
        {
          "internalType": "bool",
          "name": "",
          "type": "bool"
        }
      ],
      "stateMutability": "pure",
      "type": "function"
    },
    {
      "inputs": [
        {
          "internalType": "address",
          "name": "addr",
          "type": "address"
        }
      ],
      "name": "isTransferAgent",
      "outputs": [
        {
          "internalType": "bool",
          "name": "",
          "type": "bool"
        }
      ],
      "stateMutability": "view",
      "type": "function"
    },
    {
      "inputs": [
        {
          "internalType": "address",
          "name": "to",
          "type": "address"
        },
        {
          "internalType": "uint256",
          "name": "amount",
          "type": "uint256"
        }
      ],
      "name": "mint",
      "outputs": [
        {
          "internalType": "bool",
          "name": "",
          "type": "bool"
        }
      ],
      "stateMutability": "nonpayable",
      "type": "function"
    },
    {
      "inputs": [],
      "name": "name",
      "outputs": [
        {
          "internalType": "string",
          "name": "",
          "type": "string"
        }
      ],
      "stateMutability": "view",
      "type": "function"
    },
    {
      "inputs": [],
      "name": "owner",
      "outputs": [
        {
          "internalType": "address",
          "name": "",
          "type": "address"
        }
      ],
      "stateMutability": "view",
      "type": "function"
    },
    {
      "inputs": [
        {
          "internalType": "uint256",
          "name": "requestId",
          "type": "uint256"
        }
      ],
      "name": "processTransferRequest",
      "outputs": [],
      "stateMutability": "nonpayable",
      "type": "function"
    },
    {
      "inputs": [],
      "name": "proxiableUUID",
      "outputs": [
        {
          "internalType": "bytes32",
          "name": "",
          "type": "bytes32"
        }
      ],
      "stateMutability": "view",
      "type": "function"
    },
    {
      "inputs": [
        {
          "internalType": "address",
          "name": "token",
          "type": "address"
        },
        {
          "internalType": "uint256",
          "name": "amount",
          "type": "uint256"
        }
      ],
      "name": "recoverToken",
      "outputs": [],
      "stateMutability": "nonpayable",
      "type": "function"
    },
    {
      "inputs": [
        {
          "internalType": "uint256",
          "name": "requestId",
          "type": "uint256"
        },
        {
          "internalType": "uint16",
          "name": "reasonCode",
          "type": "uint16"
        },
        {
          "internalType": "bool",
          "name": "refundFee",
          "type": "bool"
        }
      ],
      "name": "rejectTransferRequest",
      "outputs": [],
      "stateMutability": "nonpayable",
      "type": "function"
    },
    {
      "inputs": [],
      "name": "renounceOwnership",
      "outputs": [],
      "stateMutability": "nonpayable",
      "type": "function"
    },
    {
      "inputs": [
        {
          "internalType": "address",
          "name": "from",
          "type": "address"
        },
        {
          "internalType": "address",
          "name": "to",
          "type": "address"
        },
        {
          "internalType": "uint256",
          "name": "amount",
          "type": "uint256"
        },
        {
          "internalType": "address",
          "name": "feeToken",
          "type": "address"
        },
        {
          "internalType": "uint256",
          "name": "feeAmount",
          "type": "uint256"
        }
      ],
      "name": "requestTransferWithFee",
      "outputs": [
        {
          "internalType": "uint256",
          "name": "requestId",
          "type": "uint256"
        }
      ],
      "stateMutability": "payable",
      "type": "function"
    },
    {
      "inputs": [
        {
          "internalType": "address",
          "name": "account",
          "type": "address"
        },
        {
          "internalType": "bool",
          "name": "frozen",
          "type": "bool"
        }
      ],
      "name": "setAccountFrozen",
      "outputs": [],
      "stateMutability": "nonpayable",
      "type": "function"
    },
    {
      "inputs": [
        {
          "internalType": "address",
          "name": "broker",
          "type": "address"
        },
        {
          "internalType": "bool",
          "name": "approved",
          "type": "bool"
        }
      ],
      "name": "setBrokerStatus",
      "outputs": [],
      "stateMutability": "nonpayable",
      "type": "function"
    },
    {
      "inputs": [
        {
          "internalType": "uint8",
          "name": "newFeeType",
          "type": "uint8"
        },
        {
          "internalType": "uint256",
          "name": "newFeeValue",
          "type": "uint256"
        },
        {
          "internalType": "address[]",
          "name": "newAcceptedTokens",
          "type": "address[]"
        }
      ],
      "name": "setFeeParameters",
      "outputs": [],
      "stateMutability": "nonpayable",
      "type": "function"
    },
    {
      "inputs": [
        {
          "internalType": "address",
          "name": "newTransferAgent",
          "type": "address"
        }
      ],
      "name": "setTransferAgent",
      "outputs": [],
      "stateMutability": "nonpayable",
      "type": "function"
    },
    {
      "inputs": [
        {
          "internalType": "bytes4",
          "name": "interfaceId",
          "type": "bytes4"
        }
      ],
      "name": "supportsInterface",
      "outputs": [
        {
          "internalType": "bool",
          "name": "",
          "type": "bool"
        }
      ],
      "stateMutability": "view",
      "type": "function"
    },
    {
      "inputs": [],
      "name": "symbol",
      "outputs": [
        {
          "internalType": "string",
          "name": "",
          "type": "string"
        }
      ],
      "stateMutability": "view",
      "type": "function"
    },
    {
      "inputs": [],
      "name": "totalSupply",
      "outputs": [
        {
          "internalType": "uint256",
          "name": "",
          "type": "uint256"
        }
      ],
      "stateMutability": "view",
      "type": "function"
    },
    {
      "inputs": [
        {
          "internalType": "address",
          "name": "",
          "type": "address"
        },
        {
          "internalType": "uint256",
          "name": "",
          "type": "uint256"
        }
      ],
      "name": "transfer",
      "outputs": [
        {
          "internalType": "bool",
          "name": "",
          "type": "bool"
        }
      ],
      "stateMutability": "pure",
      "type": "function"
    },
    {
      "inputs": [
        {
          "internalType": "address",
          "name": "from",
          "type": "address"
        },
        {
          "internalType": "address",
          "name": "to",
          "type": "address"
        },
        {
          "internalType": "uint256",
          "name": "amount",
          "type": "uint256"
        }
      ],
      "name": "transferFrom",
      "outputs": [
        {
          "internalType": "bool",
          "name": "",
          "type": "bool"
        }
      ],
      "stateMutability": "nonpayable",
      "type": "function"
    },
    {
      "inputs": [
        {
          "internalType": "address",
          "name": "newOwner",
          "type": "address"
        }
      ],
      "name": "transferOwnership",
      "outputs": [],
      "stateMutability": "nonpayable",
      "type": "function"
    },
    {
      "inputs": [
        {
          "internalType": "uint256",
          "name": "",
          "type": "uint256"
        }
      ],
      "name": "transferRequests",
      "outputs": [
        {
          "internalType": "address",
          "name": "from",
          "type": "address"
        },
        {
          "internalType": "address",
          "name": "to",
          "type": "address"
        },
        {
          "internalType": "uint256",
          "name": "amount",
          "type": "uint256"
        },
        {
          "internalType": "address",
          "name": "requestedBy",
          "type": "address"
        },
        {
          "internalType": "uint256",
          "name": "feePaid",
          "type": "uint256"
        },
        {
          "internalType": "address",
          "name": "feeToken",
          "type": "address"
        },
        {
          "internalType": "enum IERC1450.RequestStatus",
          "name": "status",
          "type": "uint8"
        },
        {
          "internalType": "uint256",
          "name": "timestamp",
          "type": "uint256"
        }
      ],
      "stateMutability": "view",
      "type": "function"
    },
    {
      "inputs": [
        {
          "internalType": "uint256",
          "name": "requestId",
          "type": "uint256"
        },
        {
          "internalType": "enum IERC1450.RequestStatus",
          "name": "newStatus",
          "type": "uint8"
        }
      ],
      "name": "updateRequestStatus",
      "outputs": [],
      "stateMutability": "nonpayable",
      "type": "function"
    },
    {
      "inputs": [
        {
          "internalType": "address",
          "name": "newImplementation",
          "type": "address"
        },
        {
          "internalType": "bytes",
          "name": "data",
          "type": "bytes"
        }
      ],
      "name": "upgradeToAndCall",
      "outputs": [],
      "stateMutability": "payable",
      "type": "function"
    },
    {
      "inputs": [],
      "name": "version",
      "outputs": [
        {
          "internalType": "string",
          "name": "",
          "type": "string"
        }
      ],
      "stateMutability": "pure",
      "type": "function"
    },
    {
      "inputs": [
        {
          "internalType": "address",
          "name": "token",
          "type": "address"
        },
        {
          "internalType": "uint256",
          "name": "amount",
          "type": "uint256"
        },
        {
          "internalType": "address",
          "name": "recipient",
          "type": "address"
        }
      ],
      "name": "withdrawFees",
      "outputs": [],
      "stateMutability": "nonpayable",
      "type": "function"
    },
    {
      "stateMutability": "payable",
      "type": "receive"
    }
  ],
  "bytecode": "0x60a06040523060805234801561001457600080fd5b5061001d610022565b6100d4565b7ff0c57e16840df040f15088dc2f81fe391c3923bec73e23a9662efc9c229c6a00805468010000000000000000900460ff16156100725760405163f92ee8a960e01b815260040160405180910390fd5b80546001600160401b03908116146100d15780546001600160401b0319166001600160401b0390811782556040519081527fc7f505b2f371ae2175ee4913f4499e1f2633a7b5936321eed1cdaeb6115181d29060200160405180910390a15b50565b608051612f866100fd60003960008181611fcf01528181611ff8015261215c0152612f866000f3fe6080604052600436106102765760003560e01c80637e57c57d1161014f578063a9059cbb116100c1578063d1132dd61161007a578063d1132dd61461080d578063dd62ed3e14610821578063e816d97f14610844578063f2fde38b1461087d578063fb8dc1791461089d578063fb99b86d146108b757600080fd5b8063a9059cbb14610361578063ad3cb1cc14610769578063b29a81401461079a578063c820f146146107ba578063c9593eb5146107da578063cbe5404f146107ed57600080fd5b80638da5cb5b116101135780638da5cb5b146106b957806395d89b41146106ce5780639ba372c2146106e35780639dd80039146107035780639fddaa9314610733578063a5440bfc1461074957600080fd5b80637e57c57d146106095780637e89315914610629578063860838a514610649578063886fa3cf146106795780638c6a244c1461069957600080fd5b80633b3e2645116101e857806354fd4d50116101ac57806354fd4d5014610530578063580ab6971461055e5780635923e87d1461057e57806370a082311461059e578063715018a6146105d457806379cc6790146105e957600080fd5b80633b3e2645146104a45780633ec6ef44146104c657806340c10f19146104e85780634f1ef2861461050857806352d1902d1461051b57600080fd5b80631cead9a71161023a5780631cead9a7146103a057806322b31d9f146103cd57806323b872dd146104065780632ae98fb214610426578063313ce56714610446578063361c12911461046c57600080fd5b806301ffc9a71461028257806303486c40146102b757806306fdde031461033f578063095ea7b31461036157806318160ddd1461038157600080fd5b3661027d57005b600080fd5b34801561028e57600080fd5b506102a261029d366004612644565b6108e6565b60405190151581526020015b60405180910390f35b3480156102c357600080fd5b5061032b6102d236600461266e565b60076020526000908152604090208054600182015460028301546003840154600485015460058601546006909601546001600160a01b039586169694861695939492841693919291821691600160a01b900460ff169088565b6040516102ae98979695949392919061269d565b34801561034b57600080fd5b50610354610953565b6040516102ae919061272c565b34801561036d57600080fd5b506102a261037c36600461277b565b6109e5565b34801561038d57600080fd5b506004545b6040519081526020016102ae565b3480156103ac57600080fd5b506103926103bb3660046127a5565b600b6020526000908152604090205481565b3480156103d957600080fd5b506102a26103e83660046127a5565b6001600160a01b03166000908152600c602052604090205460ff1690565b34801561041257600080fd5b506102a26104213660046127c0565b610a00565b34801561043257600080fd5b506103926104413660046127fd565b610ae6565b34801561045257600080fd5b5060025460ff165b60405160ff90911681526020016102ae565b34801561047857600080fd5b5061048c61048736600461266e565b610b4f565b6040516001600160a01b0390911681526020016102ae565b3480156104b057600080fd5b506104b9610b79565b6040516102ae919061284a565b3480156104d257600080fd5b506104e66104e13660046128a6565b610bda565b005b3480156104f457600080fd5b506102a261050336600461277b565b610d30565b6104e661051636600461297b565b610df8565b34801561052757600080fd5b50610392610e17565b34801561053c57600080fd5b506040805180820190915260058152640312e302e360dc1b6020820152610354565b34801561056a57600080fd5b506104e66105793660046129ee565b610e34565b34801561058a57600080fd5b506104e6610599366004612a7b565b610ec3565b3480156105aa57600080fd5b506103926105b93660046127a5565b6001600160a01b031660009081526003602052604090205490565b3480156105e057600080fd5b506104e6610ef8565b3480156105f557600080fd5b506102a261060436600461277b565b610f0c565b34801561061557600080fd5b506104e6610624366004612aaf565b611009565b34801561063557600080fd5b506104e66106443660046127a5565b611096565b34801561065557600080fd5b506102a26106643660046127a5565b600d6020526000908152604090205460ff1681565b34801561068557600080fd5b506104e661069436600461266e565b611144565b3480156106a557600080fd5b506104e66106b43660046127a5565b6112d9565b3480156106c557600080fd5b5061048c611470565b3480156106da57600080fd5b5061035461149e565b3480156106ef57600080fd5b506104e66106fe366004612ae2565b6114ad565b34801561070f57600080fd5b506102a261071e3660046127a5565b600c6020526000908152604090205460ff1681565b34801561073f57600080fd5b5061039260095481565b34801561075557600080fd5b506104e6610764366004612b15565b611662565b34801561077557600080fd5b50610354604051806040016040528060058152602001640352e302e360dc1b81525081565b3480156107a657600080fd5b506104e66107b536600461277b565b6116fe565b3480156107c657600080fd5b506104e66107d5366004612b77565b6117b9565b6103926107e8366004612c12565b6119bf565b3480156107f957600080fd5b506104e6610808366004612aaf565b611cd7565b34801561081957600080fd5b5060016102a2565b34801561082d57600080fd5b5061039261083c366004612c67565b600092915050565b34801561085057600080fd5b506102a261085f3660046127a5565b6001600160a01b03166000908152600d602052604090205460ff1690565b34801561088957600080fd5b506104e66108983660046127a5565b611d2d565b3480156108a957600080fd5b5060085461045a9060ff1681565b3480156108c357600080fd5b506102a26108d23660046127a5565b6005546001600160a01b0391821691161490565b600063578baef760e11b6001600160e01b03198316148061091757506001600160e01b031982166336372b0760e01b145b8061093257506001600160e01b0319821663a219a02560e01b145b8061094d57506301ffc9a760e01b6001600160e01b03198316145b92915050565b60606000805461096290612c91565b80601f016020809104026020016040519081016040528092919081815260200182805461098e90612c91565b80156109db5780601f106109b0576101008083540402835291602001916109db565b820191906000526020600020905b8154815290600101906020018083116109be57829003601f168201915b5050505050905090565b600060405163c27fd50560e01b815260040160405180910390fd5b6005546000906001600160a01b03163314610a2e57604051634b05ae8560e11b815260040160405180910390fd5b6001600160a01b0384166000908152600d6020526040902054849060ff1615610a81576040516307a93df560e11b81526001600160a01b0382166004820152600060248201526044015b60405180910390fd5b6001600160a01b0384166000908152600d6020526040902054849060ff1615610acf576040516307a93df560e11b81526001600160a01b038216600482015260006024820152604401610a78565b610ada868686611d6b565b50600195945050505050565b6000610af182611e5f565b610afd57506000610b47565b60085460ff16600003610b135750600954610b47565b60085460ff16600103610b425761271060095484610b319190612ce1565b610b3b9190612cf8565b9050610b47565b506009545b949350505050565b600a8181548110610b5f57600080fd5b6000918252602090912001546001600160a01b0316905081565b6060600a8054806020026020016040519081016040528092919081815260200182805480156109db57602002820191906000526020600020905b81546001600160a01b03168152600190910190602001808311610bb3575050505050905090565b6005546001600160a01b03163314610c0557604051634b05ae8560e11b815260040160405180910390fd5b6000838152600760205260409020610c1e846003611ebe565b818015610c2f575060008160040154115b15610cea5760058101546001600160a01b0316610c8c57600381015460048201546040516001600160a01b039092169181156108fc0291906000818181858888f19350505050158015610c86573d6000803e3d6000fd5b50610cb3565b600381015460048201546005830154610cb3926001600160a01b0391821692911690611f65565b600481015460058201546001600160a01b03166000908152600b602052604081208054909190610ce4908490612d1a565b90915550505b6040805161ffff85168152831515602082015285917ff7061e20a57003952a3a98be55c537d9c3d732e2634c64a2ecac946e8e1c939f910160405180910390a250505050565b6005546000906001600160a01b03163314610d5e57604051634b05ae8560e11b815260040160405180910390fd5b6001600160a01b038316610d885760405163ec442f0560e01b815260006004820152602401610a78565b8160046000828254610d9a9190612d2d565b90915550506001600160a01b0383166000818152600360209081526040808320805487019055518581527fddf252ad1be2c89b69c2b068fc378daa952ba7f163c4a11628f55a4df523b3ef910160405180910390a350600192915050565b610e00611fc4565b610e0982612069565b610e138282612094565b5050565b6000610e21612151565b50600080516020612f3183398151915290565b6005546001600160a01b03163314610e5f57604051634b05ae8560e11b815260040160405180910390fd5b6008805460ff191660ff86161790556009839055610e7f600a83836125cc565b507f9950293518fa753941262ebbf10fa155a48d4e9c32101858c0c8d576abac9d0b84848484604051610eb59493929190612d40565b60405180910390a150505050565b6005546001600160a01b03163314610eee57604051634b05ae8560e11b815260040160405180910390fd5b610e138282611ebe565b610f0061219a565b610f0a60006121cc565b565b6005546000906001600160a01b03163314610f3a57604051634b05ae8560e11b815260040160405180910390fd5b6001600160a01b038316610f6457604051634b637e8f60e11b815260006004820152602401610a78565b6001600160a01b03831660009081526003602052604090205482811015610fa45783818460405163391434e360e21b8152600401610a7893929190612d9e565b6001600160a01b03841660008181526003602090815260408083208786039055600480548890039055518681529192917fddf252ad1be2c89b69c2b068fc378daa952ba7f163c4a11628f55a4df523b3ef910160405180910390a35060019392505050565b6005546001600160a01b0316331461103457604051634b05ae8560e11b815260040160405180910390fd5b6001600160a01b0382166000818152600c6020908152604091829020805460ff191685151590811790915591519182523392917f6eeca9bd01d51a74626e1dba78769450e56fe3f29dee5b0f3aee086d5f5ceaaf910160405180910390a35050565b6005546001600160a01b031633146110c157604051634b05ae8560e11b815260040160405180910390fd5b6001600160a01b0381166110eb57604051631e4fbdf760e01b815260006004820152602401610a78565b60006110f5611470565b9050611100826121cc565b816001600160a01b0316816001600160a01b03167faf014c0f1e2d7c810cfe4f4ec7c675b9dbd7ad5fd0b058fe94776a447d6f333760405160405180910390a35050565b6005546001600160a01b0316331461116f57604051634b05ae8560e11b815260040160405180910390fd5b60008181526007602052604090206004600582810154600160a01b900460ff169081111561119f5761119f612687565b141580156111cd57506003600582810154600160a01b900460ff16908111156111ca576111ca612687565b14155b6112245760405162461bcd60e51b815260206004820152602260248201527f455243313435303a205265717565737420616c72656164792066696e616c697a604482015261195960f21b6064820152608401610a78565b6002600582810154600160a01b900460ff169081111561124657611246612687565b1461125657611256826002611ebe565b805460018201546002830154611279926001600160a01b03908116921690611d6b565b611284826004611ebe565b6001810154815460028301546040519081526001600160a01b03928316929091169084907feb669e0a01fff40cbe45de851f42334fe70673136abfd91399651b7ae199a07b9060200160405180910390a45050565b6001600160a01b03811661132f5760405162461bcd60e51b815260206004820152601f60248201527f455243313435303a20496e76616c6964207472616e73666572206167656e74006044820152606401610a78565b600554600160a01b900460ff161561135a57604051632b3cc4e160e21b815260040160405180910390fd5b6005546001600160a01b03161580159061137f57506005546001600160a01b03163314155b1561139d57604051634b05ae8560e11b815260040160405180910390fd5b6113a5611470565b6001600160a01b0316336001600160a01b0316141580156113d157506005546001600160a01b03163314155b156113f15760405163118cdaa760e01b8152336004820152602401610a78565b600580546001600160a01b038381166001600160a01b03198316811790935516903b1561142c576005805460ff60a01b1916600160a01b1790555b816001600160a01b0316816001600160a01b03167f35e89afcbe61fb77843ff4fb292fdc4b00f10009912cacbb48c537c93c84eccb60405160405180910390a35050565b7f9016d09d72d40fdae2fd8ceac6b6234c7706214fd39c1cd1e609a0528c199300546001600160a01b031690565b60606001805461096290612c91565b6005546001600160a01b031633146114d857604051634b05ae8560e11b815260040160405180910390fd5b6001600160a01b03811661152e5760405162461bcd60e51b815260206004820152601a60248201527f455243313435303a20496e76616c696420726563697069656e740000000000006044820152606401610a78565b6001600160a01b0383166000908152600b6020526040902054821115611585576001600160a01b0383166000908152600b60205260409081902054905163391434e360e21b8152610a789130918590600401612d9e565b6001600160a01b0383166000908152600b6020526040812080548492906115ad908490612d1a565b90915550506001600160a01b0383166115fc576040516001600160a01b0382169083156108fc029084906000818181858888f193505050501580156115f6573d6000803e3d6000fd5b50611610565b6116106001600160a01b0384168284611f65565b806001600160a01b0316836001600160a01b03167f87044da2612407bc001bb0985725dcc651a0dc71eaabfd1d7e8617ca85a8c19c8460405161165591815260200190565b60405180910390a3505050565b6005546001600160a01b0316331461168d57604051634b05ae8560e11b815260040160405180910390fd5b611698848484611d6b565b826001600160a01b0316846001600160a01b03167f79d934d1fea524bb1baacd60b5b9b94a3b948a19d8d762726f7ecbe400308f158484426040516116f0939291909283526020830191909152604082015260600190565b60405180910390a350505050565b6005546001600160a01b0316331461172957604051634b05ae8560e11b815260040160405180910390fd5b306001600160a01b0383160361175257604051634b05ae8560e11b815260040160405180910390fd5b6001600160a01b03821661179f576005546040516001600160a01b039091169082156108fc029083906000818181858888f1935050505015801561179a573d6000803e3d6000fd5b505050565b600554610e13906001600160a01b03848116911683611f65565b60006117c361223d565b805490915060ff600160401b820416159067ffffffffffffffff166000811580156117eb5750825b905060008267ffffffffffffffff1660011480156118085750303b155b905081158015611816575080155b156118345760405163f92ee8a960e01b815260040160405180910390fd5b845467ffffffffffffffff19166001178555831561185e57845460ff60401b1916600160401b1785555b6001600160a01b0386166118b45760405162461bcd60e51b815260206004820152601f60248201527f455243313435303a20496e76616c6964207472616e73666572206167656e74006044820152606401610a78565b6118bd87612266565b6118c5612277565b6118cd612287565b6118d5612287565b60006118e18b82612e0d565b5060016118ee8a82612e0d565b506002805460ff8a1660ff1991821617909155600580546001600160a01b0389166001600160a01b031991821617909155600160068190556008805490931690925560006009819055600a8054938401815590527fc65a7bb8d6351c1cf70c95a316cc6a92839c986682d98bc35f958f4883f9d2a89091018054909116905583156119b357845460ff60401b19168555604051600181527fc7f505b2f371ae2175ee4913f4499e1f2633a7b5936321eed1cdaeb6115181d29060200160405180910390a15b50505050505050505050565b60006119c961228f565b6001600160a01b03861615806119e657506001600160a01b038516155b15611a075760405163ec442f0560e01b815260006004820152602401610a78565b336001600160a01b03871614801590611a305750336000908152600c602052604090205460ff16155b15611a505760405163118cdaa760e01b8152336004820152602401610a78565b611a5983611e5f565b611a815760405163ec442f0560e01b81526001600160a01b0384166004820152602401610a78565b8115611b44576001600160a01b038316611b0157813414611abb5733348360405163391434e360e21b8152600401610a7893929190612d9e565b6000808052600b6020527fdf7de25b7f1fd6d0b5205f0e18f1f35bd7b8d84cce336588d184533ce43a6f768054849290611af6908490612d2d565b90915550611b449050565b611b166001600160a01b0384163330856122d9565b6001600160a01b0383166000908152600b602052604081208054849290611b3e908490612d2d565b90915550505b60068054906000611b5483612ecc565b9091555060408051610100810182526001600160a01b03898116825288811660208084019182528385018a81523360608601908152608086018a81528b861660a08801908152600060c089018181524260e08b01528b8252600790965298909820875181549088166001600160a01b03199182161782559551600182018054918916918816919091179055925160028401559051600383018054918716918616919091179055516004820155945160058087018054929095169382168417855591519697509395936001600160a81b03191690911790600160a01b908490811115611c4157611c41612687565b021790555060e091909101516006909101556040805185815260208101849052338183015290516001600160a01b03878116929089169184917f5c305e799a867c1f9a632629eba8ba08f423e4350397ef18fee1cbb4632df2c5919081900360600190a4611cce60017f9b779b17422d0df92223018b32b4d1fa46e071723d6817e2486d003becc55f0055565b95945050505050565b6005546001600160a01b03163314611d0257604051634b05ae8560e11b815260040160405180910390fd5b6001600160a01b03919091166000908152600d60205260409020805460ff1916911515919091179055565b611d3561219a565b6001600160a01b038116611d5f57604051631e4fbdf760e01b815260006004820152602401610a78565b611d68816121cc565b50565b6001600160a01b038316611d9557604051634b637e8f60e11b815260006004820152602401610a78565b6001600160a01b038216611dbf5760405163ec442f0560e01b815260006004820152602401610a78565b6001600160a01b03831660009081526003602052604090205481811015611dff5783818360405163391434e360e21b8152600401610a7893929190612d9e565b6001600160a01b0380851660008181526003602052604080822086860390559286168082529083902080548601905591517fddf252ad1be2c89b69c2b068fc378daa952ba7f163c4a11628f55a4df523b3ef906116f09086815260200190565b6000805b600a54811015611eb557826001600160a01b0316600a8281548110611e8a57611e8a612ee5565b6000918252602090912001546001600160a01b031603611ead5750600192915050565b600101611e63565b50600092915050565b600082815260076020526040902060058082018054600160a01b80820460ff169386939260ff60a01b191691908490811115611efc57611efc612687565b0217905550826005811115611f1357611f13612687565b816005811115611f2557611f25612687565b857f624f756b8457d5d02670046b80faa01c08502d2cbb53c3e61c1ef90a6b66cf9142604051611f5791815260200190565b60405180910390a450505050565b6040516001600160a01b0383811660248301526044820183905261179a91859182169063a9059cbb906064015b604051602081830303815290604052915060e01b6020820180516001600160e01b03838183161783525050505061233e565b306001600160a01b037f000000000000000000000000000000000000000000000000000000000000000016148061204b57507f00000000000000000000000000000000000000000000000000000000000000006001600160a01b031661203f600080516020612f31833981519152546001600160a01b031690565b6001600160a01b031614155b15610f0a5760405163703e46dd60e11b815260040160405180910390fd5b6005546001600160a01b03163314611d6857604051634b05ae8560e11b815260040160405180910390fd5b816001600160a01b03166352d1902d6040518163ffffffff1660e01b8152600401602060405180830381865afa9250505080156120ee575060408051601f3d908101601f191682019092526120eb91810190612efb565b60015b61211657604051634c9c8ce360e01b81526001600160a01b0383166004820152602401610a78565b600080516020612f31833981519152811461214757604051632a87526960e21b815260048101829052602401610a78565b61179a83836123af565b306001600160a01b037f00000000000000000000000000000000000000000000000000000000000000001614610f0a5760405163703e46dd60e11b815260040160405180910390fd5b336121a3611470565b6001600160a01b031614610f0a5760405163118cdaa760e01b8152336004820152602401610a78565b7f9016d09d72d40fdae2fd8ceac6b6234c7706214fd39c1cd1e609a0528c19930080546001600160a01b031981166001600160a01b03848116918217845560405192169182907f8be0079c531659141344cd1fd0a4f28419497f9722a3daafe3b4186f6b6457e090600090a3505050565b6000807ff0c57e16840df040f15088dc2f81fe391c3923bec73e23a9662efc9c229c6a0061094d565b61226e612405565b611d688161242a565b61227f612405565b610f0a612432565b610f0a612405565b7f9b779b17422d0df92223018b32b4d1fa46e071723d6817e2486d003becc55f008054600119016122d357604051633ee5aeb560e01b815260040160405180910390fd5b60029055565b6040516001600160a01b0384811660248301528381166044830152606482018390526123129186918216906323b872dd90608401611f92565b50505050565b60017f9b779b17422d0df92223018b32b4d1fa46e071723d6817e2486d003becc55f0055565b600080602060008451602086016000885af180612361576040513d6000823e3d81fd5b50506000513d91508115612379578060011415612386565b6001600160a01b0384163b155b1561231257604051635274afe760e01b81526001600160a01b0385166004820152602401610a78565b6123b88261243a565b6040516001600160a01b038316907fbc7cd75a20ee27fd9adebab32041f755214dbc6bffa90cc0225b39da2e5c2d3b90600090a28051156123fd5761179a828261249f565b610e1361250c565b61240d61252b565b610f0a57604051631afcd79f60e31b815260040160405180910390fd5b611d35612405565b612318612405565b806001600160a01b03163b60000361247057604051634c9c8ce360e01b81526001600160a01b0382166004820152602401610a78565b600080516020612f3183398151915280546001600160a01b0319166001600160a01b0392909216919091179055565b6060600080846001600160a01b0316846040516124bc9190612f14565b600060405180830381855af49150503d80600081146124f7576040519150601f19603f3d011682016040523d82523d6000602084013e6124fc565b606091505b5091509150611cce858383612545565b3415610f0a5760405163b398979f60e01b815260040160405180910390fd5b600061253561223d565b54600160401b900460ff16919050565b60608261255a57612555826125a4565b61259d565b815115801561257157506001600160a01b0384163b155b1561259a57604051639996b31560e01b81526001600160a01b0385166004820152602401610a78565b50805b9392505050565b8051156125b357805160208201fd5b60405163d6bda27560e01b815260040160405180910390fd5b82805482825590600052602060002090810192821561261f579160200282015b8281111561261f5781546001600160a01b0319166001600160a01b038435161782556020909201916001909101906125ec565b5061262b92915061262f565b5090565b5b8082111561262b5760008155600101612630565b60006020828403121561265657600080fd5b81356001600160e01b03198116811461259d57600080fd5b60006020828403121561268057600080fd5b5035919050565b634e487b7160e01b600052602160045260246000fd5b6001600160a01b038981168252888116602083015260408201889052868116606083015260808201869052841660a08201526101008101600684106126f257634e487b7160e01b600052602160045260246000fd5b60c082019390935260e001529695505050505050565b60005b8381101561272357818101518382015260200161270b565b50506000910152565b602081526000825180602084015261274b816040850160208701612708565b601f01601f19169190910160400192915050565b80356001600160a01b038116811461277657600080fd5b919050565b6000806040838503121561278e57600080fd5b6127978361275f565b946020939093013593505050565b6000602082840312156127b757600080fd5b61259d8261275f565b6000806000606084860312156127d557600080fd5b6127de8461275f565b92506127ec6020850161275f565b929592945050506040919091013590565b6000806000806080858703121561281357600080fd5b61281c8561275f565b935061282a6020860161275f565b92506040850135915061283f6060860161275f565b905092959194509250565b602080825282518282018190526000918401906040840190835b8181101561288b5783516001600160a01b0316835260209384019390920191600101612864565b509095945050505050565b8035801515811461277657600080fd5b6000806000606084860312156128bb57600080fd5b83359250602084013561ffff811681146128d457600080fd5b91506128e260408501612896565b90509250925092565b634e487b7160e01b600052604160045260246000fd5b60008067ffffffffffffffff84111561291c5761291c6128eb565b50604051601f19601f85018116603f0116810181811067ffffffffffffffff8211171561294b5761294b6128eb565b60405283815290508082840185101561296357600080fd5b83836020830137600060208583010152509392505050565b6000806040838503121561298e57600080fd5b6129978361275f565b9150602083013567ffffffffffffffff8111156129b357600080fd5b8301601f810185136129c457600080fd5b6129d385823560208401612901565b9150509250929050565b803560ff8116811461277657600080fd5b60008060008060608587031215612a0457600080fd5b612a0d856129dd565b935060208501359250604085013567ffffffffffffffff811115612a3057600080fd5b8501601f81018713612a4157600080fd5b803567ffffffffffffffff811115612a5857600080fd5b8760208260051b8401011115612a6d57600080fd5b949793965060200194505050565b60008060408385031215612a8e57600080fd5b82359150602083013560068110612aa457600080fd5b809150509250929050565b60008060408385031215612ac257600080fd5b612acb8361275f565b9150612ad960208401612896565b90509250929050565b600080600060608486031215612af757600080fd5b612b008461275f565b9250602084013591506128e26040850161275f565b60008060008060808587031215612b2b57600080fd5b612b348561275f565b9350612b426020860161275f565b93969395505050506040820135916060013590565b600082601f830112612b6857600080fd5b61259d83833560208501612901565b600080600080600060a08688031215612b8f57600080fd5b853567ffffffffffffffff811115612ba657600080fd5b612bb288828901612b57565b955050602086013567ffffffffffffffff811115612bcf57600080fd5b612bdb88828901612b57565b945050612bea604087016129dd565b9250612bf86060870161275f565b9150612c066080870161275f565b90509295509295909350565b600080600080600060a08688031215612c2a57600080fd5b612c338661275f565b9450612c416020870161275f565b935060408601359250612c566060870161275f565b949793965091946080013592915050565b60008060408385031215612c7a57600080fd5b612c838361275f565b9150612ad96020840161275f565b600181811c90821680612ca557607f821691505b602082108103612cc557634e487b7160e01b600052602260045260246000fd5b50919050565b634e487b7160e01b600052601160045260246000fd5b808202811582820484141761094d5761094d612ccb565b600082612d1557634e487b7160e01b600052601260045260246000fd5b500490565b8181038181111561094d5761094d612ccb565b8082018082111561094d5761094d612ccb565b60ff8516815260208101849052606060408201819052810182905260008360808301825b85811015612d92576001600160a01b03612d7d8461275f565b16825260209283019290910190600101612d64565b50979650505050505050565b6001600160a01b039390931683526020830191909152604082015260600190565b601f82111561179a57806000526020600020601f840160051c81016020851015612de65750805b601f840160051c820191505b81811015612e065760008155600101612df2565b5050505050565b815167ffffffffffffffff811115612e2757612e276128eb565b612e3b81612e358454612c91565b84612dbf565b6020601f821160018114612e6f5760008315612e575750848201515b600019600385901b1c1916600184901b178455612e06565b600084815260208120601f198516915b82811015612e9f5787850151825560209485019460019092019101612e7f565b5084821015612ebd5786840151600019600387901b60f8161c191681555b50505050600190811b01905550565b600060018201612ede57612ede612ccb565b5060010190565b634e487b7160e01b600052603260045260246000fd5b600060208284031215612f0d57600080fd5b5051919050565b60008251612f26818460208701612708565b919091019291505056fe360894a13ba1a3210667c828492db98dca3e2076cc3735a920a3ca505d382bbca2646970667358221220287008da82f9d0d8b14015393706323694f15a04ee015df71f830751e77e572b64736f6c634300081b0033",
  "linkReferences": {},
  "deployedLinkReferences": {}
}