{
  "_format": "hh-sol-artifact-1",
  "contractName": "ERC1450",
  "sourceName": "contracts/ERC1450.sol",
  "abi": [
    {
      "inputs": [
        {
          "internalType": "string",
          "name": "name_",
          "type": "string"
        },
        {
          "internalType": "string",
          "name": "symbol_",
          "type": "string"
        },
        {
          "internalType": "uint8",
          "name": "decimals_",
          "type": "uint8"
        },
        {
          "internalType": "address",
          "name": "initialOwner",
          "type": "address"
        },
        {
          "internalType": "address",
          "name": "initialTransferAgent",
          "type": "address"
        }
      ],
      "stateMutability": "nonpayable",
      "type": "constructor"
    },
    {
      "inputs": [
        {
          "internalType": "address",
          "name": "from",
          "type": "address"
        },
        {
          "internalType": "address",
          "name": "to",
          "type": "address"
        }
      ],
      "name": "ERC1450ComplianceCheckFailed",
      "type": "error"
    },
    {
      "inputs": [],
      "name": "ERC1450OnlyRTA",
      "type": "error"
    },
    {
      "inputs": [],
      "name": "ERC1450TransferAgentLocked",
      "type": "error"
    },
    {
      "inputs": [],
      "name": "ERC1450TransferDisabled",
      "type": "error"
    },
    {
      "inputs": [
        {
          "internalType": "address",
          "name": "sender",
          "type": "address"
        },
        {
          "internalType": "uint256",
          "name": "balance",
          "type": "uint256"
        },
        {
          "internalType": "uint256",
          "name": "needed",
          "type": "uint256"
        }
      ],
      "name": "ERC20InsufficientBalance",
      "type": "error"
    },
    {
      "inputs": [
        {
          "internalType": "address",
          "name": "receiver",
          "type": "address"
        }
      ],
      "name": "ERC20InvalidReceiver",
      "type": "error"
    },
    {
      "inputs": [
        {
          "internalType": "address",
          "name": "sender",
          "type": "address"
        }
      ],
      "name": "ERC20InvalidSender",
      "type": "error"
    },
    {
      "inputs": [
        {
          "internalType": "address",
          "name": "owner",
          "type": "address"
        }
      ],
      "name": "OwnableInvalidOwner",
      "type": "error"
    },
    {
      "inputs": [
        {
          "internalType": "address",
          "name": "account",
          "type": "address"
        }
      ],
      "name": "OwnableUnauthorizedAccount",
      "type": "error"
    },
    {
      "inputs": [],
      "name": "ReentrancyGuardReentrantCall",
      "type": "error"
    },
    {
      "inputs": [
        {
          "internalType": "address",
          "name": "token",
          "type": "address"
        }
      ],
      "name": "SafeERC20FailedOperation",
      "type": "error"
    },
    {
      "anonymous": false,
      "inputs": [
        {
          "indexed": true,
          "internalType": "address",
          "name": "owner",
          "type": "address"
        },
        {
          "indexed": true,
          "internalType": "address",
          "name": "spender",
          "type": "address"
        },
        {
          "indexed": false,
          "internalType": "uint256",
          "name": "value",
          "type": "uint256"
        }
      ],
      "name": "Approval",
      "type": "event"
    },
    {
      "anonymous": false,
      "inputs": [
        {
          "indexed": true,
          "internalType": "address",
          "name": "broker",
          "type": "address"
        },
        {
          "indexed": false,
          "internalType": "bool",
          "name": "isApproved",
          "type": "bool"
        },
        {
          "indexed": true,
          "internalType": "address",
          "name": "updatedBy",
          "type": "address"
        }
      ],
      "name": "BrokerStatusUpdated",
      "type": "event"
    },
    {
      "anonymous": false,
      "inputs": [
        {
          "indexed": true,
          "internalType": "address",
          "name": "from",
          "type": "address"
        },
        {
          "indexed": true,
          "internalType": "address",
          "name": "to",
          "type": "address"
        },
        {
          "indexed": false,
          "internalType": "uint256",
          "name": "amount",
          "type": "uint256"
        },
        {
          "indexed": false,
          "internalType": "bytes32",
          "name": "documentHash",
          "type": "bytes32"
        },
        {
          "indexed": false,
          "internalType": "uint256",
          "name": "timestamp",
          "type": "uint256"
        }
      ],
      "name": "CourtOrderExecuted",
      "type": "event"
    },
    {
      "anonymous": false,
      "inputs": [
        {
          "indexed": false,
          "internalType": "uint8",
          "name": "feeType",
          "type": "uint8"
        },
        {
          "indexed": false,
          "internalType": "uint256",
          "name": "feeValue",
          "type": "uint256"
        },
        {
          "indexed": false,
          "internalType": "address[]",
          "name": "acceptedTokens",
          "type": "address[]"
        }
      ],
      "name": "FeeParametersUpdated",
      "type": "event"
    },
    {
      "anonymous": false,
      "inputs": [
        {
          "indexed": true,
          "internalType": "address",
          "name": "token",
          "type": "address"
        },
        {
          "indexed": false,
          "internalType": "uint256",
          "name": "amount",
          "type": "uint256"
        },
        {
          "indexed": true,
          "internalType": "address",
          "name": "recipient",
          "type": "address"
        }
      ],
      "name": "FeesWithdrawn",
      "type": "event"
    },
    {
      "anonymous": false,
      "inputs": [
        {
          "indexed": true,
          "internalType": "address",
          "name": "previousIssuer",
          "type": "address"
        },
        {
          "indexed": true,
          "internalType": "address",
          "name": "newIssuer",
          "type": "address"
        }
      ],
      "name": "IssuerChanged",
      "type": "event"
    },
    {
      "anonymous": false,
      "inputs": [
        {
          "indexed": true,
          "internalType": "address",
          "name": "previousOwner",
          "type": "address"
        },
        {
          "indexed": true,
          "internalType": "address",
          "name": "newOwner",
          "type": "address"
        }
      ],
      "name": "OwnershipTransferred",
      "type": "event"
    },
    {
      "anonymous": false,
      "inputs": [
        {
          "indexed": true,
          "internalType": "uint256",
          "name": "requestId",
          "type": "uint256"
        },
        {
          "indexed": true,
          "internalType": "enum IERC1450.RequestStatus",
          "name": "oldStatus",
          "type": "uint8"
        },
        {
          "indexed": true,
          "internalType": "enum IERC1450.RequestStatus",
          "name": "newStatus",
          "type": "uint8"
        },
        {
          "indexed": false,
          "internalType": "uint256",
          "name": "timestamp",
          "type": "uint256"
        }
      ],
      "name": "RequestStatusChanged",
      "type": "event"
    },
    {
      "anonymous": false,
      "inputs": [
        {
          "indexed": true,
          "internalType": "address",
          "name": "from",
          "type": "address"
        },
        {
          "indexed": false,
          "internalType": "uint256",
          "name": "amount",
          "type": "uint256"
        },
        {
          "indexed": true,
          "internalType": "uint16",
          "name": "regulationType",
          "type": "uint16"
        },
        {
          "indexed": false,
          "internalType": "uint256",
          "name": "issuanceDate",
          "type": "uint256"
        }
      ],
      "name": "TokensBurned",
      "type": "event"
    },
    {
      "anonymous": false,
      "inputs": [
        {
          "indexed": true,
          "internalType": "address",
          "name": "to",
          "type": "address"
        },
        {
          "indexed": false,
          "internalType": "uint256",
          "name": "amount",
          "type": "uint256"
        },
        {
          "indexed": true,
          "internalType": "uint16",
          "name": "regulationType",
          "type": "uint16"
        },
        {
          "indexed": false,
          "internalType": "uint256",
          "name": "issuanceDate",
          "type": "uint256"
        },
        {
          "indexed": false,
          "internalType": "uint256",
          "name": "tokenizationDate",
          "type": "uint256"
        }
      ],
      "name": "TokensMinted",
      "type": "event"
    },
    {
      "anonymous": false,
      "inputs": [
        {
          "indexed": true,
          "internalType": "address",
          "name": "from",
          "type": "address"
        },
        {
          "indexed": true,
          "internalType": "address",
          "name": "to",
          "type": "address"
        },
        {
          "indexed": false,
          "internalType": "uint256",
          "name": "value",
          "type": "uint256"
        }
      ],
      "name": "Transfer",
      "type": "event"
    },
    {
      "anonymous": false,
      "inputs": [
        {
          "indexed": true,
          "internalType": "address",
          "name": "previousAgent",
          "type": "address"
        },
        {
          "indexed": true,
          "internalType": "address",
          "name": "newAgent",
          "type": "address"
        }
      ],
      "name": "TransferAgentUpdated",
      "type": "event"
    },
    {
      "anonymous": false,
      "inputs": [
        {
          "indexed": true,
          "internalType": "uint256",
          "name": "requestId",
          "type": "uint256"
        },
        {
          "indexed": true,
          "internalType": "address",
          "name": "from",
          "type": "address"
        },
        {
          "indexed": true,
          "internalType": "address",
          "name": "to",
          "type": "address"
        },
        {
          "indexed": false,
          "internalType": "uint256",
          "name": "amount",
          "type": "uint256"
        }
      ],
      "name": "TransferExecuted",
      "type": "event"
    },
    {
      "anonymous": false,
      "inputs": [
        {
          "indexed": true,
          "internalType": "uint256",
          "name": "requestId",
          "type": "uint256"
        },
        {
          "indexed": false,
          "internalType": "uint256",
          "name": "expiredAt",
          "type": "uint256"
        }
      ],
      "name": "TransferExpired",
      "type": "event"
    },
    {
      "anonymous": false,
      "inputs": [
        {
          "indexed": true,
          "internalType": "uint256",
          "name": "requestId",
          "type": "uint256"
        },
        {
          "indexed": false,
          "internalType": "uint16",
          "name": "reasonCode",
          "type": "uint16"
        },
        {
          "indexed": false,
          "internalType": "bool",
          "name": "feeRefunded",
          "type": "bool"
        }
      ],
      "name": "TransferRejected",
      "type": "event"
    },
    {
      "anonymous": false,
      "inputs": [
        {
          "indexed": true,
          "internalType": "uint256",
          "name": "requestId",
          "type": "uint256"
        },
        {
          "indexed": true,
          "internalType": "address",
          "name": "from",
          "type": "address"
        },
        {
          "indexed": true,
          "internalType": "address",
          "name": "to",
          "type": "address"
        },
        {
          "indexed": false,
          "internalType": "uint256",
          "name": "amount",
          "type": "uint256"
        },
        {
          "indexed": false,
          "internalType": "uint256",
          "name": "feePaid",
          "type": "uint256"
        },
        {
          "indexed": false,
          "internalType": "address",
          "name": "requestedBy",
          "type": "address"
        }
      ],
      "name": "TransferRequested",
      "type": "event"
    },
    {
      "inputs": [],
      "name": "REG_US_A_TIER_1",
      "outputs": [
        {
          "internalType": "uint16",
          "name": "",
          "type": "uint16"
        }
      ],
      "stateMutability": "view",
      "type": "function"
    },
    {
      "inputs": [],
      "name": "REG_US_A_TIER_2",
      "outputs": [
        {
          "internalType": "uint16",
          "name": "",
          "type": "uint16"
        }
      ],
      "stateMutability": "view",
      "type": "function"
    },
    {
      "inputs": [],
      "name": "REG_US_CF",
      "outputs": [
        {
          "internalType": "uint16",
          "name": "",
          "type": "uint16"
        }
      ],
      "stateMutability": "view",
      "type": "function"
    },
    {
      "inputs": [],
      "name": "REG_US_D_506B",
      "outputs": [
        {
          "internalType": "uint16",
          "name": "",
          "type": "uint16"
        }
      ],
      "stateMutability": "view",
      "type": "function"
    },
    {
      "inputs": [],
      "name": "REG_US_D_506C",
      "outputs": [
        {
          "internalType": "uint16",
          "name": "",
          "type": "uint16"
        }
      ],
      "stateMutability": "view",
      "type": "function"
    },
    {
      "inputs": [],
      "name": "REG_US_S",
      "outputs": [
        {
          "internalType": "uint16",
          "name": "",
          "type": "uint16"
        }
      ],
      "stateMutability": "view",
      "type": "function"
    },
    {
      "inputs": [],
      "name": "REG_US_S1",
      "outputs": [
        {
          "internalType": "uint16",
          "name": "",
          "type": "uint16"
        }
      ],
      "stateMutability": "view",
      "type": "function"
    },
    {
      "inputs": [
        {
          "internalType": "uint256",
          "name": "",
          "type": "uint256"
        }
      ],
      "name": "acceptedFeeTokens",
      "outputs": [
        {
          "internalType": "address",
          "name": "",
          "type": "address"
        }
      ],
      "stateMutability": "view",
      "type": "function"
    },
    {
      "inputs": [
        {
          "internalType": "address",
          "name": "",
          "type": "address"
        },
        {
          "internalType": "address",
          "name": "",
          "type": "address"
        }
      ],
      "name": "allowance",
      "outputs": [
        {
          "internalType": "uint256",
          "name": "",
          "type": "uint256"
        }
      ],
      "stateMutability": "pure",
      "type": "function"
    },
    {
      "inputs": [
        {
          "internalType": "address",
          "name": "",
          "type": "address"
        },
        {
          "internalType": "uint256",
          "name": "",
          "type": "uint256"
        }
      ],
      "name": "approve",
      "outputs": [
        {
          "internalType": "bool",
          "name": "",
          "type": "bool"
        }
      ],
      "stateMutability": "pure",
      "type": "function"
    },
    {
      "inputs": [
        {
          "internalType": "address",
          "name": "",
          "type": "address"
        }
      ],
      "name": "approvedBrokers",
      "outputs": [
        {
          "internalType": "bool",
          "name": "",
          "type": "bool"
        }
      ],
      "stateMutability": "view",
      "type": "function"
    },
    {
      "inputs": [
        {
          "internalType": "address",
          "name": "account",
          "type": "address"
        }
      ],
      "name": "balanceOf",
      "outputs": [
        {
          "internalType": "uint256",
          "name": "",
          "type": "uint256"
        }
      ],
      "stateMutability": "view",
      "type": "function"
    },
    {
      "inputs": [
        {
          "internalType": "address",
          "name": "from",
          "type": "address"
        },
        {
          "internalType": "uint256",
          "name": "amount",
          "type": "uint256"
        }
      ],
      "name": "burnFrom",
      "outputs": [
        {
          "internalType": "bool",
          "name": "",
          "type": "bool"
        }
      ],
      "stateMutability": "nonpayable",
      "type": "function"
    },
    {
      "inputs": [
        {
          "internalType": "address",
          "name": "from",
          "type": "address"
        },
        {
          "internalType": "uint256",
          "name": "amount",
          "type": "uint256"
        },
        {
          "internalType": "uint16",
          "name": "regulationType",
          "type": "uint16"
        }
      ],
      "name": "burnFromRegulation",
      "outputs": [
        {
          "internalType": "bool",
          "name": "",
          "type": "bool"
        }
      ],
      "stateMutability": "nonpayable",
      "type": "function"
    },
    {
      "inputs": [
        {
          "internalType": "address",
          "name": "newIssuer",
          "type": "address"
        }
      ],
      "name": "changeIssuer",
      "outputs": [],
      "stateMutability": "nonpayable",
      "type": "function"
    },
    {
      "inputs": [
        {
          "internalType": "address",
          "name": "",
          "type": "address"
        }
      ],
      "name": "collectedFees",
      "outputs": [
        {
          "internalType": "uint256",
          "name": "",
          "type": "uint256"
        }
      ],
      "stateMutability": "view",
      "type": "function"
    },
    {
      "inputs": [],
      "name": "decimals",
      "outputs": [
        {
          "internalType": "uint8",
          "name": "",
          "type": "uint8"
        }
      ],
      "stateMutability": "view",
      "type": "function"
    },
    {
      "inputs": [
        {
          "internalType": "address",
          "name": "from",
          "type": "address"
        },
        {
          "internalType": "address",
          "name": "to",
          "type": "address"
        },
        {
          "internalType": "uint256",
          "name": "amount",
          "type": "uint256"
        },
        {
          "internalType": "bytes32",
          "name": "documentHash",
          "type": "bytes32"
        }
      ],
      "name": "executeCourtOrder",
      "outputs": [],
      "stateMutability": "nonpayable",
      "type": "function"
    },
    {
      "inputs": [],
      "name": "feeType",
      "outputs": [
        {
          "internalType": "uint8",
          "name": "",
          "type": "uint8"
        }
      ],
      "stateMutability": "view",
      "type": "function"
    },
    {
      "inputs": [],
      "name": "feeValue",
      "outputs": [
        {
          "internalType": "uint256",
          "name": "",
          "type": "uint256"
        }
      ],
      "stateMutability": "view",
      "type": "function"
    },
    {
      "inputs": [
        {
          "internalType": "address",
          "name": "",
          "type": "address"
        }
      ],
      "name": "frozenAccounts",
      "outputs": [
        {
          "internalType": "bool",
          "name": "",
          "type": "bool"
        }
      ],
      "stateMutability": "view",
      "type": "function"
    },
    {
      "inputs": [],
      "name": "getAcceptedFeeTokens",
      "outputs": [
        {
          "internalType": "address[]",
          "name": "",
          "type": "address[]"
        }
      ],
      "stateMutability": "view",
      "type": "function"
    },
    {
      "inputs": [
        {
          "internalType": "address",
          "name": "holder",
          "type": "address"
        }
      ],
      "name": "getHolderRegulations",
      "outputs": [
        {
          "internalType": "uint16[]",
          "name": "regulationTypes",
          "type": "uint16[]"
        },
        {
          "internalType": "uint256[]",
          "name": "amounts",
          "type": "uint256[]"
        },
        {
          "internalType": "uint256[]",
          "name": "issuanceDates",
          "type": "uint256[]"
        }
      ],
      "stateMutability": "view",
      "type": "function"
    },
    {
      "inputs": [
        {
          "internalType": "uint16",
          "name": "regulationType",
          "type": "uint16"
        }
      ],
      "name": "getRegulationSupply",
      "outputs": [
        {
          "internalType": "uint256",
          "name": "",
          "type": "uint256"
        }
      ],
      "stateMutability": "view",
      "type": "function"
    },
    {
      "inputs": [
        {
          "internalType": "address",
          "name": "",
          "type": "address"
        },
        {
          "internalType": "address",
          "name": "",
          "type": "address"
        },
        {
          "internalType": "uint256",
          "name": "amount",
          "type": "uint256"
        },
        {
          "internalType": "address",
          "name": "feeToken",
          "type": "address"
        }
      ],
      "name": "getTransferFee",
      "outputs": [
        {
          "internalType": "uint256",
          "name": "feeAmount",
          "type": "uint256"
        }
      ],
      "stateMutability": "view",
      "type": "function"
    },
    {
      "inputs": [
        {
          "internalType": "address",
          "name": "account",
          "type": "address"
        }
      ],
      "name": "isAccountFrozen",
      "outputs": [
        {
          "internalType": "bool",
          "name": "",
          "type": "bool"
        }
      ],
      "stateMutability": "view",
      "type": "function"
    },
    {
      "inputs": [
        {
          "internalType": "address",
          "name": "broker",
          "type": "address"
        }
      ],
      "name": "isBroker",
      "outputs": [
        {
          "internalType": "bool",
          "name": "",
          "type": "bool"
        }
      ],
      "stateMutability": "view",
      "type": "function"
    },
    {
      "inputs": [],
      "name": "isSecurityToken",
      "outputs": [
        {
          "internalType": "bool",
          "name": "",
          "type": "bool"
        }
      ],
      "stateMutability": "pure",
      "type": "function"
    },
    {
      "inputs": [
        {
          "internalType": "address",
          "name": "addr",
          "type": "address"
        }
      ],
      "name": "isTransferAgent",
      "outputs": [
        {
          "internalType": "bool",
          "name": "",
          "type": "bool"
        }
      ],
      "stateMutability": "view",
      "type": "function"
    },
    {
      "inputs": [
        {
          "internalType": "address",
          "name": "to",
          "type": "address"
        },
        {
          "internalType": "uint256",
          "name": "amount",
          "type": "uint256"
        },
        {
          "internalType": "uint16",
          "name": "regulationType",
          "type": "uint16"
        },
        {
          "internalType": "uint256",
          "name": "issuanceDate",
          "type": "uint256"
        }
      ],
      "name": "mint",
      "outputs": [
        {
          "internalType": "bool",
          "name": "",
          "type": "bool"
        }
      ],
      "stateMutability": "nonpayable",
      "type": "function"
    },
    {
      "inputs": [],
      "name": "name",
      "outputs": [
        {
          "internalType": "string",
          "name": "",
          "type": "string"
        }
      ],
      "stateMutability": "view",
      "type": "function"
    },
    {
      "inputs": [],
      "name": "owner",
      "outputs": [
        {
          "internalType": "address",
          "name": "",
          "type": "address"
        }
      ],
      "stateMutability": "view",
      "type": "function"
    },
    {
      "inputs": [
        {
          "internalType": "uint256",
          "name": "requestId",
          "type": "uint256"
        }
      ],
      "name": "processTransferRequest",
      "outputs": [],
      "stateMutability": "nonpayable",
      "type": "function"
    },
    {
      "inputs": [
        {
          "internalType": "address",
          "name": "token",
          "type": "address"
        },
        {
          "internalType": "uint256",
          "name": "amount",
          "type": "uint256"
        }
      ],
      "name": "recoverToken",
      "outputs": [],
      "stateMutability": "nonpayable",
      "type": "function"
    },
    {
      "inputs": [
        {
          "internalType": "uint256",
          "name": "requestId",
          "type": "uint256"
        },
        {
          "internalType": "uint16",
          "name": "reasonCode",
          "type": "uint16"
        },
        {
          "internalType": "bool",
          "name": "refundFee",
          "type": "bool"
        }
      ],
      "name": "rejectTransferRequest",
      "outputs": [],
      "stateMutability": "nonpayable",
      "type": "function"
    },
    {
      "inputs": [],
      "name": "renounceOwnership",
      "outputs": [],
      "stateMutability": "nonpayable",
      "type": "function"
    },
    {
      "inputs": [
        {
          "internalType": "address",
          "name": "from",
          "type": "address"
        },
        {
          "internalType": "address",
          "name": "to",
          "type": "address"
        },
        {
          "internalType": "uint256",
          "name": "amount",
          "type": "uint256"
        },
        {
          "internalType": "address",
          "name": "feeToken",
          "type": "address"
        },
        {
          "internalType": "uint256",
          "name": "feeAmount",
          "type": "uint256"
        }
      ],
      "name": "requestTransferWithFee",
      "outputs": [
        {
          "internalType": "uint256",
          "name": "requestId",
          "type": "uint256"
        }
      ],
      "stateMutability": "payable",
      "type": "function"
    },
    {
      "inputs": [
        {
          "internalType": "address",
          "name": "account",
          "type": "address"
        },
        {
          "internalType": "bool",
          "name": "frozen",
          "type": "bool"
        }
      ],
      "name": "setAccountFrozen",
      "outputs": [],
      "stateMutability": "nonpayable",
      "type": "function"
    },
    {
      "inputs": [
        {
          "internalType": "address",
          "name": "broker",
          "type": "address"
        },
        {
          "internalType": "bool",
          "name": "approved",
          "type": "bool"
        }
      ],
      "name": "setBrokerStatus",
      "outputs": [],
      "stateMutability": "nonpayable",
      "type": "function"
    },
    {
      "inputs": [
        {
          "internalType": "uint8",
          "name": "newFeeType",
          "type": "uint8"
        },
        {
          "internalType": "uint256",
          "name": "newFeeValue",
          "type": "uint256"
        },
        {
          "internalType": "address[]",
          "name": "newAcceptedTokens",
          "type": "address[]"
        }
      ],
      "name": "setFeeParameters",
      "outputs": [],
      "stateMutability": "nonpayable",
      "type": "function"
    },
    {
      "inputs": [
        {
          "internalType": "address",
          "name": "newTransferAgent",
          "type": "address"
        }
      ],
      "name": "setTransferAgent",
      "outputs": [],
      "stateMutability": "nonpayable",
      "type": "function"
    },
    {
      "inputs": [
        {
          "internalType": "bytes4",
          "name": "interfaceId",
          "type": "bytes4"
        }
      ],
      "name": "supportsInterface",
      "outputs": [
        {
          "internalType": "bool",
          "name": "",
          "type": "bool"
        }
      ],
      "stateMutability": "view",
      "type": "function"
    },
    {
      "inputs": [],
      "name": "symbol",
      "outputs": [
        {
          "internalType": "string",
          "name": "",
          "type": "string"
        }
      ],
      "stateMutability": "view",
      "type": "function"
    },
    {
      "inputs": [],
      "name": "totalSupply",
      "outputs": [
        {
          "internalType": "uint256",
          "name": "",
          "type": "uint256"
        }
      ],
      "stateMutability": "view",
      "type": "function"
    },
    {
      "inputs": [
        {
          "internalType": "address",
          "name": "",
          "type": "address"
        },
        {
          "internalType": "uint256",
          "name": "",
          "type": "uint256"
        }
      ],
      "name": "transfer",
      "outputs": [
        {
          "internalType": "bool",
          "name": "",
          "type": "bool"
        }
      ],
      "stateMutability": "pure",
      "type": "function"
    },
    {
      "inputs": [
        {
          "internalType": "address",
          "name": "from",
          "type": "address"
        },
        {
          "internalType": "address",
          "name": "to",
          "type": "address"
        },
        {
          "internalType": "uint256",
          "name": "amount",
          "type": "uint256"
        }
      ],
      "name": "transferFrom",
      "outputs": [
        {
          "internalType": "bool",
          "name": "",
          "type": "bool"
        }
      ],
      "stateMutability": "nonpayable",
      "type": "function"
    },
    {
      "inputs": [
        {
          "internalType": "address",
          "name": "newOwner",
          "type": "address"
        }
      ],
      "name": "transferOwnership",
      "outputs": [],
      "stateMutability": "nonpayable",
      "type": "function"
    },
    {
      "inputs": [
        {
          "internalType": "uint256",
          "name": "",
          "type": "uint256"
        }
      ],
      "name": "transferRequests",
      "outputs": [
        {
          "internalType": "address",
          "name": "from",
          "type": "address"
        },
        {
          "internalType": "address",
          "name": "to",
          "type": "address"
        },
        {
          "internalType": "uint256",
          "name": "amount",
          "type": "uint256"
        },
        {
          "internalType": "address",
          "name": "requestedBy",
          "type": "address"
        },
        {
          "internalType": "uint256",
          "name": "feePaid",
          "type": "uint256"
        },
        {
          "internalType": "address",
          "name": "feeToken",
          "type": "address"
        },
        {
          "internalType": "enum IERC1450.RequestStatus",
          "name": "status",
          "type": "uint8"
        },
        {
          "internalType": "uint256",
          "name": "timestamp",
          "type": "uint256"
        }
      ],
      "stateMutability": "view",
      "type": "function"
    },
    {
      "inputs": [
        {
          "internalType": "uint256",
          "name": "requestId",
          "type": "uint256"
        },
        {
          "internalType": "enum IERC1450.RequestStatus",
          "name": "newStatus",
          "type": "uint8"
        }
      ],
      "name": "updateRequestStatus",
      "outputs": [],
      "stateMutability": "nonpayable",
      "type": "function"
    },
    {
      "inputs": [
        {
          "internalType": "address",
          "name": "token",
          "type": "address"
        },
        {
          "internalType": "uint256",
          "name": "amount",
          "type": "uint256"
        },
        {
          "internalType": "address",
          "name": "recipient",
          "type": "address"
        }
      ],
      "name": "withdrawFees",
      "outputs": [],
      "stateMutability": "nonpayable",
      "type": "function"
    },
    {
      "stateMutability": "payable",
      "type": "receive"
    }
  ],
  "bytecode": "0x60a0604052600160075534801561001557600080fd5b50604051613c08380380613c088339810160408190526100349161027c565b816001600160a01b03811661006457604051631e4fbdf760e01b8152600060048201526024015b60405180910390fd5b61006d81610157565b50600180556001600160a01b0381166100c85760405162461bcd60e51b815260206004820152601f60248201527f455243313435303a20496e76616c6964207472616e73666572206167656e7400604482015260640161005b565b60026100d486826103a8565b5060036100e185826103a8565b5060ff90921660805250600680546001600160a01b039092166001600160a01b03199283161790556009805460ff191690556000600a819055600b805460018101825591527f0175b7a638427703f0dbe7bb9bbf987a2551717b34e79f33b5b1008d1fa01db90180549091169055506104669050565b600080546001600160a01b038381166001600160a01b0319831681178455604051919092169283917f8be0079c531659141344cd1fd0a4f28419497f9722a3daafe3b4186f6b6457e09190a35050565b634e487b7160e01b600052604160045260246000fd5b600082601f8301126101ce57600080fd5b81516001600160401b038111156101e7576101e76101a7565b604051601f8201601f19908116603f011681016001600160401b0381118282101715610215576102156101a7565b60405281815283820160200185101561022d57600080fd5b60005b8281101561024c57602081860181015183830182015201610230565b506000918101602001919091529392505050565b80516001600160a01b038116811461027757600080fd5b919050565b600080600080600060a0868803121561029457600080fd5b85516001600160401b038111156102aa57600080fd5b6102b6888289016101bd565b602088015190965090506001600160401b038111156102d457600080fd5b6102e0888289016101bd565b945050604086015160ff811681146102f757600080fd5b925061030560608701610260565b915061031360808701610260565b90509295509295909350565b600181811c9082168061033357607f821691505b60208210810361035357634e487b7160e01b600052602260045260246000fd5b50919050565b601f8211156103a357806000526020600020601f840160051c810160208510156103805750805b601f840160051c820191505b818110156103a0576000815560010161038c565b50505b505050565b81516001600160401b038111156103c1576103c16101a7565b6103d5816103cf845461031f565b84610359565b6020601f82116001811461040957600083156103f15750848201515b600019600385901b1c1916600184901b1784556103a0565b600084815260208120601f198516915b828110156104395787850151825560209485019460019092019101610419565b50848210156104575786840151600019600387901b60f8161c191681555b50505050600190811b01905550565b60805161378761048160003960006104d401526137876000f3fe6080604052600436106102cd5760003560e01c80638c6a244c11610175578063b7709aba116100dc578063dd62ed3e11610095578063f3833e681161006f578063f3833e681461096d578063fb8dc17914610982578063fb99b86d1461099c578063ff482c41146109cb57600080fd5b8063dd62ed3e146108f1578063e816d97f14610914578063f2fde38b1461094d57600080fd5b8063b7709aba14610844578063b860438e14610859578063c946a40714610879578063c9593eb5146108aa578063cbe5404f146108bd578063d1132dd6146108dd57600080fd5b80639dd800391161012e5780639dd80039146107a95780639f271eb5146107d95780639fddaa93146107ee578063a5440bfc14610804578063a9059cbb146103b8578063b29a81401461082457600080fd5b80638c6a244c1461070c5780638da5cb5b1461072c5780638e52bfbc1461074a5780639542bbb71461075f57806395d89b41146107745780639ba372c21461078957600080fd5b80633b3e26451161023457806370a08231116101ed5780637e57c57d116101c75780637e57c57d1461067c5780637e8931591461069c578063860838a5146106bc578063886fa3cf146106ec57600080fd5b806370a0823114610611578063715018a61461064757806379cc67901461065c57600080fd5b80633b3e26451461053e5780633ec6ef44146105605780635547f83f14610582578063580ab697146105a25780635923e87d146105c2578063654c1918146105e257600080fd5b806322b31d9f1161028657806322b31d9f14610424578063231f81f81461045d57806323b872dd146104855780632ae98fb2146104a5578063313ce567146104c5578063361c12911461050657600080fd5b806301ffc9a7146102d957806303486c401461030e57806306fdde0314610396578063095ea7b3146103b857806318160ddd146103d85780631cead9a7146103f757600080fd5b366102d457005b600080fd5b3480156102e557600080fd5b506102f96102f4366004612fb4565b6109e0565b60405190151581526020015b60405180910390f35b34801561031a57600080fd5b50610382610329366004612fe5565b60086020526000908152604090208054600182015460028301546003840154600485015460058601546006909601546001600160a01b039586169694861695939492841693919291821691600160a01b900460ff169088565b604051610305989796959493929190613014565b3480156103a257600080fd5b506103ab610a4d565b604051610305919061307f565b3480156103c457600080fd5b506102f96103d33660046130e9565b610adf565b3480156103e457600080fd5b506005545b604051908152602001610305565b34801561040357600080fd5b506103e9610412366004613113565b600c6020526000908152604090205481565b34801561043057600080fd5b506102f961043f366004613113565b6001600160a01b03166000908152600d602052604090205460ff1690565b34801561046957600080fd5b50610472600681565b60405161ffff9091168152602001610305565b34801561049157600080fd5b506102f96104a036600461312e565b610afa565b3480156104b157600080fd5b506103e96104c036600461316b565b610be0565b3480156104d157600080fd5b507f00000000000000000000000000000000000000000000000000000000000000005b60405160ff9091168152602001610305565b34801561051257600080fd5b50610526610521366004612fe5565b610c49565b6040516001600160a01b039091168152602001610305565b34801561054a57600080fd5b50610553610c73565b60405161030591906131b8565b34801561056c57600080fd5b5061058061057b366004613226565b610cd4565b005b34801561058e57600080fd5b506102f961059d366004613262565b610e2a565b3480156105ae57600080fd5b506105806105bd3660046132a6565b61107b565b3480156105ce57600080fd5b506105806105dd36600461333b565b61110a565b3480156105ee57600080fd5b506106026105fd366004613113565b611143565b604051610305939291906133ab565b34801561061d57600080fd5b506103e961062c366004613113565b6001600160a01b031660009081526004602052604090205490565b34801561065357600080fd5b50610580611392565b34801561066857600080fd5b506102f96106773660046130e9565b6113a6565b34801561068857600080fd5b5061058061069736600461341c565b6114a7565b3480156106a857600080fd5b506105806106b7366004613113565b611534565b3480156106c857600080fd5b506102f96106d7366004613113565b600e6020526000908152604090205460ff1681565b3480156106f857600080fd5b50610580610707366004612fe5565b6115e2565b34801561071857600080fd5b50610580610727366004613113565b611777565b34801561073857600080fd5b506000546001600160a01b0316610526565b34801561075657600080fd5b50610472600481565b34801561076b57600080fd5b50610472600181565b34801561078057600080fd5b506103ab611900565b34801561079557600080fd5b506105806107a436600461344f565b61190f565b3480156107b557600080fd5b506102f96107c4366004613113565b600d6020526000908152604090205460ff1681565b3480156107e557600080fd5b50610472600981565b3480156107fa57600080fd5b506103e9600a5481565b34801561081057600080fd5b5061058061081f366004613482565b611ac4565b34801561083057600080fd5b5061058061083f3660046130e9565b611b60565b34801561085057600080fd5b50610472600581565b34801561086557600080fd5b506102f96108743660046134c4565b611c1b565b34801561088557600080fd5b506103e96108943660046134f7565b61ffff1660009081526010602052604090205490565b6103e96108b8366004613512565b611d6a565b3480156108c957600080fd5b506105806108d836600461341c565b612062565b3480156108e957600080fd5b5060016102f9565b3480156108fd57600080fd5b506103e961090c366004613567565b600092915050565b34801561092057600080fd5b506102f961092f366004613113565b6001600160a01b03166000908152600e602052604090205460ff1690565b34801561095957600080fd5b50610580610968366004613113565b6120b8565b34801561097957600080fd5b50610472600781565b34801561098e57600080fd5b506009546104f49060ff1681565b3480156109a857600080fd5b506102f96109b7366004613113565b6006546001600160a01b0391821691161490565b3480156109d757600080fd5b50610472600881565b600063578baef760e11b6001600160e01b031983161480610a1157506001600160e01b031982166336372b0760e01b145b80610a2c57506001600160e01b0319821663a219a02560e01b145b80610a4757506301ffc9a760e01b6001600160e01b03198316145b92915050565b606060028054610a5c90613591565b80601f0160208091040260200160405190810160405280929190818152602001828054610a8890613591565b8015610ad55780601f10610aaa57610100808354040283529160200191610ad5565b820191906000526020600020905b815481529060010190602001808311610ab857829003601f168201915b5050505050905090565b600060405163c27fd50560e01b815260040160405180910390fd5b6006546000906001600160a01b03163314610b2857604051634b05ae8560e11b815260040160405180910390fd5b6001600160a01b0384166000908152600e6020526040902054849060ff1615610b7b576040516307a93df560e11b81526001600160a01b0382166004820152600060248201526044015b60405180910390fd5b6001600160a01b0384166000908152600e6020526040902054849060ff1615610bc9576040516307a93df560e11b81526001600160a01b038216600482015260006024820152604401610b72565b610bd48686866120f6565b50600195945050505050565b6000610beb826121f3565b610bf757506000610c41565b60095460ff16600003610c0d5750600a54610c41565b60095460ff16600103610c3c57612710600a5484610c2b91906135e1565b610c3591906135f8565b9050610c41565b50600a545b949350505050565b600b8181548110610c5957600080fd5b6000918252602090912001546001600160a01b0316905081565b6060600b805480602002602001604051908101604052809291908181526020018280548015610ad557602002820191906000526020600020905b81546001600160a01b03168152600190910190602001808311610cad575050505050905090565b6006546001600160a01b03163314610cff57604051634b05ae8560e11b815260040160405180910390fd5b6000838152600860205260409020610d18846003612252565b818015610d29575060008160040154115b15610de45760058101546001600160a01b0316610d8657600381015460048201546040516001600160a01b039092169181156108fc0291906000818181858888f19350505050158015610d80573d6000803e3d6000fd5b50610dad565b600381015460048201546005830154610dad926001600160a01b03918216929116906122f9565b600481015460058201546001600160a01b03166000908152600c602052604081208054909190610dde90849061361a565b90915550505b6040805161ffff85168152831515602082015285917ff7061e20a57003952a3a98be55c537d9c3d732e2634c64a2ecac946e8e1c939f910160405180910390a250505050565b6006546000906001600160a01b03163314610e5857604051634b05ae8560e11b815260040160405180910390fd5b6001600160a01b038516610e825760405163ec442f0560e01b815260006004820152602401610b72565b60008361ffff1611610ed65760405162461bcd60e51b815260206004820181905260248201527f455243313435303a20496e76616c696420726567756c6174696f6e20747970656044820152606401610b72565b60008211610f265760405162461bcd60e51b815260206004820152601e60248201527f455243313435303a20496e76616c69642069737375616e6365206461746500006044820152606401610b72565b42821115610f885760405162461bcd60e51b815260206004820152602960248201527f455243313435303a204675747572652069737375616e63652064617465206e6f6044820152681d08185b1b1bddd95960ba1b6064820152608401610b72565b8360056000828254610f9a919061362d565b90915550506001600160a01b0385166000908152600460205260409020805485019055610fc985858585612358565b61ffff831660009081526010602052604081208054869290610fec90849061362d565b90915550506040518481526001600160a01b038616906000906000805160206137328339815191529060200160405180910390a360408051858152602081018490524281830152905161ffff8516916001600160a01b038816917fd7a03727fcad9fd7ec89ae4d2f858630c6af554ff70236b834cc92430a2e43c19181900360600190a3506001949350505050565b6006546001600160a01b031633146110a657604051634b05ae8560e11b815260040160405180910390fd5b6009805460ff191660ff8616179055600a8390556110c6600b8383612f3c565b507f9950293518fa753941262ebbf10fa155a48d4e9c32101858c0c8d576abac9d0b848484846040516110fc9493929190613640565b60405180910390a150505050565b6006546001600160a01b0316331461113557604051634b05ae8560e11b815260040160405180910390fd5b61113f8282612252565b5050565b60608060606000600f6000866001600160a01b03166001600160a01b03168152602001908152602001600020805480602002602001604051908101604052809291908181526020016000905b828210156111df57600084815260209081902060408051606081018252600386029092018054835260018082015461ffff168486015260029091015491830191909152908352909201910161118f565b505082519293508291505067ffffffffffffffff8111156112025761120261369e565b60405190808252806020026020018201604052801561122b578160200160208202803683370190505b5094508067ffffffffffffffff8111156112475761124761369e565b604051908082528060200260200182016040528015611270578160200160208202803683370190505b5093508067ffffffffffffffff81111561128c5761128c61369e565b6040519080825280602002602001820160405280156112b5578160200160208202803683370190505b50925060005b81811015611388578281815181106112d5576112d56136b4565b6020026020010151602001518682815181106112f3576112f36136b4565b602002602001019061ffff16908161ffff168152505082818151811061131b5761131b6136b4565b602002602001015160000151858281518110611339576113396136b4565b602002602001018181525050828181518110611357576113576136b4565b602002602001015160400151848281518110611375576113756136b4565b60209081029190910101526001016112bb565b5050509193909250565b61139a612638565b6113a46000612665565b565b6006546000906001600160a01b031633146113d457604051634b05ae8560e11b815260040160405180910390fd5b6001600160a01b0383166113fe57604051634b637e8f60e11b815260006004820152602401610b72565b6001600160a01b0383166000908152600460205260409020548281101561143e5783818460405163391434e360e21b8152600401610b72939291906136ca565b6001600160a01b0384166000908152600460205260409020838203905560058054849003905561146e84846126b5565b6040518381526000906001600160a01b038616906000805160206137328339815191529060200160405180910390a35060019392505050565b6006546001600160a01b031633146114d257604051634b05ae8560e11b815260040160405180910390fd5b6001600160a01b0382166000818152600d6020908152604091829020805460ff191685151590811790915591519182523392917f6eeca9bd01d51a74626e1dba78769450e56fe3f29dee5b0f3aee086d5f5ceaaf910160405180910390a35050565b6006546001600160a01b0316331461155f57604051634b05ae8560e11b815260040160405180910390fd5b6001600160a01b03811661158957604051631e4fbdf760e01b815260006004820152602401610b72565b6000546001600160a01b031661159e82612665565b816001600160a01b0316816001600160a01b03167faf014c0f1e2d7c810cfe4f4ec7c675b9dbd7ad5fd0b058fe94776a447d6f333760405160405180910390a35050565b6006546001600160a01b0316331461160d57604051634b05ae8560e11b815260040160405180910390fd5b60008181526008602052604090206004600582810154600160a01b900460ff169081111561163d5761163d612ffe565b1415801561166b57506003600582810154600160a01b900460ff169081111561166857611668612ffe565b14155b6116c25760405162461bcd60e51b815260206004820152602260248201527f455243313435303a205265717565737420616c72656164792066696e616c697a604482015261195960f21b6064820152608401610b72565b6002600582810154600160a01b900460ff16908111156116e4576116e4612ffe565b146116f4576116f4826002612252565b805460018201546002830154611717926001600160a01b039081169216906120f6565b611722826004612252565b6001810154815460028301546040519081526001600160a01b03928316929091169084907feb669e0a01fff40cbe45de851f42334fe70673136abfd91399651b7ae199a07b9060200160405180910390a45050565b6001600160a01b0381166117cd5760405162461bcd60e51b815260206004820152601f60248201527f455243313435303a20496e76616c6964207472616e73666572206167656e74006044820152606401610b72565b600654600160a01b900460ff16156117f857604051632b3cc4e160e21b815260040160405180910390fd5b6006546001600160a01b03161580159061181d57506006546001600160a01b03163314155b1561183b57604051634b05ae8560e11b815260040160405180910390fd5b6000546001600160a01b0316331480159061186157506006546001600160a01b03163314155b156118815760405163118cdaa760e01b8152336004820152602401610b72565b600680546001600160a01b038381166001600160a01b03198316811790935516903b156118bc576006805460ff60a01b1916600160a01b1790555b816001600160a01b0316816001600160a01b03167f35e89afcbe61fb77843ff4fb292fdc4b00f10009912cacbb48c537c93c84eccb60405160405180910390a35050565b606060038054610a5c90613591565b6006546001600160a01b0316331461193a57604051634b05ae8560e11b815260040160405180910390fd5b6001600160a01b0381166119905760405162461bcd60e51b815260206004820152601a60248201527f455243313435303a20496e76616c696420726563697069656e740000000000006044820152606401610b72565b6001600160a01b0383166000908152600c60205260409020548211156119e7576001600160a01b0383166000908152600c60205260409081902054905163391434e360e21b8152610b7291309185906004016136ca565b6001600160a01b0383166000908152600c602052604081208054849290611a0f90849061361a565b90915550506001600160a01b038316611a5e576040516001600160a01b0382169083156108fc029084906000818181858888f19350505050158015611a58573d6000803e3d6000fd5b50611a72565b611a726001600160a01b03841682846122f9565b806001600160a01b0316836001600160a01b03167f87044da2612407bc001bb0985725dcc651a0dc71eaabfd1d7e8617ca85a8c19c84604051611ab791815260200190565b60405180910390a3505050565b6006546001600160a01b03163314611aef57604051634b05ae8560e11b815260040160405180910390fd5b611afa8484846120f6565b826001600160a01b0316846001600160a01b03167f79d934d1fea524bb1baacd60b5b9b94a3b948a19d8d762726f7ecbe400308f15848442604051611b52939291909283526020830191909152604082015260600190565b60405180910390a350505050565b6006546001600160a01b03163314611b8b57604051634b05ae8560e11b815260040160405180910390fd5b306001600160a01b03831603611bb457604051634b05ae8560e11b815260040160405180910390fd5b6001600160a01b038216611c01576006546040516001600160a01b039091169082156108fc029083906000818181858888f19350505050158015611bfc573d6000803e3d6000fd5b505050565b60065461113f906001600160a01b038481169116836122f9565b6006546000906001600160a01b03163314611c4957604051634b05ae8560e11b815260040160405180910390fd5b6001600160a01b038416611c7357604051634b637e8f60e11b815260006004820152602401610b72565b6000611c7f85846128cf565b905083811015611ce25760405162461bcd60e51b815260206004820152602860248201527f455243313435303a20496e73756666696369656e7420726567756c6174696f6e6044820152672062616c616e636560c01b6064820152608401610b72565b6001600160a01b0385166000908152600460209081526040808320805488810390915560058054899003905561ffff87168452601090925290912080548690039055611d2f8686866129ce565b6040518581526000906001600160a01b038816906000805160206137328339815191529060200160405180910390a350600195945050505050565b6000611d74612bcb565b6001600160a01b0386161580611d9157506001600160a01b038516155b15611db25760405163ec442f0560e01b815260006004820152602401610b72565b336001600160a01b03871614801590611ddb5750336000908152600d602052604090205460ff16155b15611dfb5760405163118cdaa760e01b8152336004820152602401610b72565b611e04836121f3565b611e2c5760405163ec442f0560e01b81526001600160a01b0384166004820152602401610b72565b8115611eef576001600160a01b038316611eac57813414611e665733348360405163391434e360e21b8152600401610b72939291906136ca565b6000808052600c6020527f13649b2456f1b42fef0f0040b3aaeabcd21a76a0f3f5defd4f583839455116e88054849290611ea190849061362d565b90915550611eef9050565b611ec16001600160a01b038416333085612bf5565b6001600160a01b0383166000908152600c602052604081208054849290611ee990849061362d565b90915550505b60078054906000611eff836136eb565b9091555060408051610100810182526001600160a01b03898116825288811660208084019182528385018a81523360608601908152608086018a81528b861660a08801908152600060c089018181524260e08b01528b8252600890965298909820875181549088166001600160a01b03199182161782559551600182018054918916918816919091179055925160028401559051600383018054918716918616919091179055516004820155945160058087018054929095169382168417855591519697509395936001600160a81b03191690911790600160a01b908490811115611fec57611fec612ffe565b021790555060e091909101516006909101556040805185815260208101849052338183015290516001600160a01b03878116929089169184917f5c305e799a867c1f9a632629eba8ba08f423e4350397ef18fee1cbb4632df2c5919081900360600190a461205960018055565b95945050505050565b6006546001600160a01b0316331461208d57604051634b05ae8560e11b815260040160405180910390fd5b6001600160a01b03919091166000908152600e60205260409020805460ff1916911515919091179055565b6120c0612638565b6001600160a01b0381166120ea57604051631e4fbdf760e01b815260006004820152602401610b72565b6120f381612665565b50565b6001600160a01b03831661212057604051634b637e8f60e11b815260006004820152602401610b72565b6001600160a01b03821661214a5760405163ec442f0560e01b815260006004820152602401610b72565b6001600160a01b0383166000908152600460205260409020548181101561218a5783818360405163391434e360e21b8152600401610b72939291906136ca565b6001600160a01b0380851660009081526004602052604080822085850390559185168152208054830190556121c0848484612c2e565b826001600160a01b0316846001600160a01b031660008051602061373283398151915284604051611b5291815260200190565b6000805b600b5481101561224957826001600160a01b0316600b828154811061221e5761221e6136b4565b6000918252602090912001546001600160a01b0316036122415750600192915050565b6001016121f7565b50600092915050565b600082815260086020526040902060058082018054600160a01b80820460ff169386939260ff60a01b19169190849081111561229057612290612ffe565b02179055508260058111156122a7576122a7612ffe565b8160058111156122b9576122b9612ffe565b857f624f756b8457d5d02670046b80faa01c08502d2cbb53c3e61c1ef90a6b66cf91426040516122eb91815260200190565b60405180910390a450505050565b6040516001600160a01b03838116602483015260448201839052611bfc91859182169063a9059cbb906064015b604051602081830303815290604052915060e01b6020820180516001600160e01b038381831617835250505050612da6565b6001600160a01b0384166000908152600f60205260408120805490915b825481101561245d5783838281548110612391576123916136b4565b90600052602060002090600302016002015411156123b15780915061245d565b8461ffff168382815481106123c8576123c86136b4565b600091825260209091206001600390920201015461ffff1614801561240f5750838382815481106123fb576123fb6136b4565b906000526020600020906003020160020154145b156124555785838281548110612427576124276136b4565b90600052602060002090600302016000016000828254612447919061362d565b909155506126329350505050565b600101612375565b506040805160608101825286815261ffff86166020820152908101849052825482036124cb5782546001808201855560008581526020908190208451600390940201928355830151908201805461ffff191661ffff909216919091179055604082015160029091015561262e565b8254839081906124dd9060019061361a565b815481106124ed576124ed6136b4565b6000918252602080832084546001818101875595855291842060039384029091018054929093020190815583820154818501805461ffff191661ffff909216919091179055600291820154910155845490916125489161361a565b90505b828111156125db578361255f60018361361a565b8154811061256f5761256f6136b4565b906000526020600020906003020184828154811061258f5761258f6136b4565b600091825260209091208254600390920201908155600180830154908201805461ffff191661ffff909216919091179055600291820154910155806125d381613704565b91505061254b565b50808383815481106125ef576125ef6136b4565b60009182526020918290208351600392909202019081559082015160018201805461ffff191661ffff9092169190911790556040909101516002909101555b5050505b50505050565b6000546001600160a01b031633146113a45760405163118cdaa760e01b8152336004820152602401610b72565b600080546001600160a01b038381166001600160a01b0319831681178455604051919092169283917f8be0079c531659141344cd1fd0a4f28419497f9722a3daafe3b4186f6b6457e09190a35050565b6001600160a01b0382166000908152600f602052604081209082905b6000821180156126e15750825481105b156128bf5760008382815481106126fa576126fa6136b4565b90600052602060002090600302016000015411156128ad57600082848381548110612727576127276136b4565b9060005260206000209060030201600001541161276757838281548110612750576127506136b4565b906000526020600020906003020160000154612769565b825b90508084838154811061277e5761277e6136b4565b9060005260206000209060030201600001600082825461279e919061361a565b9250508190555080601060008685815481106127bc576127bc6136b4565b600091825260208083206001600390930201919091015461ffff168352820192909252604001812080549091906127f490849061361a565b909155506128049050818461361a565b9250838281548110612818576128186136b4565b906000526020600020906003020160010160009054906101000a900461ffff1661ffff16866001600160a01b03167f3e12e887d427175142a28b9b6c2740bc2da6904e3c9f86a2aea2a2cc53bb95b78387868154811061287a5761287a6136b4565b9060005260206000209060030201600201546040516128a3929190918252602082015260400190565b60405180910390a3505b806128b7816136eb565b9150506126d1565b6128c885612e17565b5050505050565b6001600160a01b0382166000908152600f6020908152604080832080548251818502810185019093528083528493849084015b8282101561295257600084815260209081902060408051606081018252600386029092018054835260018082015461ffff1684860152600290910154918301919091529083529092019101612902565b5050505090506000805b82518110156129c5578461ffff1683828151811061297c5761297c6136b4565b60200260200101516020015161ffff16036129bd578281815181106129a3576129a36136b4565b602002602001015160000151826129ba919061362d565b91505b60010161295c565b50949350505050565b6001600160a01b0383166000908152600f60205260408120908390805b8354811080156129fb5750600083115b15612bb9578461ffff16848281548110612a1757612a176136b4565b600091825260209091206001600390920201015461ffff16148015612a5f57506000848281548110612a4b57612a4b6136b4565b906000526020600020906003020160000154115b15612ba757600083858381548110612a7957612a796136b4565b90600052602060002090600302016000015411612ab957848281548110612aa257612aa26136b4565b906000526020600020906003020160000154612abb565b835b905080858381548110612ad057612ad06136b4565b90600052602060002090600302016000016000828254612af0919061361a565b90915550612b009050818561361a565b935082600003612b3157848281548110612b1c57612b1c6136b4565b90600052602060002090600302016002015492505b8561ffff16886001600160a01b03167f3e12e887d427175142a28b9b6c2740bc2da6904e3c9f86a2aea2a2cc53bb95b783888681548110612b7457612b746136b4565b906000526020600020906003020160020154604051612b9d929190918252602082015260400190565b60405180910390a3505b80612bb1816136eb565b9150506129eb565b50612bc386612e17565b505050505050565b600260015403612bee57604051633ee5aeb560e01b815260040160405180910390fd5b6002600155565b6040516001600160a01b0384811660248301528381166044830152606482018390526126329186918216906323b872dd90608401612326565b6001600160a01b0383166000908152600f602052604081209082905b600082118015612c5a5750825481105b15612d9d576000838281548110612c7357612c736136b4565b9060005260206000209060030201600001541115612d8b57600082848381548110612ca057612ca06136b4565b90600052602060002090600302016000015411612ce057838281548110612cc957612cc96136b4565b906000526020600020906003020160000154612ce2565b825b905080848381548110612cf757612cf76136b4565b90600052602060002090600302016000016000828254612d17919061361a565b90915550612d279050818461361a565b9250612d898682868581548110612d4057612d406136b4565b906000526020600020906003020160010160009054906101000a900461ffff16878681548110612d7257612d726136b4565b906000526020600020906003020160020154612358565b505b80612d95816136eb565b915050612c4a565b612bc386612e17565b600080602060008451602086016000885af180612dc9576040513d6000823e3d81fd5b50506000513d91508115612de1578060011415612dee565b6001600160a01b0384163b155b1561263257604051635274afe760e01b81526001600160a01b0385166004820152602401610b72565b6001600160a01b0381166000908152600f6020526040812090805b8254811015612ef1576000838281548110612e4f57612e4f6136b4565b9060005260206000209060030201600001541115612ee957808214612edb57828181548110612e8057612e806136b4565b9060005260206000209060030201838381548110612ea057612ea06136b4565b600091825260209091208254600390920201908155600180830154908201805461ffff191661ffff9092169190911790556002918201549101555b81612ee5816136eb565b9250505b600101612e32565b505b8154811015611bfc5781805480612f0c57612f0c61371b565b60008281526020812060036000199093019283020181815560018101805461ffff19169055600201559055612ef3565b828054828255906000526020600020908101928215612f8f579160200282015b82811115612f8f5781546001600160a01b0319166001600160a01b03843516178255602090920191600190910190612f5c565b50612f9b929150612f9f565b5090565b5b80821115612f9b5760008155600101612fa0565b600060208284031215612fc657600080fd5b81356001600160e01b031981168114612fde57600080fd5b9392505050565b600060208284031215612ff757600080fd5b5035919050565b634e487b7160e01b600052602160045260246000fd5b6001600160a01b038981168252888116602083015260408201889052868116606083015260808201869052841660a082015261010081016006841061306957634e487b7160e01b600052602160045260246000fd5b60c082019390935260e001529695505050505050565b602081526000825180602084015260005b818110156130ad5760208186018101516040868401015201613090565b506000604082850101526040601f19601f83011684010191505092915050565b80356001600160a01b03811681146130e457600080fd5b919050565b600080604083850312156130fc57600080fd5b613105836130cd565b946020939093013593505050565b60006020828403121561312557600080fd5b612fde826130cd565b60008060006060848603121561314357600080fd5b61314c846130cd565b925061315a602085016130cd565b929592945050506040919091013590565b6000806000806080858703121561318157600080fd5b61318a856130cd565b9350613198602086016130cd565b9250604085013591506131ad606086016130cd565b905092959194509250565b602080825282518282018190526000918401906040840190835b818110156131f95783516001600160a01b03168352602093840193909201916001016131d2565b509095945050505050565b803561ffff811681146130e457600080fd5b803580151581146130e457600080fd5b60008060006060848603121561323b57600080fd5b8335925061324b60208501613204565b915061325960408501613216565b90509250925092565b6000806000806080858703121561327857600080fd5b613281856130cd565b93506020850135925061329660408601613204565b9396929550929360600135925050565b600080600080606085870312156132bc57600080fd5b843560ff811681146132cd57600080fd5b935060208501359250604085013567ffffffffffffffff8111156132f057600080fd5b8501601f8101871361330157600080fd5b803567ffffffffffffffff81111561331857600080fd5b8760208260051b840101111561332d57600080fd5b949793965060200194505050565b6000806040838503121561334e57600080fd5b8235915060208301356006811061336457600080fd5b809150509250929050565b600081518084526020840193506020830160005b828110156133a1578151865260209586019590910190600101613383565b5093949350505050565b6060808252845190820181905260009060208601906080840190835b818110156133e957835161ffff168352602093840193909201916001016133c7565b505083810360208501526133fd818761336f565b9150508281036040840152613412818561336f565b9695505050505050565b6000806040838503121561342f57600080fd5b613438836130cd565b915061344660208401613216565b90509250929050565b60008060006060848603121561346457600080fd5b61346d846130cd565b925060208401359150613259604085016130cd565b6000806000806080858703121561349857600080fd5b6134a1856130cd565b93506134af602086016130cd565b93969395505050506040820135916060013590565b6000806000606084860312156134d957600080fd5b6134e2846130cd565b92506020840135915061325960408501613204565b60006020828403121561350957600080fd5b612fde82613204565b600080600080600060a0868803121561352a57600080fd5b613533866130cd565b9450613541602087016130cd565b935060408601359250613556606087016130cd565b949793965091946080013592915050565b6000806040838503121561357a57600080fd5b613583836130cd565b9150613446602084016130cd565b600181811c908216806135a557607f821691505b6020821081036135c557634e487b7160e01b600052602260045260246000fd5b50919050565b634e487b7160e01b600052601160045260246000fd5b8082028115828204841417610a4757610a476135cb565b60008261361557634e487b7160e01b600052601260045260246000fd5b500490565b81810381811115610a4757610a476135cb565b80820180821115610a4757610a476135cb565b60ff8516815260208101849052606060408201819052810182905260008360808301825b85811015613692576001600160a01b0361367d846130cd565b16825260209283019290910190600101613664565b50979650505050505050565b634e487b7160e01b600052604160045260246000fd5b634e487b7160e01b600052603260045260246000fd5b6001600160a01b039390931683526020830191909152604082015260600190565b6000600182016136fd576136fd6135cb565b5060010190565b600081613713576137136135cb565b506000190190565b634e487b7160e01b600052603160045260246000fdfeddf252ad1be2c89b69c2b068fc378daa952ba7f163c4a11628f55a4df523b3efa264697066735822122063a45f2eec24f57d8c2995b9e2d09e8eaeffac2528c4f8ab0b5e93ba3bae6bab64736f6c634300081b0033",
  "linkReferences": {},
  "deployedLinkReferences": {}
}