{
  "_format": "hh-sol-artifact-1",
  "contractName": "ERC1450",
  "sourceName": "contracts/ERC1450.sol",
  "abi": [
    {
      "inputs": [
        {
          "internalType": "string",
          "name": "name_",
          "type": "string"
        },
        {
          "internalType": "string",
          "name": "symbol_",
          "type": "string"
        },
        {
          "internalType": "uint8",
          "name": "decimals_",
          "type": "uint8"
        },
        {
          "internalType": "address",
          "name": "initialOwner",
          "type": "address"
        },
        {
          "internalType": "address",
          "name": "initialTransferAgent",
          "type": "address"
        }
      ],
      "stateMutability": "nonpayable",
      "type": "constructor"
    },
    {
      "inputs": [
        {
          "internalType": "address",
          "name": "from",
          "type": "address"
        },
        {
          "internalType": "address",
          "name": "to",
          "type": "address"
        }
      ],
      "name": "ERC1450ComplianceCheckFailed",
      "type": "error"
    },
    {
      "inputs": [],
      "name": "ERC1450OnlyRTA",
      "type": "error"
    },
    {
      "inputs": [],
      "name": "ERC1450TransferAgentLocked",
      "type": "error"
    },
    {
      "inputs": [],
      "name": "ERC1450TransferDisabled",
      "type": "error"
    },
    {
      "inputs": [
        {
          "internalType": "address",
          "name": "sender",
          "type": "address"
        },
        {
          "internalType": "uint256",
          "name": "balance",
          "type": "uint256"
        },
        {
          "internalType": "uint256",
          "name": "needed",
          "type": "uint256"
        }
      ],
      "name": "ERC20InsufficientBalance",
      "type": "error"
    },
    {
      "inputs": [
        {
          "internalType": "address",
          "name": "receiver",
          "type": "address"
        }
      ],
      "name": "ERC20InvalidReceiver",
      "type": "error"
    },
    {
      "inputs": [
        {
          "internalType": "address",
          "name": "sender",
          "type": "address"
        }
      ],
      "name": "ERC20InvalidSender",
      "type": "error"
    },
    {
      "inputs": [
        {
          "internalType": "address",
          "name": "owner",
          "type": "address"
        }
      ],
      "name": "OwnableInvalidOwner",
      "type": "error"
    },
    {
      "inputs": [
        {
          "internalType": "address",
          "name": "account",
          "type": "address"
        }
      ],
      "name": "OwnableUnauthorizedAccount",
      "type": "error"
    },
    {
      "inputs": [],
      "name": "ReentrancyGuardReentrantCall",
      "type": "error"
    },
    {
      "inputs": [
        {
          "internalType": "address",
          "name": "token",
          "type": "address"
        }
      ],
      "name": "SafeERC20FailedOperation",
      "type": "error"
    },
    {
      "anonymous": false,
      "inputs": [
        {
          "indexed": true,
          "internalType": "address",
          "name": "owner",
          "type": "address"
        },
        {
          "indexed": true,
          "internalType": "address",
          "name": "spender",
          "type": "address"
        },
        {
          "indexed": false,
          "internalType": "uint256",
          "name": "value",
          "type": "uint256"
        }
      ],
      "name": "Approval",
      "type": "event"
    },
    {
      "anonymous": false,
      "inputs": [
        {
          "indexed": true,
          "internalType": "address",
          "name": "broker",
          "type": "address"
        },
        {
          "indexed": false,
          "internalType": "bool",
          "name": "isApproved",
          "type": "bool"
        },
        {
          "indexed": true,
          "internalType": "address",
          "name": "updatedBy",
          "type": "address"
        }
      ],
      "name": "BrokerStatusUpdated",
      "type": "event"
    },
    {
      "anonymous": false,
      "inputs": [
        {
          "indexed": true,
          "internalType": "address",
          "name": "from",
          "type": "address"
        },
        {
          "indexed": true,
          "internalType": "address",
          "name": "to",
          "type": "address"
        },
        {
          "indexed": false,
          "internalType": "uint256",
          "name": "amount",
          "type": "uint256"
        },
        {
          "indexed": false,
          "internalType": "bytes32",
          "name": "documentHash",
          "type": "bytes32"
        },
        {
          "indexed": false,
          "internalType": "uint256",
          "name": "timestamp",
          "type": "uint256"
        }
      ],
      "name": "CourtOrderExecuted",
      "type": "event"
    },
    {
      "anonymous": false,
      "inputs": [
        {
          "indexed": true,
          "internalType": "address",
          "name": "from",
          "type": "address"
        },
        {
          "indexed": false,
          "internalType": "uint256",
          "name": "amount",
          "type": "uint256"
        }
      ],
      "name": "ETHReceived",
      "type": "event"
    },
    {
      "anonymous": false,
      "inputs": [
        {
          "indexed": false,
          "internalType": "uint8",
          "name": "feeType",
          "type": "uint8"
        },
        {
          "indexed": false,
          "internalType": "uint256",
          "name": "feeValue",
          "type": "uint256"
        },
        {
          "indexed": false,
          "internalType": "address[]",
          "name": "acceptedTokens",
          "type": "address[]"
        }
      ],
      "name": "FeeParametersUpdated",
      "type": "event"
    },
    {
      "anonymous": false,
      "inputs": [
        {
          "indexed": true,
          "internalType": "address",
          "name": "token",
          "type": "address"
        },
        {
          "indexed": false,
          "internalType": "uint256",
          "name": "amount",
          "type": "uint256"
        },
        {
          "indexed": true,
          "internalType": "address",
          "name": "recipient",
          "type": "address"
        }
      ],
      "name": "FeesWithdrawn",
      "type": "event"
    },
    {
      "anonymous": false,
      "inputs": [
        {
          "indexed": true,
          "internalType": "address",
          "name": "previousIssuer",
          "type": "address"
        },
        {
          "indexed": true,
          "internalType": "address",
          "name": "newIssuer",
          "type": "address"
        }
      ],
      "name": "IssuerChanged",
      "type": "event"
    },
    {
      "anonymous": false,
      "inputs": [
        {
          "indexed": true,
          "internalType": "address",
          "name": "previousOwner",
          "type": "address"
        },
        {
          "indexed": true,
          "internalType": "address",
          "name": "newOwner",
          "type": "address"
        }
      ],
      "name": "OwnershipTransferred",
      "type": "event"
    },
    {
      "anonymous": false,
      "inputs": [
        {
          "indexed": true,
          "internalType": "uint256",
          "name": "requestId",
          "type": "uint256"
        },
        {
          "indexed": true,
          "internalType": "enum IERC1450.RequestStatus",
          "name": "oldStatus",
          "type": "uint8"
        },
        {
          "indexed": true,
          "internalType": "enum IERC1450.RequestStatus",
          "name": "newStatus",
          "type": "uint8"
        },
        {
          "indexed": false,
          "internalType": "uint256",
          "name": "timestamp",
          "type": "uint256"
        }
      ],
      "name": "RequestStatusChanged",
      "type": "event"
    },
    {
      "anonymous": false,
      "inputs": [
        {
          "indexed": true,
          "internalType": "address",
          "name": "from",
          "type": "address"
        },
        {
          "indexed": false,
          "internalType": "uint256",
          "name": "amount",
          "type": "uint256"
        },
        {
          "indexed": true,
          "internalType": "uint16",
          "name": "regulationType",
          "type": "uint16"
        },
        {
          "indexed": false,
          "internalType": "uint256",
          "name": "issuanceDate",
          "type": "uint256"
        }
      ],
      "name": "TokensBurned",
      "type": "event"
    },
    {
      "anonymous": false,
      "inputs": [
        {
          "indexed": true,
          "internalType": "address",
          "name": "to",
          "type": "address"
        },
        {
          "indexed": false,
          "internalType": "uint256",
          "name": "amount",
          "type": "uint256"
        },
        {
          "indexed": true,
          "internalType": "uint16",
          "name": "regulationType",
          "type": "uint16"
        },
        {
          "indexed": false,
          "internalType": "uint256",
          "name": "issuanceDate",
          "type": "uint256"
        },
        {
          "indexed": false,
          "internalType": "uint256",
          "name": "tokenizationDate",
          "type": "uint256"
        }
      ],
      "name": "TokensMinted",
      "type": "event"
    },
    {
      "anonymous": false,
      "inputs": [
        {
          "indexed": true,
          "internalType": "address",
          "name": "from",
          "type": "address"
        },
        {
          "indexed": true,
          "internalType": "address",
          "name": "to",
          "type": "address"
        },
        {
          "indexed": false,
          "internalType": "uint256",
          "name": "value",
          "type": "uint256"
        }
      ],
      "name": "Transfer",
      "type": "event"
    },
    {
      "anonymous": false,
      "inputs": [
        {
          "indexed": true,
          "internalType": "address",
          "name": "previousAgent",
          "type": "address"
        },
        {
          "indexed": true,
          "internalType": "address",
          "name": "newAgent",
          "type": "address"
        }
      ],
      "name": "TransferAgentUpdated",
      "type": "event"
    },
    {
      "anonymous": false,
      "inputs": [
        {
          "indexed": true,
          "internalType": "uint256",
          "name": "requestId",
          "type": "uint256"
        },
        {
          "indexed": true,
          "internalType": "address",
          "name": "from",
          "type": "address"
        },
        {
          "indexed": true,
          "internalType": "address",
          "name": "to",
          "type": "address"
        },
        {
          "indexed": false,
          "internalType": "uint256",
          "name": "amount",
          "type": "uint256"
        }
      ],
      "name": "TransferExecuted",
      "type": "event"
    },
    {
      "anonymous": false,
      "inputs": [
        {
          "indexed": true,
          "internalType": "uint256",
          "name": "requestId",
          "type": "uint256"
        },
        {
          "indexed": false,
          "internalType": "uint256",
          "name": "expiredAt",
          "type": "uint256"
        }
      ],
      "name": "TransferExpired",
      "type": "event"
    },
    {
      "anonymous": false,
      "inputs": [
        {
          "indexed": true,
          "internalType": "uint256",
          "name": "requestId",
          "type": "uint256"
        },
        {
          "indexed": false,
          "internalType": "uint16",
          "name": "reasonCode",
          "type": "uint16"
        },
        {
          "indexed": false,
          "internalType": "bool",
          "name": "feeRefunded",
          "type": "bool"
        }
      ],
      "name": "TransferRejected",
      "type": "event"
    },
    {
      "anonymous": false,
      "inputs": [
        {
          "indexed": true,
          "internalType": "uint256",
          "name": "requestId",
          "type": "uint256"
        },
        {
          "indexed": true,
          "internalType": "address",
          "name": "from",
          "type": "address"
        },
        {
          "indexed": true,
          "internalType": "address",
          "name": "to",
          "type": "address"
        },
        {
          "indexed": false,
          "internalType": "uint256",
          "name": "amount",
          "type": "uint256"
        },
        {
          "indexed": false,
          "internalType": "uint256",
          "name": "feePaid",
          "type": "uint256"
        },
        {
          "indexed": false,
          "internalType": "address",
          "name": "requestedBy",
          "type": "address"
        }
      ],
      "name": "TransferRequested",
      "type": "event"
    },
    {
      "inputs": [],
      "name": "REG_US_A_TIER_1",
      "outputs": [
        {
          "internalType": "uint16",
          "name": "",
          "type": "uint16"
        }
      ],
      "stateMutability": "view",
      "type": "function"
    },
    {
      "inputs": [],
      "name": "REG_US_A_TIER_2",
      "outputs": [
        {
          "internalType": "uint16",
          "name": "",
          "type": "uint16"
        }
      ],
      "stateMutability": "view",
      "type": "function"
    },
    {
      "inputs": [],
      "name": "REG_US_CF",
      "outputs": [
        {
          "internalType": "uint16",
          "name": "",
          "type": "uint16"
        }
      ],
      "stateMutability": "view",
      "type": "function"
    },
    {
      "inputs": [],
      "name": "REG_US_D_506B",
      "outputs": [
        {
          "internalType": "uint16",
          "name": "",
          "type": "uint16"
        }
      ],
      "stateMutability": "view",
      "type": "function"
    },
    {
      "inputs": [],
      "name": "REG_US_D_506C",
      "outputs": [
        {
          "internalType": "uint16",
          "name": "",
          "type": "uint16"
        }
      ],
      "stateMutability": "view",
      "type": "function"
    },
    {
      "inputs": [],
      "name": "REG_US_S",
      "outputs": [
        {
          "internalType": "uint16",
          "name": "",
          "type": "uint16"
        }
      ],
      "stateMutability": "view",
      "type": "function"
    },
    {
      "inputs": [],
      "name": "REG_US_S1",
      "outputs": [
        {
          "internalType": "uint16",
          "name": "",
          "type": "uint16"
        }
      ],
      "stateMutability": "view",
      "type": "function"
    },
    {
      "inputs": [
        {
          "internalType": "uint256",
          "name": "",
          "type": "uint256"
        }
      ],
      "name": "acceptedFeeTokens",
      "outputs": [
        {
          "internalType": "address",
          "name": "",
          "type": "address"
        }
      ],
      "stateMutability": "view",
      "type": "function"
    },
    {
      "inputs": [
        {
          "internalType": "address",
          "name": "",
          "type": "address"
        },
        {
          "internalType": "address",
          "name": "",
          "type": "address"
        }
      ],
      "name": "allowance",
      "outputs": [
        {
          "internalType": "uint256",
          "name": "",
          "type": "uint256"
        }
      ],
      "stateMutability": "pure",
      "type": "function"
    },
    {
      "inputs": [
        {
          "internalType": "address",
          "name": "",
          "type": "address"
        },
        {
          "internalType": "uint256",
          "name": "",
          "type": "uint256"
        }
      ],
      "name": "approve",
      "outputs": [
        {
          "internalType": "bool",
          "name": "",
          "type": "bool"
        }
      ],
      "stateMutability": "pure",
      "type": "function"
    },
    {
      "inputs": [
        {
          "internalType": "address",
          "name": "",
          "type": "address"
        }
      ],
      "name": "approvedBrokers",
      "outputs": [
        {
          "internalType": "bool",
          "name": "",
          "type": "bool"
        }
      ],
      "stateMutability": "view",
      "type": "function"
    },
    {
      "inputs": [
        {
          "internalType": "address",
          "name": "account",
          "type": "address"
        }
      ],
      "name": "balanceOf",
      "outputs": [
        {
          "internalType": "uint256",
          "name": "",
          "type": "uint256"
        }
      ],
      "stateMutability": "view",
      "type": "function"
    },
    {
      "inputs": [
        {
          "internalType": "address",
          "name": "from",
          "type": "address"
        },
        {
          "internalType": "uint256",
          "name": "amount",
          "type": "uint256"
        }
      ],
      "name": "burnFrom",
      "outputs": [
        {
          "internalType": "bool",
          "name": "",
          "type": "bool"
        }
      ],
      "stateMutability": "nonpayable",
      "type": "function"
    },
    {
      "inputs": [
        {
          "internalType": "address",
          "name": "from",
          "type": "address"
        },
        {
          "internalType": "uint256",
          "name": "amount",
          "type": "uint256"
        },
        {
          "internalType": "uint16",
          "name": "regulationType",
          "type": "uint16"
        }
      ],
      "name": "burnFromRegulation",
      "outputs": [
        {
          "internalType": "bool",
          "name": "",
          "type": "bool"
        }
      ],
      "stateMutability": "nonpayable",
      "type": "function"
    },
    {
      "inputs": [
        {
          "internalType": "address",
          "name": "newIssuer",
          "type": "address"
        }
      ],
      "name": "changeIssuer",
      "outputs": [],
      "stateMutability": "nonpayable",
      "type": "function"
    },
    {
      "inputs": [
        {
          "internalType": "address",
          "name": "",
          "type": "address"
        }
      ],
      "name": "collectedFees",
      "outputs": [
        {
          "internalType": "uint256",
          "name": "",
          "type": "uint256"
        }
      ],
      "stateMutability": "view",
      "type": "function"
    },
    {
      "inputs": [],
      "name": "decimals",
      "outputs": [
        {
          "internalType": "uint8",
          "name": "",
          "type": "uint8"
        }
      ],
      "stateMutability": "view",
      "type": "function"
    },
    {
      "inputs": [
        {
          "internalType": "address",
          "name": "from",
          "type": "address"
        },
        {
          "internalType": "address",
          "name": "to",
          "type": "address"
        },
        {
          "internalType": "uint256",
          "name": "amount",
          "type": "uint256"
        },
        {
          "internalType": "bytes32",
          "name": "documentHash",
          "type": "bytes32"
        }
      ],
      "name": "executeCourtOrder",
      "outputs": [],
      "stateMutability": "nonpayable",
      "type": "function"
    },
    {
      "inputs": [],
      "name": "feeType",
      "outputs": [
        {
          "internalType": "uint8",
          "name": "",
          "type": "uint8"
        }
      ],
      "stateMutability": "view",
      "type": "function"
    },
    {
      "inputs": [],
      "name": "feeValue",
      "outputs": [
        {
          "internalType": "uint256",
          "name": "",
          "type": "uint256"
        }
      ],
      "stateMutability": "view",
      "type": "function"
    },
    {
      "inputs": [
        {
          "internalType": "address",
          "name": "",
          "type": "address"
        }
      ],
      "name": "frozenAccounts",
      "outputs": [
        {
          "internalType": "bool",
          "name": "",
          "type": "bool"
        }
      ],
      "stateMutability": "view",
      "type": "function"
    },
    {
      "inputs": [],
      "name": "getAcceptedFeeTokens",
      "outputs": [
        {
          "internalType": "address[]",
          "name": "",
          "type": "address[]"
        }
      ],
      "stateMutability": "view",
      "type": "function"
    },
    {
      "inputs": [
        {
          "internalType": "address",
          "name": "holder",
          "type": "address"
        }
      ],
      "name": "getHolderRegulations",
      "outputs": [
        {
          "internalType": "uint16[]",
          "name": "regulationTypes",
          "type": "uint16[]"
        },
        {
          "internalType": "uint256[]",
          "name": "amounts",
          "type": "uint256[]"
        },
        {
          "internalType": "uint256[]",
          "name": "issuanceDates",
          "type": "uint256[]"
        }
      ],
      "stateMutability": "view",
      "type": "function"
    },
    {
      "inputs": [
        {
          "internalType": "uint16",
          "name": "regulationType",
          "type": "uint16"
        }
      ],
      "name": "getRegulationSupply",
      "outputs": [
        {
          "internalType": "uint256",
          "name": "",
          "type": "uint256"
        }
      ],
      "stateMutability": "view",
      "type": "function"
    },
    {
      "inputs": [
        {
          "internalType": "address",
          "name": "",
          "type": "address"
        },
        {
          "internalType": "address",
          "name": "",
          "type": "address"
        },
        {
          "internalType": "uint256",
          "name": "amount",
          "type": "uint256"
        },
        {
          "internalType": "address",
          "name": "feeToken",
          "type": "address"
        }
      ],
      "name": "getTransferFee",
      "outputs": [
        {
          "internalType": "uint256",
          "name": "feeAmount",
          "type": "uint256"
        }
      ],
      "stateMutability": "view",
      "type": "function"
    },
    {
      "inputs": [
        {
          "internalType": "address",
          "name": "account",
          "type": "address"
        }
      ],
      "name": "isAccountFrozen",
      "outputs": [
        {
          "internalType": "bool",
          "name": "",
          "type": "bool"
        }
      ],
      "stateMutability": "view",
      "type": "function"
    },
    {
      "inputs": [
        {
          "internalType": "address",
          "name": "broker",
          "type": "address"
        }
      ],
      "name": "isBroker",
      "outputs": [
        {
          "internalType": "bool",
          "name": "",
          "type": "bool"
        }
      ],
      "stateMutability": "view",
      "type": "function"
    },
    {
      "inputs": [],
      "name": "isSecurityToken",
      "outputs": [
        {
          "internalType": "bool",
          "name": "",
          "type": "bool"
        }
      ],
      "stateMutability": "pure",
      "type": "function"
    },
    {
      "inputs": [
        {
          "internalType": "address",
          "name": "addr",
          "type": "address"
        }
      ],
      "name": "isTransferAgent",
      "outputs": [
        {
          "internalType": "bool",
          "name": "",
          "type": "bool"
        }
      ],
      "stateMutability": "view",
      "type": "function"
    },
    {
      "inputs": [
        {
          "internalType": "address",
          "name": "to",
          "type": "address"
        },
        {
          "internalType": "uint256",
          "name": "amount",
          "type": "uint256"
        },
        {
          "internalType": "uint16",
          "name": "regulationType",
          "type": "uint16"
        },
        {
          "internalType": "uint256",
          "name": "issuanceDate",
          "type": "uint256"
        }
      ],
      "name": "mint",
      "outputs": [
        {
          "internalType": "bool",
          "name": "",
          "type": "bool"
        }
      ],
      "stateMutability": "nonpayable",
      "type": "function"
    },
    {
      "inputs": [],
      "name": "name",
      "outputs": [
        {
          "internalType": "string",
          "name": "",
          "type": "string"
        }
      ],
      "stateMutability": "view",
      "type": "function"
    },
    {
      "inputs": [],
      "name": "owner",
      "outputs": [
        {
          "internalType": "address",
          "name": "",
          "type": "address"
        }
      ],
      "stateMutability": "view",
      "type": "function"
    },
    {
      "inputs": [
        {
          "internalType": "uint256",
          "name": "requestId",
          "type": "uint256"
        }
      ],
      "name": "processTransferRequest",
      "outputs": [],
      "stateMutability": "nonpayable",
      "type": "function"
    },
    {
      "inputs": [
        {
          "internalType": "address",
          "name": "token",
          "type": "address"
        },
        {
          "internalType": "uint256",
          "name": "amount",
          "type": "uint256"
        }
      ],
      "name": "recoverToken",
      "outputs": [],
      "stateMutability": "nonpayable",
      "type": "function"
    },
    {
      "inputs": [
        {
          "internalType": "uint256",
          "name": "requestId",
          "type": "uint256"
        },
        {
          "internalType": "uint16",
          "name": "reasonCode",
          "type": "uint16"
        },
        {
          "internalType": "bool",
          "name": "refundFee",
          "type": "bool"
        }
      ],
      "name": "rejectTransferRequest",
      "outputs": [],
      "stateMutability": "nonpayable",
      "type": "function"
    },
    {
      "inputs": [],
      "name": "renounceOwnership",
      "outputs": [],
      "stateMutability": "nonpayable",
      "type": "function"
    },
    {
      "inputs": [
        {
          "internalType": "address",
          "name": "from",
          "type": "address"
        },
        {
          "internalType": "address",
          "name": "to",
          "type": "address"
        },
        {
          "internalType": "uint256",
          "name": "amount",
          "type": "uint256"
        },
        {
          "internalType": "address",
          "name": "feeToken",
          "type": "address"
        },
        {
          "internalType": "uint256",
          "name": "feeAmount",
          "type": "uint256"
        }
      ],
      "name": "requestTransferWithFee",
      "outputs": [
        {
          "internalType": "uint256",
          "name": "requestId",
          "type": "uint256"
        }
      ],
      "stateMutability": "payable",
      "type": "function"
    },
    {
      "inputs": [
        {
          "internalType": "address",
          "name": "account",
          "type": "address"
        },
        {
          "internalType": "bool",
          "name": "frozen",
          "type": "bool"
        }
      ],
      "name": "setAccountFrozen",
      "outputs": [],
      "stateMutability": "nonpayable",
      "type": "function"
    },
    {
      "inputs": [
        {
          "internalType": "address",
          "name": "broker",
          "type": "address"
        },
        {
          "internalType": "bool",
          "name": "approved",
          "type": "bool"
        }
      ],
      "name": "setBrokerStatus",
      "outputs": [],
      "stateMutability": "nonpayable",
      "type": "function"
    },
    {
      "inputs": [
        {
          "internalType": "uint8",
          "name": "newFeeType",
          "type": "uint8"
        },
        {
          "internalType": "uint256",
          "name": "newFeeValue",
          "type": "uint256"
        },
        {
          "internalType": "address[]",
          "name": "newAcceptedTokens",
          "type": "address[]"
        }
      ],
      "name": "setFeeParameters",
      "outputs": [],
      "stateMutability": "nonpayable",
      "type": "function"
    },
    {
      "inputs": [
        {
          "internalType": "address",
          "name": "newTransferAgent",
          "type": "address"
        }
      ],
      "name": "setTransferAgent",
      "outputs": [],
      "stateMutability": "nonpayable",
      "type": "function"
    },
    {
      "inputs": [
        {
          "internalType": "bytes4",
          "name": "interfaceId",
          "type": "bytes4"
        }
      ],
      "name": "supportsInterface",
      "outputs": [
        {
          "internalType": "bool",
          "name": "",
          "type": "bool"
        }
      ],
      "stateMutability": "view",
      "type": "function"
    },
    {
      "inputs": [],
      "name": "symbol",
      "outputs": [
        {
          "internalType": "string",
          "name": "",
          "type": "string"
        }
      ],
      "stateMutability": "view",
      "type": "function"
    },
    {
      "inputs": [],
      "name": "totalSupply",
      "outputs": [
        {
          "internalType": "uint256",
          "name": "",
          "type": "uint256"
        }
      ],
      "stateMutability": "view",
      "type": "function"
    },
    {
      "inputs": [
        {
          "internalType": "address",
          "name": "",
          "type": "address"
        },
        {
          "internalType": "uint256",
          "name": "",
          "type": "uint256"
        }
      ],
      "name": "transfer",
      "outputs": [
        {
          "internalType": "bool",
          "name": "",
          "type": "bool"
        }
      ],
      "stateMutability": "pure",
      "type": "function"
    },
    {
      "inputs": [
        {
          "internalType": "address",
          "name": "from",
          "type": "address"
        },
        {
          "internalType": "address",
          "name": "to",
          "type": "address"
        },
        {
          "internalType": "uint256",
          "name": "amount",
          "type": "uint256"
        }
      ],
      "name": "transferFrom",
      "outputs": [
        {
          "internalType": "bool",
          "name": "",
          "type": "bool"
        }
      ],
      "stateMutability": "nonpayable",
      "type": "function"
    },
    {
      "inputs": [
        {
          "internalType": "address",
          "name": "newOwner",
          "type": "address"
        }
      ],
      "name": "transferOwnership",
      "outputs": [],
      "stateMutability": "nonpayable",
      "type": "function"
    },
    {
      "inputs": [
        {
          "internalType": "uint256",
          "name": "",
          "type": "uint256"
        }
      ],
      "name": "transferRequests",
      "outputs": [
        {
          "internalType": "address",
          "name": "from",
          "type": "address"
        },
        {
          "internalType": "address",
          "name": "to",
          "type": "address"
        },
        {
          "internalType": "uint256",
          "name": "amount",
          "type": "uint256"
        },
        {
          "internalType": "address",
          "name": "requestedBy",
          "type": "address"
        },
        {
          "internalType": "uint256",
          "name": "feePaid",
          "type": "uint256"
        },
        {
          "internalType": "address",
          "name": "feeToken",
          "type": "address"
        },
        {
          "internalType": "enum IERC1450.RequestStatus",
          "name": "status",
          "type": "uint8"
        },
        {
          "internalType": "uint256",
          "name": "timestamp",
          "type": "uint256"
        }
      ],
      "stateMutability": "view",
      "type": "function"
    },
    {
      "inputs": [
        {
          "internalType": "uint256",
          "name": "requestId",
          "type": "uint256"
        },
        {
          "internalType": "enum IERC1450.RequestStatus",
          "name": "newStatus",
          "type": "uint8"
        }
      ],
      "name": "updateRequestStatus",
      "outputs": [],
      "stateMutability": "nonpayable",
      "type": "function"
    },
    {
      "inputs": [
        {
          "internalType": "address",
          "name": "token",
          "type": "address"
        },
        {
          "internalType": "uint256",
          "name": "amount",
          "type": "uint256"
        },
        {
          "internalType": "address",
          "name": "recipient",
          "type": "address"
        }
      ],
      "name": "withdrawFees",
      "outputs": [],
      "stateMutability": "nonpayable",
      "type": "function"
    },
    {
      "stateMutability": "payable",
      "type": "receive"
    }
  ],
  "bytecode": "0x60a0604052600160075534801561001557600080fd5b50604051613c3d380380613c3d8339810160408190526100349161027c565b816001600160a01b03811661006457604051631e4fbdf760e01b8152600060048201526024015b60405180910390fd5b61006d81610157565b50600180556001600160a01b0381166100c85760405162461bcd60e51b815260206004820152601f60248201527f455243313435303a20496e76616c6964207472616e73666572206167656e7400604482015260640161005b565b60026100d486826103a8565b5060036100e185826103a8565b5060ff90921660805250600680546001600160a01b039092166001600160a01b03199283161790556009805460ff191690556000600a819055600b805460018101825591527f0175b7a638427703f0dbe7bb9bbf987a2551717b34e79f33b5b1008d1fa01db90180549091169055506104669050565b600080546001600160a01b038381166001600160a01b0319831681178455604051919092169283917f8be0079c531659141344cd1fd0a4f28419497f9722a3daafe3b4186f6b6457e09190a35050565b634e487b7160e01b600052604160045260246000fd5b600082601f8301126101ce57600080fd5b81516001600160401b038111156101e7576101e76101a7565b604051601f8201601f19908116603f011681016001600160401b0381118282101715610215576102156101a7565b60405281815283820160200185101561022d57600080fd5b60005b8281101561024c57602081860181015183830182015201610230565b506000918101602001919091529392505050565b80516001600160a01b038116811461027757600080fd5b919050565b600080600080600060a0868803121561029457600080fd5b85516001600160401b038111156102aa57600080fd5b6102b6888289016101bd565b602088015190965090506001600160401b038111156102d457600080fd5b6102e0888289016101bd565b945050604086015160ff811681146102f757600080fd5b925061030560608701610260565b915061031360808701610260565b90509295509295909350565b600181811c9082168061033357607f821691505b60208210810361035357634e487b7160e01b600052602260045260246000fd5b50919050565b601f8211156103a357806000526020600020601f840160051c810160208510156103805750805b601f840160051c820191505b818110156103a0576000815560010161038c565b50505b505050565b81516001600160401b038111156103c1576103c16101a7565b6103d5816103cf845461031f565b84610359565b6020601f82116001811461040957600083156103f15750848201515b600019600385901b1c1916600184901b1784556103a0565b600084815260208120601f198516915b828110156104395787850151825560209485019460019092019101610419565b50848210156104575786840151600019600387901b60f8161c191681555b50505050600190811b01905550565b6080516137bc610481600039600061050901526137bc6000f3fe6080604052600436106102cd5760003560e01c80638c6a244c11610175578063b7709aba116100dc578063dd62ed3e11610095578063f3833e681161006f578063f3833e68146109a2578063fb8dc179146109b7578063fb99b86d146109d1578063ff482c4114610a0057600080fd5b8063dd62ed3e14610926578063e816d97f14610949578063f2fde38b1461098257600080fd5b8063b7709aba14610879578063b860438e1461088e578063c946a407146108ae578063c9593eb5146108df578063cbe5404f146108f2578063d1132dd61461091257600080fd5b80639dd800391161012e5780639dd80039146107de5780639f271eb51461080e5780639fddaa9314610823578063a5440bfc14610839578063a9059cbb146103ed578063b29a81401461085957600080fd5b80638c6a244c146107415780638da5cb5b146107615780638e52bfbc1461077f5780639542bbb71461079457806395d89b41146107a95780639ba372c2146107be57600080fd5b80633b3e26451161023457806370a08231116101ed5780637e57c57d116101c75780637e57c57d146106b15780637e893159146106d1578063860838a5146106f1578063886fa3cf1461072157600080fd5b806370a0823114610646578063715018a61461067c57806379cc67901461069157600080fd5b80633b3e2645146105735780633ec6ef44146105955780635547f83f146105b7578063580ab697146105d75780635923e87d146105f7578063654c19181461061757600080fd5b806322b31d9f1161028657806322b31d9f14610459578063231f81f81461049257806323b872dd146104ba5780632ae98fb2146104da578063313ce567146104fa578063361c12911461053b57600080fd5b806301ffc9a71461030e57806303486c401461034357806306fdde03146103cb578063095ea7b3146103ed57806318160ddd1461040d5780631cead9a71461042c57600080fd5b366103095760405134815233907fbfe611b001dfcd411432f7bf0d79b82b4b2ee81511edac123a3403c357fb972a9060200160405180910390a2005b600080fd5b34801561031a57600080fd5b5061032e610329366004612fe9565b610a15565b60405190151581526020015b60405180910390f35b34801561034f57600080fd5b506103b761035e36600461301a565b60086020526000908152604090208054600182015460028301546003840154600485015460058601546006909601546001600160a01b039586169694861695939492841693919291821691600160a01b900460ff169088565b60405161033a989796959493929190613049565b3480156103d757600080fd5b506103e0610a82565b60405161033a91906130b4565b3480156103f957600080fd5b5061032e61040836600461311e565b610b14565b34801561041957600080fd5b506005545b60405190815260200161033a565b34801561043857600080fd5b5061041e610447366004613148565b600c6020526000908152604090205481565b34801561046557600080fd5b5061032e610474366004613148565b6001600160a01b03166000908152600d602052604090205460ff1690565b34801561049e57600080fd5b506104a7600681565b60405161ffff909116815260200161033a565b3480156104c657600080fd5b5061032e6104d5366004613163565b610b2f565b3480156104e657600080fd5b5061041e6104f53660046131a0565b610c15565b34801561050657600080fd5b507f00000000000000000000000000000000000000000000000000000000000000005b60405160ff909116815260200161033a565b34801561054757600080fd5b5061055b61055636600461301a565b610c7e565b6040516001600160a01b03909116815260200161033a565b34801561057f57600080fd5b50610588610ca8565b60405161033a91906131ed565b3480156105a157600080fd5b506105b56105b036600461325b565b610d09565b005b3480156105c357600080fd5b5061032e6105d2366004613297565b610e5f565b3480156105e357600080fd5b506105b56105f23660046132db565b6110b0565b34801561060357600080fd5b506105b5610612366004613370565b61113f565b34801561062357600080fd5b50610637610632366004613148565b611178565b60405161033a939291906133e0565b34801561065257600080fd5b5061041e610661366004613148565b6001600160a01b031660009081526004602052604090205490565b34801561068857600080fd5b506105b56113c7565b34801561069d57600080fd5b5061032e6106ac36600461311e565b6113db565b3480156106bd57600080fd5b506105b56106cc366004613451565b6114dc565b3480156106dd57600080fd5b506105b56106ec366004613148565b611569565b3480156106fd57600080fd5b5061032e61070c366004613148565b600e6020526000908152604090205460ff1681565b34801561072d57600080fd5b506105b561073c36600461301a565b611617565b34801561074d57600080fd5b506105b561075c366004613148565b6117ac565b34801561076d57600080fd5b506000546001600160a01b031661055b565b34801561078b57600080fd5b506104a7600481565b3480156107a057600080fd5b506104a7600181565b3480156107b557600080fd5b506103e0611935565b3480156107ca57600080fd5b506105b56107d9366004613484565b611944565b3480156107ea57600080fd5b5061032e6107f9366004613148565b600d6020526000908152604090205460ff1681565b34801561081a57600080fd5b506104a7600981565b34801561082f57600080fd5b5061041e600a5481565b34801561084557600080fd5b506105b56108543660046134b7565b611af9565b34801561086557600080fd5b506105b561087436600461311e565b611b95565b34801561088557600080fd5b506104a7600581565b34801561089a57600080fd5b5061032e6108a93660046134f9565b611c50565b3480156108ba57600080fd5b5061041e6108c936600461352c565b61ffff1660009081526010602052604090205490565b61041e6108ed366004613547565b611d9f565b3480156108fe57600080fd5b506105b561090d366004613451565b612097565b34801561091e57600080fd5b50600161032e565b34801561093257600080fd5b5061041e61094136600461359c565b600092915050565b34801561095557600080fd5b5061032e610964366004613148565b6001600160a01b03166000908152600e602052604090205460ff1690565b34801561098e57600080fd5b506105b561099d366004613148565b6120ed565b3480156109ae57600080fd5b506104a7600781565b3480156109c357600080fd5b506009546105299060ff1681565b3480156109dd57600080fd5b5061032e6109ec366004613148565b6006546001600160a01b0391821691161490565b348015610a0c57600080fd5b506104a7600881565b600063578baef760e11b6001600160e01b031983161480610a4657506001600160e01b031982166336372b0760e01b145b80610a6157506001600160e01b0319821663a219a02560e01b145b80610a7c57506301ffc9a760e01b6001600160e01b03198316145b92915050565b606060028054610a91906135c6565b80601f0160208091040260200160405190810160405280929190818152602001828054610abd906135c6565b8015610b0a5780601f10610adf57610100808354040283529160200191610b0a565b820191906000526020600020905b815481529060010190602001808311610aed57829003601f168201915b5050505050905090565b600060405163c27fd50560e01b815260040160405180910390fd5b6006546000906001600160a01b03163314610b5d57604051634b05ae8560e11b815260040160405180910390fd5b6001600160a01b0384166000908152600e6020526040902054849060ff1615610bb0576040516307a93df560e11b81526001600160a01b0382166004820152600060248201526044015b60405180910390fd5b6001600160a01b0384166000908152600e6020526040902054849060ff1615610bfe576040516307a93df560e11b81526001600160a01b038216600482015260006024820152604401610ba7565b610c0986868661212b565b50600195945050505050565b6000610c2082612228565b610c2c57506000610c76565b60095460ff16600003610c425750600a54610c76565b60095460ff16600103610c7157612710600a5484610c609190613616565b610c6a919061362d565b9050610c76565b50600a545b949350505050565b600b8181548110610c8e57600080fd5b6000918252602090912001546001600160a01b0316905081565b6060600b805480602002602001604051908101604052809291908181526020018280548015610b0a57602002820191906000526020600020905b81546001600160a01b03168152600190910190602001808311610ce2575050505050905090565b6006546001600160a01b03163314610d3457604051634b05ae8560e11b815260040160405180910390fd5b6000838152600860205260409020610d4d846003612287565b818015610d5e575060008160040154115b15610e195760058101546001600160a01b0316610dbb57600381015460048201546040516001600160a01b039092169181156108fc0291906000818181858888f19350505050158015610db5573d6000803e3d6000fd5b50610de2565b600381015460048201546005830154610de2926001600160a01b039182169291169061232e565b600481015460058201546001600160a01b03166000908152600c602052604081208054909190610e1390849061364f565b90915550505b6040805161ffff85168152831515602082015285917ff7061e20a57003952a3a98be55c537d9c3d732e2634c64a2ecac946e8e1c939f910160405180910390a250505050565b6006546000906001600160a01b03163314610e8d57604051634b05ae8560e11b815260040160405180910390fd5b6001600160a01b038516610eb75760405163ec442f0560e01b815260006004820152602401610ba7565b60008361ffff1611610f0b5760405162461bcd60e51b815260206004820181905260248201527f455243313435303a20496e76616c696420726567756c6174696f6e20747970656044820152606401610ba7565b60008211610f5b5760405162461bcd60e51b815260206004820152601e60248201527f455243313435303a20496e76616c69642069737375616e6365206461746500006044820152606401610ba7565b42821115610fbd5760405162461bcd60e51b815260206004820152602960248201527f455243313435303a204675747572652069737375616e63652064617465206e6f6044820152681d08185b1b1bddd95960ba1b6064820152608401610ba7565b8360056000828254610fcf9190613662565b90915550506001600160a01b0385166000908152600460205260409020805485019055610ffe8585858561238d565b61ffff831660009081526010602052604081208054869290611021908490613662565b90915550506040518481526001600160a01b038616906000906000805160206137678339815191529060200160405180910390a360408051858152602081018490524281830152905161ffff8516916001600160a01b038816917fd7a03727fcad9fd7ec89ae4d2f858630c6af554ff70236b834cc92430a2e43c19181900360600190a3506001949350505050565b6006546001600160a01b031633146110db57604051634b05ae8560e11b815260040160405180910390fd5b6009805460ff191660ff8616179055600a8390556110fb600b8383612f71565b507f9950293518fa753941262ebbf10fa155a48d4e9c32101858c0c8d576abac9d0b848484846040516111319493929190613675565b60405180910390a150505050565b6006546001600160a01b0316331461116a57604051634b05ae8560e11b815260040160405180910390fd5b6111748282612287565b5050565b60608060606000600f6000866001600160a01b03166001600160a01b03168152602001908152602001600020805480602002602001604051908101604052809291908181526020016000905b8282101561121457600084815260209081902060408051606081018252600386029092018054835260018082015461ffff16848601526002909101549183019190915290835290920191016111c4565b505082519293508291505067ffffffffffffffff811115611237576112376136d3565b604051908082528060200260200182016040528015611260578160200160208202803683370190505b5094508067ffffffffffffffff81111561127c5761127c6136d3565b6040519080825280602002602001820160405280156112a5578160200160208202803683370190505b5093508067ffffffffffffffff8111156112c1576112c16136d3565b6040519080825280602002602001820160405280156112ea578160200160208202803683370190505b50925060005b818110156113bd5782818151811061130a5761130a6136e9565b602002602001015160200151868281518110611328576113286136e9565b602002602001019061ffff16908161ffff1681525050828181518110611350576113506136e9565b60200260200101516000015185828151811061136e5761136e6136e9565b60200260200101818152505082818151811061138c5761138c6136e9565b6020026020010151604001518482815181106113aa576113aa6136e9565b60209081029190910101526001016112f0565b5050509193909250565b6113cf61266d565b6113d9600061269a565b565b6006546000906001600160a01b0316331461140957604051634b05ae8560e11b815260040160405180910390fd5b6001600160a01b03831661143357604051634b637e8f60e11b815260006004820152602401610ba7565b6001600160a01b038316600090815260046020526040902054828110156114735783818460405163391434e360e21b8152600401610ba7939291906136ff565b6001600160a01b038416600090815260046020526040902083820390556005805484900390556114a384846126ea565b6040518381526000906001600160a01b038616906000805160206137678339815191529060200160405180910390a35060019392505050565b6006546001600160a01b0316331461150757604051634b05ae8560e11b815260040160405180910390fd5b6001600160a01b0382166000818152600d6020908152604091829020805460ff191685151590811790915591519182523392917f6eeca9bd01d51a74626e1dba78769450e56fe3f29dee5b0f3aee086d5f5ceaaf910160405180910390a35050565b6006546001600160a01b0316331461159457604051634b05ae8560e11b815260040160405180910390fd5b6001600160a01b0381166115be57604051631e4fbdf760e01b815260006004820152602401610ba7565b6000546001600160a01b03166115d38261269a565b816001600160a01b0316816001600160a01b03167faf014c0f1e2d7c810cfe4f4ec7c675b9dbd7ad5fd0b058fe94776a447d6f333760405160405180910390a35050565b6006546001600160a01b0316331461164257604051634b05ae8560e11b815260040160405180910390fd5b60008181526008602052604090206004600582810154600160a01b900460ff169081111561167257611672613033565b141580156116a057506003600582810154600160a01b900460ff169081111561169d5761169d613033565b14155b6116f75760405162461bcd60e51b815260206004820152602260248201527f455243313435303a205265717565737420616c72656164792066696e616c697a604482015261195960f21b6064820152608401610ba7565b6002600582810154600160a01b900460ff169081111561171957611719613033565b1461172957611729826002612287565b80546001820154600283015461174c926001600160a01b0390811692169061212b565b611757826004612287565b6001810154815460028301546040519081526001600160a01b03928316929091169084907feb669e0a01fff40cbe45de851f42334fe70673136abfd91399651b7ae199a07b9060200160405180910390a45050565b6001600160a01b0381166118025760405162461bcd60e51b815260206004820152601f60248201527f455243313435303a20496e76616c6964207472616e73666572206167656e74006044820152606401610ba7565b600654600160a01b900460ff161561182d57604051632b3cc4e160e21b815260040160405180910390fd5b6006546001600160a01b03161580159061185257506006546001600160a01b03163314155b1561187057604051634b05ae8560e11b815260040160405180910390fd5b6000546001600160a01b0316331480159061189657506006546001600160a01b03163314155b156118b65760405163118cdaa760e01b8152336004820152602401610ba7565b600680546001600160a01b038381166001600160a01b03198316811790935516903b156118f1576006805460ff60a01b1916600160a01b1790555b816001600160a01b0316816001600160a01b03167f35e89afcbe61fb77843ff4fb292fdc4b00f10009912cacbb48c537c93c84eccb60405160405180910390a35050565b606060038054610a91906135c6565b6006546001600160a01b0316331461196f57604051634b05ae8560e11b815260040160405180910390fd5b6001600160a01b0381166119c55760405162461bcd60e51b815260206004820152601a60248201527f455243313435303a20496e76616c696420726563697069656e740000000000006044820152606401610ba7565b6001600160a01b0383166000908152600c6020526040902054821115611a1c576001600160a01b0383166000908152600c60205260409081902054905163391434e360e21b8152610ba791309185906004016136ff565b6001600160a01b0383166000908152600c602052604081208054849290611a4490849061364f565b90915550506001600160a01b038316611a93576040516001600160a01b0382169083156108fc029084906000818181858888f19350505050158015611a8d573d6000803e3d6000fd5b50611aa7565b611aa76001600160a01b038416828461232e565b806001600160a01b0316836001600160a01b03167f87044da2612407bc001bb0985725dcc651a0dc71eaabfd1d7e8617ca85a8c19c84604051611aec91815260200190565b60405180910390a3505050565b6006546001600160a01b03163314611b2457604051634b05ae8560e11b815260040160405180910390fd5b611b2f84848461212b565b826001600160a01b0316846001600160a01b03167f79d934d1fea524bb1baacd60b5b9b94a3b948a19d8d762726f7ecbe400308f15848442604051611b87939291909283526020830191909152604082015260600190565b60405180910390a350505050565b6006546001600160a01b03163314611bc057604051634b05ae8560e11b815260040160405180910390fd5b306001600160a01b03831603611be957604051634b05ae8560e11b815260040160405180910390fd5b6001600160a01b038216611c36576006546040516001600160a01b039091169082156108fc029083906000818181858888f19350505050158015611c31573d6000803e3d6000fd5b505050565b600654611174906001600160a01b0384811691168361232e565b6006546000906001600160a01b03163314611c7e57604051634b05ae8560e11b815260040160405180910390fd5b6001600160a01b038416611ca857604051634b637e8f60e11b815260006004820152602401610ba7565b6000611cb48584612904565b905083811015611d175760405162461bcd60e51b815260206004820152602860248201527f455243313435303a20496e73756666696369656e7420726567756c6174696f6e6044820152672062616c616e636560c01b6064820152608401610ba7565b6001600160a01b0385166000908152600460209081526040808320805488810390915560058054899003905561ffff87168452601090925290912080548690039055611d64868686612a03565b6040518581526000906001600160a01b038816906000805160206137678339815191529060200160405180910390a350600195945050505050565b6000611da9612c00565b6001600160a01b0386161580611dc657506001600160a01b038516155b15611de75760405163ec442f0560e01b815260006004820152602401610ba7565b336001600160a01b03871614801590611e105750336000908152600d602052604090205460ff16155b15611e305760405163118cdaa760e01b8152336004820152602401610ba7565b611e3983612228565b611e615760405163ec442f0560e01b81526001600160a01b0384166004820152602401610ba7565b8115611f24576001600160a01b038316611ee157813414611e9b5733348360405163391434e360e21b8152600401610ba7939291906136ff565b6000808052600c6020527f13649b2456f1b42fef0f0040b3aaeabcd21a76a0f3f5defd4f583839455116e88054849290611ed6908490613662565b90915550611f249050565b611ef66001600160a01b038416333085612c2a565b6001600160a01b0383166000908152600c602052604081208054849290611f1e908490613662565b90915550505b60078054906000611f3483613720565b9091555060408051610100810182526001600160a01b03898116825288811660208084019182528385018a81523360608601908152608086018a81528b861660a08801908152600060c089018181524260e08b01528b8252600890965298909820875181549088166001600160a01b03199182161782559551600182018054918916918816919091179055925160028401559051600383018054918716918616919091179055516004820155945160058087018054929095169382168417855591519697509395936001600160a81b03191690911790600160a01b90849081111561202157612021613033565b021790555060e091909101516006909101556040805185815260208101849052338183015290516001600160a01b03878116929089169184917f5c305e799a867c1f9a632629eba8ba08f423e4350397ef18fee1cbb4632df2c5919081900360600190a461208e60018055565b95945050505050565b6006546001600160a01b031633146120c257604051634b05ae8560e11b815260040160405180910390fd5b6001600160a01b03919091166000908152600e60205260409020805460ff1916911515919091179055565b6120f561266d565b6001600160a01b03811661211f57604051631e4fbdf760e01b815260006004820152602401610ba7565b6121288161269a565b50565b6001600160a01b03831661215557604051634b637e8f60e11b815260006004820152602401610ba7565b6001600160a01b03821661217f5760405163ec442f0560e01b815260006004820152602401610ba7565b6001600160a01b038316600090815260046020526040902054818110156121bf5783818360405163391434e360e21b8152600401610ba7939291906136ff565b6001600160a01b0380851660009081526004602052604080822085850390559185168152208054830190556121f5848484612c63565b826001600160a01b0316846001600160a01b031660008051602061376783398151915284604051611b8791815260200190565b6000805b600b5481101561227e57826001600160a01b0316600b8281548110612253576122536136e9565b6000918252602090912001546001600160a01b0316036122765750600192915050565b60010161222c565b50600092915050565b600082815260086020526040902060058082018054600160a01b80820460ff169386939260ff60a01b1916919084908111156122c5576122c5613033565b02179055508260058111156122dc576122dc613033565b8160058111156122ee576122ee613033565b857f624f756b8457d5d02670046b80faa01c08502d2cbb53c3e61c1ef90a6b66cf914260405161232091815260200190565b60405180910390a450505050565b6040516001600160a01b03838116602483015260448201839052611c3191859182169063a9059cbb906064015b604051602081830303815290604052915060e01b6020820180516001600160e01b038381831617835250505050612ddb565b6001600160a01b0384166000908152600f60205260408120805490915b825481101561249257838382815481106123c6576123c66136e9565b90600052602060002090600302016002015411156123e657809150612492565b8461ffff168382815481106123fd576123fd6136e9565b600091825260209091206001600390920201015461ffff16148015612444575083838281548110612430576124306136e9565b906000526020600020906003020160020154145b1561248a578583828154811061245c5761245c6136e9565b9060005260206000209060030201600001600082825461247c9190613662565b909155506126679350505050565b6001016123aa565b506040805160608101825286815261ffff86166020820152908101849052825482036125005782546001808201855560008581526020908190208451600390940201928355830151908201805461ffff191661ffff9092169190911790556040820151600290910155612663565b8254839081906125129060019061364f565b81548110612522576125226136e9565b6000918252602080832084546001818101875595855291842060039384029091018054929093020190815583820154818501805461ffff191661ffff9092169190911790556002918201549101558454909161257d9161364f565b90505b82811115612610578361259460018361364f565b815481106125a4576125a46136e9565b90600052602060002090600302018482815481106125c4576125c46136e9565b600091825260209091208254600390920201908155600180830154908201805461ffff191661ffff9092169190911790556002918201549101558061260881613739565b915050612580565b5080838381548110612624576126246136e9565b60009182526020918290208351600392909202019081559082015160018201805461ffff191661ffff9092169190911790556040909101516002909101555b5050505b50505050565b6000546001600160a01b031633146113d95760405163118cdaa760e01b8152336004820152602401610ba7565b600080546001600160a01b038381166001600160a01b0319831681178455604051919092169283917f8be0079c531659141344cd1fd0a4f28419497f9722a3daafe3b4186f6b6457e09190a35050565b6001600160a01b0382166000908152600f602052604081209082905b6000821180156127165750825481105b156128f457600083828154811061272f5761272f6136e9565b90600052602060002090600302016000015411156128e25760008284838154811061275c5761275c6136e9565b9060005260206000209060030201600001541161279c57838281548110612785576127856136e9565b90600052602060002090600302016000015461279e565b825b9050808483815481106127b3576127b36136e9565b906000526020600020906003020160000160008282546127d3919061364f565b9250508190555080601060008685815481106127f1576127f16136e9565b600091825260208083206001600390930201919091015461ffff1683528201929092526040018120805490919061282990849061364f565b909155506128399050818461364f565b925083828154811061284d5761284d6136e9565b906000526020600020906003020160010160009054906101000a900461ffff1661ffff16866001600160a01b03167f3e12e887d427175142a28b9b6c2740bc2da6904e3c9f86a2aea2a2cc53bb95b7838786815481106128af576128af6136e9565b9060005260206000209060030201600201546040516128d8929190918252602082015260400190565b60405180910390a3505b806128ec81613720565b915050612706565b6128fd85612e4c565b5050505050565b6001600160a01b0382166000908152600f6020908152604080832080548251818502810185019093528083528493849084015b8282101561298757600084815260209081902060408051606081018252600386029092018054835260018082015461ffff1684860152600290910154918301919091529083529092019101612937565b5050505090506000805b82518110156129fa578461ffff168382815181106129b1576129b16136e9565b60200260200101516020015161ffff16036129f2578281815181106129d8576129d86136e9565b602002602001015160000151826129ef9190613662565b91505b600101612991565b50949350505050565b6001600160a01b0383166000908152600f60205260408120908390805b835481108015612a305750600083115b15612bee578461ffff16848281548110612a4c57612a4c6136e9565b600091825260209091206001600390920201015461ffff16148015612a9457506000848281548110612a8057612a806136e9565b906000526020600020906003020160000154115b15612bdc57600083858381548110612aae57612aae6136e9565b90600052602060002090600302016000015411612aee57848281548110612ad757612ad76136e9565b906000526020600020906003020160000154612af0565b835b905080858381548110612b0557612b056136e9565b90600052602060002090600302016000016000828254612b25919061364f565b90915550612b359050818561364f565b935082600003612b6657848281548110612b5157612b516136e9565b90600052602060002090600302016002015492505b8561ffff16886001600160a01b03167f3e12e887d427175142a28b9b6c2740bc2da6904e3c9f86a2aea2a2cc53bb95b783888681548110612ba957612ba96136e9565b906000526020600020906003020160020154604051612bd2929190918252602082015260400190565b60405180910390a3505b80612be681613720565b915050612a20565b50612bf886612e4c565b505050505050565b600260015403612c2357604051633ee5aeb560e01b815260040160405180910390fd5b6002600155565b6040516001600160a01b0384811660248301528381166044830152606482018390526126679186918216906323b872dd9060840161235b565b6001600160a01b0383166000908152600f602052604081209082905b600082118015612c8f5750825481105b15612dd2576000838281548110612ca857612ca86136e9565b9060005260206000209060030201600001541115612dc057600082848381548110612cd557612cd56136e9565b90600052602060002090600302016000015411612d1557838281548110612cfe57612cfe6136e9565b906000526020600020906003020160000154612d17565b825b905080848381548110612d2c57612d2c6136e9565b90600052602060002090600302016000016000828254612d4c919061364f565b90915550612d5c9050818461364f565b9250612dbe8682868581548110612d7557612d756136e9565b906000526020600020906003020160010160009054906101000a900461ffff16878681548110612da757612da76136e9565b90600052602060002090600302016002015461238d565b505b80612dca81613720565b915050612c7f565b612bf886612e4c565b600080602060008451602086016000885af180612dfe576040513d6000823e3d81fd5b50506000513d91508115612e16578060011415612e23565b6001600160a01b0384163b155b1561266757604051635274afe760e01b81526001600160a01b0385166004820152602401610ba7565b6001600160a01b0381166000908152600f6020526040812090805b8254811015612f26576000838281548110612e8457612e846136e9565b9060005260206000209060030201600001541115612f1e57808214612f1057828181548110612eb557612eb56136e9565b9060005260206000209060030201838381548110612ed557612ed56136e9565b600091825260209091208254600390920201908155600180830154908201805461ffff191661ffff9092169190911790556002918201549101555b81612f1a81613720565b9250505b600101612e67565b505b8154811015611c315781805480612f4157612f41613750565b60008281526020812060036000199093019283020181815560018101805461ffff19169055600201559055612f28565b828054828255906000526020600020908101928215612fc4579160200282015b82811115612fc45781546001600160a01b0319166001600160a01b03843516178255602090920191600190910190612f91565b50612fd0929150612fd4565b5090565b5b80821115612fd05760008155600101612fd5565b600060208284031215612ffb57600080fd5b81356001600160e01b03198116811461301357600080fd5b9392505050565b60006020828403121561302c57600080fd5b5035919050565b634e487b7160e01b600052602160045260246000fd5b6001600160a01b038981168252888116602083015260408201889052868116606083015260808201869052841660a082015261010081016006841061309e57634e487b7160e01b600052602160045260246000fd5b60c082019390935260e001529695505050505050565b602081526000825180602084015260005b818110156130e257602081860181015160408684010152016130c5565b506000604082850101526040601f19601f83011684010191505092915050565b80356001600160a01b038116811461311957600080fd5b919050565b6000806040838503121561313157600080fd5b61313a83613102565b946020939093013593505050565b60006020828403121561315a57600080fd5b61301382613102565b60008060006060848603121561317857600080fd5b61318184613102565b925061318f60208501613102565b929592945050506040919091013590565b600080600080608085870312156131b657600080fd5b6131bf85613102565b93506131cd60208601613102565b9250604085013591506131e260608601613102565b905092959194509250565b602080825282518282018190526000918401906040840190835b8181101561322e5783516001600160a01b0316835260209384019390920191600101613207565b509095945050505050565b803561ffff8116811461311957600080fd5b8035801515811461311957600080fd5b60008060006060848603121561327057600080fd5b8335925061328060208501613239565b915061328e6040850161324b565b90509250925092565b600080600080608085870312156132ad57600080fd5b6132b685613102565b9350602085013592506132cb60408601613239565b9396929550929360600135925050565b600080600080606085870312156132f157600080fd5b843560ff8116811461330257600080fd5b935060208501359250604085013567ffffffffffffffff81111561332557600080fd5b8501601f8101871361333657600080fd5b803567ffffffffffffffff81111561334d57600080fd5b8760208260051b840101111561336257600080fd5b949793965060200194505050565b6000806040838503121561338357600080fd5b8235915060208301356006811061339957600080fd5b809150509250929050565b600081518084526020840193506020830160005b828110156133d65781518652602095860195909101906001016133b8565b5093949350505050565b6060808252845190820181905260009060208601906080840190835b8181101561341e57835161ffff168352602093840193909201916001016133fc565b5050838103602085015261343281876133a4565b915050828103604084015261344781856133a4565b9695505050505050565b6000806040838503121561346457600080fd5b61346d83613102565b915061347b6020840161324b565b90509250929050565b60008060006060848603121561349957600080fd5b6134a284613102565b92506020840135915061328e60408501613102565b600080600080608085870312156134cd57600080fd5b6134d685613102565b93506134e460208601613102565b93969395505050506040820135916060013590565b60008060006060848603121561350e57600080fd5b61351784613102565b92506020840135915061328e60408501613239565b60006020828403121561353e57600080fd5b61301382613239565b600080600080600060a0868803121561355f57600080fd5b61356886613102565b945061357660208701613102565b93506040860135925061358b60608701613102565b949793965091946080013592915050565b600080604083850312156135af57600080fd5b6135b883613102565b915061347b60208401613102565b600181811c908216806135da57607f821691505b6020821081036135fa57634e487b7160e01b600052602260045260246000fd5b50919050565b634e487b7160e01b600052601160045260246000fd5b8082028115828204841417610a7c57610a7c613600565b60008261364a57634e487b7160e01b600052601260045260246000fd5b500490565b81810381811115610a7c57610a7c613600565b80820180821115610a7c57610a7c613600565b60ff8516815260208101849052606060408201819052810182905260008360808301825b858110156136c7576001600160a01b036136b284613102565b16825260209283019290910190600101613699565b50979650505050505050565b634e487b7160e01b600052604160045260246000fd5b634e487b7160e01b600052603260045260246000fd5b6001600160a01b039390931683526020830191909152604082015260600190565b60006001820161373257613732613600565b5060010190565b60008161374857613748613600565b506000190190565b634e487b7160e01b600052603160045260246000fdfeddf252ad1be2c89b69c2b068fc378daa952ba7f163c4a11628f55a4df523b3efa2646970667358221220ea37e6bb2bb2bb697a2cea4a89a85b5a19d5521e50728298ade65fc67e3f1ed764736f6c634300081b0033",
  "linkReferences": {},
  "deployedLinkReferences": {}
}