{
  "_format": "hh-sol-artifact-1",
  "contractName": "ERC1450",
  "sourceName": "contracts/ERC1450.sol",
  "abi": [
    {
      "inputs": [
        {
          "internalType": "string",
          "name": "name_",
          "type": "string"
        },
        {
          "internalType": "string",
          "name": "symbol_",
          "type": "string"
        },
        {
          "internalType": "uint8",
          "name": "decimals_",
          "type": "uint8"
        },
        {
          "internalType": "address",
          "name": "initialOwner",
          "type": "address"
        },
        {
          "internalType": "address",
          "name": "initialTransferAgent",
          "type": "address"
        }
      ],
      "stateMutability": "nonpayable",
      "type": "constructor"
    },
    {
      "inputs": [
        {
          "internalType": "address",
          "name": "from",
          "type": "address"
        },
        {
          "internalType": "address",
          "name": "to",
          "type": "address"
        }
      ],
      "name": "ERC1450ComplianceCheckFailed",
      "type": "error"
    },
    {
      "inputs": [],
      "name": "ERC1450OnlyRTA",
      "type": "error"
    },
    {
      "inputs": [],
      "name": "ERC1450TransferAgentLocked",
      "type": "error"
    },
    {
      "inputs": [],
      "name": "ERC1450TransferDisabled",
      "type": "error"
    },
    {
      "inputs": [
        {
          "internalType": "address",
          "name": "sender",
          "type": "address"
        },
        {
          "internalType": "uint256",
          "name": "balance",
          "type": "uint256"
        },
        {
          "internalType": "uint256",
          "name": "needed",
          "type": "uint256"
        }
      ],
      "name": "ERC20InsufficientBalance",
      "type": "error"
    },
    {
      "inputs": [
        {
          "internalType": "address",
          "name": "receiver",
          "type": "address"
        }
      ],
      "name": "ERC20InvalidReceiver",
      "type": "error"
    },
    {
      "inputs": [
        {
          "internalType": "address",
          "name": "sender",
          "type": "address"
        }
      ],
      "name": "ERC20InvalidSender",
      "type": "error"
    },
    {
      "inputs": [
        {
          "internalType": "address",
          "name": "owner",
          "type": "address"
        }
      ],
      "name": "OwnableInvalidOwner",
      "type": "error"
    },
    {
      "inputs": [
        {
          "internalType": "address",
          "name": "account",
          "type": "address"
        }
      ],
      "name": "OwnableUnauthorizedAccount",
      "type": "error"
    },
    {
      "inputs": [],
      "name": "ReentrancyGuardReentrantCall",
      "type": "error"
    },
    {
      "inputs": [
        {
          "internalType": "address",
          "name": "token",
          "type": "address"
        }
      ],
      "name": "SafeERC20FailedOperation",
      "type": "error"
    },
    {
      "anonymous": false,
      "inputs": [
        {
          "indexed": true,
          "internalType": "address",
          "name": "owner",
          "type": "address"
        },
        {
          "indexed": true,
          "internalType": "address",
          "name": "spender",
          "type": "address"
        },
        {
          "indexed": false,
          "internalType": "uint256",
          "name": "value",
          "type": "uint256"
        }
      ],
      "name": "Approval",
      "type": "event"
    },
    {
      "anonymous": false,
      "inputs": [
        {
          "indexed": true,
          "internalType": "address",
          "name": "broker",
          "type": "address"
        },
        {
          "indexed": false,
          "internalType": "bool",
          "name": "isApproved",
          "type": "bool"
        },
        {
          "indexed": true,
          "internalType": "address",
          "name": "updatedBy",
          "type": "address"
        }
      ],
      "name": "BrokerStatusUpdated",
      "type": "event"
    },
    {
      "anonymous": false,
      "inputs": [
        {
          "indexed": true,
          "internalType": "address",
          "name": "from",
          "type": "address"
        },
        {
          "indexed": true,
          "internalType": "address",
          "name": "to",
          "type": "address"
        },
        {
          "indexed": false,
          "internalType": "uint256",
          "name": "amount",
          "type": "uint256"
        },
        {
          "indexed": false,
          "internalType": "bytes32",
          "name": "documentHash",
          "type": "bytes32"
        },
        {
          "indexed": false,
          "internalType": "uint256",
          "name": "timestamp",
          "type": "uint256"
        }
      ],
      "name": "CourtOrderExecuted",
      "type": "event"
    },
    {
      "anonymous": false,
      "inputs": [
        {
          "indexed": false,
          "internalType": "uint8",
          "name": "feeType",
          "type": "uint8"
        },
        {
          "indexed": false,
          "internalType": "uint256",
          "name": "feeValue",
          "type": "uint256"
        },
        {
          "indexed": false,
          "internalType": "address[]",
          "name": "acceptedTokens",
          "type": "address[]"
        }
      ],
      "name": "FeeParametersUpdated",
      "type": "event"
    },
    {
      "anonymous": false,
      "inputs": [
        {
          "indexed": true,
          "internalType": "address",
          "name": "token",
          "type": "address"
        },
        {
          "indexed": false,
          "internalType": "uint256",
          "name": "amount",
          "type": "uint256"
        },
        {
          "indexed": true,
          "internalType": "address",
          "name": "recipient",
          "type": "address"
        }
      ],
      "name": "FeesWithdrawn",
      "type": "event"
    },
    {
      "anonymous": false,
      "inputs": [
        {
          "indexed": true,
          "internalType": "address",
          "name": "previousIssuer",
          "type": "address"
        },
        {
          "indexed": true,
          "internalType": "address",
          "name": "newIssuer",
          "type": "address"
        }
      ],
      "name": "IssuerChanged",
      "type": "event"
    },
    {
      "anonymous": false,
      "inputs": [
        {
          "indexed": true,
          "internalType": "address",
          "name": "previousOwner",
          "type": "address"
        },
        {
          "indexed": true,
          "internalType": "address",
          "name": "newOwner",
          "type": "address"
        }
      ],
      "name": "OwnershipTransferred",
      "type": "event"
    },
    {
      "anonymous": false,
      "inputs": [
        {
          "indexed": true,
          "internalType": "uint256",
          "name": "requestId",
          "type": "uint256"
        },
        {
          "indexed": true,
          "internalType": "enum IERC1450.RequestStatus",
          "name": "oldStatus",
          "type": "uint8"
        },
        {
          "indexed": true,
          "internalType": "enum IERC1450.RequestStatus",
          "name": "newStatus",
          "type": "uint8"
        },
        {
          "indexed": false,
          "internalType": "uint256",
          "name": "timestamp",
          "type": "uint256"
        }
      ],
      "name": "RequestStatusChanged",
      "type": "event"
    },
    {
      "anonymous": false,
      "inputs": [
        {
          "indexed": true,
          "internalType": "address",
          "name": "from",
          "type": "address"
        },
        {
          "indexed": true,
          "internalType": "address",
          "name": "to",
          "type": "address"
        },
        {
          "indexed": false,
          "internalType": "uint256",
          "name": "value",
          "type": "uint256"
        }
      ],
      "name": "Transfer",
      "type": "event"
    },
    {
      "anonymous": false,
      "inputs": [
        {
          "indexed": true,
          "internalType": "address",
          "name": "previousAgent",
          "type": "address"
        },
        {
          "indexed": true,
          "internalType": "address",
          "name": "newAgent",
          "type": "address"
        }
      ],
      "name": "TransferAgentUpdated",
      "type": "event"
    },
    {
      "anonymous": false,
      "inputs": [
        {
          "indexed": true,
          "internalType": "uint256",
          "name": "requestId",
          "type": "uint256"
        },
        {
          "indexed": true,
          "internalType": "address",
          "name": "from",
          "type": "address"
        },
        {
          "indexed": true,
          "internalType": "address",
          "name": "to",
          "type": "address"
        },
        {
          "indexed": false,
          "internalType": "uint256",
          "name": "amount",
          "type": "uint256"
        }
      ],
      "name": "TransferExecuted",
      "type": "event"
    },
    {
      "anonymous": false,
      "inputs": [
        {
          "indexed": true,
          "internalType": "uint256",
          "name": "requestId",
          "type": "uint256"
        },
        {
          "indexed": false,
          "internalType": "uint256",
          "name": "expiredAt",
          "type": "uint256"
        }
      ],
      "name": "TransferExpired",
      "type": "event"
    },
    {
      "anonymous": false,
      "inputs": [
        {
          "indexed": true,
          "internalType": "uint256",
          "name": "requestId",
          "type": "uint256"
        },
        {
          "indexed": false,
          "internalType": "uint16",
          "name": "reasonCode",
          "type": "uint16"
        },
        {
          "indexed": false,
          "internalType": "bool",
          "name": "feeRefunded",
          "type": "bool"
        }
      ],
      "name": "TransferRejected",
      "type": "event"
    },
    {
      "anonymous": false,
      "inputs": [
        {
          "indexed": true,
          "internalType": "uint256",
          "name": "requestId",
          "type": "uint256"
        },
        {
          "indexed": true,
          "internalType": "address",
          "name": "from",
          "type": "address"
        },
        {
          "indexed": true,
          "internalType": "address",
          "name": "to",
          "type": "address"
        },
        {
          "indexed": false,
          "internalType": "uint256",
          "name": "amount",
          "type": "uint256"
        },
        {
          "indexed": false,
          "internalType": "uint256",
          "name": "feePaid",
          "type": "uint256"
        },
        {
          "indexed": false,
          "internalType": "address",
          "name": "requestedBy",
          "type": "address"
        }
      ],
      "name": "TransferRequested",
      "type": "event"
    },
    {
      "inputs": [
        {
          "internalType": "uint256",
          "name": "",
          "type": "uint256"
        }
      ],
      "name": "acceptedFeeTokens",
      "outputs": [
        {
          "internalType": "address",
          "name": "",
          "type": "address"
        }
      ],
      "stateMutability": "view",
      "type": "function"
    },
    {
      "inputs": [
        {
          "internalType": "address",
          "name": "",
          "type": "address"
        },
        {
          "internalType": "address",
          "name": "",
          "type": "address"
        }
      ],
      "name": "allowance",
      "outputs": [
        {
          "internalType": "uint256",
          "name": "",
          "type": "uint256"
        }
      ],
      "stateMutability": "pure",
      "type": "function"
    },
    {
      "inputs": [
        {
          "internalType": "address",
          "name": "",
          "type": "address"
        },
        {
          "internalType": "uint256",
          "name": "",
          "type": "uint256"
        }
      ],
      "name": "approve",
      "outputs": [
        {
          "internalType": "bool",
          "name": "",
          "type": "bool"
        }
      ],
      "stateMutability": "pure",
      "type": "function"
    },
    {
      "inputs": [
        {
          "internalType": "address",
          "name": "",
          "type": "address"
        }
      ],
      "name": "approvedBrokers",
      "outputs": [
        {
          "internalType": "bool",
          "name": "",
          "type": "bool"
        }
      ],
      "stateMutability": "view",
      "type": "function"
    },
    {
      "inputs": [
        {
          "internalType": "address",
          "name": "account",
          "type": "address"
        }
      ],
      "name": "balanceOf",
      "outputs": [
        {
          "internalType": "uint256",
          "name": "",
          "type": "uint256"
        }
      ],
      "stateMutability": "view",
      "type": "function"
    },
    {
      "inputs": [
        {
          "internalType": "address",
          "name": "from",
          "type": "address"
        },
        {
          "internalType": "uint256",
          "name": "amount",
          "type": "uint256"
        }
      ],
      "name": "burnFrom",
      "outputs": [
        {
          "internalType": "bool",
          "name": "",
          "type": "bool"
        }
      ],
      "stateMutability": "nonpayable",
      "type": "function"
    },
    {
      "inputs": [
        {
          "internalType": "address",
          "name": "newIssuer",
          "type": "address"
        }
      ],
      "name": "changeIssuer",
      "outputs": [],
      "stateMutability": "nonpayable",
      "type": "function"
    },
    {
      "inputs": [
        {
          "internalType": "address",
          "name": "",
          "type": "address"
        }
      ],
      "name": "collectedFees",
      "outputs": [
        {
          "internalType": "uint256",
          "name": "",
          "type": "uint256"
        }
      ],
      "stateMutability": "view",
      "type": "function"
    },
    {
      "inputs": [],
      "name": "decimals",
      "outputs": [
        {
          "internalType": "uint8",
          "name": "",
          "type": "uint8"
        }
      ],
      "stateMutability": "view",
      "type": "function"
    },
    {
      "inputs": [
        {
          "internalType": "address",
          "name": "from",
          "type": "address"
        },
        {
          "internalType": "address",
          "name": "to",
          "type": "address"
        },
        {
          "internalType": "uint256",
          "name": "amount",
          "type": "uint256"
        },
        {
          "internalType": "bytes32",
          "name": "documentHash",
          "type": "bytes32"
        }
      ],
      "name": "executeCourtOrder",
      "outputs": [],
      "stateMutability": "nonpayable",
      "type": "function"
    },
    {
      "inputs": [],
      "name": "feeType",
      "outputs": [
        {
          "internalType": "uint8",
          "name": "",
          "type": "uint8"
        }
      ],
      "stateMutability": "view",
      "type": "function"
    },
    {
      "inputs": [],
      "name": "feeValue",
      "outputs": [
        {
          "internalType": "uint256",
          "name": "",
          "type": "uint256"
        }
      ],
      "stateMutability": "view",
      "type": "function"
    },
    {
      "inputs": [
        {
          "internalType": "address",
          "name": "",
          "type": "address"
        }
      ],
      "name": "frozenAccounts",
      "outputs": [
        {
          "internalType": "bool",
          "name": "",
          "type": "bool"
        }
      ],
      "stateMutability": "view",
      "type": "function"
    },
    {
      "inputs": [],
      "name": "getAcceptedFeeTokens",
      "outputs": [
        {
          "internalType": "address[]",
          "name": "",
          "type": "address[]"
        }
      ],
      "stateMutability": "view",
      "type": "function"
    },
    {
      "inputs": [
        {
          "internalType": "address",
          "name": "",
          "type": "address"
        },
        {
          "internalType": "address",
          "name": "",
          "type": "address"
        },
        {
          "internalType": "uint256",
          "name": "amount",
          "type": "uint256"
        },
        {
          "internalType": "address",
          "name": "feeToken",
          "type": "address"
        }
      ],
      "name": "getTransferFee",
      "outputs": [
        {
          "internalType": "uint256",
          "name": "feeAmount",
          "type": "uint256"
        }
      ],
      "stateMutability": "view",
      "type": "function"
    },
    {
      "inputs": [
        {
          "internalType": "address",
          "name": "account",
          "type": "address"
        }
      ],
      "name": "isAccountFrozen",
      "outputs": [
        {
          "internalType": "bool",
          "name": "",
          "type": "bool"
        }
      ],
      "stateMutability": "view",
      "type": "function"
    },
    {
      "inputs": [
        {
          "internalType": "address",
          "name": "broker",
          "type": "address"
        }
      ],
      "name": "isBroker",
      "outputs": [
        {
          "internalType": "bool",
          "name": "",
          "type": "bool"
        }
      ],
      "stateMutability": "view",
      "type": "function"
    },
    {
      "inputs": [],
      "name": "isSecurityToken",
      "outputs": [
        {
          "internalType": "bool",
          "name": "",
          "type": "bool"
        }
      ],
      "stateMutability": "pure",
      "type": "function"
    },
    {
      "inputs": [
        {
          "internalType": "address",
          "name": "addr",
          "type": "address"
        }
      ],
      "name": "isTransferAgent",
      "outputs": [
        {
          "internalType": "bool",
          "name": "",
          "type": "bool"
        }
      ],
      "stateMutability": "view",
      "type": "function"
    },
    {
      "inputs": [
        {
          "internalType": "address",
          "name": "to",
          "type": "address"
        },
        {
          "internalType": "uint256",
          "name": "amount",
          "type": "uint256"
        }
      ],
      "name": "mint",
      "outputs": [
        {
          "internalType": "bool",
          "name": "",
          "type": "bool"
        }
      ],
      "stateMutability": "nonpayable",
      "type": "function"
    },
    {
      "inputs": [],
      "name": "name",
      "outputs": [
        {
          "internalType": "string",
          "name": "",
          "type": "string"
        }
      ],
      "stateMutability": "view",
      "type": "function"
    },
    {
      "inputs": [],
      "name": "owner",
      "outputs": [
        {
          "internalType": "address",
          "name": "",
          "type": "address"
        }
      ],
      "stateMutability": "view",
      "type": "function"
    },
    {
      "inputs": [
        {
          "internalType": "uint256",
          "name": "requestId",
          "type": "uint256"
        }
      ],
      "name": "processTransferRequest",
      "outputs": [],
      "stateMutability": "nonpayable",
      "type": "function"
    },
    {
      "inputs": [
        {
          "internalType": "address",
          "name": "token",
          "type": "address"
        },
        {
          "internalType": "uint256",
          "name": "amount",
          "type": "uint256"
        }
      ],
      "name": "recoverToken",
      "outputs": [],
      "stateMutability": "nonpayable",
      "type": "function"
    },
    {
      "inputs": [
        {
          "internalType": "uint256",
          "name": "requestId",
          "type": "uint256"
        },
        {
          "internalType": "uint16",
          "name": "reasonCode",
          "type": "uint16"
        },
        {
          "internalType": "bool",
          "name": "refundFee",
          "type": "bool"
        }
      ],
      "name": "rejectTransferRequest",
      "outputs": [],
      "stateMutability": "nonpayable",
      "type": "function"
    },
    {
      "inputs": [],
      "name": "renounceOwnership",
      "outputs": [],
      "stateMutability": "nonpayable",
      "type": "function"
    },
    {
      "inputs": [
        {
          "internalType": "address",
          "name": "from",
          "type": "address"
        },
        {
          "internalType": "address",
          "name": "to",
          "type": "address"
        },
        {
          "internalType": "uint256",
          "name": "amount",
          "type": "uint256"
        },
        {
          "internalType": "address",
          "name": "feeToken",
          "type": "address"
        },
        {
          "internalType": "uint256",
          "name": "feeAmount",
          "type": "uint256"
        }
      ],
      "name": "requestTransferWithFee",
      "outputs": [
        {
          "internalType": "uint256",
          "name": "requestId",
          "type": "uint256"
        }
      ],
      "stateMutability": "payable",
      "type": "function"
    },
    {
      "inputs": [
        {
          "internalType": "address",
          "name": "account",
          "type": "address"
        },
        {
          "internalType": "bool",
          "name": "frozen",
          "type": "bool"
        }
      ],
      "name": "setAccountFrozen",
      "outputs": [],
      "stateMutability": "nonpayable",
      "type": "function"
    },
    {
      "inputs": [
        {
          "internalType": "address",
          "name": "broker",
          "type": "address"
        },
        {
          "internalType": "bool",
          "name": "approved",
          "type": "bool"
        }
      ],
      "name": "setBrokerStatus",
      "outputs": [],
      "stateMutability": "nonpayable",
      "type": "function"
    },
    {
      "inputs": [
        {
          "internalType": "uint8",
          "name": "newFeeType",
          "type": "uint8"
        },
        {
          "internalType": "uint256",
          "name": "newFeeValue",
          "type": "uint256"
        },
        {
          "internalType": "address[]",
          "name": "newAcceptedTokens",
          "type": "address[]"
        }
      ],
      "name": "setFeeParameters",
      "outputs": [],
      "stateMutability": "nonpayable",
      "type": "function"
    },
    {
      "inputs": [
        {
          "internalType": "address",
          "name": "newTransferAgent",
          "type": "address"
        }
      ],
      "name": "setTransferAgent",
      "outputs": [],
      "stateMutability": "nonpayable",
      "type": "function"
    },
    {
      "inputs": [
        {
          "internalType": "bytes4",
          "name": "interfaceId",
          "type": "bytes4"
        }
      ],
      "name": "supportsInterface",
      "outputs": [
        {
          "internalType": "bool",
          "name": "",
          "type": "bool"
        }
      ],
      "stateMutability": "view",
      "type": "function"
    },
    {
      "inputs": [],
      "name": "symbol",
      "outputs": [
        {
          "internalType": "string",
          "name": "",
          "type": "string"
        }
      ],
      "stateMutability": "view",
      "type": "function"
    },
    {
      "inputs": [],
      "name": "totalSupply",
      "outputs": [
        {
          "internalType": "uint256",
          "name": "",
          "type": "uint256"
        }
      ],
      "stateMutability": "view",
      "type": "function"
    },
    {
      "inputs": [
        {
          "internalType": "address",
          "name": "",
          "type": "address"
        },
        {
          "internalType": "uint256",
          "name": "",
          "type": "uint256"
        }
      ],
      "name": "transfer",
      "outputs": [
        {
          "internalType": "bool",
          "name": "",
          "type": "bool"
        }
      ],
      "stateMutability": "pure",
      "type": "function"
    },
    {
      "inputs": [
        {
          "internalType": "address",
          "name": "from",
          "type": "address"
        },
        {
          "internalType": "address",
          "name": "to",
          "type": "address"
        },
        {
          "internalType": "uint256",
          "name": "amount",
          "type": "uint256"
        }
      ],
      "name": "transferFrom",
      "outputs": [
        {
          "internalType": "bool",
          "name": "",
          "type": "bool"
        }
      ],
      "stateMutability": "nonpayable",
      "type": "function"
    },
    {
      "inputs": [
        {
          "internalType": "address",
          "name": "newOwner",
          "type": "address"
        }
      ],
      "name": "transferOwnership",
      "outputs": [],
      "stateMutability": "nonpayable",
      "type": "function"
    },
    {
      "inputs": [
        {
          "internalType": "uint256",
          "name": "",
          "type": "uint256"
        }
      ],
      "name": "transferRequests",
      "outputs": [
        {
          "internalType": "address",
          "name": "from",
          "type": "address"
        },
        {
          "internalType": "address",
          "name": "to",
          "type": "address"
        },
        {
          "internalType": "uint256",
          "name": "amount",
          "type": "uint256"
        },
        {
          "internalType": "address",
          "name": "requestedBy",
          "type": "address"
        },
        {
          "internalType": "uint256",
          "name": "feePaid",
          "type": "uint256"
        },
        {
          "internalType": "address",
          "name": "feeToken",
          "type": "address"
        },
        {
          "internalType": "enum IERC1450.RequestStatus",
          "name": "status",
          "type": "uint8"
        },
        {
          "internalType": "uint256",
          "name": "timestamp",
          "type": "uint256"
        }
      ],
      "stateMutability": "view",
      "type": "function"
    },
    {
      "inputs": [
        {
          "internalType": "uint256",
          "name": "requestId",
          "type": "uint256"
        },
        {
          "internalType": "enum IERC1450.RequestStatus",
          "name": "newStatus",
          "type": "uint8"
        }
      ],
      "name": "updateRequestStatus",
      "outputs": [],
      "stateMutability": "nonpayable",
      "type": "function"
    },
    {
      "inputs": [
        {
          "internalType": "address",
          "name": "token",
          "type": "address"
        },
        {
          "internalType": "uint256",
          "name": "amount",
          "type": "uint256"
        },
        {
          "internalType": "address",
          "name": "recipient",
          "type": "address"
        }
      ],
      "name": "withdrawFees",
      "outputs": [],
      "stateMutability": "nonpayable",
      "type": "function"
    },
    {
      "stateMutability": "payable",
      "type": "receive"
    }
  ],
  "bytecode": "0x60a0604052600160075534801561001557600080fd5b506040516128e83803806128e88339810160408190526100349161027c565b816001600160a01b03811661006457604051631e4fbdf760e01b8152600060048201526024015b60405180910390fd5b61006d81610157565b50600180556001600160a01b0381166100c85760405162461bcd60e51b815260206004820152601f60248201527f455243313435303a20496e76616c6964207472616e73666572206167656e7400604482015260640161005b565b60026100d486826103a8565b5060036100e185826103a8565b5060ff90921660805250600680546001600160a01b039092166001600160a01b03199283161790556009805460ff191690556000600a819055600b805460018101825591527f0175b7a638427703f0dbe7bb9bbf987a2551717b34e79f33b5b1008d1fa01db90180549091169055506104669050565b600080546001600160a01b038381166001600160a01b0319831681178455604051919092169283917f8be0079c531659141344cd1fd0a4f28419497f9722a3daafe3b4186f6b6457e09190a35050565b634e487b7160e01b600052604160045260246000fd5b600082601f8301126101ce57600080fd5b81516001600160401b038111156101e7576101e76101a7565b604051601f8201601f19908116603f011681016001600160401b0381118282101715610215576102156101a7565b60405281815283820160200185101561022d57600080fd5b60005b8281101561024c57602081860181015183830182015201610230565b506000918101602001919091529392505050565b80516001600160a01b038116811461027757600080fd5b919050565b600080600080600060a0868803121561029457600080fd5b85516001600160401b038111156102aa57600080fd5b6102b6888289016101bd565b602088015190965090506001600160401b038111156102d457600080fd5b6102e0888289016101bd565b945050604086015160ff811681146102f757600080fd5b925061030560608701610260565b915061031360808701610260565b90509295509295909350565b600181811c9082168061033357607f821691505b60208210810361035357634e487b7160e01b600052602260045260246000fd5b50919050565b601f8211156103a357806000526020600020601f840160051c810160208510156103805750805b601f840160051c820191505b818110156103a0576000815560010161038c565b50505b505050565b81516001600160401b038111156103c1576103c16101a7565b6103d5816103cf845461031f565b84610359565b6020601f82116001811461040957600083156103f15750848201515b600019600385901b1c1916600184901b1784556103a0565b600084815260208120601f198516915b828110156104395787850151825560209485019460019092019101610419565b50848210156104575786840151600019600387901b60f8161c191681555b50505050600190811b01905550565b608051612467610481600039600061041e01526124676000f3fe60806040526004361061023f5760003560e01c80637e8931591161012e578063a9059cbb116100ab578063dd62ed3e1161006f578063dd62ed3e14610767578063e816d97f1461078a578063f2fde38b146107c3578063fb8dc179146107e3578063fb99b86d146107fd57600080fd5b8063a9059cbb1461032a578063b29a814014610700578063c9593eb514610720578063cbe5404f14610733578063d1132dd61461075357600080fd5b806395d89b41116100f257806395d89b41146106655780639ba372c21461067a5780639dd800391461069a5780639fddaa93146106ca578063a5440bfc146106e057600080fd5b80637e893159146105b7578063860838a5146105d7578063886fa3cf146106075780638c6a244c146106275780638da5cb5b1461064757600080fd5b8063361c1291116101bc5780635923e87d116101805780635923e87d1461050c57806370a082311461052c578063715018a61461056257806379cc6790146105775780637e57c57d1461059757600080fd5b8063361c1291146104505780633b3e2645146104885780633ec6ef44146104aa57806340c10f19146104cc578063580ab697146104ec57600080fd5b80631cead9a7116102035780631cead9a71461036957806322b31d9f1461039657806323b872dd146103cf5780632ae98fb2146103ef578063313ce5671461040f57600080fd5b806301ffc9a71461024b57806303486c401461028057806306fdde0314610308578063095ea7b31461032a57806318160ddd1461034a57600080fd5b3661024657005b600080fd5b34801561025757600080fd5b5061026b610266366004611e3f565b61082c565b60405190151581526020015b60405180910390f35b34801561028c57600080fd5b506102f461029b366004611e70565b60086020526000908152604090208054600182015460028301546003840154600485015460058601546006909601546001600160a01b039586169694861695939492841693919291821691600160a01b900460ff169088565b604051610277989796959493929190611e9f565b34801561031457600080fd5b5061031d610899565b6040516102779190611f0a565b34801561033657600080fd5b5061026b610345366004611f74565b61092b565b34801561035657600080fd5b506005545b604051908152602001610277565b34801561037557600080fd5b5061035b610384366004611f9e565b600c6020526000908152604090205481565b3480156103a257600080fd5b5061026b6103b1366004611f9e565b6001600160a01b03166000908152600d602052604090205460ff1690565b3480156103db57600080fd5b5061026b6103ea366004611fb9565b610946565b3480156103fb57600080fd5b5061035b61040a366004611ff6565b610a2c565b34801561041b57600080fd5b507f00000000000000000000000000000000000000000000000000000000000000005b60405160ff9091168152602001610277565b34801561045c57600080fd5b5061047061046b366004611e70565b610a95565b6040516001600160a01b039091168152602001610277565b34801561049457600080fd5b5061049d610abf565b6040516102779190612043565b3480156104b657600080fd5b506104ca6104c536600461209f565b610b20565b005b3480156104d857600080fd5b5061026b6104e7366004611f74565b610c76565b3480156104f857600080fd5b506104ca6105073660046120e4565b610d3e565b34801561051857600080fd5b506104ca610527366004612179565b610dcd565b34801561053857600080fd5b5061035b610547366004611f9e565b6001600160a01b031660009081526004602052604090205490565b34801561056e57600080fd5b506104ca610e06565b34801561058357600080fd5b5061026b610592366004611f74565b610e1a565b3480156105a357600080fd5b506104ca6105b23660046121ad565b610f17565b3480156105c357600080fd5b506104ca6105d2366004611f9e565b610fa4565b3480156105e357600080fd5b5061026b6105f2366004611f9e565b600e6020526000908152604090205460ff1681565b34801561061357600080fd5b506104ca610622366004611e70565b611052565b34801561063357600080fd5b506104ca610642366004611f9e565b6111e7565b34801561065357600080fd5b506000546001600160a01b0316610470565b34801561067157600080fd5b5061031d611370565b34801561068657600080fd5b506104ca6106953660046121e0565b61137f565b3480156106a657600080fd5b5061026b6106b5366004611f9e565b600d6020526000908152604090205460ff1681565b3480156106d657600080fd5b5061035b600a5481565b3480156106ec57600080fd5b506104ca6106fb366004612213565b611534565b34801561070c57600080fd5b506104ca61071b366004611f74565b6115d0565b61035b61072e366004612255565b61168b565b34801561073f57600080fd5b506104ca61074e3660046121ad565b611983565b34801561075f57600080fd5b50600161026b565b34801561077357600080fd5b5061035b6107823660046122aa565b600092915050565b34801561079657600080fd5b5061026b6107a5366004611f9e565b6001600160a01b03166000908152600e602052604090205460ff1690565b3480156107cf57600080fd5b506104ca6107de366004611f9e565b6119d9565b3480156107ef57600080fd5b5060095461043e9060ff1681565b34801561080957600080fd5b5061026b610818366004611f9e565b6006546001600160a01b0391821691161490565b600063578baef760e11b6001600160e01b03198316148061085d57506001600160e01b031982166336372b0760e01b145b8061087857506001600160e01b0319821663a219a02560e01b145b8061089357506301ffc9a760e01b6001600160e01b03198316145b92915050565b6060600280546108a8906122d4565b80601f01602080910402602001604051908101604052809291908181526020018280546108d4906122d4565b80156109215780601f106108f657610100808354040283529160200191610921565b820191906000526020600020905b81548152906001019060200180831161090457829003601f168201915b5050505050905090565b600060405163c27fd50560e01b815260040160405180910390fd5b6006546000906001600160a01b0316331461097457604051634b05ae8560e11b815260040160405180910390fd5b6001600160a01b0384166000908152600e6020526040902054849060ff16156109c7576040516307a93df560e11b81526001600160a01b0382166004820152600060248201526044015b60405180910390fd5b6001600160a01b0384166000908152600e6020526040902054849060ff1615610a15576040516307a93df560e11b81526001600160a01b0382166004820152600060248201526044016109be565b610a20868686611a17565b50600195945050505050565b6000610a3782611b0b565b610a4357506000610a8d565b60095460ff16600003610a595750600a54610a8d565b60095460ff16600103610a8857612710600a5484610a779190612324565b610a81919061233b565b9050610a8d565b50600a545b949350505050565b600b8181548110610aa557600080fd5b6000918252602090912001546001600160a01b0316905081565b6060600b80548060200260200160405190810160405280929190818152602001828054801561092157602002820191906000526020600020905b81546001600160a01b03168152600190910190602001808311610af9575050505050905090565b6006546001600160a01b03163314610b4b57604051634b05ae8560e11b815260040160405180910390fd5b6000838152600860205260409020610b64846003611b6a565b818015610b75575060008160040154115b15610c305760058101546001600160a01b0316610bd257600381015460048201546040516001600160a01b039092169181156108fc0291906000818181858888f19350505050158015610bcc573d6000803e3d6000fd5b50610bf9565b600381015460048201546005830154610bf9926001600160a01b0391821692911690611c11565b600481015460058201546001600160a01b03166000908152600c602052604081208054909190610c2a90849061235d565b90915550505b6040805161ffff85168152831515602082015285917ff7061e20a57003952a3a98be55c537d9c3d732e2634c64a2ecac946e8e1c939f910160405180910390a250505050565b6006546000906001600160a01b03163314610ca457604051634b05ae8560e11b815260040160405180910390fd5b6001600160a01b038316610cce5760405163ec442f0560e01b8152600060048201526024016109be565b8160056000828254610ce09190612370565b90915550506001600160a01b0383166000818152600460209081526040808320805487019055518581527fddf252ad1be2c89b69c2b068fc378daa952ba7f163c4a11628f55a4df523b3ef910160405180910390a350600192915050565b6006546001600160a01b03163314610d6957604051634b05ae8560e11b815260040160405180910390fd5b6009805460ff191660ff8616179055600a839055610d89600b8383611dc7565b507f9950293518fa753941262ebbf10fa155a48d4e9c32101858c0c8d576abac9d0b84848484604051610dbf9493929190612383565b60405180910390a150505050565b6006546001600160a01b03163314610df857604051634b05ae8560e11b815260040160405180910390fd5b610e028282611b6a565b5050565b610e0e611c70565b610e186000611c9d565b565b6006546000906001600160a01b03163314610e4857604051634b05ae8560e11b815260040160405180910390fd5b6001600160a01b038316610e7257604051634b637e8f60e11b8152600060048201526024016109be565b6001600160a01b03831660009081526004602052604090205482811015610eb25783818460405163391434e360e21b81526004016109be939291906123e1565b6001600160a01b03841660008181526004602090815260408083208786039055600580548890039055518681529192917fddf252ad1be2c89b69c2b068fc378daa952ba7f163c4a11628f55a4df523b3ef910160405180910390a35060019392505050565b6006546001600160a01b03163314610f4257604051634b05ae8560e11b815260040160405180910390fd5b6001600160a01b0382166000818152600d6020908152604091829020805460ff191685151590811790915591519182523392917f6eeca9bd01d51a74626e1dba78769450e56fe3f29dee5b0f3aee086d5f5ceaaf910160405180910390a35050565b6006546001600160a01b03163314610fcf57604051634b05ae8560e11b815260040160405180910390fd5b6001600160a01b038116610ff957604051631e4fbdf760e01b8152600060048201526024016109be565b6000546001600160a01b031661100e82611c9d565b816001600160a01b0316816001600160a01b03167faf014c0f1e2d7c810cfe4f4ec7c675b9dbd7ad5fd0b058fe94776a447d6f333760405160405180910390a35050565b6006546001600160a01b0316331461107d57604051634b05ae8560e11b815260040160405180910390fd5b60008181526008602052604090206004600582810154600160a01b900460ff16908111156110ad576110ad611e89565b141580156110db57506003600582810154600160a01b900460ff16908111156110d8576110d8611e89565b14155b6111325760405162461bcd60e51b815260206004820152602260248201527f455243313435303a205265717565737420616c72656164792066696e616c697a604482015261195960f21b60648201526084016109be565b6002600582810154600160a01b900460ff169081111561115457611154611e89565b1461116457611164826002611b6a565b805460018201546002830154611187926001600160a01b03908116921690611a17565b611192826004611b6a565b6001810154815460028301546040519081526001600160a01b03928316929091169084907feb669e0a01fff40cbe45de851f42334fe70673136abfd91399651b7ae199a07b9060200160405180910390a45050565b6001600160a01b03811661123d5760405162461bcd60e51b815260206004820152601f60248201527f455243313435303a20496e76616c6964207472616e73666572206167656e740060448201526064016109be565b600654600160a01b900460ff161561126857604051632b3cc4e160e21b815260040160405180910390fd5b6006546001600160a01b03161580159061128d57506006546001600160a01b03163314155b156112ab57604051634b05ae8560e11b815260040160405180910390fd5b6000546001600160a01b031633148015906112d157506006546001600160a01b03163314155b156112f15760405163118cdaa760e01b81523360048201526024016109be565b600680546001600160a01b038381166001600160a01b03198316811790935516903b1561132c576006805460ff60a01b1916600160a01b1790555b816001600160a01b0316816001600160a01b03167f35e89afcbe61fb77843ff4fb292fdc4b00f10009912cacbb48c537c93c84eccb60405160405180910390a35050565b6060600380546108a8906122d4565b6006546001600160a01b031633146113aa57604051634b05ae8560e11b815260040160405180910390fd5b6001600160a01b0381166114005760405162461bcd60e51b815260206004820152601a60248201527f455243313435303a20496e76616c696420726563697069656e7400000000000060448201526064016109be565b6001600160a01b0383166000908152600c6020526040902054821115611457576001600160a01b0383166000908152600c60205260409081902054905163391434e360e21b81526109be91309185906004016123e1565b6001600160a01b0383166000908152600c60205260408120805484929061147f90849061235d565b90915550506001600160a01b0383166114ce576040516001600160a01b0382169083156108fc029084906000818181858888f193505050501580156114c8573d6000803e3d6000fd5b506114e2565b6114e26001600160a01b0384168284611c11565b806001600160a01b0316836001600160a01b03167f87044da2612407bc001bb0985725dcc651a0dc71eaabfd1d7e8617ca85a8c19c8460405161152791815260200190565b60405180910390a3505050565b6006546001600160a01b0316331461155f57604051634b05ae8560e11b815260040160405180910390fd5b61156a848484611a17565b826001600160a01b0316846001600160a01b03167f79d934d1fea524bb1baacd60b5b9b94a3b948a19d8d762726f7ecbe400308f158484426040516115c2939291909283526020830191909152604082015260600190565b60405180910390a350505050565b6006546001600160a01b031633146115fb57604051634b05ae8560e11b815260040160405180910390fd5b306001600160a01b0383160361162457604051634b05ae8560e11b815260040160405180910390fd5b6001600160a01b038216611671576006546040516001600160a01b039091169082156108fc029083906000818181858888f1935050505015801561166c573d6000803e3d6000fd5b505050565b600654610e02906001600160a01b03848116911683611c11565b6000611695611ced565b6001600160a01b03861615806116b257506001600160a01b038516155b156116d35760405163ec442f0560e01b8152600060048201526024016109be565b336001600160a01b038716148015906116fc5750336000908152600d602052604090205460ff16155b1561171c5760405163118cdaa760e01b81523360048201526024016109be565b61172583611b0b565b61174d5760405163ec442f0560e01b81526001600160a01b03841660048201526024016109be565b8115611810576001600160a01b0383166117cd578134146117875733348360405163391434e360e21b81526004016109be939291906123e1565b6000808052600c6020527f13649b2456f1b42fef0f0040b3aaeabcd21a76a0f3f5defd4f583839455116e880548492906117c2908490612370565b909155506118109050565b6117e26001600160a01b038416333085611d17565b6001600160a01b0383166000908152600c60205260408120805484929061180a908490612370565b90915550505b6007805490600061182083612402565b9091555060408051610100810182526001600160a01b03898116825288811660208084019182528385018a81523360608601908152608086018a81528b861660a08801908152600060c089018181524260e08b01528b8252600890965298909820875181549088166001600160a01b03199182161782559551600182018054918916918816919091179055925160028401559051600383018054918716918616919091179055516004820155945160058087018054929095169382168417855591519697509395936001600160a81b03191690911790600160a01b90849081111561190d5761190d611e89565b021790555060e091909101516006909101556040805185815260208101849052338183015290516001600160a01b03878116929089169184917f5c305e799a867c1f9a632629eba8ba08f423e4350397ef18fee1cbb4632df2c5919081900360600190a461197a60018055565b95945050505050565b6006546001600160a01b031633146119ae57604051634b05ae8560e11b815260040160405180910390fd5b6001600160a01b03919091166000908152600e60205260409020805460ff1916911515919091179055565b6119e1611c70565b6001600160a01b038116611a0b57604051631e4fbdf760e01b8152600060048201526024016109be565b611a1481611c9d565b50565b6001600160a01b038316611a4157604051634b637e8f60e11b8152600060048201526024016109be565b6001600160a01b038216611a6b5760405163ec442f0560e01b8152600060048201526024016109be565b6001600160a01b03831660009081526004602052604090205481811015611aab5783818360405163391434e360e21b81526004016109be939291906123e1565b6001600160a01b0380851660008181526004602052604080822086860390559286168082529083902080548601905591517fddf252ad1be2c89b69c2b068fc378daa952ba7f163c4a11628f55a4df523b3ef906115c29086815260200190565b6000805b600b54811015611b6157826001600160a01b0316600b8281548110611b3657611b3661241b565b6000918252602090912001546001600160a01b031603611b595750600192915050565b600101611b0f565b50600092915050565b600082815260086020526040902060058082018054600160a01b80820460ff169386939260ff60a01b191691908490811115611ba857611ba8611e89565b0217905550826005811115611bbf57611bbf611e89565b816005811115611bd157611bd1611e89565b857f624f756b8457d5d02670046b80faa01c08502d2cbb53c3e61c1ef90a6b66cf9142604051611c0391815260200190565b60405180910390a450505050565b6040516001600160a01b0383811660248301526044820183905261166c91859182169063a9059cbb906064015b604051602081830303815290604052915060e01b6020820180516001600160e01b038381831617835250505050611d56565b6000546001600160a01b03163314610e185760405163118cdaa760e01b81523360048201526024016109be565b600080546001600160a01b038381166001600160a01b0319831681178455604051919092169283917f8be0079c531659141344cd1fd0a4f28419497f9722a3daafe3b4186f6b6457e09190a35050565b600260015403611d1057604051633ee5aeb560e01b815260040160405180910390fd5b6002600155565b6040516001600160a01b038481166024830152838116604483015260648201839052611d509186918216906323b872dd90608401611c3e565b50505050565b600080602060008451602086016000885af180611d79576040513d6000823e3d81fd5b50506000513d91508115611d91578060011415611d9e565b6001600160a01b0384163b155b15611d5057604051635274afe760e01b81526001600160a01b03851660048201526024016109be565b828054828255906000526020600020908101928215611e1a579160200282015b82811115611e1a5781546001600160a01b0319166001600160a01b03843516178255602090920191600190910190611de7565b50611e26929150611e2a565b5090565b5b80821115611e265760008155600101611e2b565b600060208284031215611e5157600080fd5b81356001600160e01b031981168114611e6957600080fd5b9392505050565b600060208284031215611e8257600080fd5b5035919050565b634e487b7160e01b600052602160045260246000fd5b6001600160a01b038981168252888116602083015260408201889052868116606083015260808201869052841660a0820152610100810160068410611ef457634e487b7160e01b600052602160045260246000fd5b60c082019390935260e001529695505050505050565b602081526000825180602084015260005b81811015611f385760208186018101516040868401015201611f1b565b506000604082850101526040601f19601f83011684010191505092915050565b80356001600160a01b0381168114611f6f57600080fd5b919050565b60008060408385031215611f8757600080fd5b611f9083611f58565b946020939093013593505050565b600060208284031215611fb057600080fd5b611e6982611f58565b600080600060608486031215611fce57600080fd5b611fd784611f58565b9250611fe560208501611f58565b929592945050506040919091013590565b6000806000806080858703121561200c57600080fd5b61201585611f58565b935061202360208601611f58565b92506040850135915061203860608601611f58565b905092959194509250565b602080825282518282018190526000918401906040840190835b818110156120845783516001600160a01b031683526020938401939092019160010161205d565b509095945050505050565b80358015158114611f6f57600080fd5b6000806000606084860312156120b457600080fd5b83359250602084013561ffff811681146120cd57600080fd5b91506120db6040850161208f565b90509250925092565b600080600080606085870312156120fa57600080fd5b843560ff8116811461210b57600080fd5b935060208501359250604085013567ffffffffffffffff81111561212e57600080fd5b8501601f8101871361213f57600080fd5b803567ffffffffffffffff81111561215657600080fd5b8760208260051b840101111561216b57600080fd5b949793965060200194505050565b6000806040838503121561218c57600080fd5b823591506020830135600681106121a257600080fd5b809150509250929050565b600080604083850312156121c057600080fd5b6121c983611f58565b91506121d76020840161208f565b90509250929050565b6000806000606084860312156121f557600080fd5b6121fe84611f58565b9250602084013591506120db60408501611f58565b6000806000806080858703121561222957600080fd5b61223285611f58565b935061224060208601611f58565b93969395505050506040820135916060013590565b600080600080600060a0868803121561226d57600080fd5b61227686611f58565b945061228460208701611f58565b93506040860135925061229960608701611f58565b949793965091946080013592915050565b600080604083850312156122bd57600080fd5b6122c683611f58565b91506121d760208401611f58565b600181811c908216806122e857607f821691505b60208210810361230857634e487b7160e01b600052602260045260246000fd5b50919050565b634e487b7160e01b600052601160045260246000fd5b80820281158282048414176108935761089361230e565b60008261235857634e487b7160e01b600052601260045260246000fd5b500490565b818103818111156108935761089361230e565b808201808211156108935761089361230e565b60ff8516815260208101849052606060408201819052810182905260008360808301825b858110156123d5576001600160a01b036123c084611f58565b168252602092830192909101906001016123a7565b50979650505050505050565b6001600160a01b039390931683526020830191909152604082015260600190565b6000600182016124145761241461230e565b5060010190565b634e487b7160e01b600052603260045260246000fdfea264697066735822122084b00dba9fb344edf4fcbd99bce2629e68989c961c3c8020e9404f87ddc5a09f64736f6c634300081b0033",
  "linkReferences": {},
  "deployedLinkReferences": {}
}