{
  "_format": "hh-sol-artifact-1",
  "contractName": "RTAProxy",
  "sourceName": "contracts/RTAProxy.sol",
  "abi": [
    {
      "inputs": [
        {
          "internalType": "address[]",
          "name": "_signers",
          "type": "address[]"
        },
        {
          "internalType": "uint256",
          "name": "_requiredSignatures",
          "type": "uint256"
        }
      ],
      "stateMutability": "nonpayable",
      "type": "constructor"
    },
    {
      "inputs": [],
      "name": "AlreadyASigner",
      "type": "error"
    },
    {
      "inputs": [],
      "name": "AlreadyConfirmed",
      "type": "error"
    },
    {
      "inputs": [],
      "name": "InsufficientConfirmations",
      "type": "error"
    },
    {
      "inputs": [],
      "name": "InvalidSignerCount",
      "type": "error"
    },
    {
      "inputs": [],
      "name": "NotASigner",
      "type": "error"
    },
    {
      "inputs": [],
      "name": "NotConfirmed",
      "type": "error"
    },
    {
      "inputs": [],
      "name": "OperationAlreadyExecuted",
      "type": "error"
    },
    {
      "inputs": [],
      "name": "TimeLockNotExpired",
      "type": "error"
    },
    {
      "anonymous": false,
      "inputs": [
        {
          "indexed": true,
          "internalType": "address",
          "name": "from",
          "type": "address"
        },
        {
          "indexed": false,
          "internalType": "uint256",
          "name": "amount",
          "type": "uint256"
        }
      ],
      "name": "ETHReceived",
      "type": "event"
    },
    {
      "anonymous": false,
      "inputs": [
        {
          "indexed": true,
          "internalType": "address",
          "name": "wallet",
          "type": "address"
        },
        {
          "indexed": false,
          "internalType": "uint256",
          "name": "timestamp",
          "type": "uint256"
        }
      ],
      "name": "InternalWalletAdded",
      "type": "event"
    },
    {
      "anonymous": false,
      "inputs": [
        {
          "indexed": true,
          "internalType": "address",
          "name": "wallet",
          "type": "address"
        },
        {
          "indexed": false,
          "internalType": "uint256",
          "name": "timestamp",
          "type": "uint256"
        }
      ],
      "name": "InternalWalletRemoved",
      "type": "event"
    },
    {
      "anonymous": false,
      "inputs": [
        {
          "indexed": true,
          "internalType": "uint256",
          "name": "operationId",
          "type": "uint256"
        },
        {
          "indexed": true,
          "internalType": "address",
          "name": "signer",
          "type": "address"
        }
      ],
      "name": "OperationConfirmed",
      "type": "event"
    },
    {
      "anonymous": false,
      "inputs": [
        {
          "indexed": true,
          "internalType": "uint256",
          "name": "operationId",
          "type": "uint256"
        }
      ],
      "name": "OperationExecuted",
      "type": "event"
    },
    {
      "anonymous": false,
      "inputs": [
        {
          "indexed": true,
          "internalType": "uint256",
          "name": "operationId",
          "type": "uint256"
        },
        {
          "indexed": true,
          "internalType": "address",
          "name": "signer",
          "type": "address"
        }
      ],
      "name": "OperationRevoked",
      "type": "event"
    },
    {
      "anonymous": false,
      "inputs": [
        {
          "indexed": true,
          "internalType": "uint256",
          "name": "operationId",
          "type": "uint256"
        },
        {
          "indexed": true,
          "internalType": "address",
          "name": "submitter",
          "type": "address"
        }
      ],
      "name": "OperationSubmitted",
      "type": "event"
    },
    {
      "anonymous": false,
      "inputs": [
        {
          "indexed": false,
          "internalType": "uint256",
          "name": "oldRequired",
          "type": "uint256"
        },
        {
          "indexed": false,
          "internalType": "uint256",
          "name": "newRequired",
          "type": "uint256"
        }
      ],
      "name": "RequiredSignaturesUpdated",
      "type": "event"
    },
    {
      "anonymous": false,
      "inputs": [
        {
          "indexed": true,
          "internalType": "address",
          "name": "signer",
          "type": "address"
        }
      ],
      "name": "SignerAdded",
      "type": "event"
    },
    {
      "anonymous": false,
      "inputs": [
        {
          "indexed": true,
          "internalType": "address",
          "name": "signer",
          "type": "address"
        }
      ],
      "name": "SignerRemoved",
      "type": "event"
    },
    {
      "inputs": [],
      "name": "HIGH_VALUE_THRESHOLD",
      "outputs": [
        {
          "internalType": "uint256",
          "name": "",
          "type": "uint256"
        }
      ],
      "stateMutability": "view",
      "type": "function"
    },
    {
      "inputs": [],
      "name": "TIME_LOCK_DURATION",
      "outputs": [
        {
          "internalType": "uint256",
          "name": "",
          "type": "uint256"
        }
      ],
      "stateMutability": "view",
      "type": "function"
    },
    {
      "inputs": [
        {
          "internalType": "address",
          "name": "wallet",
          "type": "address"
        }
      ],
      "name": "addInternalWallet",
      "outputs": [],
      "stateMutability": "nonpayable",
      "type": "function"
    },
    {
      "inputs": [
        {
          "internalType": "address",
          "name": "signer",
          "type": "address"
        }
      ],
      "name": "addSigner",
      "outputs": [],
      "stateMutability": "nonpayable",
      "type": "function"
    },
    {
      "inputs": [
        {
          "internalType": "uint256",
          "name": "operationId",
          "type": "uint256"
        }
      ],
      "name": "confirmOperation",
      "outputs": [],
      "stateMutability": "nonpayable",
      "type": "function"
    },
    {
      "inputs": [
        {
          "internalType": "uint256",
          "name": "operationId",
          "type": "uint256"
        }
      ],
      "name": "executeOperation",
      "outputs": [],
      "stateMutability": "nonpayable",
      "type": "function"
    },
    {
      "inputs": [],
      "name": "getInternalWalletCount",
      "outputs": [
        {
          "internalType": "uint256",
          "name": "",
          "type": "uint256"
        }
      ],
      "stateMutability": "view",
      "type": "function"
    },
    {
      "inputs": [
        {
          "internalType": "uint256",
          "name": "operationId",
          "type": "uint256"
        }
      ],
      "name": "getOperation",
      "outputs": [
        {
          "internalType": "address",
          "name": "target",
          "type": "address"
        },
        {
          "internalType": "bytes",
          "name": "data",
          "type": "bytes"
        },
        {
          "internalType": "uint256",
          "name": "value",
          "type": "uint256"
        },
        {
          "internalType": "uint256",
          "name": "confirmations",
          "type": "uint256"
        },
        {
          "internalType": "bool",
          "name": "executed",
          "type": "bool"
        },
        {
          "internalType": "uint256",
          "name": "timestamp",
          "type": "uint256"
        }
      ],
      "stateMutability": "view",
      "type": "function"
    },
    {
      "inputs": [],
      "name": "getSigners",
      "outputs": [
        {
          "internalType": "address[]",
          "name": "",
          "type": "address[]"
        }
      ],
      "stateMutability": "view",
      "type": "function"
    },
    {
      "inputs": [
        {
          "internalType": "uint256",
          "name": "operationId",
          "type": "uint256"
        },
        {
          "internalType": "address",
          "name": "signer",
          "type": "address"
        }
      ],
      "name": "hasConfirmed",
      "outputs": [
        {
          "internalType": "bool",
          "name": "",
          "type": "bool"
        }
      ],
      "stateMutability": "view",
      "type": "function"
    },
    {
      "inputs": [],
      "name": "internalWalletCount",
      "outputs": [
        {
          "internalType": "uint256",
          "name": "",
          "type": "uint256"
        }
      ],
      "stateMutability": "view",
      "type": "function"
    },
    {
      "inputs": [
        {
          "internalType": "address",
          "name": "wallet",
          "type": "address"
        }
      ],
      "name": "isInternalWallet",
      "outputs": [
        {
          "internalType": "bool",
          "name": "",
          "type": "bool"
        }
      ],
      "stateMutability": "view",
      "type": "function"
    },
    {
      "inputs": [
        {
          "internalType": "address",
          "name": "",
          "type": "address"
        }
      ],
      "name": "isSigner",
      "outputs": [
        {
          "internalType": "bool",
          "name": "",
          "type": "bool"
        }
      ],
      "stateMutability": "view",
      "type": "function"
    },
    {
      "inputs": [],
      "name": "operationCount",
      "outputs": [
        {
          "internalType": "uint256",
          "name": "",
          "type": "uint256"
        }
      ],
      "stateMutability": "view",
      "type": "function"
    },
    {
      "inputs": [
        {
          "internalType": "uint256",
          "name": "",
          "type": "uint256"
        }
      ],
      "name": "operations",
      "outputs": [
        {
          "internalType": "address",
          "name": "target",
          "type": "address"
        },
        {
          "internalType": "bytes",
          "name": "data",
          "type": "bytes"
        },
        {
          "internalType": "uint256",
          "name": "value",
          "type": "uint256"
        },
        {
          "internalType": "uint256",
          "name": "confirmations",
          "type": "uint256"
        },
        {
          "internalType": "bool",
          "name": "executed",
          "type": "bool"
        },
        {
          "internalType": "uint256",
          "name": "timestamp",
          "type": "uint256"
        }
      ],
      "stateMutability": "view",
      "type": "function"
    },
    {
      "inputs": [
        {
          "internalType": "address",
          "name": "wallet",
          "type": "address"
        }
      ],
      "name": "removeInternalWallet",
      "outputs": [],
      "stateMutability": "nonpayable",
      "type": "function"
    },
    {
      "inputs": [
        {
          "internalType": "address",
          "name": "signer",
          "type": "address"
        }
      ],
      "name": "removeSigner",
      "outputs": [],
      "stateMutability": "nonpayable",
      "type": "function"
    },
    {
      "inputs": [],
      "name": "requiredSignatures",
      "outputs": [
        {
          "internalType": "uint256",
          "name": "",
          "type": "uint256"
        }
      ],
      "stateMutability": "view",
      "type": "function"
    },
    {
      "inputs": [
        {
          "internalType": "bytes",
          "name": "data",
          "type": "bytes"
        }
      ],
      "name": "requiresTimeLock",
      "outputs": [
        {
          "internalType": "bool",
          "name": "",
          "type": "bool"
        }
      ],
      "stateMutability": "view",
      "type": "function"
    },
    {
      "inputs": [
        {
          "internalType": "uint256",
          "name": "operationId",
          "type": "uint256"
        }
      ],
      "name": "revokeConfirmation",
      "outputs": [],
      "stateMutability": "nonpayable",
      "type": "function"
    },
    {
      "inputs": [
        {
          "internalType": "uint256",
          "name": "",
          "type": "uint256"
        }
      ],
      "name": "signers",
      "outputs": [
        {
          "internalType": "address",
          "name": "",
          "type": "address"
        }
      ],
      "stateMutability": "view",
      "type": "function"
    },
    {
      "inputs": [
        {
          "internalType": "address",
          "name": "target",
          "type": "address"
        },
        {
          "internalType": "bytes",
          "name": "data",
          "type": "bytes"
        },
        {
          "internalType": "uint256",
          "name": "value",
          "type": "uint256"
        }
      ],
      "name": "submitOperation",
      "outputs": [
        {
          "internalType": "uint256",
          "name": "operationId",
          "type": "uint256"
        }
      ],
      "stateMutability": "nonpayable",
      "type": "function"
    },
    {
      "inputs": [
        {
          "internalType": "uint256",
          "name": "newRequiredSignatures",
          "type": "uint256"
        }
      ],
      "name": "updateRequiredSignatures",
      "outputs": [],
      "stateMutability": "nonpayable",
      "type": "function"
    },
    {
      "stateMutability": "payable",
      "type": "receive"
    }
  ],
  "bytecode": "0x608060405234801561001057600080fd5b50604051611c8e380380611c8e83398101604081905261002f91610214565b808251108061003c575080155b1561005a5760405163719feac760e01b815260040160405180910390fd5b60005b82518110156101d857600083828151811061007a5761007a6102ed565b6020026020010151905060006001600160a01b0316816001600160a01b0316036100eb5760405162461bcd60e51b815260206004820152601660248201527f496e76616c6964207369676e657220616464726573730000000000000000000060448201526064015b60405180910390fd5b6001600160a01b03811660009081526001602052604090205460ff16156101475760405162461bcd60e51b815260206004820152601060248201526f223ab83634b1b0ba329039b4b3b732b960811b60448201526064016100e2565b6001600160a01b0381166000818152600160208190526040808320805460ff191683179055825491820183558280527f290decd9548b62a8d60345a988386fc84ba6bc95484008f6362f93160ef3e56390910180546001600160a01b03191684179055517f47d1c22a25bb3a5d4e481b9b1e6944c2eade3181a0a20b495ed61d35b5323f249190a25060010161005d565b5060025550610303565b634e487b7160e01b600052604160045260246000fd5b80516001600160a01b038116811461020f57600080fd5b919050565b6000806040838503121561022757600080fd5b82516001600160401b0381111561023d57600080fd5b8301601f8101851361024e57600080fd5b80516001600160401b03811115610267576102676101e2565b604051600582901b90603f8201601f191681016001600160401b0381118282101715610295576102956101e2565b6040529182526020818401810192908101888411156102b357600080fd5b6020850194505b838510156102d9576102cb856101f8565b8152602094850194016102ba565b506020969096015195979596505050505050565b634e487b7160e01b600052603260045260246000fd5b61197c806103126000396000f3fe6080604052600436106101445760003560e01c80634c9a364b116100b65780639f338a051161006f5780639f338a05146103f7578063b2e9949d1461040d578063ca7b64bb1461042d578063eb12d61e1461044b578063f5bc44ca1461046b578063fc4ce3621461048b57600080fd5b80634c9a364b146103385780637df73e271461035857806380687781146103885780638d0680431461039f57806394cf795e146103b5578063969738b2146103d757600080fd5b8063202e392411610108578063202e3924146102555780632079fb9a1461028757806320ea8d86146102bf57806323d3c142146102df5780633179d5aa146103035780634b6259e61461032357600080fd5b806306d7dadd1461018557806308aff933146101d35780630d60432e146101f35780630e316ab7146102155780630e70306d1461023557600080fd5b366101805760405134815233907fbfe611b001dfcd411432f7bf0d79b82b4b2ee81511edac123a3403c357fb972a9060200160405180910390a2005b600080fd5b34801561019157600080fd5b506101be6101a03660046113f1565b6001600160a01b031660009081526005602052604090205460ff1690565b60405190151581526020015b60405180910390f35b3480156101df57600080fd5b506101be6101ee366004611413565b6104ab565b3480156101ff57600080fd5b5061021361020e36600461143f565b610509565b005b34801561022157600080fd5b506102136102303660046113f1565b610599565b34801561024157600080fd5b5061021361025036600461143f565b610794565b34801561026157600080fd5b5061027561027036600461143f565b610829565b6040516101ca9695949392919061149e565b34801561029357600080fd5b506102a76102a236600461143f565b61093a565b6040516001600160a01b0390911681526020016101ca565b3480156102cb57600080fd5b506102136102da36600461143f565b610964565b3480156102eb57600080fd5b506102f560045481565b6040519081526020016101ca565b34801561030f57600080fd5b506101be61031e36600461158c565b610a8b565b34801561032f57600080fd5b506006546102f5565b34801561034457600080fd5b506102136103533660046113f1565b610b3f565b34801561036457600080fd5b506101be6103733660046113f1565b60016020526000908152604090205460ff1681565b34801561039457600080fd5b506102f56201518081565b3480156103ab57600080fd5b506102f560025481565b3480156103c157600080fd5b506103ca610c92565b6040516101ca91906115c9565b3480156103e357600080fd5b506102136103f23660046113f1565b610cf4565b34801561040357600080fd5b506102f560065481565b34801561041957600080fd5b5061027561042836600461143f565b610de1565b34801561043957600080fd5b506102f569d3c21bcecceda100000081565b34801561045757600080fd5b506102136104663660046113f1565b610eaf565b34801561047757600080fd5b506102f5610486366004611615565b610f93565b34801561049757600080fd5b506102136104a636600461143f565b61105b565b60008260045481106104d85760405162461bcd60e51b81526004016104cf9061166d565b60405180910390fd5b505060009182526003602090815260408084206001600160a01b039390931684526006909201905290205460ff1690565b3330146105285760405162461bcd60e51b81526004016104cf906116a4565b801580610536575060005481115b156105545760405163719feac760e01b815260040160405180910390fd5b600280549082905560408051828152602081018490527fe10a705edb4af55d916591ab3ae6d73d13195159890a14a90b10ae1117f9ea37910160405180910390a15050565b3330146105b85760405162461bcd60e51b81526004016104cf906116a4565b6002546000546105ca906001906116ef565b10156106105760405162461bcd60e51b8152602060048201526015602482015274576f756c6420627265616b206d756c74692d73696760581b60448201526064016104cf565b6001600160a01b03811660009081526001602052604090205460ff166106495760405163da0357f760e01b815260040160405180910390fd5b6001600160a01b0381166000908152600160205260408120805460ff191690555b60005481101561075c57816001600160a01b03166000828154811061069157610691611708565b6000918252602090912001546001600160a01b03160361075457600080546106bb906001906116ef565b815481106106cb576106cb611708565b600091825260208220015481546001600160a01b039091169190839081106106f5576106f5611708565b6000918252602082200180546001600160a01b0319166001600160a01b03939093169290921790915580548061072d5761072d61171e565b600082815260209020810160001990810180546001600160a01b031916905501905561075c565b60010161066a565b506040516001600160a01b038216907f3525e22824a8a7df2c9a6029941c824cf95b6447f1e13d5128fd3826d35afe8b90600090a250565b3360009081526001602052604090205460ff166107c45760405163da0357f760e01b815260040160405180910390fd5b8060045481106107e65760405162461bcd60e51b81526004016104cf9061166d565b600082815260036020526040902060040154829060ff161561081b57604051632e108c6960e21b815260040160405180910390fd5b6108248361119c565b505050565b600060606000806000808660045481106108555760405162461bcd60e51b81526004016104cf9061166d565b600088815260036020819052604090912080546002820154928201546004830154600584015460018501805495966001600160a01b03909516959094939260ff16919085906108a390611734565b80601f01602080910402602001604051908101604052809291908181526020018280546108cf90611734565b801561091c5780601f106108f15761010080835404028352916020019161091c565b820191906000526020600020905b8154815290600101906020018083116108ff57829003601f168201915b50505050509450975097509750975097509750505091939550919395565b6000818154811061094a57600080fd5b6000918252602090912001546001600160a01b0316905081565b3360009081526001602052604090205460ff166109945760405163da0357f760e01b815260040160405180910390fd5b8060045481106109b65760405162461bcd60e51b81526004016104cf9061166d565b600082815260036020526040902060040154829060ff16156109eb57604051632e108c6960e21b815260040160405180910390fd5b6000838152600360209081526040808320338452600681019092529091205460ff16610a2a57604051637238834d60e11b815260040160405180910390fd5b3360009081526006820160205260408120805460ff1916905560038201805491610a538361176e565b9091555050604051339085907f648f594408894fb5f78bb9ffc3fd6fe4562302666b063288188377f94613fc8f90600090a350505050565b6000600482511015610a9f57506000919050565b60208201516001600160e01b031981166323b872dd60e01b1480610ad357506001600160e01b0319811663295102ff60e21b145b15610b3657606483511015610aeb5750600092915050565b604483015160648401516001600160a01b03821660009081526005602052604090205460ff1615610b2157506000949350505050565b69d3c21bcecceda10000001115949350505050565b50600092915050565b333014610b5e5760405162461bcd60e51b81526004016104cf906116a4565b6001600160a01b038116610bad5760405162461bcd60e51b8152602060048201526016602482015275496e76616c69642077616c6c6574206164647265737360501b60448201526064016104cf565b6001600160a01b03811660009081526005602052604090205460ff1615610c165760405162461bcd60e51b815260206004820152601960248201527f57616c6c657420616c726561647920726567697374657265640000000000000060448201526064016104cf565b6001600160a01b0381166000908152600560205260408120805460ff191660011790556006805491610c4783611785565b9190505550806001600160a01b03167f2e2d34c0b66efd4a6377c08fd338fdc46aca7af56799ffde0d5d0ae948f140a242604051610c8791815260200190565b60405180910390a250565b60606000805480602002602001604051908101604052809291908181526020018280548015610cea57602002820191906000526020600020905b81546001600160a01b03168152600190910190602001808311610ccc575b5050505050905090565b333014610d135760405162461bcd60e51b81526004016104cf906116a4565b6001600160a01b03811660009081526005602052604090205460ff16610d735760405162461bcd60e51b815260206004820152601560248201527415d85b1b195d081b9bdd081c9959da5cdd195c9959605a1b60448201526064016104cf565b6001600160a01b0381166000908152600560205260408120805460ff191690556006805491610da18361176e565b9190505550806001600160a01b03167f805daf2b358baf874ccfe377d476c79aefe630648a541325b8685c5cb5d59bdc42604051610c8791815260200190565b600360205260009081526040902080546001820180546001600160a01b039092169291610e0d90611734565b80601f0160208091040260200160405190810160405280929190818152602001828054610e3990611734565b8015610e865780601f10610e5b57610100808354040283529160200191610e86565b820191906000526020600020905b815481529060010190602001808311610e6957829003601f168201915b5050506002840154600385015460048601546005909601549495919490935060ff909116915086565b333014610ece5760405162461bcd60e51b81526004016104cf906116a4565b6001600160a01b03811660009081526001602052604090205460ff1615610f0857604051631985f4ab60e31b815260040160405180910390fd5b6001600160a01b0381166000818152600160208190526040808320805460ff191683179055825491820183558280527f290decd9548b62a8d60345a988386fc84ba6bc95484008f6362f93160ef3e56390910180546001600160a01b03191684179055517f47d1c22a25bb3a5d4e481b9b1e6944c2eade3181a0a20b495ed61d35b5323f249190a250565b3360009081526001602052604081205460ff16610fc35760405163da0357f760e01b815260040160405180910390fd5b60048054906000610fd383611785565b90915550600081815260036020526040902080546001600160a01b0319166001600160a01b0387161781559091506001810161100f85826117ec565b5060028101839055426005820155604051339083907fd33d2f11d187f3944f69d46c62046264a6e0e07aa0821108fddcb637c26b956090600090a36110538261105b565b509392505050565b3360009081526001602052604090205460ff1661108b5760405163da0357f760e01b815260040160405180910390fd5b8060045481106110ad5760405162461bcd60e51b81526004016104cf9061166d565b600082815260036020526040902060040154829060ff16156110e257604051632e108c6960e21b815260040160405180910390fd5b6000838152600360209081526040808320338452600681019092529091205460ff161561112257604051635f8a9c0b60e01b815260040160405180910390fd5b3360009081526006820160205260408120805460ff191660011790556003820180549161114e83611785565b9091555050604051339085907f49b95ce38883cadd696f6aba877a58458fccb95b815ab048952aa16904118c5d90600090a3600254816003015410611196576111968461119c565b50505050565b600081815260036020526040812090805b600054811015611212578260060160008083815481106111cf576111cf611708565b60009182526020808320909101546001600160a01b0316835282019290925260400190205460ff161561120a578161120681611785565b9250505b6001016111ad565b506002548110156112365760405163e16db4b360e01b815260040160405180910390fd5b6112cb82600101805461124890611734565b80601f016020809104026020016040519081016040528092919081815260200182805461127490611734565b80156112c15780601f10611296576101008083540402835291602001916112c1565b820191906000526020600020905b8154815290600101906020018083116112a457829003601f168201915b5050505050610a8b565b15611303576201518082600501546112e391906118ab565b4210156113035760405163191f4d1b60e31b815260040160405180910390fd5b60048201805460ff191660019081179091558254600284015460405160009384936001600160a01b0316929161133b918801906118be565b60006040518083038185875af1925050503d8060008114611378576040519150601f19603f3d011682016040523d82523d6000602084013e61137d565b606091505b50915091508181906113a25760405162461bcd60e51b81526004016104cf9190611933565b5060405185907f0e71fde518036742a4c067068719d7f9e26519ea3aef1213ae9098439bbb38de90600090a25050505050565b80356001600160a01b03811681146113ec57600080fd5b919050565b60006020828403121561140357600080fd5b61140c826113d5565b9392505050565b6000806040838503121561142657600080fd5b82359150611436602084016113d5565b90509250929050565b60006020828403121561145157600080fd5b5035919050565b6000815180845260005b8181101561147e57602081850181015186830182015201611462565b506000602082860101526020601f19601f83011685010191505092915050565b6001600160a01b038716815260c0602082018190526000906114c290830188611458565b6040830196909652506060810193909352901515608083015260a09091015292915050565b634e487b7160e01b600052604160045260246000fd5b600082601f83011261150e57600080fd5b813567ffffffffffffffff811115611528576115286114e7565b604051601f8201601f19908116603f0116810167ffffffffffffffff81118282101715611557576115576114e7565b60405281815283820160200185101561156f57600080fd5b816020850160208301376000918101602001919091529392505050565b60006020828403121561159e57600080fd5b813567ffffffffffffffff8111156115b557600080fd5b6115c1848285016114fd565b949350505050565b602080825282518282018190526000918401906040840190835b8181101561160a5783516001600160a01b03168352602093840193909201916001016115e3565b509095945050505050565b60008060006060848603121561162a57600080fd5b611633846113d5565b9250602084013567ffffffffffffffff81111561164f57600080fd5b61165b868287016114fd565b93969395505050506040919091013590565b60208082526018908201527f4f7065726174696f6e20646f6573206e6f742065786973740000000000000000604082015260600190565b6020808252818101527f4d7573742062652063616c6c6564207468726f756768206d756c74692d736967604082015260600190565b634e487b7160e01b600052601160045260246000fd5b81810381811115611702576117026116d9565b92915050565b634e487b7160e01b600052603260045260246000fd5b634e487b7160e01b600052603160045260246000fd5b600181811c9082168061174857607f821691505b60208210810361176857634e487b7160e01b600052602260045260246000fd5b50919050565b60008161177d5761177d6116d9565b506000190190565b600060018201611797576117976116d9565b5060010190565b601f82111561082457806000526020600020601f840160051c810160208510156117c55750805b601f840160051c820191505b818110156117e557600081556001016117d1565b5050505050565b815167ffffffffffffffff811115611806576118066114e7565b61181a816118148454611734565b8461179e565b6020601f82116001811461184e57600083156118365750848201515b600019600385901b1c1916600184901b1784556117e5565b600084815260208120601f198516915b8281101561187e578785015182556020948501946001909201910161185e565b508482101561189c5786840151600019600387901b60f8161c191681555b50505050600190811b01905550565b80820180821115611702576117026116d9565b60008083546118cc81611734565b6001821680156118e357600181146118f857611928565b60ff1983168652811515820286019350611928565b86600052602060002060005b8381101561192057815488820152600190910190602001611904565b505081860193505b509195945050505050565b60208152600061140c602083018461145856fea2646970667358221220e5d28294c37211761b3558ff6555b35db843ed351a989b70b42fb3e57fb61e9464736f6c634300081b0033",
  "linkReferences": {},
  "deployedLinkReferences": {}
}