{
  "_format": "hh-sol-artifact-1",
  "contractName": "RTAProxy",
  "sourceName": "contracts/RTAProxy.sol",
  "abi": [
    {
      "inputs": [
        {
          "internalType": "address[]",
          "name": "_signers",
          "type": "address[]"
        },
        {
          "internalType": "uint256",
          "name": "_requiredSignatures",
          "type": "uint256"
        }
      ],
      "stateMutability": "nonpayable",
      "type": "constructor"
    },
    {
      "inputs": [],
      "name": "AlreadyASigner",
      "type": "error"
    },
    {
      "inputs": [],
      "name": "AlreadyConfirmed",
      "type": "error"
    },
    {
      "inputs": [],
      "name": "InsufficientConfirmations",
      "type": "error"
    },
    {
      "inputs": [],
      "name": "InvalidSignerCount",
      "type": "error"
    },
    {
      "inputs": [],
      "name": "NotASigner",
      "type": "error"
    },
    {
      "inputs": [],
      "name": "NotConfirmed",
      "type": "error"
    },
    {
      "inputs": [],
      "name": "OperationAlreadyExecuted",
      "type": "error"
    },
    {
      "inputs": [],
      "name": "TimeLockNotExpired",
      "type": "error"
    },
    {
      "anonymous": false,
      "inputs": [
        {
          "indexed": true,
          "internalType": "uint256",
          "name": "operationId",
          "type": "uint256"
        },
        {
          "indexed": true,
          "internalType": "address",
          "name": "signer",
          "type": "address"
        }
      ],
      "name": "OperationConfirmed",
      "type": "event"
    },
    {
      "anonymous": false,
      "inputs": [
        {
          "indexed": true,
          "internalType": "uint256",
          "name": "operationId",
          "type": "uint256"
        }
      ],
      "name": "OperationExecuted",
      "type": "event"
    },
    {
      "anonymous": false,
      "inputs": [
        {
          "indexed": true,
          "internalType": "uint256",
          "name": "operationId",
          "type": "uint256"
        },
        {
          "indexed": true,
          "internalType": "address",
          "name": "signer",
          "type": "address"
        }
      ],
      "name": "OperationRevoked",
      "type": "event"
    },
    {
      "anonymous": false,
      "inputs": [
        {
          "indexed": true,
          "internalType": "uint256",
          "name": "operationId",
          "type": "uint256"
        },
        {
          "indexed": true,
          "internalType": "address",
          "name": "submitter",
          "type": "address"
        }
      ],
      "name": "OperationSubmitted",
      "type": "event"
    },
    {
      "anonymous": false,
      "inputs": [
        {
          "indexed": false,
          "internalType": "uint256",
          "name": "oldRequired",
          "type": "uint256"
        },
        {
          "indexed": false,
          "internalType": "uint256",
          "name": "newRequired",
          "type": "uint256"
        }
      ],
      "name": "RequiredSignaturesUpdated",
      "type": "event"
    },
    {
      "anonymous": false,
      "inputs": [
        {
          "indexed": true,
          "internalType": "address",
          "name": "signer",
          "type": "address"
        }
      ],
      "name": "SignerAdded",
      "type": "event"
    },
    {
      "anonymous": false,
      "inputs": [
        {
          "indexed": true,
          "internalType": "address",
          "name": "signer",
          "type": "address"
        }
      ],
      "name": "SignerRemoved",
      "type": "event"
    },
    {
      "inputs": [],
      "name": "HIGH_VALUE_THRESHOLD",
      "outputs": [
        {
          "internalType": "uint256",
          "name": "",
          "type": "uint256"
        }
      ],
      "stateMutability": "view",
      "type": "function"
    },
    {
      "inputs": [],
      "name": "TIME_LOCK_DURATION",
      "outputs": [
        {
          "internalType": "uint256",
          "name": "",
          "type": "uint256"
        }
      ],
      "stateMutability": "view",
      "type": "function"
    },
    {
      "inputs": [
        {
          "internalType": "address",
          "name": "signer",
          "type": "address"
        }
      ],
      "name": "addSigner",
      "outputs": [],
      "stateMutability": "nonpayable",
      "type": "function"
    },
    {
      "inputs": [
        {
          "internalType": "uint256",
          "name": "operationId",
          "type": "uint256"
        }
      ],
      "name": "confirmOperation",
      "outputs": [],
      "stateMutability": "nonpayable",
      "type": "function"
    },
    {
      "inputs": [
        {
          "internalType": "uint256",
          "name": "operationId",
          "type": "uint256"
        }
      ],
      "name": "executeOperation",
      "outputs": [],
      "stateMutability": "nonpayable",
      "type": "function"
    },
    {
      "inputs": [
        {
          "internalType": "uint256",
          "name": "operationId",
          "type": "uint256"
        }
      ],
      "name": "getOperation",
      "outputs": [
        {
          "internalType": "address",
          "name": "target",
          "type": "address"
        },
        {
          "internalType": "bytes",
          "name": "data",
          "type": "bytes"
        },
        {
          "internalType": "uint256",
          "name": "value",
          "type": "uint256"
        },
        {
          "internalType": "uint256",
          "name": "confirmations",
          "type": "uint256"
        },
        {
          "internalType": "bool",
          "name": "executed",
          "type": "bool"
        },
        {
          "internalType": "uint256",
          "name": "timestamp",
          "type": "uint256"
        }
      ],
      "stateMutability": "view",
      "type": "function"
    },
    {
      "inputs": [],
      "name": "getSigners",
      "outputs": [
        {
          "internalType": "address[]",
          "name": "",
          "type": "address[]"
        }
      ],
      "stateMutability": "view",
      "type": "function"
    },
    {
      "inputs": [
        {
          "internalType": "uint256",
          "name": "operationId",
          "type": "uint256"
        },
        {
          "internalType": "address",
          "name": "signer",
          "type": "address"
        }
      ],
      "name": "hasConfirmed",
      "outputs": [
        {
          "internalType": "bool",
          "name": "",
          "type": "bool"
        }
      ],
      "stateMutability": "view",
      "type": "function"
    },
    {
      "inputs": [
        {
          "internalType": "address",
          "name": "",
          "type": "address"
        }
      ],
      "name": "isSigner",
      "outputs": [
        {
          "internalType": "bool",
          "name": "",
          "type": "bool"
        }
      ],
      "stateMutability": "view",
      "type": "function"
    },
    {
      "inputs": [],
      "name": "operationCount",
      "outputs": [
        {
          "internalType": "uint256",
          "name": "",
          "type": "uint256"
        }
      ],
      "stateMutability": "view",
      "type": "function"
    },
    {
      "inputs": [
        {
          "internalType": "uint256",
          "name": "",
          "type": "uint256"
        }
      ],
      "name": "operations",
      "outputs": [
        {
          "internalType": "address",
          "name": "target",
          "type": "address"
        },
        {
          "internalType": "bytes",
          "name": "data",
          "type": "bytes"
        },
        {
          "internalType": "uint256",
          "name": "value",
          "type": "uint256"
        },
        {
          "internalType": "uint256",
          "name": "confirmations",
          "type": "uint256"
        },
        {
          "internalType": "bool",
          "name": "executed",
          "type": "bool"
        },
        {
          "internalType": "uint256",
          "name": "timestamp",
          "type": "uint256"
        }
      ],
      "stateMutability": "view",
      "type": "function"
    },
    {
      "inputs": [
        {
          "internalType": "address",
          "name": "signer",
          "type": "address"
        }
      ],
      "name": "removeSigner",
      "outputs": [],
      "stateMutability": "nonpayable",
      "type": "function"
    },
    {
      "inputs": [],
      "name": "requiredSignatures",
      "outputs": [
        {
          "internalType": "uint256",
          "name": "",
          "type": "uint256"
        }
      ],
      "stateMutability": "view",
      "type": "function"
    },
    {
      "inputs": [
        {
          "internalType": "bytes",
          "name": "data",
          "type": "bytes"
        }
      ],
      "name": "requiresTimeLock",
      "outputs": [
        {
          "internalType": "bool",
          "name": "",
          "type": "bool"
        }
      ],
      "stateMutability": "pure",
      "type": "function"
    },
    {
      "inputs": [
        {
          "internalType": "uint256",
          "name": "operationId",
          "type": "uint256"
        }
      ],
      "name": "revokeConfirmation",
      "outputs": [],
      "stateMutability": "nonpayable",
      "type": "function"
    },
    {
      "inputs": [
        {
          "internalType": "uint256",
          "name": "",
          "type": "uint256"
        }
      ],
      "name": "signers",
      "outputs": [
        {
          "internalType": "address",
          "name": "",
          "type": "address"
        }
      ],
      "stateMutability": "view",
      "type": "function"
    },
    {
      "inputs": [
        {
          "internalType": "address",
          "name": "target",
          "type": "address"
        },
        {
          "internalType": "bytes",
          "name": "data",
          "type": "bytes"
        },
        {
          "internalType": "uint256",
          "name": "value",
          "type": "uint256"
        }
      ],
      "name": "submitOperation",
      "outputs": [
        {
          "internalType": "uint256",
          "name": "operationId",
          "type": "uint256"
        }
      ],
      "stateMutability": "nonpayable",
      "type": "function"
    },
    {
      "inputs": [
        {
          "internalType": "uint256",
          "name": "newRequiredSignatures",
          "type": "uint256"
        }
      ],
      "name": "updateRequiredSignatures",
      "outputs": [],
      "stateMutability": "nonpayable",
      "type": "function"
    }
  ],
  "bytecode": "0x608060405234801561001057600080fd5b5060405161182138038061182183398101604081905261002f91610214565b808251108061003c575080155b1561005a5760405163719feac760e01b815260040160405180910390fd5b60005b82518110156101d857600083828151811061007a5761007a6102ed565b6020026020010151905060006001600160a01b0316816001600160a01b0316036100eb5760405162461bcd60e51b815260206004820152601660248201527f496e76616c6964207369676e657220616464726573730000000000000000000060448201526064015b60405180910390fd5b6001600160a01b03811660009081526001602052604090205460ff16156101475760405162461bcd60e51b815260206004820152601060248201526f223ab83634b1b0ba329039b4b3b732b960811b60448201526064016100e2565b6001600160a01b0381166000818152600160208190526040808320805460ff191683179055825491820183558280527f290decd9548b62a8d60345a988386fc84ba6bc95484008f6362f93160ef3e56390910180546001600160a01b03191684179055517f47d1c22a25bb3a5d4e481b9b1e6944c2eade3181a0a20b495ed61d35b5323f249190a25060010161005d565b5060025550610303565b634e487b7160e01b600052604160045260246000fd5b80516001600160a01b038116811461020f57600080fd5b919050565b6000806040838503121561022757600080fd5b82516001600160401b0381111561023d57600080fd5b8301601f8101851361024e57600080fd5b80516001600160401b03811115610267576102676101e2565b604051600582901b90603f8201601f191681016001600160401b0381118282101715610295576102956101e2565b6040529182526020818401810192908101888411156102b357600080fd5b6020850194505b838510156102d9576102cb856101f8565b8152602094850194016102ba565b506020969096015195979596505050505050565b634e487b7160e01b600052603260045260246000fd5b61150f806103126000396000f3fe608060405234801561001057600080fd5b50600436106101165760003560e01c80637df73e27116100a2578063b2e9949d11610071578063b2e9949d14610256578063ca7b64bb14610269578063eb12d61e1461027a578063f5bc44ca1461028d578063fc4ce362146102a057600080fd5b80637df73e271461020b578063806877811461022e5780638d0680431461023857806394cf795e1461024157600080fd5b8063202e3924116100e9578063202e39241461017e5780632079fb9a146101a357806320ea8d86146101ce57806323d3c142146101e15780633179d5aa146101f857600080fd5b806308aff9331461011b5780630d60432e146101435780630e316ab7146101585780630e70306d1461016b575b600080fd5b61012e610129366004610f84565b6102b3565b60405190151581526020015b60405180910390f35b610156610151366004610fb0565b610311565b005b610156610166366004610fc9565b6103a1565b610156610179366004610fb0565b61059c565b61019161018c366004610fb0565b610631565b60405161013a96959493929190611031565b6101b66101b1366004610fb0565b610742565b6040516001600160a01b03909116815260200161013a565b6101566101dc366004610fb0565b61076c565b6101ea60045481565b60405190815260200161013a565b61012e61020636600461111f565b610893565b61012e610219366004610fc9565b60016020526000908152604090205460ff1681565b6101ea6201518081565b6101ea60025481565b610249610912565b60405161013a919061115c565b610191610264366004610fb0565b610974565b6101ea69d3c21bcecceda100000081565b610156610288366004610fc9565b610a42565b6101ea61029b3660046111a8565b610b26565b6101566102ae366004610fb0565b610bee565b60008260045481106102e05760405162461bcd60e51b81526004016102d790611200565b60405180910390fd5b505060009182526003602090815260408084206001600160a01b039390931684526006909201905290205460ff1690565b3330146103305760405162461bcd60e51b81526004016102d790611237565b80158061033e575060005481115b1561035c5760405163719feac760e01b815260040160405180910390fd5b600280549082905560408051828152602081018490527fe10a705edb4af55d916591ab3ae6d73d13195159890a14a90b10ae1117f9ea37910160405180910390a15050565b3330146103c05760405162461bcd60e51b81526004016102d790611237565b6002546000546103d290600190611282565b10156104185760405162461bcd60e51b8152602060048201526015602482015274576f756c6420627265616b206d756c74692d73696760581b60448201526064016102d7565b6001600160a01b03811660009081526001602052604090205460ff166104515760405163da0357f760e01b815260040160405180910390fd5b6001600160a01b0381166000908152600160205260408120805460ff191690555b60005481101561056457816001600160a01b0316600082815481106104995761049961129b565b6000918252602090912001546001600160a01b03160361055c57600080546104c390600190611282565b815481106104d3576104d361129b565b600091825260208220015481546001600160a01b039091169190839081106104fd576104fd61129b565b6000918252602082200180546001600160a01b0319166001600160a01b039390931692909217909155805480610535576105356112b1565b600082815260209020810160001990810180546001600160a01b0319169055019055610564565b600101610472565b506040516001600160a01b038216907f3525e22824a8a7df2c9a6029941c824cf95b6447f1e13d5128fd3826d35afe8b90600090a250565b3360009081526001602052604090205460ff166105cc5760405163da0357f760e01b815260040160405180910390fd5b8060045481106105ee5760405162461bcd60e51b81526004016102d790611200565b600082815260036020526040902060040154829060ff161561062357604051632e108c6960e21b815260040160405180910390fd5b61062c83610d2f565b505050565b6000606060008060008086600454811061065d5760405162461bcd60e51b81526004016102d790611200565b600088815260036020819052604090912080546002820154928201546004830154600584015460018501805495966001600160a01b03909516959094939260ff16919085906106ab906112c7565b80601f01602080910402602001604051908101604052809291908181526020018280546106d7906112c7565b80156107245780601f106106f957610100808354040283529160200191610724565b820191906000526020600020905b81548152906001019060200180831161070757829003601f168201915b50505050509450975097509750975097509750505091939550919395565b6000818154811061075257600080fd5b6000918252602090912001546001600160a01b0316905081565b3360009081526001602052604090205460ff1661079c5760405163da0357f760e01b815260040160405180910390fd5b8060045481106107be5760405162461bcd60e51b81526004016102d790611200565b600082815260036020526040902060040154829060ff16156107f357604051632e108c6960e21b815260040160405180910390fd5b6000838152600360209081526040808320338452600681019092529091205460ff1661083257604051637238834d60e11b815260040160405180910390fd5b3360009081526006820160205260408120805460ff191690556003820180549161085b83611301565b9091555050604051339085907f648f594408894fb5f78bb9ffc3fd6fe4562302666b063288188377f94613fc8f90600090a350505050565b60006004825110156108a757506000919050565b60208201516001600160e01b031981166323b872dd60e01b14806108db57506001600160e01b0319811663295102ff60e21b145b15610909576064835110156108f35750600092915050565b50506064015169d3c21bcecceda1000000111590565b50600092915050565b6060600080548060200260200160405190810160405280929190818152602001828054801561096a57602002820191906000526020600020905b81546001600160a01b0316815260019091019060200180831161094c575b5050505050905090565b600360205260009081526040902080546001820180546001600160a01b0390921692916109a0906112c7565b80601f01602080910402602001604051908101604052809291908181526020018280546109cc906112c7565b8015610a195780601f106109ee57610100808354040283529160200191610a19565b820191906000526020600020905b8154815290600101906020018083116109fc57829003601f168201915b5050506002840154600385015460048601546005909601549495919490935060ff909116915086565b333014610a615760405162461bcd60e51b81526004016102d790611237565b6001600160a01b03811660009081526001602052604090205460ff1615610a9b57604051631985f4ab60e31b815260040160405180910390fd5b6001600160a01b0381166000818152600160208190526040808320805460ff191683179055825491820183558280527f290decd9548b62a8d60345a988386fc84ba6bc95484008f6362f93160ef3e56390910180546001600160a01b03191684179055517f47d1c22a25bb3a5d4e481b9b1e6944c2eade3181a0a20b495ed61d35b5323f249190a250565b3360009081526001602052604081205460ff16610b565760405163da0357f760e01b815260040160405180910390fd5b60048054906000610b6683611318565b90915550600081815260036020526040902080546001600160a01b0319166001600160a01b03871617815590915060018101610ba2858261137f565b5060028101839055426005820155604051339083907fd33d2f11d187f3944f69d46c62046264a6e0e07aa0821108fddcb637c26b956090600090a3610be682610bee565b509392505050565b3360009081526001602052604090205460ff16610c1e5760405163da0357f760e01b815260040160405180910390fd5b806004548110610c405760405162461bcd60e51b81526004016102d790611200565b600082815260036020526040902060040154829060ff1615610c7557604051632e108c6960e21b815260040160405180910390fd5b6000838152600360209081526040808320338452600681019092529091205460ff1615610cb557604051635f8a9c0b60e01b815260040160405180910390fd5b3360009081526006820160205260408120805460ff1916600117905560038201805491610ce183611318565b9091555050604051339085907f49b95ce38883cadd696f6aba877a58458fccb95b815ab048952aa16904118c5d90600090a3600254816003015410610d2957610d2984610d2f565b50505050565b600081815260036020526040812090805b600054811015610da557826006016000808381548110610d6257610d6261129b565b60009182526020808320909101546001600160a01b0316835282019290925260400190205460ff1615610d9d5781610d9981611318565b9250505b600101610d40565b50600254811015610dc95760405163e16db4b360e01b815260040160405180910390fd5b610e5e826001018054610ddb906112c7565b80601f0160208091040260200160405190810160405280929190818152602001828054610e07906112c7565b8015610e545780601f10610e2957610100808354040283529160200191610e54565b820191906000526020600020905b815481529060010190602001808311610e3757829003601f168201915b5050505050610893565b15610e9657620151808260050154610e76919061143e565b421015610e965760405163191f4d1b60e31b815260040160405180910390fd5b60048201805460ff191660019081179091558254600284015460405160009384936001600160a01b03169291610ece91880190611451565b60006040518083038185875af1925050503d8060008114610f0b576040519150601f19603f3d011682016040523d82523d6000602084013e610f10565b606091505b5091509150818190610f355760405162461bcd60e51b81526004016102d791906114c6565b5060405185907f0e71fde518036742a4c067068719d7f9e26519ea3aef1213ae9098439bbb38de90600090a25050505050565b80356001600160a01b0381168114610f7f57600080fd5b919050565b60008060408385031215610f9757600080fd5b82359150610fa760208401610f68565b90509250929050565b600060208284031215610fc257600080fd5b5035919050565b600060208284031215610fdb57600080fd5b610fe482610f68565b9392505050565b6000815180845260005b8181101561101157602081850181015186830182015201610ff5565b506000602082860101526020601f19601f83011685010191505092915050565b6001600160a01b038716815260c06020820181905260009061105590830188610feb565b6040830196909652506060810193909352901515608083015260a09091015292915050565b634e487b7160e01b600052604160045260246000fd5b600082601f8301126110a157600080fd5b813567ffffffffffffffff8111156110bb576110bb61107a565b604051601f8201601f19908116603f0116810167ffffffffffffffff811182821017156110ea576110ea61107a565b60405281815283820160200185101561110257600080fd5b816020850160208301376000918101602001919091529392505050565b60006020828403121561113157600080fd5b813567ffffffffffffffff81111561114857600080fd5b61115484828501611090565b949350505050565b602080825282518282018190526000918401906040840190835b8181101561119d5783516001600160a01b0316835260209384019390920191600101611176565b509095945050505050565b6000806000606084860312156111bd57600080fd5b6111c684610f68565b9250602084013567ffffffffffffffff8111156111e257600080fd5b6111ee86828701611090565b93969395505050506040919091013590565b60208082526018908201527f4f7065726174696f6e20646f6573206e6f742065786973740000000000000000604082015260600190565b6020808252818101527f4d7573742062652063616c6c6564207468726f756768206d756c74692d736967604082015260600190565b634e487b7160e01b600052601160045260246000fd5b818103818111156112955761129561126c565b92915050565b634e487b7160e01b600052603260045260246000fd5b634e487b7160e01b600052603160045260246000fd5b600181811c908216806112db57607f821691505b6020821081036112fb57634e487b7160e01b600052602260045260246000fd5b50919050565b6000816113105761131061126c565b506000190190565b60006001820161132a5761132a61126c565b5060010190565b601f82111561062c57806000526020600020601f840160051c810160208510156113585750805b601f840160051c820191505b818110156113785760008155600101611364565b5050505050565b815167ffffffffffffffff8111156113995761139961107a565b6113ad816113a784546112c7565b84611331565b6020601f8211600181146113e157600083156113c95750848201515b600019600385901b1c1916600184901b178455611378565b600084815260208120601f198516915b8281101561141157878501518255602094850194600190920191016113f1565b508482101561142f5786840151600019600387901b60f8161c191681555b50505050600190811b01905550565b808201808211156112955761129561126c565b600080835461145f816112c7565b600182168015611476576001811461148b576114bb565b60ff19831686528115158202860193506114bb565b86600052602060002060005b838110156114b357815488820152600190910190602001611497565b505081860193505b509195945050505050565b602081526000610fe46020830184610feb56fea26469706673582212208d971bc61bb9ddd316613c578d0ebde829a0ef0e555870bbf692b4a0de6848d464736f6c634300081b0033",
  "linkReferences": {},
  "deployedLinkReferences": {}
}