{
  "_format": "hh-sol-artifact-1",
  "contractName": "RTAProxyUpgradeable",
  "sourceName": "contracts/upgradeable/RTAProxyUpgradeable.sol",
  "abi": [
    {
      "inputs": [],
      "stateMutability": "nonpayable",
      "type": "constructor"
    },
    {
      "inputs": [
        {
          "internalType": "address",
          "name": "target",
          "type": "address"
        }
      ],
      "name": "AddressEmptyCode",
      "type": "error"
    },
    {
      "inputs": [],
      "name": "AlreadyASigner",
      "type": "error"
    },
    {
      "inputs": [],
      "name": "AlreadyConfirmed",
      "type": "error"
    },
    {
      "inputs": [
        {
          "internalType": "address",
          "name": "implementation",
          "type": "address"
        }
      ],
      "name": "ERC1967InvalidImplementation",
      "type": "error"
    },
    {
      "inputs": [],
      "name": "ERC1967NonPayable",
      "type": "error"
    },
    {
      "inputs": [],
      "name": "FailedCall",
      "type": "error"
    },
    {
      "inputs": [],
      "name": "InsufficientConfirmations",
      "type": "error"
    },
    {
      "inputs": [],
      "name": "InvalidInitialization",
      "type": "error"
    },
    {
      "inputs": [],
      "name": "InvalidSignerCount",
      "type": "error"
    },
    {
      "inputs": [],
      "name": "NotASigner",
      "type": "error"
    },
    {
      "inputs": [],
      "name": "NotConfirmed",
      "type": "error"
    },
    {
      "inputs": [],
      "name": "NotInitializing",
      "type": "error"
    },
    {
      "inputs": [],
      "name": "OperationAlreadyExecuted",
      "type": "error"
    },
    {
      "inputs": [],
      "name": "TimeLockNotExpired",
      "type": "error"
    },
    {
      "inputs": [],
      "name": "UUPSUnauthorizedCallContext",
      "type": "error"
    },
    {
      "inputs": [
        {
          "internalType": "bytes32",
          "name": "slot",
          "type": "bytes32"
        }
      ],
      "name": "UUPSUnsupportedProxiableUUID",
      "type": "error"
    },
    {
      "inputs": [],
      "name": "UpgradeNotAuthorized",
      "type": "error"
    },
    {
      "anonymous": false,
      "inputs": [
        {
          "indexed": false,
          "internalType": "uint64",
          "name": "version",
          "type": "uint64"
        }
      ],
      "name": "Initialized",
      "type": "event"
    },
    {
      "anonymous": false,
      "inputs": [
        {
          "indexed": true,
          "internalType": "uint256",
          "name": "operationId",
          "type": "uint256"
        },
        {
          "indexed": true,
          "internalType": "address",
          "name": "signer",
          "type": "address"
        }
      ],
      "name": "OperationConfirmed",
      "type": "event"
    },
    {
      "anonymous": false,
      "inputs": [
        {
          "indexed": true,
          "internalType": "uint256",
          "name": "operationId",
          "type": "uint256"
        }
      ],
      "name": "OperationExecuted",
      "type": "event"
    },
    {
      "anonymous": false,
      "inputs": [
        {
          "indexed": true,
          "internalType": "uint256",
          "name": "operationId",
          "type": "uint256"
        },
        {
          "indexed": true,
          "internalType": "address",
          "name": "signer",
          "type": "address"
        }
      ],
      "name": "OperationRevoked",
      "type": "event"
    },
    {
      "anonymous": false,
      "inputs": [
        {
          "indexed": true,
          "internalType": "uint256",
          "name": "operationId",
          "type": "uint256"
        },
        {
          "indexed": true,
          "internalType": "address",
          "name": "submitter",
          "type": "address"
        }
      ],
      "name": "OperationSubmitted",
      "type": "event"
    },
    {
      "anonymous": false,
      "inputs": [
        {
          "indexed": false,
          "internalType": "uint256",
          "name": "oldRequired",
          "type": "uint256"
        },
        {
          "indexed": false,
          "internalType": "uint256",
          "name": "newRequired",
          "type": "uint256"
        }
      ],
      "name": "RequiredSignaturesUpdated",
      "type": "event"
    },
    {
      "anonymous": false,
      "inputs": [
        {
          "indexed": true,
          "internalType": "address",
          "name": "signer",
          "type": "address"
        }
      ],
      "name": "SignerAdded",
      "type": "event"
    },
    {
      "anonymous": false,
      "inputs": [
        {
          "indexed": true,
          "internalType": "address",
          "name": "signer",
          "type": "address"
        }
      ],
      "name": "SignerRemoved",
      "type": "event"
    },
    {
      "anonymous": false,
      "inputs": [
        {
          "indexed": true,
          "internalType": "uint256",
          "name": "operationId",
          "type": "uint256"
        },
        {
          "indexed": true,
          "internalType": "address",
          "name": "newImplementation",
          "type": "address"
        }
      ],
      "name": "UpgradeAuthorized",
      "type": "event"
    },
    {
      "anonymous": false,
      "inputs": [
        {
          "indexed": true,
          "internalType": "address",
          "name": "implementation",
          "type": "address"
        }
      ],
      "name": "Upgraded",
      "type": "event"
    },
    {
      "inputs": [],
      "name": "HIGH_VALUE_THRESHOLD",
      "outputs": [
        {
          "internalType": "uint256",
          "name": "",
          "type": "uint256"
        }
      ],
      "stateMutability": "view",
      "type": "function"
    },
    {
      "inputs": [],
      "name": "TIME_LOCK_DURATION",
      "outputs": [
        {
          "internalType": "uint256",
          "name": "",
          "type": "uint256"
        }
      ],
      "stateMutability": "view",
      "type": "function"
    },
    {
      "inputs": [],
      "name": "UPGRADE_INTERFACE_VERSION",
      "outputs": [
        {
          "internalType": "string",
          "name": "",
          "type": "string"
        }
      ],
      "stateMutability": "view",
      "type": "function"
    },
    {
      "inputs": [
        {
          "internalType": "address",
          "name": "signer",
          "type": "address"
        }
      ],
      "name": "addSigner",
      "outputs": [],
      "stateMutability": "nonpayable",
      "type": "function"
    },
    {
      "inputs": [
        {
          "internalType": "uint256",
          "name": "operationId",
          "type": "uint256"
        }
      ],
      "name": "confirmOperation",
      "outputs": [],
      "stateMutability": "nonpayable",
      "type": "function"
    },
    {
      "inputs": [
        {
          "internalType": "uint256",
          "name": "operationId",
          "type": "uint256"
        }
      ],
      "name": "executeOperation",
      "outputs": [],
      "stateMutability": "nonpayable",
      "type": "function"
    },
    {
      "inputs": [
        {
          "internalType": "uint256",
          "name": "operationId",
          "type": "uint256"
        }
      ],
      "name": "getOperation",
      "outputs": [
        {
          "internalType": "address",
          "name": "target",
          "type": "address"
        },
        {
          "internalType": "bytes",
          "name": "data",
          "type": "bytes"
        },
        {
          "internalType": "uint256",
          "name": "value",
          "type": "uint256"
        },
        {
          "internalType": "uint256",
          "name": "confirmations",
          "type": "uint256"
        },
        {
          "internalType": "bool",
          "name": "executed",
          "type": "bool"
        },
        {
          "internalType": "uint256",
          "name": "timestamp",
          "type": "uint256"
        }
      ],
      "stateMutability": "view",
      "type": "function"
    },
    {
      "inputs": [],
      "name": "getSigners",
      "outputs": [
        {
          "internalType": "address[]",
          "name": "",
          "type": "address[]"
        }
      ],
      "stateMutability": "view",
      "type": "function"
    },
    {
      "inputs": [
        {
          "internalType": "uint256",
          "name": "operationId",
          "type": "uint256"
        },
        {
          "internalType": "address",
          "name": "signer",
          "type": "address"
        }
      ],
      "name": "hasConfirmed",
      "outputs": [
        {
          "internalType": "bool",
          "name": "",
          "type": "bool"
        }
      ],
      "stateMutability": "view",
      "type": "function"
    },
    {
      "inputs": [
        {
          "internalType": "address[]",
          "name": "_signers",
          "type": "address[]"
        },
        {
          "internalType": "uint256",
          "name": "_requiredSignatures",
          "type": "uint256"
        }
      ],
      "name": "initialize",
      "outputs": [],
      "stateMutability": "nonpayable",
      "type": "function"
    },
    {
      "inputs": [
        {
          "internalType": "address",
          "name": "",
          "type": "address"
        }
      ],
      "name": "isSigner",
      "outputs": [
        {
          "internalType": "bool",
          "name": "",
          "type": "bool"
        }
      ],
      "stateMutability": "view",
      "type": "function"
    },
    {
      "inputs": [],
      "name": "operationCount",
      "outputs": [
        {
          "internalType": "uint256",
          "name": "",
          "type": "uint256"
        }
      ],
      "stateMutability": "view",
      "type": "function"
    },
    {
      "inputs": [
        {
          "internalType": "uint256",
          "name": "",
          "type": "uint256"
        }
      ],
      "name": "operations",
      "outputs": [
        {
          "internalType": "address",
          "name": "target",
          "type": "address"
        },
        {
          "internalType": "bytes",
          "name": "data",
          "type": "bytes"
        },
        {
          "internalType": "uint256",
          "name": "value",
          "type": "uint256"
        },
        {
          "internalType": "uint256",
          "name": "confirmations",
          "type": "uint256"
        },
        {
          "internalType": "bool",
          "name": "executed",
          "type": "bool"
        },
        {
          "internalType": "uint256",
          "name": "timestamp",
          "type": "uint256"
        }
      ],
      "stateMutability": "view",
      "type": "function"
    },
    {
      "inputs": [],
      "name": "proxiableUUID",
      "outputs": [
        {
          "internalType": "bytes32",
          "name": "",
          "type": "bytes32"
        }
      ],
      "stateMutability": "view",
      "type": "function"
    },
    {
      "inputs": [
        {
          "internalType": "address",
          "name": "signer",
          "type": "address"
        }
      ],
      "name": "removeSigner",
      "outputs": [],
      "stateMutability": "nonpayable",
      "type": "function"
    },
    {
      "inputs": [],
      "name": "requiredSignatures",
      "outputs": [
        {
          "internalType": "uint256",
          "name": "",
          "type": "uint256"
        }
      ],
      "stateMutability": "view",
      "type": "function"
    },
    {
      "inputs": [
        {
          "internalType": "bytes",
          "name": "data",
          "type": "bytes"
        }
      ],
      "name": "requiresTimeLock",
      "outputs": [
        {
          "internalType": "bool",
          "name": "",
          "type": "bool"
        }
      ],
      "stateMutability": "pure",
      "type": "function"
    },
    {
      "inputs": [
        {
          "internalType": "uint256",
          "name": "operationId",
          "type": "uint256"
        }
      ],
      "name": "revokeConfirmation",
      "outputs": [],
      "stateMutability": "nonpayable",
      "type": "function"
    },
    {
      "inputs": [
        {
          "internalType": "uint256",
          "name": "",
          "type": "uint256"
        }
      ],
      "name": "signers",
      "outputs": [
        {
          "internalType": "address",
          "name": "",
          "type": "address"
        }
      ],
      "stateMutability": "view",
      "type": "function"
    },
    {
      "inputs": [
        {
          "internalType": "address",
          "name": "target",
          "type": "address"
        },
        {
          "internalType": "bytes",
          "name": "data",
          "type": "bytes"
        },
        {
          "internalType": "uint256",
          "name": "value",
          "type": "uint256"
        }
      ],
      "name": "submitOperation",
      "outputs": [
        {
          "internalType": "uint256",
          "name": "operationId",
          "type": "uint256"
        }
      ],
      "stateMutability": "nonpayable",
      "type": "function"
    },
    {
      "inputs": [
        {
          "internalType": "address",
          "name": "newImplementation",
          "type": "address"
        }
      ],
      "name": "submitUpgradeOperation",
      "outputs": [
        {
          "internalType": "uint256",
          "name": "operationId",
          "type": "uint256"
        }
      ],
      "stateMutability": "nonpayable",
      "type": "function"
    },
    {
      "inputs": [
        {
          "internalType": "uint256",
          "name": "newRequiredSignatures",
          "type": "uint256"
        }
      ],
      "name": "updateRequiredSignatures",
      "outputs": [],
      "stateMutability": "nonpayable",
      "type": "function"
    },
    {
      "inputs": [
        {
          "internalType": "address",
          "name": "newImplementation",
          "type": "address"
        },
        {
          "internalType": "bytes",
          "name": "data",
          "type": "bytes"
        }
      ],
      "name": "upgradeToAndCall",
      "outputs": [],
      "stateMutability": "payable",
      "type": "function"
    },
    {
      "inputs": [],
      "name": "version",
      "outputs": [
        {
          "internalType": "string",
          "name": "",
          "type": "string"
        }
      ],
      "stateMutability": "pure",
      "type": "function"
    }
  ],
  "bytecode": "0x60a06040523060805234801561001457600080fd5b5061001d610022565b6100d4565b7ff0c57e16840df040f15088dc2f81fe391c3923bec73e23a9662efc9c229c6a00805468010000000000000000900460ff16156100725760405163f92ee8a960e01b815260040160405180910390fd5b80546001600160401b03908116146100d15780546001600160401b0319166001600160401b0390811782556040519081527fc7f505b2f371ae2175ee4913f4499e1f2633a7b5936321eed1cdaeb6115181d29060200160405180910390a15b50565b60805161215f6100fd600039600081816115ff0152818161162801526117cb015261215f6000f3fe60806040526004361061014b5760003560e01c806354fd4d50116100b6578063ad3cb1cc1161006f578063ad3cb1cc146103d3578063b2e9949d14610404578063ca7b64bb14610424578063eb12d61e14610442578063f5bc44ca14610462578063fc4ce3621461048257600080fd5b806354fd4d50146102fd57806360b5bb3f146103345780637df73e271461035457806380687781146103845780638d0680431461039b57806394cf795e146103b157600080fd5b806320ea8d861161010857806320ea8d861461025157806323d3c142146102715780633179d5aa146102955780634e577161146102b55780634f1ef286146102d557806352d1902d146102e857600080fd5b806308aff933146101505780630d60432e146101855780630e316ab7146101a75780630e70306d146101c7578063202e3924146101e75780632079fb9a14610219575b600080fd5b34801561015c57600080fd5b5061017061016b366004611a66565b6104a2565b60405190151581526020015b60405180910390f35b34801561019157600080fd5b506101a56101a0366004611a92565b610500565b005b3480156101b357600080fd5b506101a56101c2366004611aab565b610590565b3480156101d357600080fd5b506101a56101e2366004611a92565b61078b565b3480156101f357600080fd5b50610207610202366004611a92565b610820565b60405161017c96959493929190611b16565b34801561022557600080fd5b50610239610234366004611a92565b610931565b6040516001600160a01b03909116815260200161017c565b34801561025d57600080fd5b506101a561026c366004611a92565b61095b565b34801561027d57600080fd5b5061028760045481565b60405190815260200161017c565b3480156102a157600080fd5b506101706102b0366004611c16565b610a82565b3480156102c157600080fd5b506102876102d0366004611aab565b610b01565b6101a56102e3366004611c53565b610be9565b3480156102f457600080fd5b50610287610c08565b34801561030957600080fd5b506040805180820190915260058152640312e302e360dc1b60208201525b60405161017c9190611ca1565b34801561034057600080fd5b506101a561034f366004611cb4565b610c25565b34801561036057600080fd5b5061017061036f366004611aab565b60016020526000908152604090205460ff1681565b34801561039057600080fd5b506102876201518081565b3480156103a757600080fd5b5061028760025481565b3480156103bd57600080fd5b506103c6610ec4565b60405161017c9190611d70565b3480156103df57600080fd5b50610327604051806040016040528060058152602001640352e302e360dc1b81525081565b34801561041057600080fd5b5061020761041f366004611a92565b610f26565b34801561043057600080fd5b5061028769d3c21bcecceda100000081565b34801561044e57600080fd5b506101a561045d366004611aab565b610ff4565b34801561046e57600080fd5b5061028761047d366004611dbc565b6110d8565b34801561048e57600080fd5b506101a561049d366004611a92565b6111a1565b60008260045481106104cf5760405162461bcd60e51b81526004016104c690611e14565b60405180910390fd5b505060009182526003602090815260408084206001600160a01b039390931684526006909201905290205460ff1690565b33301461051f5760405162461bcd60e51b81526004016104c690611e4b565b80158061052d575060005481115b1561054b5760405163719feac760e01b815260040160405180910390fd5b600280549082905560408051828152602081018490527fe10a705edb4af55d916591ab3ae6d73d13195159890a14a90b10ae1117f9ea37910160405180910390a15050565b3330146105af5760405162461bcd60e51b81526004016104c690611e4b565b6002546000546105c190600190611e96565b10156106075760405162461bcd60e51b8152602060048201526015602482015274576f756c6420627265616b206d756c74692d73696760581b60448201526064016104c6565b6001600160a01b03811660009081526001602052604090205460ff166106405760405163da0357f760e01b815260040160405180910390fd5b6001600160a01b0381166000908152600160205260408120805460ff191690555b60005481101561075357816001600160a01b03166000828154811061068857610688611ea9565b6000918252602090912001546001600160a01b03160361074b57600080546106b290600190611e96565b815481106106c2576106c2611ea9565b600091825260208220015481546001600160a01b039091169190839081106106ec576106ec611ea9565b6000918252602082200180546001600160a01b0319166001600160a01b03939093169290921790915580548061072457610724611ebf565b600082815260209020810160001990810180546001600160a01b0319169055019055610753565b600101610661565b506040516001600160a01b038216907f3525e22824a8a7df2c9a6029941c824cf95b6447f1e13d5128fd3826d35afe8b90600090a250565b3360009081526001602052604090205460ff166107bb5760405163da0357f760e01b815260040160405180910390fd5b8060045481106107dd5760405162461bcd60e51b81526004016104c690611e14565b600082815260036020526040902060040154829060ff161561081257604051632e108c6960e21b815260040160405180910390fd5b61081b836112e2565b505050565b6000606060008060008086600454811061084c5760405162461bcd60e51b81526004016104c690611e14565b600088815260036020819052604090912080546002820154928201546004830154600584015460018501805495966001600160a01b03909516959094939260ff169190859061089a90611ed5565b80601f01602080910402602001604051908101604052809291908181526020018280546108c690611ed5565b80156109135780601f106108e857610100808354040283529160200191610913565b820191906000526020600020905b8154815290600101906020018083116108f657829003601f168201915b50505050509450975097509750975097509750505091939550919395565b6000818154811061094157600080fd5b6000918252602090912001546001600160a01b0316905081565b3360009081526001602052604090205460ff1661098b5760405163da0357f760e01b815260040160405180910390fd5b8060045481106109ad5760405162461bcd60e51b81526004016104c690611e14565b600082815260036020526040902060040154829060ff16156109e257604051632e108c6960e21b815260040160405180910390fd5b6000838152600360209081526040808320338452600681019092529091205460ff16610a2157604051637238834d60e11b815260040160405180910390fd5b3360009081526006820160205260408120805460ff1916905560038201805491610a4a83611f0f565b9091555050604051339085907f648f594408894fb5f78bb9ffc3fd6fe4562302666b063288188377f94613fc8f90600090a350505050565b6000600482511015610a9657506000919050565b60208201516001600160e01b031981166323b872dd60e01b1480610aca57506001600160e01b0319811663295102ff60e21b145b15610af857606483511015610ae25750600092915050565b50506064015169d3c21bcecceda1000000111590565b50600092915050565b3360009081526001602052604081205460ff16610b315760405163da0357f760e01b815260040160405180910390fd5b6001600160a01b038216610b805760405162461bcd60e51b815260206004820152601660248201527524b73b30b634b21034b6b83632b6b2b73a30ba34b7b760511b60448201526064016104c6565b604080516001600160a01b038416602482015260448101919091526000606482018190529060840160408051601f198184030181529190526020810180516001600160e01b031663278f794360e11b1790529050610be0308260006110d8565b9150505b919050565b610bf16115f4565b610bfa8261169b565b610c048282611703565b5050565b6000610c126117c0565b5060008051602061210a83398151915290565b6000610c2f611809565b805490915060ff600160401b820416159067ffffffffffffffff16600081158015610c575750825b905060008267ffffffffffffffff166001148015610c745750303b155b905081158015610c82575080155b15610ca05760405163f92ee8a960e01b815260040160405180910390fd5b845467ffffffffffffffff191660011785558315610cca57845460ff60401b1916600160401b1785555b610cd2611834565b8587511080610cdf575085155b15610cfd5760405163719feac760e01b815260040160405180910390fd5b60005b8751811015610e6f576000888281518110610d1d57610d1d611ea9565b6020026020010151905060006001600160a01b0316816001600160a01b031603610d825760405162461bcd60e51b8152602060048201526016602482015275496e76616c6964207369676e6572206164647265737360501b60448201526064016104c6565b6001600160a01b03811660009081526001602052604090205460ff1615610dde5760405162461bcd60e51b815260206004820152601060248201526f223ab83634b1b0ba329039b4b3b732b960811b60448201526064016104c6565b6001600160a01b0381166000818152600160208190526040808320805460ff191683179055825491820183558280527f290decd9548b62a8d60345a988386fc84ba6bc95484008f6362f93160ef3e56390910180546001600160a01b03191684179055517f47d1c22a25bb3a5d4e481b9b1e6944c2eade3181a0a20b495ed61d35b5323f249190a250600101610d00565b5060028690558315610ebb57845460ff60401b19168555604051600181527fc7f505b2f371ae2175ee4913f4499e1f2633a7b5936321eed1cdaeb6115181d29060200160405180910390a15b50505050505050565b60606000805480602002602001604051908101604052809291908181526020018280548015610f1c57602002820191906000526020600020905b81546001600160a01b03168152600190910190602001808311610efe575b5050505050905090565b600360205260009081526040902080546001820180546001600160a01b039092169291610f5290611ed5565b80601f0160208091040260200160405190810160405280929190818152602001828054610f7e90611ed5565b8015610fcb5780601f10610fa057610100808354040283529160200191610fcb565b820191906000526020600020905b815481529060010190602001808311610fae57829003601f168201915b5050506002840154600385015460048601546005909601549495919490935060ff909116915086565b3330146110135760405162461bcd60e51b81526004016104c690611e4b565b6001600160a01b03811660009081526001602052604090205460ff161561104d57604051631985f4ab60e31b815260040160405180910390fd5b6001600160a01b0381166000818152600160208190526040808320805460ff191683179055825491820183558280527f290decd9548b62a8d60345a988386fc84ba6bc95484008f6362f93160ef3e56390910180546001600160a01b03191684179055517f47d1c22a25bb3a5d4e481b9b1e6944c2eade3181a0a20b495ed61d35b5323f249190a250565b3360009081526001602052604081205460ff166111085760405163da0357f760e01b815260040160405180910390fd5b6004805490600061111883611f26565b90915550600081815260036020526040902080546001600160a01b0319166001600160a01b038716178155909150600181016111548582611f8d565b5060028101839055426005820155604051339083907fd33d2f11d187f3944f69d46c62046264a6e0e07aa0821108fddcb637c26b956090600090a3611198826111a1565b505b9392505050565b3360009081526001602052604090205460ff166111d15760405163da0357f760e01b815260040160405180910390fd5b8060045481106111f35760405162461bcd60e51b81526004016104c690611e14565b600082815260036020526040902060040154829060ff161561122857604051632e108c6960e21b815260040160405180910390fd5b6000838152600360209081526040808320338452600681019092529091205460ff161561126857604051635f8a9c0b60e01b815260040160405180910390fd5b3360009081526006820160205260408120805460ff191660011790556003820180549161129483611f26565b9091555050604051339085907f49b95ce38883cadd696f6aba877a58458fccb95b815ab048952aa16904118c5d90600090a36002548160030154106112dc576112dc846112e2565b50505050565b600081815260036020526040812090805b6000548110156113585782600601600080838154811061131557611315611ea9565b60009182526020808320909101546001600160a01b0316835282019290925260400190205460ff1615611350578161134c81611f26565b9250505b6001016112f3565b5060025481101561137c5760405163e16db4b360e01b815260040160405180910390fd5b61141182600101805461138e90611ed5565b80601f01602080910402602001604051908101604052809291908181526020018280546113ba90611ed5565b80156114075780601f106113dc57610100808354040283529160200191611407565b820191906000526020600020905b8154815290600101906020018083116113ea57829003601f168201915b5050505050610a82565b1561144957620151808260050154611429919061204c565b4210156114495760405163191f4d1b60e31b815260040160405180910390fd5b60048201805460ff191660011790558154306001600160a01b03919091160361153157600082600101805461147d90611ed5565b80601f01602080910402602001604051908101604052809291908181526020018280546114a990611ed5565b80156114f65780601f106114cb576101008083540402835291602001916114f6565b820191906000526020600020905b8154815290600101906020018083116114d957829003601f168201915b505050506020820151919250506001600160e01b0319811663587086bd60e11b0161152e576005805460ff1916600117905560068590555b50505b8154600283015460405160009283926001600160a01b039091169161155a90600188019061205f565b60006040518083038185875af1925050503d8060008114611597576040519150601f19603f3d011682016040523d82523d6000602084013e61159c565b606091505b50915091508181906115c15760405162461bcd60e51b81526004016104c69190611ca1565b5060405185907f0e71fde518036742a4c067068719d7f9e26519ea3aef1213ae9098439bbb38de90600090a25050505050565b306001600160a01b037f000000000000000000000000000000000000000000000000000000000000000016148061167b57507f00000000000000000000000000000000000000000000000000000000000000006001600160a01b031661166f60008051602061210a833981519152546001600160a01b031690565b6001600160a01b031614155b156116995760405163703e46dd60e11b815260040160405180910390fd5b565b60055460ff166116be5760405163c8ab00cf60e01b815260040160405180910390fd5b6005805460ff191690556006546040516001600160a01b03831691907f7200e04803c8d7c99e7196e8e66f49d7ab09dbd6d55e6c1da2207bbfec20bea190600090a350565b816001600160a01b03166352d1902d6040518163ffffffff1660e01b8152600401602060405180830381865afa92505050801561175d575060408051601f3d908101601f1916820190925261175a918101906120d4565b60015b61178557604051634c9c8ce360e01b81526001600160a01b03831660048201526024016104c6565b60008051602061210a83398151915281146117b657604051632a87526960e21b8152600481018290526024016104c6565b61081b838361183c565b306001600160a01b037f000000000000000000000000000000000000000000000000000000000000000016146116995760405163703e46dd60e11b815260040160405180910390fd5b6000807ff0c57e16840df040f15088dc2f81fe391c3923bec73e23a9662efc9c229c6a005b92915050565b611699611892565b611845826118b7565b6040516001600160a01b038316907fbc7cd75a20ee27fd9adebab32041f755214dbc6bffa90cc0225b39da2e5c2d3b90600090a280511561188a5761081b828261191c565b610c04611992565b61189a6119b1565b61169957604051631afcd79f60e31b815260040160405180910390fd5b806001600160a01b03163b6000036118ed57604051634c9c8ce360e01b81526001600160a01b03821660048201526024016104c6565b60008051602061210a83398151915280546001600160a01b0319166001600160a01b0392909216919091179055565b6060600080846001600160a01b03168460405161193991906120ed565b600060405180830381855af49150503d8060008114611974576040519150601f19603f3d011682016040523d82523d6000602084013e611979565b606091505b50915091506119898583836119cb565b95945050505050565b34156116995760405163b398979f60e01b815260040160405180910390fd5b60006119bb611809565b54600160401b900460ff16919050565b6060826119e0576119db82611a27565b61119a565b81511580156119f757506001600160a01b0384163b155b15611a2057604051639996b31560e01b81526001600160a01b03851660048201526024016104c6565b508061119a565b805115611a3657805160208201fd5b60405163d6bda27560e01b815260040160405180910390fd5b80356001600160a01b0381168114610be457600080fd5b60008060408385031215611a7957600080fd5b82359150611a8960208401611a4f565b90509250929050565b600060208284031215611aa457600080fd5b5035919050565b600060208284031215611abd57600080fd5b61119a82611a4f565b60005b83811015611ae1578181015183820152602001611ac9565b50506000910152565b60008151808452611b02816020860160208601611ac6565b601f01601f19169290920160200192915050565b6001600160a01b038716815260c060208201819052600090611b3a90830188611aea565b6040830196909652506060810193909352901515608083015260a09091015292915050565b634e487b7160e01b600052604160045260246000fd5b604051601f8201601f1916810167ffffffffffffffff81118282101715611b9e57611b9e611b5f565b604052919050565b600082601f830112611bb757600080fd5b813567ffffffffffffffff811115611bd157611bd1611b5f565b611be4601f8201601f1916602001611b75565b818152846020838601011115611bf957600080fd5b816020850160208301376000918101602001919091529392505050565b600060208284031215611c2857600080fd5b813567ffffffffffffffff811115611c3f57600080fd5b611c4b84828501611ba6565b949350505050565b60008060408385031215611c6657600080fd5b611c6f83611a4f565b9150602083013567ffffffffffffffff811115611c8b57600080fd5b611c9785828601611ba6565b9150509250929050565b60208152600061119a6020830184611aea565b60008060408385031215611cc757600080fd5b823567ffffffffffffffff811115611cde57600080fd5b8301601f81018513611cef57600080fd5b803567ffffffffffffffff811115611d0957611d09611b5f565b8060051b611d1960208201611b75565b91825260208184018101929081019088841115611d3557600080fd5b6020850194505b83851015611d5e57611d4d85611a4f565b825260209485019490910190611d3c565b98602097909701359750505050505050565b602080825282518282018190526000918401906040840190835b81811015611db15783516001600160a01b0316835260209384019390920191600101611d8a565b509095945050505050565b600080600060608486031215611dd157600080fd5b611dda84611a4f565b9250602084013567ffffffffffffffff811115611df657600080fd5b611e0286828701611ba6565b93969395505050506040919091013590565b60208082526018908201527f4f7065726174696f6e20646f6573206e6f742065786973740000000000000000604082015260600190565b6020808252818101527f4d7573742062652063616c6c6564207468726f756768206d756c74692d736967604082015260600190565b634e487b7160e01b600052601160045260246000fd5b8181038181111561182e5761182e611e80565b634e487b7160e01b600052603260045260246000fd5b634e487b7160e01b600052603160045260246000fd5b600181811c90821680611ee957607f821691505b602082108103611f0957634e487b7160e01b600052602260045260246000fd5b50919050565b600081611f1e57611f1e611e80565b506000190190565b600060018201611f3857611f38611e80565b5060010190565b601f82111561081b57806000526020600020601f840160051c81016020851015611f665750805b601f840160051c820191505b81811015611f865760008155600101611f72565b5050505050565b815167ffffffffffffffff811115611fa757611fa7611b5f565b611fbb81611fb58454611ed5565b84611f3f565b6020601f821160018114611fef5760008315611fd75750848201515b600019600385901b1c1916600184901b178455611f86565b600084815260208120601f198516915b8281101561201f5787850151825560209485019460019092019101611fff565b508482101561203d5786840151600019600387901b60f8161c191681555b50505050600190811b01905550565b8082018082111561182e5761182e611e80565b600080835461206d81611ed5565b6001821680156120845760018114612099576120c9565b60ff19831686528115158202860193506120c9565b86600052602060002060005b838110156120c1578154888201526001909101906020016120a5565b505081860193505b509195945050505050565b6000602082840312156120e657600080fd5b5051919050565b600082516120ff818460208701611ac6565b919091019291505056fe360894a13ba1a3210667c828492db98dca3e2076cc3735a920a3ca505d382bbca2646970667358221220d3f19dfde17ba433f1762acc6998ba400c9acf058e04c53e51f8e31549b39d4964736f6c634300081b0033",
  "linkReferences": {},
  "deployedLinkReferences": {}
}