{
  "_format": "hh-sol-artifact-1",
  "contractName": "RTAProxyUpgradeable",
  "sourceName": "contracts/upgradeable/RTAProxyUpgradeable.sol",
  "abi": [
    {
      "inputs": [],
      "stateMutability": "nonpayable",
      "type": "constructor"
    },
    {
      "inputs": [
        {
          "internalType": "address",
          "name": "target",
          "type": "address"
        }
      ],
      "name": "AddressEmptyCode",
      "type": "error"
    },
    {
      "inputs": [],
      "name": "AlreadyASigner",
      "type": "error"
    },
    {
      "inputs": [],
      "name": "AlreadyConfirmed",
      "type": "error"
    },
    {
      "inputs": [
        {
          "internalType": "address",
          "name": "implementation",
          "type": "address"
        }
      ],
      "name": "ERC1967InvalidImplementation",
      "type": "error"
    },
    {
      "inputs": [],
      "name": "ERC1967NonPayable",
      "type": "error"
    },
    {
      "inputs": [],
      "name": "FailedCall",
      "type": "error"
    },
    {
      "inputs": [],
      "name": "InsufficientConfirmations",
      "type": "error"
    },
    {
      "inputs": [],
      "name": "InvalidInitialization",
      "type": "error"
    },
    {
      "inputs": [],
      "name": "InvalidSignerCount",
      "type": "error"
    },
    {
      "inputs": [],
      "name": "NotASigner",
      "type": "error"
    },
    {
      "inputs": [],
      "name": "NotConfirmed",
      "type": "error"
    },
    {
      "inputs": [],
      "name": "NotInitializing",
      "type": "error"
    },
    {
      "inputs": [],
      "name": "OperationAlreadyExecuted",
      "type": "error"
    },
    {
      "inputs": [],
      "name": "TimeLockNotExpired",
      "type": "error"
    },
    {
      "inputs": [],
      "name": "UUPSUnauthorizedCallContext",
      "type": "error"
    },
    {
      "inputs": [
        {
          "internalType": "bytes32",
          "name": "slot",
          "type": "bytes32"
        }
      ],
      "name": "UUPSUnsupportedProxiableUUID",
      "type": "error"
    },
    {
      "inputs": [],
      "name": "UpgradeNotAuthorized",
      "type": "error"
    },
    {
      "anonymous": false,
      "inputs": [
        {
          "indexed": true,
          "internalType": "address",
          "name": "from",
          "type": "address"
        },
        {
          "indexed": false,
          "internalType": "uint256",
          "name": "amount",
          "type": "uint256"
        }
      ],
      "name": "ETHReceived",
      "type": "event"
    },
    {
      "anonymous": false,
      "inputs": [
        {
          "indexed": false,
          "internalType": "uint64",
          "name": "version",
          "type": "uint64"
        }
      ],
      "name": "Initialized",
      "type": "event"
    },
    {
      "anonymous": false,
      "inputs": [
        {
          "indexed": true,
          "internalType": "uint256",
          "name": "operationId",
          "type": "uint256"
        },
        {
          "indexed": true,
          "internalType": "address",
          "name": "signer",
          "type": "address"
        }
      ],
      "name": "OperationConfirmed",
      "type": "event"
    },
    {
      "anonymous": false,
      "inputs": [
        {
          "indexed": true,
          "internalType": "uint256",
          "name": "operationId",
          "type": "uint256"
        }
      ],
      "name": "OperationExecuted",
      "type": "event"
    },
    {
      "anonymous": false,
      "inputs": [
        {
          "indexed": true,
          "internalType": "uint256",
          "name": "operationId",
          "type": "uint256"
        },
        {
          "indexed": true,
          "internalType": "address",
          "name": "signer",
          "type": "address"
        }
      ],
      "name": "OperationRevoked",
      "type": "event"
    },
    {
      "anonymous": false,
      "inputs": [
        {
          "indexed": true,
          "internalType": "uint256",
          "name": "operationId",
          "type": "uint256"
        },
        {
          "indexed": true,
          "internalType": "address",
          "name": "submitter",
          "type": "address"
        }
      ],
      "name": "OperationSubmitted",
      "type": "event"
    },
    {
      "anonymous": false,
      "inputs": [
        {
          "indexed": false,
          "internalType": "uint256",
          "name": "oldRequired",
          "type": "uint256"
        },
        {
          "indexed": false,
          "internalType": "uint256",
          "name": "newRequired",
          "type": "uint256"
        }
      ],
      "name": "RequiredSignaturesUpdated",
      "type": "event"
    },
    {
      "anonymous": false,
      "inputs": [
        {
          "indexed": true,
          "internalType": "address",
          "name": "signer",
          "type": "address"
        }
      ],
      "name": "SignerAdded",
      "type": "event"
    },
    {
      "anonymous": false,
      "inputs": [
        {
          "indexed": true,
          "internalType": "address",
          "name": "signer",
          "type": "address"
        }
      ],
      "name": "SignerRemoved",
      "type": "event"
    },
    {
      "anonymous": false,
      "inputs": [
        {
          "indexed": true,
          "internalType": "uint256",
          "name": "operationId",
          "type": "uint256"
        },
        {
          "indexed": true,
          "internalType": "address",
          "name": "newImplementation",
          "type": "address"
        }
      ],
      "name": "UpgradeAuthorized",
      "type": "event"
    },
    {
      "anonymous": false,
      "inputs": [
        {
          "indexed": true,
          "internalType": "address",
          "name": "implementation",
          "type": "address"
        }
      ],
      "name": "Upgraded",
      "type": "event"
    },
    {
      "inputs": [],
      "name": "HIGH_VALUE_THRESHOLD",
      "outputs": [
        {
          "internalType": "uint256",
          "name": "",
          "type": "uint256"
        }
      ],
      "stateMutability": "view",
      "type": "function"
    },
    {
      "inputs": [],
      "name": "TIME_LOCK_DURATION",
      "outputs": [
        {
          "internalType": "uint256",
          "name": "",
          "type": "uint256"
        }
      ],
      "stateMutability": "view",
      "type": "function"
    },
    {
      "inputs": [],
      "name": "UPGRADE_INTERFACE_VERSION",
      "outputs": [
        {
          "internalType": "string",
          "name": "",
          "type": "string"
        }
      ],
      "stateMutability": "view",
      "type": "function"
    },
    {
      "inputs": [
        {
          "internalType": "address",
          "name": "signer",
          "type": "address"
        }
      ],
      "name": "addSigner",
      "outputs": [],
      "stateMutability": "nonpayable",
      "type": "function"
    },
    {
      "inputs": [
        {
          "internalType": "uint256",
          "name": "operationId",
          "type": "uint256"
        }
      ],
      "name": "confirmOperation",
      "outputs": [],
      "stateMutability": "nonpayable",
      "type": "function"
    },
    {
      "inputs": [
        {
          "internalType": "uint256",
          "name": "operationId",
          "type": "uint256"
        }
      ],
      "name": "executeOperation",
      "outputs": [],
      "stateMutability": "nonpayable",
      "type": "function"
    },
    {
      "inputs": [
        {
          "internalType": "uint256",
          "name": "operationId",
          "type": "uint256"
        }
      ],
      "name": "getOperation",
      "outputs": [
        {
          "internalType": "address",
          "name": "target",
          "type": "address"
        },
        {
          "internalType": "bytes",
          "name": "data",
          "type": "bytes"
        },
        {
          "internalType": "uint256",
          "name": "value",
          "type": "uint256"
        },
        {
          "internalType": "uint256",
          "name": "confirmations",
          "type": "uint256"
        },
        {
          "internalType": "bool",
          "name": "executed",
          "type": "bool"
        },
        {
          "internalType": "uint256",
          "name": "timestamp",
          "type": "uint256"
        }
      ],
      "stateMutability": "view",
      "type": "function"
    },
    {
      "inputs": [],
      "name": "getSigners",
      "outputs": [
        {
          "internalType": "address[]",
          "name": "",
          "type": "address[]"
        }
      ],
      "stateMutability": "view",
      "type": "function"
    },
    {
      "inputs": [
        {
          "internalType": "uint256",
          "name": "operationId",
          "type": "uint256"
        },
        {
          "internalType": "address",
          "name": "signer",
          "type": "address"
        }
      ],
      "name": "hasConfirmed",
      "outputs": [
        {
          "internalType": "bool",
          "name": "",
          "type": "bool"
        }
      ],
      "stateMutability": "view",
      "type": "function"
    },
    {
      "inputs": [
        {
          "internalType": "address[]",
          "name": "_signers",
          "type": "address[]"
        },
        {
          "internalType": "uint256",
          "name": "_requiredSignatures",
          "type": "uint256"
        }
      ],
      "name": "initialize",
      "outputs": [],
      "stateMutability": "nonpayable",
      "type": "function"
    },
    {
      "inputs": [
        {
          "internalType": "address",
          "name": "",
          "type": "address"
        }
      ],
      "name": "isSigner",
      "outputs": [
        {
          "internalType": "bool",
          "name": "",
          "type": "bool"
        }
      ],
      "stateMutability": "view",
      "type": "function"
    },
    {
      "inputs": [],
      "name": "operationCount",
      "outputs": [
        {
          "internalType": "uint256",
          "name": "",
          "type": "uint256"
        }
      ],
      "stateMutability": "view",
      "type": "function"
    },
    {
      "inputs": [
        {
          "internalType": "uint256",
          "name": "",
          "type": "uint256"
        }
      ],
      "name": "operations",
      "outputs": [
        {
          "internalType": "address",
          "name": "target",
          "type": "address"
        },
        {
          "internalType": "bytes",
          "name": "data",
          "type": "bytes"
        },
        {
          "internalType": "uint256",
          "name": "value",
          "type": "uint256"
        },
        {
          "internalType": "uint256",
          "name": "confirmations",
          "type": "uint256"
        },
        {
          "internalType": "bool",
          "name": "executed",
          "type": "bool"
        },
        {
          "internalType": "uint256",
          "name": "timestamp",
          "type": "uint256"
        }
      ],
      "stateMutability": "view",
      "type": "function"
    },
    {
      "inputs": [],
      "name": "proxiableUUID",
      "outputs": [
        {
          "internalType": "bytes32",
          "name": "",
          "type": "bytes32"
        }
      ],
      "stateMutability": "view",
      "type": "function"
    },
    {
      "inputs": [
        {
          "internalType": "address",
          "name": "signer",
          "type": "address"
        }
      ],
      "name": "removeSigner",
      "outputs": [],
      "stateMutability": "nonpayable",
      "type": "function"
    },
    {
      "inputs": [],
      "name": "requiredSignatures",
      "outputs": [
        {
          "internalType": "uint256",
          "name": "",
          "type": "uint256"
        }
      ],
      "stateMutability": "view",
      "type": "function"
    },
    {
      "inputs": [
        {
          "internalType": "bytes",
          "name": "data",
          "type": "bytes"
        }
      ],
      "name": "requiresTimeLock",
      "outputs": [
        {
          "internalType": "bool",
          "name": "",
          "type": "bool"
        }
      ],
      "stateMutability": "pure",
      "type": "function"
    },
    {
      "inputs": [
        {
          "internalType": "uint256",
          "name": "operationId",
          "type": "uint256"
        }
      ],
      "name": "revokeConfirmation",
      "outputs": [],
      "stateMutability": "nonpayable",
      "type": "function"
    },
    {
      "inputs": [
        {
          "internalType": "uint256",
          "name": "",
          "type": "uint256"
        }
      ],
      "name": "signers",
      "outputs": [
        {
          "internalType": "address",
          "name": "",
          "type": "address"
        }
      ],
      "stateMutability": "view",
      "type": "function"
    },
    {
      "inputs": [
        {
          "internalType": "address",
          "name": "target",
          "type": "address"
        },
        {
          "internalType": "bytes",
          "name": "data",
          "type": "bytes"
        },
        {
          "internalType": "uint256",
          "name": "value",
          "type": "uint256"
        }
      ],
      "name": "submitOperation",
      "outputs": [
        {
          "internalType": "uint256",
          "name": "operationId",
          "type": "uint256"
        }
      ],
      "stateMutability": "nonpayable",
      "type": "function"
    },
    {
      "inputs": [
        {
          "internalType": "address",
          "name": "newImplementation",
          "type": "address"
        }
      ],
      "name": "submitUpgradeOperation",
      "outputs": [
        {
          "internalType": "uint256",
          "name": "operationId",
          "type": "uint256"
        }
      ],
      "stateMutability": "nonpayable",
      "type": "function"
    },
    {
      "inputs": [
        {
          "internalType": "uint256",
          "name": "newRequiredSignatures",
          "type": "uint256"
        }
      ],
      "name": "updateRequiredSignatures",
      "outputs": [],
      "stateMutability": "nonpayable",
      "type": "function"
    },
    {
      "inputs": [
        {
          "internalType": "address",
          "name": "newImplementation",
          "type": "address"
        },
        {
          "internalType": "bytes",
          "name": "data",
          "type": "bytes"
        }
      ],
      "name": "upgradeToAndCall",
      "outputs": [],
      "stateMutability": "payable",
      "type": "function"
    },
    {
      "inputs": [],
      "name": "version",
      "outputs": [
        {
          "internalType": "string",
          "name": "",
          "type": "string"
        }
      ],
      "stateMutability": "pure",
      "type": "function"
    },
    {
      "stateMutability": "payable",
      "type": "receive"
    }
  ],
  "bytecode": "0x60a06040523060805234801561001457600080fd5b5061001d610022565b6100d4565b7ff0c57e16840df040f15088dc2f81fe391c3923bec73e23a9662efc9c229c6a00805468010000000000000000900460ff16156100725760405163f92ee8a960e01b815260040160405180910390fd5b80546001600160401b03908116146100d15780546001600160401b0319166001600160401b0390811782556040519081527fc7f505b2f371ae2175ee4913f4499e1f2633a7b5936321eed1cdaeb6115181d29060200160405180910390a15b50565b60805161219f6100fd6000396000818161163f01528181611668015261180b015261219f6000f3fe60806040526004361061014f5760003560e01c806354fd4d50116100b6578063ad3cb1cc1161006f578063ad3cb1cc14610413578063b2e9949d14610444578063ca7b64bb14610464578063eb12d61e14610482578063f5bc44ca146104a2578063fc4ce362146104c257600080fd5b806354fd4d501461033d57806360b5bb3f146103745780637df73e271461039457806380687781146103c45780638d068043146103db57806394cf795e146103f157600080fd5b806320ea8d861161010857806320ea8d861461029157806323d3c142146102b15780633179d5aa146102d55780634e577161146102f55780634f1ef2861461031557806352d1902d1461032857600080fd5b806308aff933146101905780630d60432e146101c55780630e316ab7146101e75780630e70306d14610207578063202e3924146102275780632079fb9a1461025957600080fd5b3661018b5760405134815233907fbfe611b001dfcd411432f7bf0d79b82b4b2ee81511edac123a3403c357fb972a9060200160405180910390a2005b600080fd5b34801561019c57600080fd5b506101b06101ab366004611aa6565b6104e2565b60405190151581526020015b60405180910390f35b3480156101d157600080fd5b506101e56101e0366004611ad2565b610540565b005b3480156101f357600080fd5b506101e5610202366004611aeb565b6105d0565b34801561021357600080fd5b506101e5610222366004611ad2565b6107cb565b34801561023357600080fd5b50610247610242366004611ad2565b610860565b6040516101bc96959493929190611b56565b34801561026557600080fd5b50610279610274366004611ad2565b610971565b6040516001600160a01b0390911681526020016101bc565b34801561029d57600080fd5b506101e56102ac366004611ad2565b61099b565b3480156102bd57600080fd5b506102c760045481565b6040519081526020016101bc565b3480156102e157600080fd5b506101b06102f0366004611c56565b610ac2565b34801561030157600080fd5b506102c7610310366004611aeb565b610b41565b6101e5610323366004611c93565b610c29565b34801561033457600080fd5b506102c7610c48565b34801561034957600080fd5b506040805180820190915260058152640312e302e360dc1b60208201525b6040516101bc9190611ce1565b34801561038057600080fd5b506101e561038f366004611cf4565b610c65565b3480156103a057600080fd5b506101b06103af366004611aeb565b60016020526000908152604090205460ff1681565b3480156103d057600080fd5b506102c76201518081565b3480156103e757600080fd5b506102c760025481565b3480156103fd57600080fd5b50610406610f04565b6040516101bc9190611db0565b34801561041f57600080fd5b50610367604051806040016040528060058152602001640352e302e360dc1b81525081565b34801561045057600080fd5b5061024761045f366004611ad2565b610f66565b34801561047057600080fd5b506102c769d3c21bcecceda100000081565b34801561048e57600080fd5b506101e561049d366004611aeb565b611034565b3480156104ae57600080fd5b506102c76104bd366004611dfc565b611118565b3480156104ce57600080fd5b506101e56104dd366004611ad2565b6111e1565b600082600454811061050f5760405162461bcd60e51b815260040161050690611e54565b60405180910390fd5b505060009182526003602090815260408084206001600160a01b039390931684526006909201905290205460ff1690565b33301461055f5760405162461bcd60e51b815260040161050690611e8b565b80158061056d575060005481115b1561058b5760405163719feac760e01b815260040160405180910390fd5b600280549082905560408051828152602081018490527fe10a705edb4af55d916591ab3ae6d73d13195159890a14a90b10ae1117f9ea37910160405180910390a15050565b3330146105ef5760405162461bcd60e51b815260040161050690611e8b565b60025460005461060190600190611ed6565b10156106475760405162461bcd60e51b8152602060048201526015602482015274576f756c6420627265616b206d756c74692d73696760581b6044820152606401610506565b6001600160a01b03811660009081526001602052604090205460ff166106805760405163da0357f760e01b815260040160405180910390fd5b6001600160a01b0381166000908152600160205260408120805460ff191690555b60005481101561079357816001600160a01b0316600082815481106106c8576106c8611ee9565b6000918252602090912001546001600160a01b03160361078b57600080546106f290600190611ed6565b8154811061070257610702611ee9565b600091825260208220015481546001600160a01b0390911691908390811061072c5761072c611ee9565b6000918252602082200180546001600160a01b0319166001600160a01b03939093169290921790915580548061076457610764611eff565b600082815260209020810160001990810180546001600160a01b0319169055019055610793565b6001016106a1565b506040516001600160a01b038216907f3525e22824a8a7df2c9a6029941c824cf95b6447f1e13d5128fd3826d35afe8b90600090a250565b3360009081526001602052604090205460ff166107fb5760405163da0357f760e01b815260040160405180910390fd5b80600454811061081d5760405162461bcd60e51b815260040161050690611e54565b600082815260036020526040902060040154829060ff161561085257604051632e108c6960e21b815260040160405180910390fd5b61085b83611322565b505050565b6000606060008060008086600454811061088c5760405162461bcd60e51b815260040161050690611e54565b600088815260036020819052604090912080546002820154928201546004830154600584015460018501805495966001600160a01b03909516959094939260ff16919085906108da90611f15565b80601f016020809104026020016040519081016040528092919081815260200182805461090690611f15565b80156109535780601f1061092857610100808354040283529160200191610953565b820191906000526020600020905b81548152906001019060200180831161093657829003601f168201915b50505050509450975097509750975097509750505091939550919395565b6000818154811061098157600080fd5b6000918252602090912001546001600160a01b0316905081565b3360009081526001602052604090205460ff166109cb5760405163da0357f760e01b815260040160405180910390fd5b8060045481106109ed5760405162461bcd60e51b815260040161050690611e54565b600082815260036020526040902060040154829060ff1615610a2257604051632e108c6960e21b815260040160405180910390fd5b6000838152600360209081526040808320338452600681019092529091205460ff16610a6157604051637238834d60e11b815260040160405180910390fd5b3360009081526006820160205260408120805460ff1916905560038201805491610a8a83611f4f565b9091555050604051339085907f648f594408894fb5f78bb9ffc3fd6fe4562302666b063288188377f94613fc8f90600090a350505050565b6000600482511015610ad657506000919050565b60208201516001600160e01b031981166323b872dd60e01b1480610b0a57506001600160e01b0319811663295102ff60e21b145b15610b3857606483511015610b225750600092915050565b50506064015169d3c21bcecceda1000000111590565b50600092915050565b3360009081526001602052604081205460ff16610b715760405163da0357f760e01b815260040160405180910390fd5b6001600160a01b038216610bc05760405162461bcd60e51b815260206004820152601660248201527524b73b30b634b21034b6b83632b6b2b73a30ba34b7b760511b6044820152606401610506565b604080516001600160a01b038416602482015260448101919091526000606482018190529060840160408051601f198184030181529190526020810180516001600160e01b031663278f794360e11b1790529050610c2030826000611118565b9150505b919050565b610c31611634565b610c3a826116db565b610c448282611743565b5050565b6000610c52611800565b5060008051602061214a83398151915290565b6000610c6f611849565b805490915060ff600160401b820416159067ffffffffffffffff16600081158015610c975750825b905060008267ffffffffffffffff166001148015610cb45750303b155b905081158015610cc2575080155b15610ce05760405163f92ee8a960e01b815260040160405180910390fd5b845467ffffffffffffffff191660011785558315610d0a57845460ff60401b1916600160401b1785555b610d12611874565b8587511080610d1f575085155b15610d3d5760405163719feac760e01b815260040160405180910390fd5b60005b8751811015610eaf576000888281518110610d5d57610d5d611ee9565b6020026020010151905060006001600160a01b0316816001600160a01b031603610dc25760405162461bcd60e51b8152602060048201526016602482015275496e76616c6964207369676e6572206164647265737360501b6044820152606401610506565b6001600160a01b03811660009081526001602052604090205460ff1615610e1e5760405162461bcd60e51b815260206004820152601060248201526f223ab83634b1b0ba329039b4b3b732b960811b6044820152606401610506565b6001600160a01b0381166000818152600160208190526040808320805460ff191683179055825491820183558280527f290decd9548b62a8d60345a988386fc84ba6bc95484008f6362f93160ef3e56390910180546001600160a01b03191684179055517f47d1c22a25bb3a5d4e481b9b1e6944c2eade3181a0a20b495ed61d35b5323f249190a250600101610d40565b5060028690558315610efb57845460ff60401b19168555604051600181527fc7f505b2f371ae2175ee4913f4499e1f2633a7b5936321eed1cdaeb6115181d29060200160405180910390a15b50505050505050565b60606000805480602002602001604051908101604052809291908181526020018280548015610f5c57602002820191906000526020600020905b81546001600160a01b03168152600190910190602001808311610f3e575b5050505050905090565b600360205260009081526040902080546001820180546001600160a01b039092169291610f9290611f15565b80601f0160208091040260200160405190810160405280929190818152602001828054610fbe90611f15565b801561100b5780601f10610fe05761010080835404028352916020019161100b565b820191906000526020600020905b815481529060010190602001808311610fee57829003601f168201915b5050506002840154600385015460048601546005909601549495919490935060ff909116915086565b3330146110535760405162461bcd60e51b815260040161050690611e8b565b6001600160a01b03811660009081526001602052604090205460ff161561108d57604051631985f4ab60e31b815260040160405180910390fd5b6001600160a01b0381166000818152600160208190526040808320805460ff191683179055825491820183558280527f290decd9548b62a8d60345a988386fc84ba6bc95484008f6362f93160ef3e56390910180546001600160a01b03191684179055517f47d1c22a25bb3a5d4e481b9b1e6944c2eade3181a0a20b495ed61d35b5323f249190a250565b3360009081526001602052604081205460ff166111485760405163da0357f760e01b815260040160405180910390fd5b6004805490600061115883611f66565b90915550600081815260036020526040902080546001600160a01b0319166001600160a01b038716178155909150600181016111948582611fcd565b5060028101839055426005820155604051339083907fd33d2f11d187f3944f69d46c62046264a6e0e07aa0821108fddcb637c26b956090600090a36111d8826111e1565b505b9392505050565b3360009081526001602052604090205460ff166112115760405163da0357f760e01b815260040160405180910390fd5b8060045481106112335760405162461bcd60e51b815260040161050690611e54565b600082815260036020526040902060040154829060ff161561126857604051632e108c6960e21b815260040160405180910390fd5b6000838152600360209081526040808320338452600681019092529091205460ff16156112a857604051635f8a9c0b60e01b815260040160405180910390fd5b3360009081526006820160205260408120805460ff19166001179055600382018054916112d483611f66565b9091555050604051339085907f49b95ce38883cadd696f6aba877a58458fccb95b815ab048952aa16904118c5d90600090a360025481600301541061131c5761131c84611322565b50505050565b600081815260036020526040812090805b6000548110156113985782600601600080838154811061135557611355611ee9565b60009182526020808320909101546001600160a01b0316835282019290925260400190205460ff1615611390578161138c81611f66565b9250505b600101611333565b506002548110156113bc5760405163e16db4b360e01b815260040160405180910390fd5b6114518260010180546113ce90611f15565b80601f01602080910402602001604051908101604052809291908181526020018280546113fa90611f15565b80156114475780601f1061141c57610100808354040283529160200191611447565b820191906000526020600020905b81548152906001019060200180831161142a57829003601f168201915b5050505050610ac2565b1561148957620151808260050154611469919061208c565b4210156114895760405163191f4d1b60e31b815260040160405180910390fd5b60048201805460ff191660011790558154306001600160a01b0391909116036115715760008260010180546114bd90611f15565b80601f01602080910402602001604051908101604052809291908181526020018280546114e990611f15565b80156115365780601f1061150b57610100808354040283529160200191611536565b820191906000526020600020905b81548152906001019060200180831161151957829003601f168201915b505050506020820151919250506001600160e01b0319811663587086bd60e11b0161156e576005805460ff1916600117905560068590555b50505b8154600283015460405160009283926001600160a01b039091169161159a90600188019061209f565b60006040518083038185875af1925050503d80600081146115d7576040519150601f19603f3d011682016040523d82523d6000602084013e6115dc565b606091505b50915091508181906116015760405162461bcd60e51b81526004016105069190611ce1565b5060405185907f0e71fde518036742a4c067068719d7f9e26519ea3aef1213ae9098439bbb38de90600090a25050505050565b306001600160a01b037f00000000000000000000000000000000000000000000000000000000000000001614806116bb57507f00000000000000000000000000000000000000000000000000000000000000006001600160a01b03166116af60008051602061214a833981519152546001600160a01b031690565b6001600160a01b031614155b156116d95760405163703e46dd60e11b815260040160405180910390fd5b565b60055460ff166116fe5760405163c8ab00cf60e01b815260040160405180910390fd5b6005805460ff191690556006546040516001600160a01b03831691907f7200e04803c8d7c99e7196e8e66f49d7ab09dbd6d55e6c1da2207bbfec20bea190600090a350565b816001600160a01b03166352d1902d6040518163ffffffff1660e01b8152600401602060405180830381865afa92505050801561179d575060408051601f3d908101601f1916820190925261179a91810190612114565b60015b6117c557604051634c9c8ce360e01b81526001600160a01b0383166004820152602401610506565b60008051602061214a83398151915281146117f657604051632a87526960e21b815260048101829052602401610506565b61085b838361187c565b306001600160a01b037f000000000000000000000000000000000000000000000000000000000000000016146116d95760405163703e46dd60e11b815260040160405180910390fd5b6000807ff0c57e16840df040f15088dc2f81fe391c3923bec73e23a9662efc9c229c6a005b92915050565b6116d96118d2565b611885826118f7565b6040516001600160a01b038316907fbc7cd75a20ee27fd9adebab32041f755214dbc6bffa90cc0225b39da2e5c2d3b90600090a28051156118ca5761085b828261195c565b610c446119d2565b6118da6119f1565b6116d957604051631afcd79f60e31b815260040160405180910390fd5b806001600160a01b03163b60000361192d57604051634c9c8ce360e01b81526001600160a01b0382166004820152602401610506565b60008051602061214a83398151915280546001600160a01b0319166001600160a01b0392909216919091179055565b6060600080846001600160a01b031684604051611979919061212d565b600060405180830381855af49150503d80600081146119b4576040519150601f19603f3d011682016040523d82523d6000602084013e6119b9565b606091505b50915091506119c9858383611a0b565b95945050505050565b34156116d95760405163b398979f60e01b815260040160405180910390fd5b60006119fb611849565b54600160401b900460ff16919050565b606082611a2057611a1b82611a67565b6111da565b8151158015611a3757506001600160a01b0384163b155b15611a6057604051639996b31560e01b81526001600160a01b0385166004820152602401610506565b50806111da565b805115611a7657805160208201fd5b60405163d6bda27560e01b815260040160405180910390fd5b80356001600160a01b0381168114610c2457600080fd5b60008060408385031215611ab957600080fd5b82359150611ac960208401611a8f565b90509250929050565b600060208284031215611ae457600080fd5b5035919050565b600060208284031215611afd57600080fd5b6111da82611a8f565b60005b83811015611b21578181015183820152602001611b09565b50506000910152565b60008151808452611b42816020860160208601611b06565b601f01601f19169290920160200192915050565b6001600160a01b038716815260c060208201819052600090611b7a90830188611b2a565b6040830196909652506060810193909352901515608083015260a09091015292915050565b634e487b7160e01b600052604160045260246000fd5b604051601f8201601f1916810167ffffffffffffffff81118282101715611bde57611bde611b9f565b604052919050565b600082601f830112611bf757600080fd5b813567ffffffffffffffff811115611c1157611c11611b9f565b611c24601f8201601f1916602001611bb5565b818152846020838601011115611c3957600080fd5b816020850160208301376000918101602001919091529392505050565b600060208284031215611c6857600080fd5b813567ffffffffffffffff811115611c7f57600080fd5b611c8b84828501611be6565b949350505050565b60008060408385031215611ca657600080fd5b611caf83611a8f565b9150602083013567ffffffffffffffff811115611ccb57600080fd5b611cd785828601611be6565b9150509250929050565b6020815260006111da6020830184611b2a565b60008060408385031215611d0757600080fd5b823567ffffffffffffffff811115611d1e57600080fd5b8301601f81018513611d2f57600080fd5b803567ffffffffffffffff811115611d4957611d49611b9f565b8060051b611d5960208201611bb5565b91825260208184018101929081019088841115611d7557600080fd5b6020850194505b83851015611d9e57611d8d85611a8f565b825260209485019490910190611d7c565b98602097909701359750505050505050565b602080825282518282018190526000918401906040840190835b81811015611df15783516001600160a01b0316835260209384019390920191600101611dca565b509095945050505050565b600080600060608486031215611e1157600080fd5b611e1a84611a8f565b9250602084013567ffffffffffffffff811115611e3657600080fd5b611e4286828701611be6565b93969395505050506040919091013590565b60208082526018908201527f4f7065726174696f6e20646f6573206e6f742065786973740000000000000000604082015260600190565b6020808252818101527f4d7573742062652063616c6c6564207468726f756768206d756c74692d736967604082015260600190565b634e487b7160e01b600052601160045260246000fd5b8181038181111561186e5761186e611ec0565b634e487b7160e01b600052603260045260246000fd5b634e487b7160e01b600052603160045260246000fd5b600181811c90821680611f2957607f821691505b602082108103611f4957634e487b7160e01b600052602260045260246000fd5b50919050565b600081611f5e57611f5e611ec0565b506000190190565b600060018201611f7857611f78611ec0565b5060010190565b601f82111561085b57806000526020600020601f840160051c81016020851015611fa65750805b601f840160051c820191505b81811015611fc65760008155600101611fb2565b5050505050565b815167ffffffffffffffff811115611fe757611fe7611b9f565b611ffb81611ff58454611f15565b84611f7f565b6020601f82116001811461202f57600083156120175750848201515b600019600385901b1c1916600184901b178455611fc6565b600084815260208120601f198516915b8281101561205f578785015182556020948501946001909201910161203f565b508482101561207d5786840151600019600387901b60f8161c191681555b50505050600190811b01905550565b8082018082111561186e5761186e611ec0565b60008083546120ad81611f15565b6001821680156120c457600181146120d957612109565b60ff1983168652811515820286019350612109565b86600052602060002060005b83811015612101578154888201526001909101906020016120e5565b505081860193505b509195945050505050565b60006020828403121561212657600080fd5b5051919050565b6000825161213f818460208701611b06565b919091019291505056fe360894a13ba1a3210667c828492db98dca3e2076cc3735a920a3ca505d382bbca264697066735822122000236053b4ec4f07a4d6df616806503d9ecd7aafa722c7fccf73493172e33fb164736f6c634300081b0033",
  "linkReferences": {},
  "deployedLinkReferences": {}
}